{
	"contracts/PriceConvertor.sol": {
		"PriceConvertor": {
			"abi": [
				{
					"inputs": [
						{
							"internalType": "uint256",
							"name": "ethAmount",
							"type": "uint256"
						}
					],
					"name": "conversion",
					"outputs": [
						{
							"internalType": "uint256",
							"name": "",
							"type": "uint256"
						}
					],
					"stateMutability": "view",
					"type": "function"
				},
				{
					"inputs": [],
					"name": "getPrice",
					"outputs": [
						{
							"internalType": "uint256",
							"name": "",
							"type": "uint256"
						}
					],
					"stateMutability": "view",
					"type": "function"
				},
				{
					"inputs": [],
					"name": "getVersion",
					"outputs": [
						{
							"internalType": "uint256",
							"name": "",
							"type": "uint256"
						}
					],
					"stateMutability": "view",
					"type": "function"
				}
			],
			"devdoc": {
				"kind": "dev",
				"methods": {},
				"version": 1
			},
			"evm": {
				"assembly": "    /* \"contracts/PriceConvertor.sol\":220:1164  library PriceConvertor{\r... */\n  dataSize(sub_0)\n  dataOffset(sub_0)\n  0x0b\n  dup3\n  dup3\n  dup3\n  codecopy\n  dup1\n  mload\n  0x00\n  byte\n  0x73\n  eq\n  tag_1\n  jumpi\n  mstore(0x00, 0x4e487b7100000000000000000000000000000000000000000000000000000000)\n  mstore(0x04, 0x00)\n  revert(0x00, 0x24)\ntag_1:\n  mstore(0x00, address)\n  0x73\n  dup2\n  mstore8\n  dup3\n  dup2\n  return\nstop\n\nsub_0: assembly {\n        /* \"contracts/PriceConvertor.sol\":220:1164  library PriceConvertor{\r... */\n      eq(address, deployTimeAddress())\n      mstore(0x40, 0x80)\n      jumpi(tag_1, lt(calldatasize, 0x04))\n      shr(0xe0, calldataload(0x00))\n      dup1\n      0x0d8e6e2c\n      eq\n      tag_2\n      jumpi\n      dup1\n      0x98d5fdca\n      eq\n      tag_3\n      jumpi\n      dup1\n      0xba4d0c99\n      eq\n      tag_4\n      jumpi\n    tag_1:\n      0x00\n      dup1\n      revert\n        /* \"contracts/PriceConvertor.sol\":634:841  function getVersion() public view returns(uint256){\r... */\n    tag_2:\n      tag_5\n      tag_6\n      jump\t// in\n    tag_5:\n      mload(0x40)\n      tag_7\n      swap2\n      swap1\n      tag_8\n      jump\t// in\n    tag_7:\n      mload(0x40)\n      dup1\n      swap2\n      sub\n      swap1\n      return\n        /* \"contracts/PriceConvertor.sol\":251:625  function getPrice() public view returns(uint256){\r... */\n    tag_3:\n      tag_9\n      tag_10\n      jump\t// in\n    tag_9:\n      mload(0x40)\n      tag_11\n      swap2\n      swap1\n      tag_8\n      jump\t// in\n    tag_11:\n      mload(0x40)\n      dup1\n      swap2\n      sub\n      swap1\n      return\n        /* \"contracts/PriceConvertor.sol\":849:1161  function conversion(uint256 ethAmount) public view returns(uint256){\r... */\n    tag_4:\n      tag_12\n      0x04\n      dup1\n      calldatasize\n      sub\n      dup2\n      add\n      swap1\n      tag_13\n      swap2\n      swap1\n      tag_14\n      jump\t// in\n    tag_13:\n      tag_15\n      jump\t// in\n    tag_12:\n      mload(0x40)\n      tag_16\n      swap2\n      swap1\n      tag_8\n      jump\t// in\n    tag_16:\n      mload(0x40)\n      dup1\n      swap2\n      sub\n      swap1\n      return\n        /* \"contracts/PriceConvertor.sol\":634:841  function getVersion() public view returns(uint256){\r... */\n    tag_6:\n        /* \"contracts/PriceConvertor.sol\":676:683  uint256 */\n      0x00\n        /* \"contracts/PriceConvertor.sol\":697:728  AggregatorV3Interface priceFeed */\n      dup1\n        /* \"contracts/PriceConvertor.sol\":753:795  0x9326BFA02ADD2366b30bacB125260Af641031331 */\n      0x9326bfa02add2366b30bacb125260af641031331\n        /* \"contracts/PriceConvertor.sol\":697:796  AggregatorV3Interface priceFeed = AggregatorV3Interface(0x9326BFA02ADD2366b30bacB125260Af641031331) */\n      swap1\n      pop\n        /* \"contracts/PriceConvertor.sol\":814:823  priceFeed */\n      dup1\n        /* \"contracts/PriceConvertor.sol\":814:831  priceFeed.version */\n      0xffffffffffffffffffffffffffffffffffffffff\n      and\n      0x54fd4d50\n        /* \"contracts/PriceConvertor.sol\":814:833  priceFeed.version() */\n      mload(0x40)\n      dup2\n      0xffffffff\n      and\n      0xe0\n      shl\n      dup2\n      mstore\n      0x04\n      add\n      0x20\n      mload(0x40)\n      dup1\n      dup4\n      sub\n      dup2\n      dup7\n      dup1\n      extcodesize\n      iszero\n      dup1\n      iszero\n      tag_18\n      jumpi\n      0x00\n      dup1\n      revert\n    tag_18:\n      pop\n      gas\n      staticcall\n      iszero\n      dup1\n      iszero\n      tag_20\n      jumpi\n      returndatasize\n      0x00\n      dup1\n      returndatacopy\n      revert(0x00, returndatasize)\n    tag_20:\n      pop\n      pop\n      pop\n      pop\n      mload(0x40)\n      returndatasize\n      not(0x1f)\n      0x1f\n      dup3\n      add\n      and\n      dup3\n      add\n      dup1\n      0x40\n      mstore\n      pop\n      dup2\n      add\n      swap1\n      tag_21\n      swap2\n      swap1\n      tag_22\n      jump\t// in\n    tag_21:\n        /* \"contracts/PriceConvertor.sol\":807:833  return priceFeed.version() */\n      swap2\n      pop\n      pop\n        /* \"contracts/PriceConvertor.sol\":634:841  function getVersion() public view returns(uint256){\r... */\n      swap1\n      jump\t// out\n        /* \"contracts/PriceConvertor.sol\":251:625  function getPrice() public view returns(uint256){\r... */\n    tag_10:\n        /* \"contracts/PriceConvertor.sol\":291:298  uint256 */\n      0x00\n        /* \"contracts/PriceConvertor.sol\":346:377  AggregatorV3Interface priceFeed */\n      dup1\n        /* \"contracts/PriceConvertor.sol\":402:444  0x9326BFA02ADD2366b30bacB125260Af641031331 */\n      0x9326bfa02add2366b30bacb125260af641031331\n        /* \"contracts/PriceConvertor.sol\":346:445  AggregatorV3Interface priceFeed = AggregatorV3Interface(0x9326BFA02ADD2366b30bacB125260Af641031331) */\n      swap1\n      pop\n        /* \"contracts/PriceConvertor.sol\":459:472  int256 answer */\n      0x00\n        /* \"contracts/PriceConvertor.sol\":480:489  priceFeed */\n      dup2\n        /* \"contracts/PriceConvertor.sol\":480:505  priceFeed.latestRoundData */\n      0xffffffffffffffffffffffffffffffffffffffff\n      and\n      0xfeaf968c\n        /* \"contracts/PriceConvertor.sol\":480:507  priceFeed.latestRoundData() */\n      mload(0x40)\n      dup2\n      0xffffffff\n      and\n      0xe0\n      shl\n      dup2\n      mstore\n      0x04\n      add\n      0xa0\n      mload(0x40)\n      dup1\n      dup4\n      sub\n      dup2\n      dup7\n      dup1\n      extcodesize\n      iszero\n      dup1\n      iszero\n      tag_24\n      jumpi\n      0x00\n      dup1\n      revert\n    tag_24:\n      pop\n      gas\n      staticcall\n      iszero\n      dup1\n      iszero\n      tag_26\n      jumpi\n      returndatasize\n      0x00\n      dup1\n      returndatacopy\n      revert(0x00, returndatasize)\n    tag_26:\n      pop\n      pop\n      pop\n      pop\n      mload(0x40)\n      returndatasize\n      not(0x1f)\n      0x1f\n      dup3\n      add\n      and\n      dup3\n      add\n      dup1\n      0x40\n      mstore\n      pop\n      dup2\n      add\n      swap1\n      tag_27\n      swap2\n      swap1\n      tag_28\n      jump\t// in\n    tag_27:\n        /* \"contracts/PriceConvertor.sol\":456:507  (, int256 answer ,,,) = priceFeed.latestRoundData() */\n      pop\n      pop\n      pop\n      swap2\n      pop\n      pop\n        /* \"contracts/PriceConvertor.sol\":603:607  1e10 */\n      0x02540be400\n        /* \"contracts/PriceConvertor.sol\":595:601  answer */\n      dup2\n        /* \"contracts/PriceConvertor.sol\":595:607  answer* 1e10 */\n      tag_29\n      swap2\n      swap1\n      tag_30\n      jump\t// in\n    tag_29:\n        /* \"contracts/PriceConvertor.sol\":580:608  return uint256(answer* 1e10) */\n      swap3\n      pop\n      pop\n      pop\n        /* \"contracts/PriceConvertor.sol\":251:625  function getPrice() public view returns(uint256){\r... */\n      swap1\n      jump\t// out\n        /* \"contracts/PriceConvertor.sol\":849:1161  function conversion(uint256 ethAmount) public view returns(uint256){\r... */\n    tag_15:\n        /* \"contracts/PriceConvertor.sol\":908:915  uint256 */\n      0x00\n        /* \"contracts/PriceConvertor.sol\":1014:1030  uint256 ethPrice */\n      dup1\n        /* \"contracts/PriceConvertor.sol\":1033:1043  getPrice() */\n      tag_32\n        /* \"contracts/PriceConvertor.sol\":1033:1041  getPrice */\n      tag_10\n        /* \"contracts/PriceConvertor.sol\":1033:1043  getPrice() */\n      jump\t// in\n    tag_32:\n        /* \"contracts/PriceConvertor.sol\":1014:1043  uint256 ethPrice = getPrice() */\n      swap1\n      pop\n        /* \"contracts/PriceConvertor.sol\":1077:1093  uint256 ethinUSD */\n      0x00\n        /* \"contracts/PriceConvertor.sol\":1121:1125  1e18 */\n      0x0de0b6b3a7640000\n        /* \"contracts/PriceConvertor.sol\":1109:1117  ethPrice */\n      dup3\n        /* \"contracts/PriceConvertor.sol\":1097:1106  ethAmount */\n      dup6\n        /* \"contracts/PriceConvertor.sol\":1097:1117  ethAmount * ethPrice */\n      tag_33\n      swap2\n      swap1\n      tag_34\n      jump\t// in\n    tag_33:\n        /* \"contracts/PriceConvertor.sol\":1096:1125  (ethAmount * ethPrice) / 1e18 */\n      tag_35\n      swap2\n      swap1\n      tag_36\n      jump\t// in\n    tag_35:\n        /* \"contracts/PriceConvertor.sol\":1077:1125  uint256 ethinUSD = (ethAmount * ethPrice) / 1e18 */\n      swap1\n      pop\n        /* \"contracts/PriceConvertor.sol\":1143:1151  ethinUSD */\n      dup1\n        /* \"contracts/PriceConvertor.sol\":1136:1151  return ethinUSD */\n      swap3\n      pop\n      pop\n      pop\n        /* \"contracts/PriceConvertor.sol\":849:1161  function conversion(uint256 ethAmount) public view returns(uint256){\r... */\n      swap2\n      swap1\n      pop\n      jump\t// out\n        /* \"#utility.yul\":7:148   */\n    tag_38:\n        /* \"#utility.yul\":63:68   */\n      0x00\n        /* \"#utility.yul\":94:100   */\n      dup2\n        /* \"#utility.yul\":88:101   */\n      mload\n        /* \"#utility.yul\":79:101   */\n      swap1\n      pop\n        /* \"#utility.yul\":110:142   */\n      tag_40\n        /* \"#utility.yul\":136:141   */\n      dup2\n        /* \"#utility.yul\":110:142   */\n      tag_41\n      jump\t// in\n    tag_40:\n        /* \"#utility.yul\":7:148   */\n      swap3\n      swap2\n      pop\n      pop\n      jump\t// out\n        /* \"#utility.yul\":154:293   */\n    tag_42:\n        /* \"#utility.yul\":200:205   */\n      0x00\n        /* \"#utility.yul\":238:244   */\n      dup2\n        /* \"#utility.yul\":225:245   */\n      calldataload\n        /* \"#utility.yul\":216:245   */\n      swap1\n      pop\n        /* \"#utility.yul\":254:287   */\n      tag_44\n        /* \"#utility.yul\":281:286   */\n      dup2\n        /* \"#utility.yul\":254:287   */\n      tag_45\n      jump\t// in\n    tag_44:\n        /* \"#utility.yul\":154:293   */\n      swap3\n      swap2\n      pop\n      pop\n      jump\t// out\n        /* \"#utility.yul\":299:442   */\n    tag_46:\n        /* \"#utility.yul\":356:361   */\n      0x00\n        /* \"#utility.yul\":387:393   */\n      dup2\n        /* \"#utility.yul\":381:394   */\n      mload\n        /* \"#utility.yul\":372:394   */\n      swap1\n      pop\n        /* \"#utility.yul\":403:436   */\n      tag_48\n        /* \"#utility.yul\":430:435   */\n      dup2\n        /* \"#utility.yul\":403:436   */\n      tag_45\n      jump\t// in\n    tag_48:\n        /* \"#utility.yul\":299:442   */\n      swap3\n      swap2\n      pop\n      pop\n      jump\t// out\n        /* \"#utility.yul\":448:589   */\n    tag_49:\n        /* \"#utility.yul\":504:509   */\n      0x00\n        /* \"#utility.yul\":535:541   */\n      dup2\n        /* \"#utility.yul\":529:542   */\n      mload\n        /* \"#utility.yul\":520:542   */\n      swap1\n      pop\n        /* \"#utility.yul\":551:583   */\n      tag_51\n        /* \"#utility.yul\":577:582   */\n      dup2\n        /* \"#utility.yul\":551:583   */\n      tag_52\n      jump\t// in\n    tag_51:\n        /* \"#utility.yul\":448:589   */\n      swap3\n      swap2\n      pop\n      pop\n      jump\t// out\n        /* \"#utility.yul\":595:924   */\n    tag_14:\n        /* \"#utility.yul\":654:660   */\n      0x00\n        /* \"#utility.yul\":703:705   */\n      0x20\n        /* \"#utility.yul\":691:700   */\n      dup3\n        /* \"#utility.yul\":682:689   */\n      dup5\n        /* \"#utility.yul\":678:701   */\n      sub\n        /* \"#utility.yul\":674:706   */\n      slt\n        /* \"#utility.yul\":671:790   */\n      iszero\n      tag_54\n      jumpi\n        /* \"#utility.yul\":709:788   */\n      tag_55\n      tag_56\n      jump\t// in\n    tag_55:\n        /* \"#utility.yul\":671:790   */\n    tag_54:\n        /* \"#utility.yul\":829:830   */\n      0x00\n        /* \"#utility.yul\":854:907   */\n      tag_57\n        /* \"#utility.yul\":899:906   */\n      dup5\n        /* \"#utility.yul\":890:896   */\n      dup3\n        /* \"#utility.yul\":879:888   */\n      dup6\n        /* \"#utility.yul\":875:897   */\n      add\n        /* \"#utility.yul\":854:907   */\n      tag_42\n      jump\t// in\n    tag_57:\n        /* \"#utility.yul\":844:907   */\n      swap2\n      pop\n        /* \"#utility.yul\":800:917   */\n      pop\n        /* \"#utility.yul\":595:924   */\n      swap3\n      swap2\n      pop\n      pop\n      jump\t// out\n        /* \"#utility.yul\":930:1281   */\n    tag_22:\n        /* \"#utility.yul\":1000:1006   */\n      0x00\n        /* \"#utility.yul\":1049:1051   */\n      0x20\n        /* \"#utility.yul\":1037:1046   */\n      dup3\n        /* \"#utility.yul\":1028:1035   */\n      dup5\n        /* \"#utility.yul\":1024:1047   */\n      sub\n        /* \"#utility.yul\":1020:1052   */\n      slt\n        /* \"#utility.yul\":1017:1136   */\n      iszero\n      tag_59\n      jumpi\n        /* \"#utility.yul\":1055:1134   */\n      tag_60\n      tag_56\n      jump\t// in\n    tag_60:\n        /* \"#utility.yul\":1017:1136   */\n    tag_59:\n        /* \"#utility.yul\":1175:1176   */\n      0x00\n        /* \"#utility.yul\":1200:1264   */\n      tag_61\n        /* \"#utility.yul\":1256:1263   */\n      dup5\n        /* \"#utility.yul\":1247:1253   */\n      dup3\n        /* \"#utility.yul\":1236:1245   */\n      dup6\n        /* \"#utility.yul\":1232:1254   */\n      add\n        /* \"#utility.yul\":1200:1264   */\n      tag_46\n      jump\t// in\n    tag_61:\n        /* \"#utility.yul\":1190:1264   */\n      swap2\n      pop\n        /* \"#utility.yul\":1146:1274   */\n      pop\n        /* \"#utility.yul\":930:1281   */\n      swap3\n      swap2\n      pop\n      pop\n      jump\t// out\n        /* \"#utility.yul\":1287:2258   */\n    tag_28:\n        /* \"#utility.yul\":1390:1396   */\n      0x00\n        /* \"#utility.yul\":1398:1404   */\n      dup1\n        /* \"#utility.yul\":1406:1412   */\n      0x00\n        /* \"#utility.yul\":1414:1420   */\n      dup1\n        /* \"#utility.yul\":1422:1428   */\n      0x00\n        /* \"#utility.yul\":1471:1474   */\n      0xa0\n        /* \"#utility.yul\":1459:1468   */\n      dup7\n        /* \"#utility.yul\":1450:1457   */\n      dup9\n        /* \"#utility.yul\":1446:1469   */\n      sub\n        /* \"#utility.yul\":1442:1475   */\n      slt\n        /* \"#utility.yul\":1439:1559   */\n      iszero\n      tag_63\n      jumpi\n        /* \"#utility.yul\":1478:1557   */\n      tag_64\n      tag_56\n      jump\t// in\n    tag_64:\n        /* \"#utility.yul\":1439:1559   */\n    tag_63:\n        /* \"#utility.yul\":1598:1599   */\n      0x00\n        /* \"#utility.yul\":1623:1686   */\n      tag_65\n        /* \"#utility.yul\":1678:1685   */\n      dup9\n        /* \"#utility.yul\":1669:1675   */\n      dup3\n        /* \"#utility.yul\":1658:1667   */\n      dup10\n        /* \"#utility.yul\":1654:1676   */\n      add\n        /* \"#utility.yul\":1623:1686   */\n      tag_49\n      jump\t// in\n    tag_65:\n        /* \"#utility.yul\":1613:1686   */\n      swap6\n      pop\n        /* \"#utility.yul\":1569:1696   */\n      pop\n        /* \"#utility.yul\":1735:1737   */\n      0x20\n        /* \"#utility.yul\":1761:1824   */\n      tag_66\n        /* \"#utility.yul\":1816:1823   */\n      dup9\n        /* \"#utility.yul\":1807:1813   */\n      dup3\n        /* \"#utility.yul\":1796:1805   */\n      dup10\n        /* \"#utility.yul\":1792:1814   */\n      add\n        /* \"#utility.yul\":1761:1824   */\n      tag_38\n      jump\t// in\n    tag_66:\n        /* \"#utility.yul\":1751:1824   */\n      swap5\n      pop\n        /* \"#utility.yul\":1706:1834   */\n      pop\n        /* \"#utility.yul\":1873:1875   */\n      0x40\n        /* \"#utility.yul\":1899:1963   */\n      tag_67\n        /* \"#utility.yul\":1955:1962   */\n      dup9\n        /* \"#utility.yul\":1946:1952   */\n      dup3\n        /* \"#utility.yul\":1935:1944   */\n      dup10\n        /* \"#utility.yul\":1931:1953   */\n      add\n        /* \"#utility.yul\":1899:1963   */\n      tag_46\n      jump\t// in\n    tag_67:\n        /* \"#utility.yul\":1889:1963   */\n      swap4\n      pop\n        /* \"#utility.yul\":1844:1973   */\n      pop\n        /* \"#utility.yul\":2012:2014   */\n      0x60\n        /* \"#utility.yul\":2038:2102   */\n      tag_68\n        /* \"#utility.yul\":2094:2101   */\n      dup9\n        /* \"#utility.yul\":2085:2091   */\n      dup3\n        /* \"#utility.yul\":2074:2083   */\n      dup10\n        /* \"#utility.yul\":2070:2092   */\n      add\n        /* \"#utility.yul\":2038:2102   */\n      tag_46\n      jump\t// in\n    tag_68:\n        /* \"#utility.yul\":2028:2102   */\n      swap3\n      pop\n        /* \"#utility.yul\":1983:2112   */\n      pop\n        /* \"#utility.yul\":2151:2154   */\n      0x80\n        /* \"#utility.yul\":2178:2241   */\n      tag_69\n        /* \"#utility.yul\":2233:2240   */\n      dup9\n        /* \"#utility.yul\":2224:2230   */\n      dup3\n        /* \"#utility.yul\":2213:2222   */\n      dup10\n        /* \"#utility.yul\":2209:2231   */\n      add\n        /* \"#utility.yul\":2178:2241   */\n      tag_49\n      jump\t// in\n    tag_69:\n        /* \"#utility.yul\":2168:2241   */\n      swap2\n      pop\n        /* \"#utility.yul\":2122:2251   */\n      pop\n        /* \"#utility.yul\":1287:2258   */\n      swap3\n      swap6\n      pop\n      swap3\n      swap6\n      swap1\n      swap4\n      pop\n      jump\t// out\n        /* \"#utility.yul\":2264:2390   */\n    tag_70:\n        /* \"#utility.yul\":2359:2383   */\n      tag_72\n        /* \"#utility.yul\":2377:2382   */\n      dup2\n        /* \"#utility.yul\":2359:2383   */\n      tag_73\n      jump\t// in\n    tag_72:\n        /* \"#utility.yul\":2354:2357   */\n      dup3\n        /* \"#utility.yul\":2347:2384   */\n      mstore\n        /* \"#utility.yul\":2264:2390   */\n      pop\n      pop\n      jump\t// out\n        /* \"#utility.yul\":2396:2634   */\n    tag_8:\n        /* \"#utility.yul\":2497:2501   */\n      0x00\n        /* \"#utility.yul\":2535:2537   */\n      0x20\n        /* \"#utility.yul\":2524:2533   */\n      dup3\n        /* \"#utility.yul\":2520:2538   */\n      add\n        /* \"#utility.yul\":2512:2538   */\n      swap1\n      pop\n        /* \"#utility.yul\":2548:2627   */\n      tag_75\n        /* \"#utility.yul\":2624:2625   */\n      0x00\n        /* \"#utility.yul\":2613:2622   */\n      dup4\n        /* \"#utility.yul\":2609:2626   */\n      add\n        /* \"#utility.yul\":2600:2606   */\n      dup5\n        /* \"#utility.yul\":2548:2627   */\n      tag_70\n      jump\t// in\n    tag_75:\n        /* \"#utility.yul\":2396:2634   */\n      swap3\n      swap2\n      pop\n      pop\n      jump\t// out\n        /* \"#utility.yul\":2721:2906   */\n    tag_36:\n        /* \"#utility.yul\":2761:2762   */\n      0x00\n        /* \"#utility.yul\":2778:2798   */\n      tag_79\n        /* \"#utility.yul\":2796:2797   */\n      dup3\n        /* \"#utility.yul\":2778:2798   */\n      tag_73\n      jump\t// in\n    tag_79:\n        /* \"#utility.yul\":2773:2798   */\n      swap2\n      pop\n        /* \"#utility.yul\":2812:2832   */\n      tag_80\n        /* \"#utility.yul\":2830:2831   */\n      dup4\n        /* \"#utility.yul\":2812:2832   */\n      tag_73\n      jump\t// in\n    tag_80:\n        /* \"#utility.yul\":2807:2832   */\n      swap3\n      pop\n        /* \"#utility.yul\":2851:2852   */\n      dup3\n        /* \"#utility.yul\":2841:2876   */\n      tag_81\n      jumpi\n        /* \"#utility.yul\":2856:2874   */\n      tag_82\n      tag_83\n      jump\t// in\n    tag_82:\n        /* \"#utility.yul\":2841:2876   */\n    tag_81:\n        /* \"#utility.yul\":2898:2899   */\n      dup3\n        /* \"#utility.yul\":2895:2896   */\n      dup3\n        /* \"#utility.yul\":2891:2900   */\n      div\n        /* \"#utility.yul\":2886:2900   */\n      swap1\n      pop\n        /* \"#utility.yul\":2721:2906   */\n      swap3\n      swap2\n      pop\n      pop\n      jump\t// out\n        /* \"#utility.yul\":2912:3903   */\n    tag_30:\n        /* \"#utility.yul\":2951:2958   */\n      0x00\n        /* \"#utility.yul\":2974:2993   */\n      tag_85\n        /* \"#utility.yul\":2991:2992   */\n      dup3\n        /* \"#utility.yul\":2974:2993   */\n      tag_86\n      jump\t// in\n    tag_85:\n        /* \"#utility.yul\":2969:2993   */\n      swap2\n      pop\n        /* \"#utility.yul\":3007:3026   */\n      tag_87\n        /* \"#utility.yul\":3024:3025   */\n      dup4\n        /* \"#utility.yul\":3007:3026   */\n      tag_86\n      jump\t// in\n    tag_87:\n        /* \"#utility.yul\":3002:3026   */\n      swap3\n      pop\n        /* \"#utility.yul\":3208:3209   */\n      dup3\n        /* \"#utility.yul\":3140:3206   */\n      0x7fffffffffffffffffffffffffffffffffffffffffffffffffffffffffffffff\n        /* \"#utility.yul\":3136:3210   */\n      div\n        /* \"#utility.yul\":3133:3134   */\n      dup3\n        /* \"#utility.yul\":3130:3211   */\n      gt\n        /* \"#utility.yul\":3125:3126   */\n      0x00\n        /* \"#utility.yul\":3122:3123   */\n      dup5\n        /* \"#utility.yul\":3118:3127   */\n      sgt\n        /* \"#utility.yul\":3114:3115   */\n      0x00\n        /* \"#utility.yul\":3111:3112   */\n      dup5\n        /* \"#utility.yul\":3107:3116   */\n      sgt\n        /* \"#utility.yul\":3103:3128   */\n      and\n        /* \"#utility.yul\":3099:3212   */\n      and\n        /* \"#utility.yul\":3096:3235   */\n      iszero\n      tag_88\n      jumpi\n        /* \"#utility.yul\":3215:3233   */\n      tag_89\n      tag_90\n      jump\t// in\n    tag_89:\n        /* \"#utility.yul\":3096:3235   */\n    tag_88:\n        /* \"#utility.yul\":3419:3420   */\n      dup2\n        /* \"#utility.yul\":3351:3417   */\n      0x8000000000000000000000000000000000000000000000000000000000000000\n        /* \"#utility.yul\":3346:3421   */\n      sdiv\n        /* \"#utility.yul\":3343:3344   */\n      dup4\n        /* \"#utility.yul\":3339:3422   */\n      slt\n        /* \"#utility.yul\":3334:3335   */\n      0x00\n        /* \"#utility.yul\":3331:3332   */\n      dup5\n        /* \"#utility.yul\":3327:3336   */\n      slt\n        /* \"#utility.yul\":3323:3324   */\n      0x00\n        /* \"#utility.yul\":3320:3321   */\n      dup5\n        /* \"#utility.yul\":3316:3325   */\n      sgt\n        /* \"#utility.yul\":3312:3337   */\n      and\n        /* \"#utility.yul\":3308:3423   */\n      and\n        /* \"#utility.yul\":3305:3446   */\n      iszero\n      tag_91\n      jumpi\n        /* \"#utility.yul\":3426:3444   */\n      tag_92\n      tag_90\n      jump\t// in\n    tag_92:\n        /* \"#utility.yul\":3305:3446   */\n    tag_91:\n        /* \"#utility.yul\":3630:3631   */\n      dup3\n        /* \"#utility.yul\":3562:3628   */\n      0x8000000000000000000000000000000000000000000000000000000000000000\n        /* \"#utility.yul\":3557:3632   */\n      sdiv\n        /* \"#utility.yul\":3554:3555   */\n      dup3\n        /* \"#utility.yul\":3550:3633   */\n      slt\n        /* \"#utility.yul\":3545:3546   */\n      0x00\n        /* \"#utility.yul\":3542:3543   */\n      dup5\n        /* \"#utility.yul\":3538:3547   */\n      sgt\n        /* \"#utility.yul\":3534:3535   */\n      0x00\n        /* \"#utility.yul\":3531:3532   */\n      dup5\n        /* \"#utility.yul\":3527:3536   */\n      slt\n        /* \"#utility.yul\":3523:3548   */\n      and\n        /* \"#utility.yul\":3519:3634   */\n      and\n        /* \"#utility.yul\":3516:3657   */\n      iszero\n      tag_93\n      jumpi\n        /* \"#utility.yul\":3637:3655   */\n      tag_94\n      tag_90\n      jump\t// in\n    tag_94:\n        /* \"#utility.yul\":3516:3657   */\n    tag_93:\n        /* \"#utility.yul\":3840:3841   */\n      dup3\n        /* \"#utility.yul\":3772:3838   */\n      0x7fffffffffffffffffffffffffffffffffffffffffffffffffffffffffffffff\n        /* \"#utility.yul\":3767:3842   */\n      sdiv\n        /* \"#utility.yul\":3764:3765   */\n      dup3\n        /* \"#utility.yul\":3760:3843   */\n      slt\n        /* \"#utility.yul\":3755:3756   */\n      0x00\n        /* \"#utility.yul\":3752:3753   */\n      dup5\n        /* \"#utility.yul\":3748:3757   */\n      slt\n        /* \"#utility.yul\":3744:3745   */\n      0x00\n        /* \"#utility.yul\":3741:3742   */\n      dup5\n        /* \"#utility.yul\":3737:3746   */\n      slt\n        /* \"#utility.yul\":3733:3758   */\n      and\n        /* \"#utility.yul\":3729:3844   */\n      and\n        /* \"#utility.yul\":3726:3867   */\n      iszero\n      tag_95\n      jumpi\n        /* \"#utility.yul\":3847:3865   */\n      tag_96\n      tag_90\n      jump\t// in\n    tag_96:\n        /* \"#utility.yul\":3726:3867   */\n    tag_95:\n        /* \"#utility.yul\":3895:3896   */\n      dup3\n        /* \"#utility.yul\":3892:3893   */\n      dup3\n        /* \"#utility.yul\":3888:3897   */\n      mul\n        /* \"#utility.yul\":3877:3897   */\n      swap1\n      pop\n        /* \"#utility.yul\":2912:3903   */\n      swap3\n      swap2\n      pop\n      pop\n      jump\t// out\n        /* \"#utility.yul\":3909:4257   */\n    tag_34:\n        /* \"#utility.yul\":3949:3956   */\n      0x00\n        /* \"#utility.yul\":3972:3992   */\n      tag_98\n        /* \"#utility.yul\":3990:3991   */\n      dup3\n        /* \"#utility.yul\":3972:3992   */\n      tag_73\n      jump\t// in\n    tag_98:\n        /* \"#utility.yul\":3967:3992   */\n      swap2\n      pop\n        /* \"#utility.yul\":4006:4026   */\n      tag_99\n        /* \"#utility.yul\":4024:4025   */\n      dup4\n        /* \"#utility.yul\":4006:4026   */\n      tag_73\n      jump\t// in\n    tag_99:\n        /* \"#utility.yul\":4001:4026   */\n      swap3\n      pop\n        /* \"#utility.yul\":4194:4195   */\n      dup2\n        /* \"#utility.yul\":4126:4192   */\n      0xffffffffffffffffffffffffffffffffffffffffffffffffffffffffffffffff\n        /* \"#utility.yul\":4122:4196   */\n      div\n        /* \"#utility.yul\":4119:4120   */\n      dup4\n        /* \"#utility.yul\":4116:4197   */\n      gt\n        /* \"#utility.yul\":4111:4112   */\n      dup3\n        /* \"#utility.yul\":4104:4113   */\n      iszero\n        /* \"#utility.yul\":4097:4114   */\n      iszero\n        /* \"#utility.yul\":4093:4198   */\n      and\n        /* \"#utility.yul\":4090:4221   */\n      iszero\n      tag_100\n      jumpi\n        /* \"#utility.yul\":4201:4219   */\n      tag_101\n      tag_90\n      jump\t// in\n    tag_101:\n        /* \"#utility.yul\":4090:4221   */\n    tag_100:\n        /* \"#utility.yul\":4249:4250   */\n      dup3\n        /* \"#utility.yul\":4246:4247   */\n      dup3\n        /* \"#utility.yul\":4242:4251   */\n      mul\n        /* \"#utility.yul\":4231:4251   */\n      swap1\n      pop\n        /* \"#utility.yul\":3909:4257   */\n      swap3\n      swap2\n      pop\n      pop\n      jump\t// out\n        /* \"#utility.yul\":4263:4339   */\n    tag_86:\n        /* \"#utility.yul\":4299:4306   */\n      0x00\n        /* \"#utility.yul\":4328:4333   */\n      dup2\n        /* \"#utility.yul\":4317:4333   */\n      swap1\n      pop\n        /* \"#utility.yul\":4263:4339   */\n      swap2\n      swap1\n      pop\n      jump\t// out\n        /* \"#utility.yul\":4345:4422   */\n    tag_73:\n        /* \"#utility.yul\":4382:4389   */\n      0x00\n        /* \"#utility.yul\":4411:4416   */\n      dup2\n        /* \"#utility.yul\":4400:4416   */\n      swap1\n      pop\n        /* \"#utility.yul\":4345:4422   */\n      swap2\n      swap1\n      pop\n      jump\t// out\n        /* \"#utility.yul\":4428:4533   */\n    tag_104:\n        /* \"#utility.yul\":4464:4471   */\n      0x00\n        /* \"#utility.yul\":4504:4526   */\n      0xffffffffffffffffffff\n        /* \"#utility.yul\":4497:4502   */\n      dup3\n        /* \"#utility.yul\":4493:4527   */\n      and\n        /* \"#utility.yul\":4482:4527   */\n      swap1\n      pop\n        /* \"#utility.yul\":4428:4533   */\n      swap2\n      swap1\n      pop\n      jump\t// out\n        /* \"#utility.yul\":4539:4719   */\n    tag_90:\n        /* \"#utility.yul\":4587:4664   */\n      0x4e487b7100000000000000000000000000000000000000000000000000000000\n        /* \"#utility.yul\":4584:4585   */\n      0x00\n        /* \"#utility.yul\":4577:4665   */\n      mstore\n        /* \"#utility.yul\":4684:4688   */\n      0x11\n        /* \"#utility.yul\":4681:4682   */\n      0x04\n        /* \"#utility.yul\":4674:4689   */\n      mstore\n        /* \"#utility.yul\":4708:4712   */\n      0x24\n        /* \"#utility.yul\":4705:4706   */\n      0x00\n        /* \"#utility.yul\":4698:4713   */\n      revert\n        /* \"#utility.yul\":4725:4905   */\n    tag_83:\n        /* \"#utility.yul\":4773:4850   */\n      0x4e487b7100000000000000000000000000000000000000000000000000000000\n        /* \"#utility.yul\":4770:4771   */\n      0x00\n        /* \"#utility.yul\":4763:4851   */\n      mstore\n        /* \"#utility.yul\":4870:4874   */\n      0x12\n        /* \"#utility.yul\":4867:4868   */\n      0x04\n        /* \"#utility.yul\":4860:4875   */\n      mstore\n        /* \"#utility.yul\":4894:4898   */\n      0x24\n        /* \"#utility.yul\":4891:4892   */\n      0x00\n        /* \"#utility.yul\":4884:4899   */\n      revert\n        /* \"#utility.yul\":5034:5151   */\n    tag_56:\n        /* \"#utility.yul\":5143:5144   */\n      0x00\n        /* \"#utility.yul\":5140:5141   */\n      dup1\n        /* \"#utility.yul\":5133:5145   */\n      revert\n        /* \"#utility.yul\":5157:5277   */\n    tag_41:\n        /* \"#utility.yul\":5229:5252   */\n      tag_112\n        /* \"#utility.yul\":5246:5251   */\n      dup2\n        /* \"#utility.yul\":5229:5252   */\n      tag_86\n      jump\t// in\n    tag_112:\n        /* \"#utility.yul\":5222:5227   */\n      dup2\n        /* \"#utility.yul\":5219:5253   */\n      eq\n        /* \"#utility.yul\":5209:5271   */\n      tag_113\n      jumpi\n        /* \"#utility.yul\":5267:5268   */\n      0x00\n        /* \"#utility.yul\":5264:5265   */\n      dup1\n        /* \"#utility.yul\":5257:5269   */\n      revert\n        /* \"#utility.yul\":5209:5271   */\n    tag_113:\n        /* \"#utility.yul\":5157:5277   */\n      pop\n      jump\t// out\n        /* \"#utility.yul\":5283:5405   */\n    tag_45:\n        /* \"#utility.yul\":5356:5380   */\n      tag_115\n        /* \"#utility.yul\":5374:5379   */\n      dup2\n        /* \"#utility.yul\":5356:5380   */\n      tag_73\n      jump\t// in\n    tag_115:\n        /* \"#utility.yul\":5349:5354   */\n      dup2\n        /* \"#utility.yul\":5346:5381   */\n      eq\n        /* \"#utility.yul\":5336:5399   */\n      tag_116\n      jumpi\n        /* \"#utility.yul\":5395:5396   */\n      0x00\n        /* \"#utility.yul\":5392:5393   */\n      dup1\n        /* \"#utility.yul\":5385:5397   */\n      revert\n        /* \"#utility.yul\":5336:5399   */\n    tag_116:\n        /* \"#utility.yul\":5283:5405   */\n      pop\n      jump\t// out\n        /* \"#utility.yul\":5411:5531   */\n    tag_52:\n        /* \"#utility.yul\":5483:5506   */\n      tag_118\n        /* \"#utility.yul\":5500:5505   */\n      dup2\n        /* \"#utility.yul\":5483:5506   */\n      tag_104\n      jump\t// in\n    tag_118:\n        /* \"#utility.yul\":5476:5481   */\n      dup2\n        /* \"#utility.yul\":5473:5507   */\n      eq\n        /* \"#utility.yul\":5463:5525   */\n      tag_119\n      jumpi\n        /* \"#utility.yul\":5521:5522   */\n      0x00\n        /* \"#utility.yul\":5518:5519   */\n      dup1\n        /* \"#utility.yul\":5511:5523   */\n      revert\n        /* \"#utility.yul\":5463:5525   */\n    tag_119:\n        /* \"#utility.yul\":5411:5531   */\n      pop\n      jump\t// out\n\n    auxdata: 0xa264697066735822122019d606e1fe1dcfb1eb9579ef70c5924ec3a77046b6233ac04907daa18481460a64736f6c63430008070033\n}\n",
				"bytecode": {
					"linkReferences": {},
					"object": "610649610053600b82828239805160001a607314610046577f4e487b7100000000000000000000000000000000000000000000000000000000600052600060045260246000fd5b30600052607381538281f3fe730000000000000000000000000000000000000000301460806040526004361061004b5760003560e01c80630d8e6e2c1461005057806398d5fdca1461006e578063ba4d0c991461008c575b600080fd5b6100586100bc565b6040516100659190610384565b60405180910390f35b61007661015a565b6040516100839190610384565b60405180910390f35b6100a660048036038101906100a191906102a0565b610212565b6040516100b39190610384565b60405180910390f35b600080739326bfa02add2366b30bacb125260af64103133190508073ffffffffffffffffffffffffffffffffffffffff166354fd4d506040518163ffffffff1660e01b815260040160206040518083038186803b15801561011c57600080fd5b505afa158015610130573d6000803e3d6000fd5b505050506040513d601f19601f8201168201806040525081019061015491906102cd565b91505090565b600080739326bfa02add2366b30bacb125260af641031331905060008173ffffffffffffffffffffffffffffffffffffffff1663feaf968c6040518163ffffffff1660e01b815260040160a06040518083038186803b1580156101bc57600080fd5b505afa1580156101d0573d6000803e3d6000fd5b505050506040513d601f19601f820116820180604052508101906101f491906102fa565b5050509150506402540be4008161020b91906103d0565b9250505090565b60008061021d61015a565b90506000670de0b6b3a7640000828561023691906104e7565b610240919061039f565b90508092505050919050565b60008151905061025b816105ce565b92915050565b600081359050610270816105e5565b92915050565b600081519050610285816105e5565b92915050565b60008151905061029a816105fc565b92915050565b6000602082840312156102b6576102b56105c9565b5b60006102c484828501610261565b91505092915050565b6000602082840312156102e3576102e26105c9565b5b60006102f184828501610276565b91505092915050565b600080600080600060a08688031215610316576103156105c9565b5b60006103248882890161028b565b95505060206103358882890161024c565b945050604061034688828901610276565b935050606061035788828901610276565b92505060806103688882890161028b565b9150509295509295909350565b61037e8161054b565b82525050565b60006020820190506103996000830184610375565b92915050565b60006103aa8261054b565b91506103b58361054b565b9250826103c5576103c461059a565b5b828204905092915050565b60006103db82610541565b91506103e683610541565b9250827f7fffffffffffffffffffffffffffffffffffffffffffffffffffffffffffffff04821160008413600084131616156104255761042461056b565b5b817f800000000000000000000000000000000000000000000000000000000000000005831260008412600084131616156104625761046161056b565b5b827f8000000000000000000000000000000000000000000000000000000000000000058212600084136000841216161561049f5761049e61056b565b5b827f7fffffffffffffffffffffffffffffffffffffffffffffffffffffffffffffff05821260008412600084121616156104dc576104db61056b565b5b828202905092915050565b60006104f28261054b565b91506104fd8361054b565b9250817fffffffffffffffffffffffffffffffffffffffffffffffffffffffffffffffff04831182151516156105365761053561056b565b5b828202905092915050565b6000819050919050565b6000819050919050565b600069ffffffffffffffffffff82169050919050565b7f4e487b7100000000000000000000000000000000000000000000000000000000600052601160045260246000fd5b7f4e487b7100000000000000000000000000000000000000000000000000000000600052601260045260246000fd5b600080fd5b6105d781610541565b81146105e257600080fd5b50565b6105ee8161054b565b81146105f957600080fd5b50565b61060581610555565b811461061057600080fd5b5056fea264697066735822122019d606e1fe1dcfb1eb9579ef70c5924ec3a77046b6233ac04907daa18481460a64736f6c63430008070033",
					"opcodes": "PUSH2 0x649 PUSH2 0x53 PUSH1 0xB DUP3 DUP3 DUP3 CODECOPY DUP1 MLOAD PUSH1 0x0 BYTE PUSH1 0x73 EQ PUSH2 0x46 JUMPI PUSH32 0x4E487B7100000000000000000000000000000000000000000000000000000000 PUSH1 0x0 MSTORE PUSH1 0x0 PUSH1 0x4 MSTORE PUSH1 0x24 PUSH1 0x0 REVERT JUMPDEST ADDRESS PUSH1 0x0 MSTORE PUSH1 0x73 DUP2 MSTORE8 DUP3 DUP2 RETURN INVALID PUSH20 0x0 ADDRESS EQ PUSH1 0x80 PUSH1 0x40 MSTORE PUSH1 0x4 CALLDATASIZE LT PUSH2 0x4B JUMPI PUSH1 0x0 CALLDATALOAD PUSH1 0xE0 SHR DUP1 PUSH4 0xD8E6E2C EQ PUSH2 0x50 JUMPI DUP1 PUSH4 0x98D5FDCA EQ PUSH2 0x6E JUMPI DUP1 PUSH4 0xBA4D0C99 EQ PUSH2 0x8C JUMPI JUMPDEST PUSH1 0x0 DUP1 REVERT JUMPDEST PUSH2 0x58 PUSH2 0xBC JUMP JUMPDEST PUSH1 0x40 MLOAD PUSH2 0x65 SWAP2 SWAP1 PUSH2 0x384 JUMP JUMPDEST PUSH1 0x40 MLOAD DUP1 SWAP2 SUB SWAP1 RETURN JUMPDEST PUSH2 0x76 PUSH2 0x15A JUMP JUMPDEST PUSH1 0x40 MLOAD PUSH2 0x83 SWAP2 SWAP1 PUSH2 0x384 JUMP JUMPDEST PUSH1 0x40 MLOAD DUP1 SWAP2 SUB SWAP1 RETURN JUMPDEST PUSH2 0xA6 PUSH1 0x4 DUP1 CALLDATASIZE SUB DUP2 ADD SWAP1 PUSH2 0xA1 SWAP2 SWAP1 PUSH2 0x2A0 JUMP JUMPDEST PUSH2 0x212 JUMP JUMPDEST PUSH1 0x40 MLOAD PUSH2 0xB3 SWAP2 SWAP1 PUSH2 0x384 JUMP JUMPDEST PUSH1 0x40 MLOAD DUP1 SWAP2 SUB SWAP1 RETURN JUMPDEST PUSH1 0x0 DUP1 PUSH20 0x9326BFA02ADD2366B30BACB125260AF641031331 SWAP1 POP DUP1 PUSH20 0xFFFFFFFFFFFFFFFFFFFFFFFFFFFFFFFFFFFFFFFF AND PUSH4 0x54FD4D50 PUSH1 0x40 MLOAD DUP2 PUSH4 0xFFFFFFFF AND PUSH1 0xE0 SHL DUP2 MSTORE PUSH1 0x4 ADD PUSH1 0x20 PUSH1 0x40 MLOAD DUP1 DUP4 SUB DUP2 DUP7 DUP1 EXTCODESIZE ISZERO DUP1 ISZERO PUSH2 0x11C JUMPI PUSH1 0x0 DUP1 REVERT JUMPDEST POP GAS STATICCALL ISZERO DUP1 ISZERO PUSH2 0x130 JUMPI RETURNDATASIZE PUSH1 0x0 DUP1 RETURNDATACOPY RETURNDATASIZE PUSH1 0x0 REVERT JUMPDEST POP POP POP POP PUSH1 0x40 MLOAD RETURNDATASIZE PUSH1 0x1F NOT PUSH1 0x1F DUP3 ADD AND DUP3 ADD DUP1 PUSH1 0x40 MSTORE POP DUP2 ADD SWAP1 PUSH2 0x154 SWAP2 SWAP1 PUSH2 0x2CD JUMP JUMPDEST SWAP2 POP POP SWAP1 JUMP JUMPDEST PUSH1 0x0 DUP1 PUSH20 0x9326BFA02ADD2366B30BACB125260AF641031331 SWAP1 POP PUSH1 0x0 DUP2 PUSH20 0xFFFFFFFFFFFFFFFFFFFFFFFFFFFFFFFFFFFFFFFF AND PUSH4 0xFEAF968C PUSH1 0x40 MLOAD DUP2 PUSH4 0xFFFFFFFF AND PUSH1 0xE0 SHL DUP2 MSTORE PUSH1 0x4 ADD PUSH1 0xA0 PUSH1 0x40 MLOAD DUP1 DUP4 SUB DUP2 DUP7 DUP1 EXTCODESIZE ISZERO DUP1 ISZERO PUSH2 0x1BC JUMPI PUSH1 0x0 DUP1 REVERT JUMPDEST POP GAS STATICCALL ISZERO DUP1 ISZERO PUSH2 0x1D0 JUMPI RETURNDATASIZE PUSH1 0x0 DUP1 RETURNDATACOPY RETURNDATASIZE PUSH1 0x0 REVERT JUMPDEST POP POP POP POP PUSH1 0x40 MLOAD RETURNDATASIZE PUSH1 0x1F NOT PUSH1 0x1F DUP3 ADD AND DUP3 ADD DUP1 PUSH1 0x40 MSTORE POP DUP2 ADD SWAP1 PUSH2 0x1F4 SWAP2 SWAP1 PUSH2 0x2FA JUMP JUMPDEST POP POP POP SWAP2 POP POP PUSH5 0x2540BE400 DUP2 PUSH2 0x20B SWAP2 SWAP1 PUSH2 0x3D0 JUMP JUMPDEST SWAP3 POP POP POP SWAP1 JUMP JUMPDEST PUSH1 0x0 DUP1 PUSH2 0x21D PUSH2 0x15A JUMP JUMPDEST SWAP1 POP PUSH1 0x0 PUSH8 0xDE0B6B3A7640000 DUP3 DUP6 PUSH2 0x236 SWAP2 SWAP1 PUSH2 0x4E7 JUMP JUMPDEST PUSH2 0x240 SWAP2 SWAP1 PUSH2 0x39F JUMP JUMPDEST SWAP1 POP DUP1 SWAP3 POP POP POP SWAP2 SWAP1 POP JUMP JUMPDEST PUSH1 0x0 DUP2 MLOAD SWAP1 POP PUSH2 0x25B DUP2 PUSH2 0x5CE JUMP JUMPDEST SWAP3 SWAP2 POP POP JUMP JUMPDEST PUSH1 0x0 DUP2 CALLDATALOAD SWAP1 POP PUSH2 0x270 DUP2 PUSH2 0x5E5 JUMP JUMPDEST SWAP3 SWAP2 POP POP JUMP JUMPDEST PUSH1 0x0 DUP2 MLOAD SWAP1 POP PUSH2 0x285 DUP2 PUSH2 0x5E5 JUMP JUMPDEST SWAP3 SWAP2 POP POP JUMP JUMPDEST PUSH1 0x0 DUP2 MLOAD SWAP1 POP PUSH2 0x29A DUP2 PUSH2 0x5FC JUMP JUMPDEST SWAP3 SWAP2 POP POP JUMP JUMPDEST PUSH1 0x0 PUSH1 0x20 DUP3 DUP5 SUB SLT ISZERO PUSH2 0x2B6 JUMPI PUSH2 0x2B5 PUSH2 0x5C9 JUMP JUMPDEST JUMPDEST PUSH1 0x0 PUSH2 0x2C4 DUP5 DUP3 DUP6 ADD PUSH2 0x261 JUMP JUMPDEST SWAP2 POP POP SWAP3 SWAP2 POP POP JUMP JUMPDEST PUSH1 0x0 PUSH1 0x20 DUP3 DUP5 SUB SLT ISZERO PUSH2 0x2E3 JUMPI PUSH2 0x2E2 PUSH2 0x5C9 JUMP JUMPDEST JUMPDEST PUSH1 0x0 PUSH2 0x2F1 DUP5 DUP3 DUP6 ADD PUSH2 0x276 JUMP JUMPDEST SWAP2 POP POP SWAP3 SWAP2 POP POP JUMP JUMPDEST PUSH1 0x0 DUP1 PUSH1 0x0 DUP1 PUSH1 0x0 PUSH1 0xA0 DUP7 DUP9 SUB SLT ISZERO PUSH2 0x316 JUMPI PUSH2 0x315 PUSH2 0x5C9 JUMP JUMPDEST JUMPDEST PUSH1 0x0 PUSH2 0x324 DUP9 DUP3 DUP10 ADD PUSH2 0x28B JUMP JUMPDEST SWAP6 POP POP PUSH1 0x20 PUSH2 0x335 DUP9 DUP3 DUP10 ADD PUSH2 0x24C JUMP JUMPDEST SWAP5 POP POP PUSH1 0x40 PUSH2 0x346 DUP9 DUP3 DUP10 ADD PUSH2 0x276 JUMP JUMPDEST SWAP4 POP POP PUSH1 0x60 PUSH2 0x357 DUP9 DUP3 DUP10 ADD PUSH2 0x276 JUMP JUMPDEST SWAP3 POP POP PUSH1 0x80 PUSH2 0x368 DUP9 DUP3 DUP10 ADD PUSH2 0x28B JUMP JUMPDEST SWAP2 POP POP SWAP3 SWAP6 POP SWAP3 SWAP6 SWAP1 SWAP4 POP JUMP JUMPDEST PUSH2 0x37E DUP2 PUSH2 0x54B JUMP JUMPDEST DUP3 MSTORE POP POP JUMP JUMPDEST PUSH1 0x0 PUSH1 0x20 DUP3 ADD SWAP1 POP PUSH2 0x399 PUSH1 0x0 DUP4 ADD DUP5 PUSH2 0x375 JUMP JUMPDEST SWAP3 SWAP2 POP POP JUMP JUMPDEST PUSH1 0x0 PUSH2 0x3AA DUP3 PUSH2 0x54B JUMP JUMPDEST SWAP2 POP PUSH2 0x3B5 DUP4 PUSH2 0x54B JUMP JUMPDEST SWAP3 POP DUP3 PUSH2 0x3C5 JUMPI PUSH2 0x3C4 PUSH2 0x59A JUMP JUMPDEST JUMPDEST DUP3 DUP3 DIV SWAP1 POP SWAP3 SWAP2 POP POP JUMP JUMPDEST PUSH1 0x0 PUSH2 0x3DB DUP3 PUSH2 0x541 JUMP JUMPDEST SWAP2 POP PUSH2 0x3E6 DUP4 PUSH2 0x541 JUMP JUMPDEST SWAP3 POP DUP3 PUSH32 0x7FFFFFFFFFFFFFFFFFFFFFFFFFFFFFFFFFFFFFFFFFFFFFFFFFFFFFFFFFFFFFFF DIV DUP3 GT PUSH1 0x0 DUP5 SGT PUSH1 0x0 DUP5 SGT AND AND ISZERO PUSH2 0x425 JUMPI PUSH2 0x424 PUSH2 0x56B JUMP JUMPDEST JUMPDEST DUP2 PUSH32 0x8000000000000000000000000000000000000000000000000000000000000000 SDIV DUP4 SLT PUSH1 0x0 DUP5 SLT PUSH1 0x0 DUP5 SGT AND AND ISZERO PUSH2 0x462 JUMPI PUSH2 0x461 PUSH2 0x56B JUMP JUMPDEST JUMPDEST DUP3 PUSH32 0x8000000000000000000000000000000000000000000000000000000000000000 SDIV DUP3 SLT PUSH1 0x0 DUP5 SGT PUSH1 0x0 DUP5 SLT AND AND ISZERO PUSH2 0x49F JUMPI PUSH2 0x49E PUSH2 0x56B JUMP JUMPDEST JUMPDEST DUP3 PUSH32 0x7FFFFFFFFFFFFFFFFFFFFFFFFFFFFFFFFFFFFFFFFFFFFFFFFFFFFFFFFFFFFFFF SDIV DUP3 SLT PUSH1 0x0 DUP5 SLT PUSH1 0x0 DUP5 SLT AND AND ISZERO PUSH2 0x4DC JUMPI PUSH2 0x4DB PUSH2 0x56B JUMP JUMPDEST JUMPDEST DUP3 DUP3 MUL SWAP1 POP SWAP3 SWAP2 POP POP JUMP JUMPDEST PUSH1 0x0 PUSH2 0x4F2 DUP3 PUSH2 0x54B JUMP JUMPDEST SWAP2 POP PUSH2 0x4FD DUP4 PUSH2 0x54B JUMP JUMPDEST SWAP3 POP DUP2 PUSH32 0xFFFFFFFFFFFFFFFFFFFFFFFFFFFFFFFFFFFFFFFFFFFFFFFFFFFFFFFFFFFFFFFF DIV DUP4 GT DUP3 ISZERO ISZERO AND ISZERO PUSH2 0x536 JUMPI PUSH2 0x535 PUSH2 0x56B JUMP JUMPDEST JUMPDEST DUP3 DUP3 MUL SWAP1 POP SWAP3 SWAP2 POP POP JUMP JUMPDEST PUSH1 0x0 DUP2 SWAP1 POP SWAP2 SWAP1 POP JUMP JUMPDEST PUSH1 0x0 DUP2 SWAP1 POP SWAP2 SWAP1 POP JUMP JUMPDEST PUSH1 0x0 PUSH10 0xFFFFFFFFFFFFFFFFFFFF DUP3 AND SWAP1 POP SWAP2 SWAP1 POP JUMP JUMPDEST PUSH32 0x4E487B7100000000000000000000000000000000000000000000000000000000 PUSH1 0x0 MSTORE PUSH1 0x11 PUSH1 0x4 MSTORE PUSH1 0x24 PUSH1 0x0 REVERT JUMPDEST PUSH32 0x4E487B7100000000000000000000000000000000000000000000000000000000 PUSH1 0x0 MSTORE PUSH1 0x12 PUSH1 0x4 MSTORE PUSH1 0x24 PUSH1 0x0 REVERT JUMPDEST PUSH1 0x0 DUP1 REVERT JUMPDEST PUSH2 0x5D7 DUP2 PUSH2 0x541 JUMP JUMPDEST DUP2 EQ PUSH2 0x5E2 JUMPI PUSH1 0x0 DUP1 REVERT JUMPDEST POP JUMP JUMPDEST PUSH2 0x5EE DUP2 PUSH2 0x54B JUMP JUMPDEST DUP2 EQ PUSH2 0x5F9 JUMPI PUSH1 0x0 DUP1 REVERT JUMPDEST POP JUMP JUMPDEST PUSH2 0x605 DUP2 PUSH2 0x555 JUMP JUMPDEST DUP2 EQ PUSH2 0x610 JUMPI PUSH1 0x0 DUP1 REVERT JUMPDEST POP JUMP INVALID LOG2 PUSH5 0x6970667358 0x22 SLT KECCAK256 NOT 0xD6 MOD 0xE1 INVALID SAR 0xCF 0xB1 0xEB SWAP6 PUSH26 0xEF70C5924EC3A77046B6233AC04907DAA18481460A64736F6C63 NUMBER STOP ADDMOD SMOD STOP CALLER "
				},
				"gasEstimates": {
					"creation": {
						"codeDepositCost": "321800",
						"executionCost": "387",
						"totalCost": "322187"
					},
					"external": {
						"conversion(uint256)": "infinite",
						"getPrice()": "infinite",
						"getVersion()": "infinite"
					}
				},
				"methodIdentifiers": {
					"conversion(uint256)": "ba4d0c99",
					"getPrice()": "98d5fdca",
					"getVersion()": "0d8e6e2c"
				}
			},
			"storageLayout": {
				"storage": [],
				"types": null
			},
			"userdoc": {
				"kind": "user",
				"methods": {},
				"version": 1
			}
		}
	}
}