{
	"contracts/FundMe.sol": {
		"FundMe": {
			"abi": [
				{
					"inputs": [],
					"stateMutability": "nonpayable",
					"type": "constructor"
				},
				{
					"inputs": [
						{
							"internalType": "uint256",
							"name": "ethAmount",
							"type": "uint256"
						}
					],
					"name": "conversion",
					"outputs": [
						{
							"internalType": "uint256",
							"name": "",
							"type": "uint256"
						}
					],
					"stateMutability": "view",
					"type": "function"
				},
				{
					"inputs": [
						{
							"internalType": "uint256",
							"name": "",
							"type": "uint256"
						}
					],
					"name": "funders",
					"outputs": [
						{
							"internalType": "address",
							"name": "",
							"type": "address"
						}
					],
					"stateMutability": "view",
					"type": "function"
				},
				{
					"inputs": [],
					"name": "getPrice",
					"outputs": [
						{
							"internalType": "uint256",
							"name": "",
							"type": "uint256"
						}
					],
					"stateMutability": "view",
					"type": "function"
				},
				{
					"inputs": [],
					"name": "getVersion",
					"outputs": [
						{
							"internalType": "uint256",
							"name": "",
							"type": "uint256"
						}
					],
					"stateMutability": "view",
					"type": "function"
				},
				{
					"inputs": [],
					"name": "minimumUsd",
					"outputs": [
						{
							"internalType": "uint256",
							"name": "",
							"type": "uint256"
						}
					],
					"stateMutability": "view",
					"type": "function"
				},
				{
					"inputs": [],
					"name": "owner",
					"outputs": [
						{
							"internalType": "address payable",
							"name": "",
							"type": "address"
						}
					],
					"stateMutability": "view",
					"type": "function"
				},
				{
					"inputs": [],
					"name": "receiveFunds",
					"outputs": [],
					"stateMutability": "payable",
					"type": "function"
				}
			],
			"devdoc": {
				"kind": "dev",
				"methods": {},
				"version": 1
			},
			"evm": {
				"assembly": "    /* \"contracts/FundMe.sol\":327:2048  contract FundMe{\r... */\n  mstore(0x40, 0x80)\n    /* \"contracts/FundMe.sol\":379:381  50 */\n  0x32\n    /* \"contracts/FundMe.sol\":351:381  uint256 public minimumUsd = 50 */\n  0x00\n  sstore\n    /* \"contracts/FundMe.sol\":595:738  constructor(){\r... */\n  callvalue\n  dup1\n  iszero\n  tag_1\n  jumpi\n  0x00\n  dup1\n  revert\ntag_1:\n  pop\n    /* \"contracts/FundMe.sol\":687:729  0x9326BFA02ADD2366b30bacB125260Af641031331 */\n  0x9326bfa02add2366b30bacb125260af641031331\n    /* \"contracts/FundMe.sol\":653:662  priceFeed */\n  0x02\n  0x00\n    /* \"contracts/FundMe.sol\":653:730  priceFeed = AggregatorV3Interface(0x9326BFA02ADD2366b30bacB125260Af641031331) */\n  0x0100\n  exp\n  dup2\n  sload\n  dup2\n  0xffffffffffffffffffffffffffffffffffffffff\n  mul\n  not\n  and\n  swap1\n  dup4\n  0xffffffffffffffffffffffffffffffffffffffff\n  and\n  mul\n  or\n  swap1\n  sstore\n  pop\n    /* \"contracts/FundMe.sol\":327:2048  contract FundMe{\r... */\n  dataSize(sub_0)\n  dup1\n  dataOffset(sub_0)\n  0x00\n  codecopy\n  0x00\n  return\nstop\n\nsub_0: assembly {\n        /* \"contracts/FundMe.sol\":327:2048  contract FundMe{\r... */\n      mstore(0x40, 0x80)\n      jumpi(tag_1, lt(calldatasize, 0x04))\n      shr(0xe0, calldataload(0x00))\n      dup1\n      0x8da5cb5b\n      gt\n      tag_9\n      jumpi\n      dup1\n      0x8da5cb5b\n      eq\n      tag_5\n      jumpi\n      dup1\n      0x98d5fdca\n      eq\n      tag_6\n      jumpi\n      dup1\n      0xba4d0c99\n      eq\n      tag_7\n      jumpi\n      dup1\n      0xdc0d3dff\n      eq\n      tag_8\n      jumpi\n      jump(tag_1)\n    tag_9:\n      dup1\n      0x5c33e1\n      eq\n      tag_2\n      jumpi\n      dup1\n      0x098de820\n      eq\n      tag_3\n      jumpi\n      dup1\n      0x0d8e6e2c\n      eq\n      tag_4\n      jumpi\n    tag_1:\n      0x00\n      dup1\n      revert\n        /* \"contracts/FundMe.sol\":746:1165  function receiveFunds() public payable{\r... */\n    tag_2:\n      tag_10\n      tag_11\n      jump\t// in\n    tag_10:\n      stop\n        /* \"contracts/FundMe.sol\":351:381  uint256 public minimumUsd = 50 */\n    tag_3:\n      callvalue\n      dup1\n      iszero\n      tag_12\n      jumpi\n      0x00\n      dup1\n      revert\n    tag_12:\n      pop\n      tag_13\n      tag_14\n      jump\t// in\n    tag_13:\n      mload(0x40)\n      tag_15\n      swap2\n      swap1\n      tag_16\n      jump\t// in\n    tag_15:\n      mload(0x40)\n      dup1\n      swap2\n      sub\n      swap1\n      return\n        /* \"contracts/FundMe.sol\":1445:1542  function getVersion() public view returns(uint256){\r... */\n    tag_4:\n      callvalue\n      dup1\n      iszero\n      tag_17\n      jumpi\n      0x00\n      dup1\n      revert\n    tag_17:\n      pop\n      tag_18\n      tag_19\n      jump\t// in\n    tag_18:\n      mload(0x40)\n      tag_20\n      swap2\n      swap1\n      tag_16\n      jump\t// in\n    tag_20:\n      mload(0x40)\n      dup1\n      swap2\n      sub\n      swap1\n      return\n        /* \"contracts/FundMe.sol\":388:416  address payable public owner */\n    tag_5:\n      callvalue\n      dup1\n      iszero\n      tag_21\n      jumpi\n      0x00\n      dup1\n      revert\n    tag_21:\n      pop\n      tag_22\n      tag_23\n      jump\t// in\n    tag_22:\n      mload(0x40)\n      tag_24\n      swap2\n      swap1\n      tag_25\n      jump\t// in\n    tag_24:\n      mload(0x40)\n      dup1\n      swap2\n      sub\n      swap1\n      return\n        /* \"contracts/FundMe.sol\":1173:1437  function getPrice() public view returns(uint256){\r... */\n    tag_6:\n      callvalue\n      dup1\n      iszero\n      tag_26\n      jumpi\n      0x00\n      dup1\n      revert\n    tag_26:\n      pop\n      tag_27\n      tag_28\n      jump\t// in\n    tag_27:\n      mload(0x40)\n      tag_29\n      swap2\n      swap1\n      tag_16\n      jump\t// in\n    tag_29:\n      mload(0x40)\n      dup1\n      swap2\n      sub\n      swap1\n      return\n        /* \"contracts/FundMe.sol\":1550:1862  function conversion(uint256 ethAmount) public view returns(uint256){\r... */\n    tag_7:\n      callvalue\n      dup1\n      iszero\n      tag_30\n      jumpi\n      0x00\n      dup1\n      revert\n    tag_30:\n      pop\n      tag_31\n      0x04\n      dup1\n      calldatasize\n      sub\n      dup2\n      add\n      swap1\n      tag_32\n      swap2\n      swap1\n      tag_33\n      jump\t// in\n    tag_32:\n      tag_34\n      jump\t// in\n    tag_31:\n      mload(0x40)\n      tag_35\n      swap2\n      swap1\n      tag_16\n      jump\t// in\n    tag_35:\n      mload(0x40)\n      dup1\n      swap2\n      sub\n      swap1\n      return\n        /* \"contracts/FundMe.sol\":501:525  address[] public funders */\n    tag_8:\n      callvalue\n      dup1\n      iszero\n      tag_36\n      jumpi\n      0x00\n      dup1\n      revert\n    tag_36:\n      pop\n      tag_37\n      0x04\n      dup1\n      calldatasize\n      sub\n      dup2\n      add\n      swap1\n      tag_38\n      swap2\n      swap1\n      tag_33\n      jump\t// in\n    tag_38:\n      tag_39\n      jump\t// in\n    tag_37:\n      mload(0x40)\n      tag_40\n      swap2\n      swap1\n      tag_41\n      jump\t// in\n    tag_40:\n      mload(0x40)\n      dup1\n      swap2\n      sub\n      swap1\n      return\n        /* \"contracts/FundMe.sol\":746:1165  function receiveFunds() public payable{\r... */\n    tag_11:\n        /* \"contracts/FundMe.sol\":918:928  minimumUsd */\n      sload(0x00)\n        /* \"contracts/FundMe.sol\":893:914  conversion(msg.value) */\n      tag_43\n        /* \"contracts/FundMe.sol\":904:913  msg.value */\n      callvalue\n        /* \"contracts/FundMe.sol\":893:903  conversion */\n      tag_34\n        /* \"contracts/FundMe.sol\":893:914  conversion(msg.value) */\n      jump\t// in\n    tag_43:\n        /* \"contracts/FundMe.sol\":893:928  conversion(msg.value) >= minimumUsd */\n      lt\n      iszero\n        /* \"contracts/FundMe.sol\":885:975  require(conversion(msg.value) >= minimumUsd , \"The minimum amount of fund would be >=50$\") */\n      tag_44\n      jumpi\n      mload(0x40)\n      0x08c379a000000000000000000000000000000000000000000000000000000000\n      dup2\n      mstore\n      0x04\n      add\n      tag_45\n      swap1\n      tag_46\n      jump\t// in\n    tag_45:\n      mload(0x40)\n      dup1\n      swap2\n      sub\n      swap1\n      revert\n    tag_44:\n        /* \"contracts/FundMe.sol\":986:993  funders */\n      0x03\n        /* \"contracts/FundMe.sol\":999:1009  msg.sender */\n      caller\n        /* \"contracts/FundMe.sol\":986:1010  funders.push(msg.sender) */\n      swap1\n      dup1\n      0x01\n      dup2\n      sload\n      add\n      dup1\n      dup3\n      sstore\n      dup1\n      swap2\n      pop\n      pop\n      0x01\n      swap1\n      sub\n      swap1\n      0x00\n      mstore\n      keccak256(0x00, 0x20)\n      add\n      0x00\n      swap1\n      swap2\n      swap1\n      swap2\n      swap1\n      swap2\n      0x0100\n      exp\n      dup2\n      sload\n      dup2\n      0xffffffffffffffffffffffffffffffffffffffff\n      mul\n      not\n      and\n      swap1\n      dup4\n      0xffffffffffffffffffffffffffffffffffffffff\n      and\n      mul\n      or\n      swap1\n      sstore\n      pop\n        /* \"contracts/FundMe.sol\":746:1165  function receiveFunds() public payable{\r... */\n      jump\t// out\n        /* \"contracts/FundMe.sol\":351:381  uint256 public minimumUsd = 50 */\n    tag_14:\n      sload(0x00)\n      dup2\n      jump\t// out\n        /* \"contracts/FundMe.sol\":1445:1542  function getVersion() public view returns(uint256){\r... */\n    tag_19:\n        /* \"contracts/FundMe.sol\":1487:1494  uint256 */\n      0x00\n        /* \"contracts/FundMe.sol\":1515:1524  priceFeed */\n      0x02\n      0x00\n      swap1\n      sload\n      swap1\n      0x0100\n      exp\n      swap1\n      div\n      0xffffffffffffffffffffffffffffffffffffffff\n      and\n        /* \"contracts/FundMe.sol\":1515:1532  priceFeed.version */\n      0xffffffffffffffffffffffffffffffffffffffff\n      and\n      0x54fd4d50\n        /* \"contracts/FundMe.sol\":1515:1534  priceFeed.version() */\n      mload(0x40)\n      dup2\n      0xffffffff\n      and\n      0xe0\n      shl\n      dup2\n      mstore\n      0x04\n      add\n      0x20\n      mload(0x40)\n      dup1\n      dup4\n      sub\n      dup2\n      dup7\n      dup1\n      extcodesize\n      iszero\n      dup1\n      iszero\n      tag_49\n      jumpi\n      0x00\n      dup1\n      revert\n    tag_49:\n      pop\n      gas\n      staticcall\n      iszero\n      dup1\n      iszero\n      tag_51\n      jumpi\n      returndatasize\n      0x00\n      dup1\n      returndatacopy\n      revert(0x00, returndatasize)\n    tag_51:\n      pop\n      pop\n      pop\n      pop\n      mload(0x40)\n      returndatasize\n      not(0x1f)\n      0x1f\n      dup3\n      add\n      and\n      dup3\n      add\n      dup1\n      0x40\n      mstore\n      pop\n      dup2\n      add\n      swap1\n      tag_52\n      swap2\n      swap1\n      tag_53\n      jump\t// in\n    tag_52:\n        /* \"contracts/FundMe.sol\":1508:1534  return priceFeed.version() */\n      swap1\n      pop\n        /* \"contracts/FundMe.sol\":1445:1542  function getVersion() public view returns(uint256){\r... */\n      swap1\n      jump\t// out\n        /* \"contracts/FundMe.sol\":388:416  address payable public owner */\n    tag_23:\n      0x01\n      0x00\n      swap1\n      sload\n      swap1\n      0x0100\n      exp\n      swap1\n      div\n      0xffffffffffffffffffffffffffffffffffffffff\n      and\n      dup2\n      jump\t// out\n        /* \"contracts/FundMe.sol\":1173:1437  function getPrice() public view returns(uint256){\r... */\n    tag_28:\n        /* \"contracts/FundMe.sol\":1213:1220  uint256 */\n      0x00\n        /* \"contracts/FundMe.sol\":1271:1284  int256 answer */\n      dup1\n        /* \"contracts/FundMe.sol\":1292:1301  priceFeed */\n      0x02\n      0x00\n      swap1\n      sload\n      swap1\n      0x0100\n      exp\n      swap1\n      div\n      0xffffffffffffffffffffffffffffffffffffffff\n      and\n        /* \"contracts/FundMe.sol\":1292:1317  priceFeed.latestRoundData */\n      0xffffffffffffffffffffffffffffffffffffffff\n      and\n      0xfeaf968c\n        /* \"contracts/FundMe.sol\":1292:1319  priceFeed.latestRoundData() */\n      mload(0x40)\n      dup2\n      0xffffffff\n      and\n      0xe0\n      shl\n      dup2\n      mstore\n      0x04\n      add\n      0xa0\n      mload(0x40)\n      dup1\n      dup4\n      sub\n      dup2\n      dup7\n      dup1\n      extcodesize\n      iszero\n      dup1\n      iszero\n      tag_55\n      jumpi\n      0x00\n      dup1\n      revert\n    tag_55:\n      pop\n      gas\n      staticcall\n      iszero\n      dup1\n      iszero\n      tag_57\n      jumpi\n      returndatasize\n      0x00\n      dup1\n      returndatacopy\n      revert(0x00, returndatasize)\n    tag_57:\n      pop\n      pop\n      pop\n      pop\n      mload(0x40)\n      returndatasize\n      not(0x1f)\n      0x1f\n      dup3\n      add\n      and\n      dup3\n      add\n      dup1\n      0x40\n      mstore\n      pop\n      dup2\n      add\n      swap1\n      tag_58\n      swap2\n      swap1\n      tag_59\n      jump\t// in\n    tag_58:\n        /* \"contracts/FundMe.sol\":1268:1319  (, int256 answer ,,,) = priceFeed.latestRoundData() */\n      pop\n      pop\n      pop\n      swap2\n      pop\n      pop\n        /* \"contracts/FundMe.sol\":1415:1419  1e10 */\n      0x02540be400\n        /* \"contracts/FundMe.sol\":1407:1413  answer */\n      dup2\n        /* \"contracts/FundMe.sol\":1407:1419  answer* 1e10 */\n      tag_60\n      swap2\n      swap1\n      tag_61\n      jump\t// in\n    tag_60:\n        /* \"contracts/FundMe.sol\":1392:1420  return uint256(answer* 1e10) */\n      swap2\n      pop\n      pop\n        /* \"contracts/FundMe.sol\":1173:1437  function getPrice() public view returns(uint256){\r... */\n      swap1\n      jump\t// out\n        /* \"contracts/FundMe.sol\":1550:1862  function conversion(uint256 ethAmount) public view returns(uint256){\r... */\n    tag_34:\n        /* \"contracts/FundMe.sol\":1609:1616  uint256 */\n      0x00\n        /* \"contracts/FundMe.sol\":1715:1731  uint256 ethPrice */\n      dup1\n        /* \"contracts/FundMe.sol\":1734:1744  getPrice() */\n      tag_63\n        /* \"contracts/FundMe.sol\":1734:1742  getPrice */\n      tag_28\n        /* \"contracts/FundMe.sol\":1734:1744  getPrice() */\n      jump\t// in\n    tag_63:\n        /* \"contracts/FundMe.sol\":1715:1744  uint256 ethPrice = getPrice() */\n      swap1\n      pop\n        /* \"contracts/FundMe.sol\":1778:1794  uint256 ethinUSD */\n      0x00\n        /* \"contracts/FundMe.sol\":1822:1826  1e18 */\n      0x0de0b6b3a7640000\n        /* \"contracts/FundMe.sol\":1810:1818  ethPrice */\n      dup3\n        /* \"contracts/FundMe.sol\":1798:1807  ethAmount */\n      dup6\n        /* \"contracts/FundMe.sol\":1798:1818  ethAmount * ethPrice */\n      tag_64\n      swap2\n      swap1\n      tag_65\n      jump\t// in\n    tag_64:\n        /* \"contracts/FundMe.sol\":1797:1826  (ethAmount * ethPrice) / 1e18 */\n      tag_66\n      swap2\n      swap1\n      tag_67\n      jump\t// in\n    tag_66:\n        /* \"contracts/FundMe.sol\":1778:1826  uint256 ethinUSD = (ethAmount * ethPrice) / 1e18 */\n      swap1\n      pop\n        /* \"contracts/FundMe.sol\":1844:1852  ethinUSD */\n      dup1\n        /* \"contracts/FundMe.sol\":1837:1852  return ethinUSD */\n      swap3\n      pop\n      pop\n      pop\n        /* \"contracts/FundMe.sol\":1550:1862  function conversion(uint256 ethAmount) public view returns(uint256){\r... */\n      swap2\n      swap1\n      pop\n      jump\t// out\n        /* \"contracts/FundMe.sol\":501:525  address[] public funders */\n    tag_39:\n      0x03\n      dup2\n      dup2\n      sload\n      dup2\n      lt\n      tag_68\n      jumpi\n      0x00\n      dup1\n      revert\n    tag_68:\n      swap1\n      0x00\n      mstore\n      keccak256(0x00, 0x20)\n      add\n      0x00\n      swap2\n      pop\n      sload\n      swap1\n      0x0100\n      exp\n      swap1\n      div\n      0xffffffffffffffffffffffffffffffffffffffff\n      and\n      dup2\n      jump\t// out\n        /* \"#utility.yul\":7:148   */\n    tag_71:\n        /* \"#utility.yul\":63:68   */\n      0x00\n        /* \"#utility.yul\":94:100   */\n      dup2\n        /* \"#utility.yul\":88:101   */\n      mload\n        /* \"#utility.yul\":79:101   */\n      swap1\n      pop\n        /* \"#utility.yul\":110:142   */\n      tag_73\n        /* \"#utility.yul\":136:141   */\n      dup2\n        /* \"#utility.yul\":110:142   */\n      tag_74\n      jump\t// in\n    tag_73:\n        /* \"#utility.yul\":7:148   */\n      swap3\n      swap2\n      pop\n      pop\n      jump\t// out\n        /* \"#utility.yul\":154:293   */\n    tag_75:\n        /* \"#utility.yul\":200:205   */\n      0x00\n        /* \"#utility.yul\":238:244   */\n      dup2\n        /* \"#utility.yul\":225:245   */\n      calldataload\n        /* \"#utility.yul\":216:245   */\n      swap1\n      pop\n        /* \"#utility.yul\":254:287   */\n      tag_77\n        /* \"#utility.yul\":281:286   */\n      dup2\n        /* \"#utility.yul\":254:287   */\n      tag_78\n      jump\t// in\n    tag_77:\n        /* \"#utility.yul\":154:293   */\n      swap3\n      swap2\n      pop\n      pop\n      jump\t// out\n        /* \"#utility.yul\":299:442   */\n    tag_79:\n        /* \"#utility.yul\":356:361   */\n      0x00\n        /* \"#utility.yul\":387:393   */\n      dup2\n        /* \"#utility.yul\":381:394   */\n      mload\n        /* \"#utility.yul\":372:394   */\n      swap1\n      pop\n        /* \"#utility.yul\":403:436   */\n      tag_81\n        /* \"#utility.yul\":430:435   */\n      dup2\n        /* \"#utility.yul\":403:436   */\n      tag_78\n      jump\t// in\n    tag_81:\n        /* \"#utility.yul\":299:442   */\n      swap3\n      swap2\n      pop\n      pop\n      jump\t// out\n        /* \"#utility.yul\":448:589   */\n    tag_82:\n        /* \"#utility.yul\":504:509   */\n      0x00\n        /* \"#utility.yul\":535:541   */\n      dup2\n        /* \"#utility.yul\":529:542   */\n      mload\n        /* \"#utility.yul\":520:542   */\n      swap1\n      pop\n        /* \"#utility.yul\":551:583   */\n      tag_84\n        /* \"#utility.yul\":577:582   */\n      dup2\n        /* \"#utility.yul\":551:583   */\n      tag_85\n      jump\t// in\n    tag_84:\n        /* \"#utility.yul\":448:589   */\n      swap3\n      swap2\n      pop\n      pop\n      jump\t// out\n        /* \"#utility.yul\":595:924   */\n    tag_33:\n        /* \"#utility.yul\":654:660   */\n      0x00\n        /* \"#utility.yul\":703:705   */\n      0x20\n        /* \"#utility.yul\":691:700   */\n      dup3\n        /* \"#utility.yul\":682:689   */\n      dup5\n        /* \"#utility.yul\":678:701   */\n      sub\n        /* \"#utility.yul\":674:706   */\n      slt\n        /* \"#utility.yul\":671:790   */\n      iszero\n      tag_87\n      jumpi\n        /* \"#utility.yul\":709:788   */\n      tag_88\n      tag_89\n      jump\t// in\n    tag_88:\n        /* \"#utility.yul\":671:790   */\n    tag_87:\n        /* \"#utility.yul\":829:830   */\n      0x00\n        /* \"#utility.yul\":854:907   */\n      tag_90\n        /* \"#utility.yul\":899:906   */\n      dup5\n        /* \"#utility.yul\":890:896   */\n      dup3\n        /* \"#utility.yul\":879:888   */\n      dup6\n        /* \"#utility.yul\":875:897   */\n      add\n        /* \"#utility.yul\":854:907   */\n      tag_75\n      jump\t// in\n    tag_90:\n        /* \"#utility.yul\":844:907   */\n      swap2\n      pop\n        /* \"#utility.yul\":800:917   */\n      pop\n        /* \"#utility.yul\":595:924   */\n      swap3\n      swap2\n      pop\n      pop\n      jump\t// out\n        /* \"#utility.yul\":930:1281   */\n    tag_53:\n        /* \"#utility.yul\":1000:1006   */\n      0x00\n        /* \"#utility.yul\":1049:1051   */\n      0x20\n        /* \"#utility.yul\":1037:1046   */\n      dup3\n        /* \"#utility.yul\":1028:1035   */\n      dup5\n        /* \"#utility.yul\":1024:1047   */\n      sub\n        /* \"#utility.yul\":1020:1052   */\n      slt\n        /* \"#utility.yul\":1017:1136   */\n      iszero\n      tag_92\n      jumpi\n        /* \"#utility.yul\":1055:1134   */\n      tag_93\n      tag_89\n      jump\t// in\n    tag_93:\n        /* \"#utility.yul\":1017:1136   */\n    tag_92:\n        /* \"#utility.yul\":1175:1176   */\n      0x00\n        /* \"#utility.yul\":1200:1264   */\n      tag_94\n        /* \"#utility.yul\":1256:1263   */\n      dup5\n        /* \"#utility.yul\":1247:1253   */\n      dup3\n        /* \"#utility.yul\":1236:1245   */\n      dup6\n        /* \"#utility.yul\":1232:1254   */\n      add\n        /* \"#utility.yul\":1200:1264   */\n      tag_79\n      jump\t// in\n    tag_94:\n        /* \"#utility.yul\":1190:1264   */\n      swap2\n      pop\n        /* \"#utility.yul\":1146:1274   */\n      pop\n        /* \"#utility.yul\":930:1281   */\n      swap3\n      swap2\n      pop\n      pop\n      jump\t// out\n        /* \"#utility.yul\":1287:2258   */\n    tag_59:\n        /* \"#utility.yul\":1390:1396   */\n      0x00\n        /* \"#utility.yul\":1398:1404   */\n      dup1\n        /* \"#utility.yul\":1406:1412   */\n      0x00\n        /* \"#utility.yul\":1414:1420   */\n      dup1\n        /* \"#utility.yul\":1422:1428   */\n      0x00\n        /* \"#utility.yul\":1471:1474   */\n      0xa0\n        /* \"#utility.yul\":1459:1468   */\n      dup7\n        /* \"#utility.yul\":1450:1457   */\n      dup9\n        /* \"#utility.yul\":1446:1469   */\n      sub\n        /* \"#utility.yul\":1442:1475   */\n      slt\n        /* \"#utility.yul\":1439:1559   */\n      iszero\n      tag_96\n      jumpi\n        /* \"#utility.yul\":1478:1557   */\n      tag_97\n      tag_89\n      jump\t// in\n    tag_97:\n        /* \"#utility.yul\":1439:1559   */\n    tag_96:\n        /* \"#utility.yul\":1598:1599   */\n      0x00\n        /* \"#utility.yul\":1623:1686   */\n      tag_98\n        /* \"#utility.yul\":1678:1685   */\n      dup9\n        /* \"#utility.yul\":1669:1675   */\n      dup3\n        /* \"#utility.yul\":1658:1667   */\n      dup10\n        /* \"#utility.yul\":1654:1676   */\n      add\n        /* \"#utility.yul\":1623:1686   */\n      tag_82\n      jump\t// in\n    tag_98:\n        /* \"#utility.yul\":1613:1686   */\n      swap6\n      pop\n        /* \"#utility.yul\":1569:1696   */\n      pop\n        /* \"#utility.yul\":1735:1737   */\n      0x20\n        /* \"#utility.yul\":1761:1824   */\n      tag_99\n        /* \"#utility.yul\":1816:1823   */\n      dup9\n        /* \"#utility.yul\":1807:1813   */\n      dup3\n        /* \"#utility.yul\":1796:1805   */\n      dup10\n        /* \"#utility.yul\":1792:1814   */\n      add\n        /* \"#utility.yul\":1761:1824   */\n      tag_71\n      jump\t// in\n    tag_99:\n        /* \"#utility.yul\":1751:1824   */\n      swap5\n      pop\n        /* \"#utility.yul\":1706:1834   */\n      pop\n        /* \"#utility.yul\":1873:1875   */\n      0x40\n        /* \"#utility.yul\":1899:1963   */\n      tag_100\n        /* \"#utility.yul\":1955:1962   */\n      dup9\n        /* \"#utility.yul\":1946:1952   */\n      dup3\n        /* \"#utility.yul\":1935:1944   */\n      dup10\n        /* \"#utility.yul\":1931:1953   */\n      add\n        /* \"#utility.yul\":1899:1963   */\n      tag_79\n      jump\t// in\n    tag_100:\n        /* \"#utility.yul\":1889:1963   */\n      swap4\n      pop\n        /* \"#utility.yul\":1844:1973   */\n      pop\n        /* \"#utility.yul\":2012:2014   */\n      0x60\n        /* \"#utility.yul\":2038:2102   */\n      tag_101\n        /* \"#utility.yul\":2094:2101   */\n      dup9\n        /* \"#utility.yul\":2085:2091   */\n      dup3\n        /* \"#utility.yul\":2074:2083   */\n      dup10\n        /* \"#utility.yul\":2070:2092   */\n      add\n        /* \"#utility.yul\":2038:2102   */\n      tag_79\n      jump\t// in\n    tag_101:\n        /* \"#utility.yul\":2028:2102   */\n      swap3\n      pop\n        /* \"#utility.yul\":1983:2112   */\n      pop\n        /* \"#utility.yul\":2151:2154   */\n      0x80\n        /* \"#utility.yul\":2178:2241   */\n      tag_102\n        /* \"#utility.yul\":2233:2240   */\n      dup9\n        /* \"#utility.yul\":2224:2230   */\n      dup3\n        /* \"#utility.yul\":2213:2222   */\n      dup10\n        /* \"#utility.yul\":2209:2231   */\n      add\n        /* \"#utility.yul\":2178:2241   */\n      tag_82\n      jump\t// in\n    tag_102:\n        /* \"#utility.yul\":2168:2241   */\n      swap2\n      pop\n        /* \"#utility.yul\":2122:2251   */\n      pop\n        /* \"#utility.yul\":1287:2258   */\n      swap3\n      swap6\n      pop\n      swap3\n      swap6\n      swap1\n      swap4\n      pop\n      jump\t// out\n        /* \"#utility.yul\":2264:2406   */\n    tag_103:\n        /* \"#utility.yul\":2367:2399   */\n      tag_105\n        /* \"#utility.yul\":2393:2398   */\n      dup2\n        /* \"#utility.yul\":2367:2399   */\n      tag_106\n      jump\t// in\n    tag_105:\n        /* \"#utility.yul\":2362:2365   */\n      dup3\n        /* \"#utility.yul\":2355:2400   */\n      mstore\n        /* \"#utility.yul\":2264:2406   */\n      pop\n      pop\n      jump\t// out\n        /* \"#utility.yul\":2412:2530   */\n    tag_107:\n        /* \"#utility.yul\":2499:2523   */\n      tag_109\n        /* \"#utility.yul\":2517:2522   */\n      dup2\n        /* \"#utility.yul\":2499:2523   */\n      tag_110\n      jump\t// in\n    tag_109:\n        /* \"#utility.yul\":2494:2497   */\n      dup3\n        /* \"#utility.yul\":2487:2524   */\n      mstore\n        /* \"#utility.yul\":2412:2530   */\n      pop\n      pop\n      jump\t// out\n        /* \"#utility.yul\":2536:2902   */\n    tag_111:\n        /* \"#utility.yul\":2678:2681   */\n      0x00\n        /* \"#utility.yul\":2699:2766   */\n      tag_113\n        /* \"#utility.yul\":2763:2765   */\n      0x29\n        /* \"#utility.yul\":2758:2761   */\n      dup4\n        /* \"#utility.yul\":2699:2766   */\n      tag_114\n      jump\t// in\n    tag_113:\n        /* \"#utility.yul\":2692:2766   */\n      swap2\n      pop\n        /* \"#utility.yul\":2775:2868   */\n      tag_115\n        /* \"#utility.yul\":2864:2867   */\n      dup3\n        /* \"#utility.yul\":2775:2868   */\n      tag_116\n      jump\t// in\n    tag_115:\n        /* \"#utility.yul\":2893:2895   */\n      0x40\n        /* \"#utility.yul\":2888:2891   */\n      dup3\n        /* \"#utility.yul\":2884:2896   */\n      add\n        /* \"#utility.yul\":2877:2896   */\n      swap1\n      pop\n        /* \"#utility.yul\":2536:2902   */\n      swap2\n      swap1\n      pop\n      jump\t// out\n        /* \"#utility.yul\":2908:3026   */\n    tag_117:\n        /* \"#utility.yul\":2995:3019   */\n      tag_119\n        /* \"#utility.yul\":3013:3018   */\n      dup2\n        /* \"#utility.yul\":2995:3019   */\n      tag_120\n      jump\t// in\n    tag_119:\n        /* \"#utility.yul\":2990:2993   */\n      dup3\n        /* \"#utility.yul\":2983:3020   */\n      mstore\n        /* \"#utility.yul\":2908:3026   */\n      pop\n      pop\n      jump\t// out\n        /* \"#utility.yul\":3032:3254   */\n    tag_41:\n        /* \"#utility.yul\":3125:3129   */\n      0x00\n        /* \"#utility.yul\":3163:3165   */\n      0x20\n        /* \"#utility.yul\":3152:3161   */\n      dup3\n        /* \"#utility.yul\":3148:3166   */\n      add\n        /* \"#utility.yul\":3140:3166   */\n      swap1\n      pop\n        /* \"#utility.yul\":3176:3247   */\n      tag_122\n        /* \"#utility.yul\":3244:3245   */\n      0x00\n        /* \"#utility.yul\":3233:3242   */\n      dup4\n        /* \"#utility.yul\":3229:3246   */\n      add\n        /* \"#utility.yul\":3220:3226   */\n      dup5\n        /* \"#utility.yul\":3176:3247   */\n      tag_107\n      jump\t// in\n    tag_122:\n        /* \"#utility.yul\":3032:3254   */\n      swap3\n      swap2\n      pop\n      pop\n      jump\t// out\n        /* \"#utility.yul\":3260:3514   */\n    tag_25:\n        /* \"#utility.yul\":3369:3373   */\n      0x00\n        /* \"#utility.yul\":3407:3409   */\n      0x20\n        /* \"#utility.yul\":3396:3405   */\n      dup3\n        /* \"#utility.yul\":3392:3410   */\n      add\n        /* \"#utility.yul\":3384:3410   */\n      swap1\n      pop\n        /* \"#utility.yul\":3420:3507   */\n      tag_124\n        /* \"#utility.yul\":3504:3505   */\n      0x00\n        /* \"#utility.yul\":3493:3502   */\n      dup4\n        /* \"#utility.yul\":3489:3506   */\n      add\n        /* \"#utility.yul\":3480:3486   */\n      dup5\n        /* \"#utility.yul\":3420:3507   */\n      tag_103\n      jump\t// in\n    tag_124:\n        /* \"#utility.yul\":3260:3514   */\n      swap3\n      swap2\n      pop\n      pop\n      jump\t// out\n        /* \"#utility.yul\":3520:3939   */\n    tag_46:\n        /* \"#utility.yul\":3686:3690   */\n      0x00\n        /* \"#utility.yul\":3724:3726   */\n      0x20\n        /* \"#utility.yul\":3713:3722   */\n      dup3\n        /* \"#utility.yul\":3709:3727   */\n      add\n        /* \"#utility.yul\":3701:3727   */\n      swap1\n      pop\n        /* \"#utility.yul\":3773:3782   */\n      dup2\n        /* \"#utility.yul\":3767:3771   */\n      dup2\n        /* \"#utility.yul\":3763:3783   */\n      sub\n        /* \"#utility.yul\":3759:3760   */\n      0x00\n        /* \"#utility.yul\":3748:3757   */\n      dup4\n        /* \"#utility.yul\":3744:3761   */\n      add\n        /* \"#utility.yul\":3737:3784   */\n      mstore\n        /* \"#utility.yul\":3801:3932   */\n      tag_126\n        /* \"#utility.yul\":3927:3931   */\n      dup2\n        /* \"#utility.yul\":3801:3932   */\n      tag_111\n      jump\t// in\n    tag_126:\n        /* \"#utility.yul\":3793:3932   */\n      swap1\n      pop\n        /* \"#utility.yul\":3520:3939   */\n      swap2\n      swap1\n      pop\n      jump\t// out\n        /* \"#utility.yul\":3945:4167   */\n    tag_16:\n        /* \"#utility.yul\":4038:4042   */\n      0x00\n        /* \"#utility.yul\":4076:4078   */\n      0x20\n        /* \"#utility.yul\":4065:4074   */\n      dup3\n        /* \"#utility.yul\":4061:4079   */\n      add\n        /* \"#utility.yul\":4053:4079   */\n      swap1\n      pop\n        /* \"#utility.yul\":4089:4160   */\n      tag_128\n        /* \"#utility.yul\":4157:4158   */\n      0x00\n        /* \"#utility.yul\":4146:4155   */\n      dup4\n        /* \"#utility.yul\":4142:4159   */\n      add\n        /* \"#utility.yul\":4133:4139   */\n      dup5\n        /* \"#utility.yul\":4089:4160   */\n      tag_117\n      jump\t// in\n    tag_128:\n        /* \"#utility.yul\":3945:4167   */\n      swap3\n      swap2\n      pop\n      pop\n      jump\t// out\n        /* \"#utility.yul\":4254:4423   */\n    tag_114:\n        /* \"#utility.yul\":4338:4349   */\n      0x00\n        /* \"#utility.yul\":4372:4378   */\n      dup3\n        /* \"#utility.yul\":4367:4370   */\n      dup3\n        /* \"#utility.yul\":4360:4379   */\n      mstore\n        /* \"#utility.yul\":4412:4416   */\n      0x20\n        /* \"#utility.yul\":4407:4410   */\n      dup3\n        /* \"#utility.yul\":4403:4417   */\n      add\n        /* \"#utility.yul\":4388:4417   */\n      swap1\n      pop\n        /* \"#utility.yul\":4254:4423   */\n      swap3\n      swap2\n      pop\n      pop\n      jump\t// out\n        /* \"#utility.yul\":4429:4614   */\n    tag_67:\n        /* \"#utility.yul\":4469:4470   */\n      0x00\n        /* \"#utility.yul\":4486:4506   */\n      tag_133\n        /* \"#utility.yul\":4504:4505   */\n      dup3\n        /* \"#utility.yul\":4486:4506   */\n      tag_120\n      jump\t// in\n    tag_133:\n        /* \"#utility.yul\":4481:4506   */\n      swap2\n      pop\n        /* \"#utility.yul\":4520:4540   */\n      tag_134\n        /* \"#utility.yul\":4538:4539   */\n      dup4\n        /* \"#utility.yul\":4520:4540   */\n      tag_120\n      jump\t// in\n    tag_134:\n        /* \"#utility.yul\":4515:4540   */\n      swap3\n      pop\n        /* \"#utility.yul\":4559:4560   */\n      dup3\n        /* \"#utility.yul\":4549:4584   */\n      tag_135\n      jumpi\n        /* \"#utility.yul\":4564:4582   */\n      tag_136\n      tag_137\n      jump\t// in\n    tag_136:\n        /* \"#utility.yul\":4549:4584   */\n    tag_135:\n        /* \"#utility.yul\":4606:4607   */\n      dup3\n        /* \"#utility.yul\":4603:4604   */\n      dup3\n        /* \"#utility.yul\":4599:4608   */\n      div\n        /* \"#utility.yul\":4594:4608   */\n      swap1\n      pop\n        /* \"#utility.yul\":4429:4614   */\n      swap3\n      swap2\n      pop\n      pop\n      jump\t// out\n        /* \"#utility.yul\":4620:5611   */\n    tag_61:\n        /* \"#utility.yul\":4659:4666   */\n      0x00\n        /* \"#utility.yul\":4682:4701   */\n      tag_139\n        /* \"#utility.yul\":4699:4700   */\n      dup3\n        /* \"#utility.yul\":4682:4701   */\n      tag_140\n      jump\t// in\n    tag_139:\n        /* \"#utility.yul\":4677:4701   */\n      swap2\n      pop\n        /* \"#utility.yul\":4715:4734   */\n      tag_141\n        /* \"#utility.yul\":4732:4733   */\n      dup4\n        /* \"#utility.yul\":4715:4734   */\n      tag_140\n      jump\t// in\n    tag_141:\n        /* \"#utility.yul\":4710:4734   */\n      swap3\n      pop\n        /* \"#utility.yul\":4916:4917   */\n      dup3\n        /* \"#utility.yul\":4848:4914   */\n      0x7fffffffffffffffffffffffffffffffffffffffffffffffffffffffffffffff\n        /* \"#utility.yul\":4844:4918   */\n      div\n        /* \"#utility.yul\":4841:4842   */\n      dup3\n        /* \"#utility.yul\":4838:4919   */\n      gt\n        /* \"#utility.yul\":4833:4834   */\n      0x00\n        /* \"#utility.yul\":4830:4831   */\n      dup5\n        /* \"#utility.yul\":4826:4835   */\n      sgt\n        /* \"#utility.yul\":4822:4823   */\n      0x00\n        /* \"#utility.yul\":4819:4820   */\n      dup5\n        /* \"#utility.yul\":4815:4824   */\n      sgt\n        /* \"#utility.yul\":4811:4836   */\n      and\n        /* \"#utility.yul\":4807:4920   */\n      and\n        /* \"#utility.yul\":4804:4943   */\n      iszero\n      tag_142\n      jumpi\n        /* \"#utility.yul\":4923:4941   */\n      tag_143\n      tag_144\n      jump\t// in\n    tag_143:\n        /* \"#utility.yul\":4804:4943   */\n    tag_142:\n        /* \"#utility.yul\":5127:5128   */\n      dup2\n        /* \"#utility.yul\":5059:5125   */\n      0x8000000000000000000000000000000000000000000000000000000000000000\n        /* \"#utility.yul\":5054:5129   */\n      sdiv\n        /* \"#utility.yul\":5051:5052   */\n      dup4\n        /* \"#utility.yul\":5047:5130   */\n      slt\n        /* \"#utility.yul\":5042:5043   */\n      0x00\n        /* \"#utility.yul\":5039:5040   */\n      dup5\n        /* \"#utility.yul\":5035:5044   */\n      slt\n        /* \"#utility.yul\":5031:5032   */\n      0x00\n        /* \"#utility.yul\":5028:5029   */\n      dup5\n        /* \"#utility.yul\":5024:5033   */\n      sgt\n        /* \"#utility.yul\":5020:5045   */\n      and\n        /* \"#utility.yul\":5016:5131   */\n      and\n        /* \"#utility.yul\":5013:5154   */\n      iszero\n      tag_145\n      jumpi\n        /* \"#utility.yul\":5134:5152   */\n      tag_146\n      tag_144\n      jump\t// in\n    tag_146:\n        /* \"#utility.yul\":5013:5154   */\n    tag_145:\n        /* \"#utility.yul\":5338:5339   */\n      dup3\n        /* \"#utility.yul\":5270:5336   */\n      0x8000000000000000000000000000000000000000000000000000000000000000\n        /* \"#utility.yul\":5265:5340   */\n      sdiv\n        /* \"#utility.yul\":5262:5263   */\n      dup3\n        /* \"#utility.yul\":5258:5341   */\n      slt\n        /* \"#utility.yul\":5253:5254   */\n      0x00\n        /* \"#utility.yul\":5250:5251   */\n      dup5\n        /* \"#utility.yul\":5246:5255   */\n      sgt\n        /* \"#utility.yul\":5242:5243   */\n      0x00\n        /* \"#utility.yul\":5239:5240   */\n      dup5\n        /* \"#utility.yul\":5235:5244   */\n      slt\n        /* \"#utility.yul\":5231:5256   */\n      and\n        /* \"#utility.yul\":5227:5342   */\n      and\n        /* \"#utility.yul\":5224:5365   */\n      iszero\n      tag_147\n      jumpi\n        /* \"#utility.yul\":5345:5363   */\n      tag_148\n      tag_144\n      jump\t// in\n    tag_148:\n        /* \"#utility.yul\":5224:5365   */\n    tag_147:\n        /* \"#utility.yul\":5548:5549   */\n      dup3\n        /* \"#utility.yul\":5480:5546   */\n      0x7fffffffffffffffffffffffffffffffffffffffffffffffffffffffffffffff\n        /* \"#utility.yul\":5475:5550   */\n      sdiv\n        /* \"#utility.yul\":5472:5473   */\n      dup3\n        /* \"#utility.yul\":5468:5551   */\n      slt\n        /* \"#utility.yul\":5463:5464   */\n      0x00\n        /* \"#utility.yul\":5460:5461   */\n      dup5\n        /* \"#utility.yul\":5456:5465   */\n      slt\n        /* \"#utility.yul\":5452:5453   */\n      0x00\n        /* \"#utility.yul\":5449:5450   */\n      dup5\n        /* \"#utility.yul\":5445:5454   */\n      slt\n        /* \"#utility.yul\":5441:5466   */\n      and\n        /* \"#utility.yul\":5437:5552   */\n      and\n        /* \"#utility.yul\":5434:5575   */\n      iszero\n      tag_149\n      jumpi\n        /* \"#utility.yul\":5555:5573   */\n      tag_150\n      tag_144\n      jump\t// in\n    tag_150:\n        /* \"#utility.yul\":5434:5575   */\n    tag_149:\n        /* \"#utility.yul\":5603:5604   */\n      dup3\n        /* \"#utility.yul\":5600:5601   */\n      dup3\n        /* \"#utility.yul\":5596:5605   */\n      mul\n        /* \"#utility.yul\":5585:5605   */\n      swap1\n      pop\n        /* \"#utility.yul\":4620:5611   */\n      swap3\n      swap2\n      pop\n      pop\n      jump\t// out\n        /* \"#utility.yul\":5617:5965   */\n    tag_65:\n        /* \"#utility.yul\":5657:5664   */\n      0x00\n        /* \"#utility.yul\":5680:5700   */\n      tag_152\n        /* \"#utility.yul\":5698:5699   */\n      dup3\n        /* \"#utility.yul\":5680:5700   */\n      tag_120\n      jump\t// in\n    tag_152:\n        /* \"#utility.yul\":5675:5700   */\n      swap2\n      pop\n        /* \"#utility.yul\":5714:5734   */\n      tag_153\n        /* \"#utility.yul\":5732:5733   */\n      dup4\n        /* \"#utility.yul\":5714:5734   */\n      tag_120\n      jump\t// in\n    tag_153:\n        /* \"#utility.yul\":5709:5734   */\n      swap3\n      pop\n        /* \"#utility.yul\":5902:5903   */\n      dup2\n        /* \"#utility.yul\":5834:5900   */\n      0xffffffffffffffffffffffffffffffffffffffffffffffffffffffffffffffff\n        /* \"#utility.yul\":5830:5904   */\n      div\n        /* \"#utility.yul\":5827:5828   */\n      dup4\n        /* \"#utility.yul\":5824:5905   */\n      gt\n        /* \"#utility.yul\":5819:5820   */\n      dup3\n        /* \"#utility.yul\":5812:5821   */\n      iszero\n        /* \"#utility.yul\":5805:5822   */\n      iszero\n        /* \"#utility.yul\":5801:5906   */\n      and\n        /* \"#utility.yul\":5798:5929   */\n      iszero\n      tag_154\n      jumpi\n        /* \"#utility.yul\":5909:5927   */\n      tag_155\n      tag_144\n      jump\t// in\n    tag_155:\n        /* \"#utility.yul\":5798:5929   */\n    tag_154:\n        /* \"#utility.yul\":5957:5958   */\n      dup3\n        /* \"#utility.yul\":5954:5955   */\n      dup3\n        /* \"#utility.yul\":5950:5959   */\n      mul\n        /* \"#utility.yul\":5939:5959   */\n      swap1\n      pop\n        /* \"#utility.yul\":5617:5965   */\n      swap3\n      swap2\n      pop\n      pop\n      jump\t// out\n        /* \"#utility.yul\":5971:6067   */\n    tag_110:\n        /* \"#utility.yul\":6008:6015   */\n      0x00\n        /* \"#utility.yul\":6037:6061   */\n      tag_157\n        /* \"#utility.yul\":6055:6060   */\n      dup3\n        /* \"#utility.yul\":6037:6061   */\n      tag_158\n      jump\t// in\n    tag_157:\n        /* \"#utility.yul\":6026:6061   */\n      swap1\n      pop\n        /* \"#utility.yul\":5971:6067   */\n      swap2\n      swap1\n      pop\n      jump\t// out\n        /* \"#utility.yul\":6073:6177   */\n    tag_106:\n        /* \"#utility.yul\":6118:6125   */\n      0x00\n        /* \"#utility.yul\":6147:6171   */\n      tag_160\n        /* \"#utility.yul\":6165:6170   */\n      dup3\n        /* \"#utility.yul\":6147:6171   */\n      tag_158\n      jump\t// in\n    tag_160:\n        /* \"#utility.yul\":6136:6171   */\n      swap1\n      pop\n        /* \"#utility.yul\":6073:6177   */\n      swap2\n      swap1\n      pop\n      jump\t// out\n        /* \"#utility.yul\":6183:6259   */\n    tag_140:\n        /* \"#utility.yul\":6219:6226   */\n      0x00\n        /* \"#utility.yul\":6248:6253   */\n      dup2\n        /* \"#utility.yul\":6237:6253   */\n      swap1\n      pop\n        /* \"#utility.yul\":6183:6259   */\n      swap2\n      swap1\n      pop\n      jump\t// out\n        /* \"#utility.yul\":6265:6391   */\n    tag_158:\n        /* \"#utility.yul\":6302:6309   */\n      0x00\n        /* \"#utility.yul\":6342:6384   */\n      0xffffffffffffffffffffffffffffffffffffffff\n        /* \"#utility.yul\":6335:6340   */\n      dup3\n        /* \"#utility.yul\":6331:6385   */\n      and\n        /* \"#utility.yul\":6320:6385   */\n      swap1\n      pop\n        /* \"#utility.yul\":6265:6391   */\n      swap2\n      swap1\n      pop\n      jump\t// out\n        /* \"#utility.yul\":6397:6474   */\n    tag_120:\n        /* \"#utility.yul\":6434:6441   */\n      0x00\n        /* \"#utility.yul\":6463:6468   */\n      dup2\n        /* \"#utility.yul\":6452:6468   */\n      swap1\n      pop\n        /* \"#utility.yul\":6397:6474   */\n      swap2\n      swap1\n      pop\n      jump\t// out\n        /* \"#utility.yul\":6480:6585   */\n    tag_164:\n        /* \"#utility.yul\":6516:6523   */\n      0x00\n        /* \"#utility.yul\":6556:6578   */\n      0xffffffffffffffffffff\n        /* \"#utility.yul\":6549:6554   */\n      dup3\n        /* \"#utility.yul\":6545:6579   */\n      and\n        /* \"#utility.yul\":6534:6579   */\n      swap1\n      pop\n        /* \"#utility.yul\":6480:6585   */\n      swap2\n      swap1\n      pop\n      jump\t// out\n        /* \"#utility.yul\":6591:6771   */\n    tag_144:\n        /* \"#utility.yul\":6639:6716   */\n      0x4e487b7100000000000000000000000000000000000000000000000000000000\n        /* \"#utility.yul\":6636:6637   */\n      0x00\n        /* \"#utility.yul\":6629:6717   */\n      mstore\n        /* \"#utility.yul\":6736:6740   */\n      0x11\n        /* \"#utility.yul\":6733:6734   */\n      0x04\n        /* \"#utility.yul\":6726:6741   */\n      mstore\n        /* \"#utility.yul\":6760:6764   */\n      0x24\n        /* \"#utility.yul\":6757:6758   */\n      0x00\n        /* \"#utility.yul\":6750:6765   */\n      revert\n        /* \"#utility.yul\":6777:6957   */\n    tag_137:\n        /* \"#utility.yul\":6825:6902   */\n      0x4e487b7100000000000000000000000000000000000000000000000000000000\n        /* \"#utility.yul\":6822:6823   */\n      0x00\n        /* \"#utility.yul\":6815:6903   */\n      mstore\n        /* \"#utility.yul\":6922:6926   */\n      0x12\n        /* \"#utility.yul\":6919:6920   */\n      0x04\n        /* \"#utility.yul\":6912:6927   */\n      mstore\n        /* \"#utility.yul\":6946:6950   */\n      0x24\n        /* \"#utility.yul\":6943:6944   */\n      0x00\n        /* \"#utility.yul\":6936:6951   */\n      revert\n        /* \"#utility.yul\":7086:7203   */\n    tag_89:\n        /* \"#utility.yul\":7195:7196   */\n      0x00\n        /* \"#utility.yul\":7192:7193   */\n      dup1\n        /* \"#utility.yul\":7185:7197   */\n      revert\n        /* \"#utility.yul\":7209:7437   */\n    tag_116:\n        /* \"#utility.yul\":7349:7383   */\n      0x546865206d696e696d756d20616d6f756e74206f662066756e6420776f756c64\n        /* \"#utility.yul\":7345:7346   */\n      0x00\n        /* \"#utility.yul\":7337:7343   */\n      dup3\n        /* \"#utility.yul\":7333:7347   */\n      add\n        /* \"#utility.yul\":7326:7384   */\n      mstore\n        /* \"#utility.yul\":7418:7429   */\n      0x206265203e3d3530240000000000000000000000000000000000000000000000\n        /* \"#utility.yul\":7413:7415   */\n      0x20\n        /* \"#utility.yul\":7405:7411   */\n      dup3\n        /* \"#utility.yul\":7401:7416   */\n      add\n        /* \"#utility.yul\":7394:7430   */\n      mstore\n        /* \"#utility.yul\":7209:7437   */\n      pop\n      jump\t// out\n        /* \"#utility.yul\":7443:7563   */\n    tag_74:\n        /* \"#utility.yul\":7515:7538   */\n      tag_173\n        /* \"#utility.yul\":7532:7537   */\n      dup2\n        /* \"#utility.yul\":7515:7538   */\n      tag_140\n      jump\t// in\n    tag_173:\n        /* \"#utility.yul\":7508:7513   */\n      dup2\n        /* \"#utility.yul\":7505:7539   */\n      eq\n        /* \"#utility.yul\":7495:7557   */\n      tag_174\n      jumpi\n        /* \"#utility.yul\":7553:7554   */\n      0x00\n        /* \"#utility.yul\":7550:7551   */\n      dup1\n        /* \"#utility.yul\":7543:7555   */\n      revert\n        /* \"#utility.yul\":7495:7557   */\n    tag_174:\n        /* \"#utility.yul\":7443:7563   */\n      pop\n      jump\t// out\n        /* \"#utility.yul\":7569:7691   */\n    tag_78:\n        /* \"#utility.yul\":7642:7666   */\n      tag_176\n        /* \"#utility.yul\":7660:7665   */\n      dup2\n        /* \"#utility.yul\":7642:7666   */\n      tag_120\n      jump\t// in\n    tag_176:\n        /* \"#utility.yul\":7635:7640   */\n      dup2\n        /* \"#utility.yul\":7632:7667   */\n      eq\n        /* \"#utility.yul\":7622:7685   */\n      tag_177\n      jumpi\n        /* \"#utility.yul\":7681:7682   */\n      0x00\n        /* \"#utility.yul\":7678:7679   */\n      dup1\n        /* \"#utility.yul\":7671:7683   */\n      revert\n        /* \"#utility.yul\":7622:7685   */\n    tag_177:\n        /* \"#utility.yul\":7569:7691   */\n      pop\n      jump\t// out\n        /* \"#utility.yul\":7697:7817   */\n    tag_85:\n        /* \"#utility.yul\":7769:7792   */\n      tag_179\n        /* \"#utility.yul\":7786:7791   */\n      dup2\n        /* \"#utility.yul\":7769:7792   */\n      tag_164\n      jump\t// in\n    tag_179:\n        /* \"#utility.yul\":7762:7767   */\n      dup2\n        /* \"#utility.yul\":7759:7793   */\n      eq\n        /* \"#utility.yul\":7749:7811   */\n      tag_180\n      jumpi\n        /* \"#utility.yul\":7807:7808   */\n      0x00\n        /* \"#utility.yul\":7804:7805   */\n      dup1\n        /* \"#utility.yul\":7797:7809   */\n      revert\n        /* \"#utility.yul\":7749:7811   */\n    tag_180:\n        /* \"#utility.yul\":7697:7817   */\n      pop\n      jump\t// out\n\n    auxdata: 0xa2646970667358221220a1aa7c1e9beef249cf7dcfe560ae11ad12bf8a90a3ab9397905c70288c6b7d7164736f6c63430008070033\n}\n",
				"bytecode": {
					"linkReferences": {},
					"object": "6080604052603260005534801561001557600080fd5b50739326bfa02add2366b30bacb125260af641031331600260006101000a81548173ffffffffffffffffffffffffffffffffffffffff021916908373ffffffffffffffffffffffffffffffffffffffff16021790555061099a8061007a6000396000f3fe60806040526004361061006f5760003560e01c80638da5cb5b1161004e5780638da5cb5b146100d457806398d5fdca146100ff578063ba4d0c991461012a578063dc0d3dff146101675761006f565b80625c33e114610074578063098de8201461007e5780630d8e6e2c146100a9575b600080fd5b61007c6101a4565b005b34801561008a57600080fd5b50610093610256565b6040516100a09190610631565b60405180910390f35b3480156100b557600080fd5b506100be61025c565b6040516100cb9190610631565b60405180910390f35b3480156100e057600080fd5b506100e9610303565b6040516100f691906105f6565b60405180910390f35b34801561010b57600080fd5b50610114610329565b6040516101219190610631565b60405180910390f35b34801561013657600080fd5b50610151600480360381019061014c91906104b6565b6103e9565b60405161015e9190610631565b60405180910390f35b34801561017357600080fd5b5061018e600480360381019061018991906104b6565b610423565b60405161019b91906105db565b60405180910390f35b6000546101b0346103e9565b10156101f1576040517f08c379a00000000000000000000000000000000000000000000000000000000081526004016101e890610611565b60405180910390fd5b6003339080600181540180825580915050600190039060005260206000200160009091909190916101000a81548173ffffffffffffffffffffffffffffffffffffffff021916908373ffffffffffffffffffffffffffffffffffffffff160217905550565b60005481565b6000600260009054906101000a900473ffffffffffffffffffffffffffffffffffffffff1673ffffffffffffffffffffffffffffffffffffffff166354fd4d506040518163ffffffff1660e01b815260040160206040518083038186803b1580156102c657600080fd5b505afa1580156102da573d6000803e3d6000fd5b505050506040513d601f19601f820116820180604052508101906102fe91906104e3565b905090565b600160009054906101000a900473ffffffffffffffffffffffffffffffffffffffff1681565b600080600260009054906101000a900473ffffffffffffffffffffffffffffffffffffffff1673ffffffffffffffffffffffffffffffffffffffff1663feaf968c6040518163ffffffff1660e01b815260040160a06040518083038186803b15801561039457600080fd5b505afa1580156103a8573d6000803e3d6000fd5b505050506040513d601f19601f820116820180604052508101906103cc9190610510565b5050509150506402540be400816103e3919061068e565b91505090565b6000806103f4610329565b90506000670de0b6b3a7640000828561040d91906107a5565b610417919061065d565b90508092505050919050565b6003818154811061043357600080fd5b906000526020600020016000915054906101000a900473ffffffffffffffffffffffffffffffffffffffff1681565b6000815190506104718161091f565b92915050565b60008135905061048681610936565b92915050565b60008151905061049b81610936565b92915050565b6000815190506104b08161094d565b92915050565b6000602082840312156104cc576104cb6108cb565b5b60006104da84828501610477565b91505092915050565b6000602082840312156104f9576104f86108cb565b5b60006105078482850161048c565b91505092915050565b600080600080600060a0868803121561052c5761052b6108cb565b5b600061053a888289016104a1565b955050602061054b88828901610462565b945050604061055c8882890161048c565b935050606061056d8882890161048c565b925050608061057e888289016104a1565b9150509295509295909350565b61059481610811565b82525050565b6105a3816107ff565b82525050565b60006105b660298361064c565b91506105c1826108d0565b604082019050919050565b6105d58161084d565b82525050565b60006020820190506105f0600083018461059a565b92915050565b600060208201905061060b600083018461058b565b92915050565b6000602082019050818103600083015261062a816105a9565b9050919050565b600060208201905061064660008301846105cc565b92915050565b600082825260208201905092915050565b60006106688261084d565b91506106738361084d565b9250826106835761068261089c565b5b828204905092915050565b600061069982610823565b91506106a483610823565b9250827f7fffffffffffffffffffffffffffffffffffffffffffffffffffffffffffffff04821160008413600084131616156106e3576106e261086d565b5b817f800000000000000000000000000000000000000000000000000000000000000005831260008412600084131616156107205761071f61086d565b5b827f8000000000000000000000000000000000000000000000000000000000000000058212600084136000841216161561075d5761075c61086d565b5b827f7fffffffffffffffffffffffffffffffffffffffffffffffffffffffffffffff058212600084126000841216161561079a5761079961086d565b5b828202905092915050565b60006107b08261084d565b91506107bb8361084d565b9250817fffffffffffffffffffffffffffffffffffffffffffffffffffffffffffffffff04831182151516156107f4576107f361086d565b5b828202905092915050565b600061080a8261082d565b9050919050565b600061081c8261082d565b9050919050565b6000819050919050565b600073ffffffffffffffffffffffffffffffffffffffff82169050919050565b6000819050919050565b600069ffffffffffffffffffff82169050919050565b7f4e487b7100000000000000000000000000000000000000000000000000000000600052601160045260246000fd5b7f4e487b7100000000000000000000000000000000000000000000000000000000600052601260045260246000fd5b600080fd5b7f546865206d696e696d756d20616d6f756e74206f662066756e6420776f756c6460008201527f206265203e3d3530240000000000000000000000000000000000000000000000602082015250565b61092881610823565b811461093357600080fd5b50565b61093f8161084d565b811461094a57600080fd5b50565b61095681610857565b811461096157600080fd5b5056fea2646970667358221220a1aa7c1e9beef249cf7dcfe560ae11ad12bf8a90a3ab9397905c70288c6b7d7164736f6c63430008070033",
					"opcodes": "PUSH1 0x80 PUSH1 0x40 MSTORE PUSH1 0x32 PUSH1 0x0 SSTORE CALLVALUE DUP1 ISZERO PUSH2 0x15 JUMPI PUSH1 0x0 DUP1 REVERT JUMPDEST POP PUSH20 0x9326BFA02ADD2366B30BACB125260AF641031331 PUSH1 0x2 PUSH1 0x0 PUSH2 0x100 EXP DUP2 SLOAD DUP2 PUSH20 0xFFFFFFFFFFFFFFFFFFFFFFFFFFFFFFFFFFFFFFFF MUL NOT AND SWAP1 DUP4 PUSH20 0xFFFFFFFFFFFFFFFFFFFFFFFFFFFFFFFFFFFFFFFF AND MUL OR SWAP1 SSTORE POP PUSH2 0x99A DUP1 PUSH2 0x7A PUSH1 0x0 CODECOPY PUSH1 0x0 RETURN INVALID PUSH1 0x80 PUSH1 0x40 MSTORE PUSH1 0x4 CALLDATASIZE LT PUSH2 0x6F JUMPI PUSH1 0x0 CALLDATALOAD PUSH1 0xE0 SHR DUP1 PUSH4 0x8DA5CB5B GT PUSH2 0x4E JUMPI DUP1 PUSH4 0x8DA5CB5B EQ PUSH2 0xD4 JUMPI DUP1 PUSH4 0x98D5FDCA EQ PUSH2 0xFF JUMPI DUP1 PUSH4 0xBA4D0C99 EQ PUSH2 0x12A JUMPI DUP1 PUSH4 0xDC0D3DFF EQ PUSH2 0x167 JUMPI PUSH2 0x6F JUMP JUMPDEST DUP1 PUSH3 0x5C33E1 EQ PUSH2 0x74 JUMPI DUP1 PUSH4 0x98DE820 EQ PUSH2 0x7E JUMPI DUP1 PUSH4 0xD8E6E2C EQ PUSH2 0xA9 JUMPI JUMPDEST PUSH1 0x0 DUP1 REVERT JUMPDEST PUSH2 0x7C PUSH2 0x1A4 JUMP JUMPDEST STOP JUMPDEST CALLVALUE DUP1 ISZERO PUSH2 0x8A JUMPI PUSH1 0x0 DUP1 REVERT JUMPDEST POP PUSH2 0x93 PUSH2 0x256 JUMP JUMPDEST PUSH1 0x40 MLOAD PUSH2 0xA0 SWAP2 SWAP1 PUSH2 0x631 JUMP JUMPDEST PUSH1 0x40 MLOAD DUP1 SWAP2 SUB SWAP1 RETURN JUMPDEST CALLVALUE DUP1 ISZERO PUSH2 0xB5 JUMPI PUSH1 0x0 DUP1 REVERT JUMPDEST POP PUSH2 0xBE PUSH2 0x25C JUMP JUMPDEST PUSH1 0x40 MLOAD PUSH2 0xCB SWAP2 SWAP1 PUSH2 0x631 JUMP JUMPDEST PUSH1 0x40 MLOAD DUP1 SWAP2 SUB SWAP1 RETURN JUMPDEST CALLVALUE DUP1 ISZERO PUSH2 0xE0 JUMPI PUSH1 0x0 DUP1 REVERT JUMPDEST POP PUSH2 0xE9 PUSH2 0x303 JUMP JUMPDEST PUSH1 0x40 MLOAD PUSH2 0xF6 SWAP2 SWAP1 PUSH2 0x5F6 JUMP JUMPDEST PUSH1 0x40 MLOAD DUP1 SWAP2 SUB SWAP1 RETURN JUMPDEST CALLVALUE DUP1 ISZERO PUSH2 0x10B JUMPI PUSH1 0x0 DUP1 REVERT JUMPDEST POP PUSH2 0x114 PUSH2 0x329 JUMP JUMPDEST PUSH1 0x40 MLOAD PUSH2 0x121 SWAP2 SWAP1 PUSH2 0x631 JUMP JUMPDEST PUSH1 0x40 MLOAD DUP1 SWAP2 SUB SWAP1 RETURN JUMPDEST CALLVALUE DUP1 ISZERO PUSH2 0x136 JUMPI PUSH1 0x0 DUP1 REVERT JUMPDEST POP PUSH2 0x151 PUSH1 0x4 DUP1 CALLDATASIZE SUB DUP2 ADD SWAP1 PUSH2 0x14C SWAP2 SWAP1 PUSH2 0x4B6 JUMP JUMPDEST PUSH2 0x3E9 JUMP JUMPDEST PUSH1 0x40 MLOAD PUSH2 0x15E SWAP2 SWAP1 PUSH2 0x631 JUMP JUMPDEST PUSH1 0x40 MLOAD DUP1 SWAP2 SUB SWAP1 RETURN JUMPDEST CALLVALUE DUP1 ISZERO PUSH2 0x173 JUMPI PUSH1 0x0 DUP1 REVERT JUMPDEST POP PUSH2 0x18E PUSH1 0x4 DUP1 CALLDATASIZE SUB DUP2 ADD SWAP1 PUSH2 0x189 SWAP2 SWAP1 PUSH2 0x4B6 JUMP JUMPDEST PUSH2 0x423 JUMP JUMPDEST PUSH1 0x40 MLOAD PUSH2 0x19B SWAP2 SWAP1 PUSH2 0x5DB JUMP JUMPDEST PUSH1 0x40 MLOAD DUP1 SWAP2 SUB SWAP1 RETURN JUMPDEST PUSH1 0x0 SLOAD PUSH2 0x1B0 CALLVALUE PUSH2 0x3E9 JUMP JUMPDEST LT ISZERO PUSH2 0x1F1 JUMPI PUSH1 0x40 MLOAD PUSH32 0x8C379A000000000000000000000000000000000000000000000000000000000 DUP2 MSTORE PUSH1 0x4 ADD PUSH2 0x1E8 SWAP1 PUSH2 0x611 JUMP JUMPDEST PUSH1 0x40 MLOAD DUP1 SWAP2 SUB SWAP1 REVERT JUMPDEST PUSH1 0x3 CALLER SWAP1 DUP1 PUSH1 0x1 DUP2 SLOAD ADD DUP1 DUP3 SSTORE DUP1 SWAP2 POP POP PUSH1 0x1 SWAP1 SUB SWAP1 PUSH1 0x0 MSTORE PUSH1 0x20 PUSH1 0x0 KECCAK256 ADD PUSH1 0x0 SWAP1 SWAP2 SWAP1 SWAP2 SWAP1 SWAP2 PUSH2 0x100 EXP DUP2 SLOAD DUP2 PUSH20 0xFFFFFFFFFFFFFFFFFFFFFFFFFFFFFFFFFFFFFFFF MUL NOT AND SWAP1 DUP4 PUSH20 0xFFFFFFFFFFFFFFFFFFFFFFFFFFFFFFFFFFFFFFFF AND MUL OR SWAP1 SSTORE POP JUMP JUMPDEST PUSH1 0x0 SLOAD DUP2 JUMP JUMPDEST PUSH1 0x0 PUSH1 0x2 PUSH1 0x0 SWAP1 SLOAD SWAP1 PUSH2 0x100 EXP SWAP1 DIV PUSH20 0xFFFFFFFFFFFFFFFFFFFFFFFFFFFFFFFFFFFFFFFF AND PUSH20 0xFFFFFFFFFFFFFFFFFFFFFFFFFFFFFFFFFFFFFFFF AND PUSH4 0x54FD4D50 PUSH1 0x40 MLOAD DUP2 PUSH4 0xFFFFFFFF AND PUSH1 0xE0 SHL DUP2 MSTORE PUSH1 0x4 ADD PUSH1 0x20 PUSH1 0x40 MLOAD DUP1 DUP4 SUB DUP2 DUP7 DUP1 EXTCODESIZE ISZERO DUP1 ISZERO PUSH2 0x2C6 JUMPI PUSH1 0x0 DUP1 REVERT JUMPDEST POP GAS STATICCALL ISZERO DUP1 ISZERO PUSH2 0x2DA JUMPI RETURNDATASIZE PUSH1 0x0 DUP1 RETURNDATACOPY RETURNDATASIZE PUSH1 0x0 REVERT JUMPDEST POP POP POP POP PUSH1 0x40 MLOAD RETURNDATASIZE PUSH1 0x1F NOT PUSH1 0x1F DUP3 ADD AND DUP3 ADD DUP1 PUSH1 0x40 MSTORE POP DUP2 ADD SWAP1 PUSH2 0x2FE SWAP2 SWAP1 PUSH2 0x4E3 JUMP JUMPDEST SWAP1 POP SWAP1 JUMP JUMPDEST PUSH1 0x1 PUSH1 0x0 SWAP1 SLOAD SWAP1 PUSH2 0x100 EXP SWAP1 DIV PUSH20 0xFFFFFFFFFFFFFFFFFFFFFFFFFFFFFFFFFFFFFFFF AND DUP2 JUMP JUMPDEST PUSH1 0x0 DUP1 PUSH1 0x2 PUSH1 0x0 SWAP1 SLOAD SWAP1 PUSH2 0x100 EXP SWAP1 DIV PUSH20 0xFFFFFFFFFFFFFFFFFFFFFFFFFFFFFFFFFFFFFFFF AND PUSH20 0xFFFFFFFFFFFFFFFFFFFFFFFFFFFFFFFFFFFFFFFF AND PUSH4 0xFEAF968C PUSH1 0x40 MLOAD DUP2 PUSH4 0xFFFFFFFF AND PUSH1 0xE0 SHL DUP2 MSTORE PUSH1 0x4 ADD PUSH1 0xA0 PUSH1 0x40 MLOAD DUP1 DUP4 SUB DUP2 DUP7 DUP1 EXTCODESIZE ISZERO DUP1 ISZERO PUSH2 0x394 JUMPI PUSH1 0x0 DUP1 REVERT JUMPDEST POP GAS STATICCALL ISZERO DUP1 ISZERO PUSH2 0x3A8 JUMPI RETURNDATASIZE PUSH1 0x0 DUP1 RETURNDATACOPY RETURNDATASIZE PUSH1 0x0 REVERT JUMPDEST POP POP POP POP PUSH1 0x40 MLOAD RETURNDATASIZE PUSH1 0x1F NOT PUSH1 0x1F DUP3 ADD AND DUP3 ADD DUP1 PUSH1 0x40 MSTORE POP DUP2 ADD SWAP1 PUSH2 0x3CC SWAP2 SWAP1 PUSH2 0x510 JUMP JUMPDEST POP POP POP SWAP2 POP POP PUSH5 0x2540BE400 DUP2 PUSH2 0x3E3 SWAP2 SWAP1 PUSH2 0x68E JUMP JUMPDEST SWAP2 POP POP SWAP1 JUMP JUMPDEST PUSH1 0x0 DUP1 PUSH2 0x3F4 PUSH2 0x329 JUMP JUMPDEST SWAP1 POP PUSH1 0x0 PUSH8 0xDE0B6B3A7640000 DUP3 DUP6 PUSH2 0x40D SWAP2 SWAP1 PUSH2 0x7A5 JUMP JUMPDEST PUSH2 0x417 SWAP2 SWAP1 PUSH2 0x65D JUMP JUMPDEST SWAP1 POP DUP1 SWAP3 POP POP POP SWAP2 SWAP1 POP JUMP JUMPDEST PUSH1 0x3 DUP2 DUP2 SLOAD DUP2 LT PUSH2 0x433 JUMPI PUSH1 0x0 DUP1 REVERT JUMPDEST SWAP1 PUSH1 0x0 MSTORE PUSH1 0x20 PUSH1 0x0 KECCAK256 ADD PUSH1 0x0 SWAP2 POP SLOAD SWAP1 PUSH2 0x100 EXP SWAP1 DIV PUSH20 0xFFFFFFFFFFFFFFFFFFFFFFFFFFFFFFFFFFFFFFFF AND DUP2 JUMP JUMPDEST PUSH1 0x0 DUP2 MLOAD SWAP1 POP PUSH2 0x471 DUP2 PUSH2 0x91F JUMP JUMPDEST SWAP3 SWAP2 POP POP JUMP JUMPDEST PUSH1 0x0 DUP2 CALLDATALOAD SWAP1 POP PUSH2 0x486 DUP2 PUSH2 0x936 JUMP JUMPDEST SWAP3 SWAP2 POP POP JUMP JUMPDEST PUSH1 0x0 DUP2 MLOAD SWAP1 POP PUSH2 0x49B DUP2 PUSH2 0x936 JUMP JUMPDEST SWAP3 SWAP2 POP POP JUMP JUMPDEST PUSH1 0x0 DUP2 MLOAD SWAP1 POP PUSH2 0x4B0 DUP2 PUSH2 0x94D JUMP JUMPDEST SWAP3 SWAP2 POP POP JUMP JUMPDEST PUSH1 0x0 PUSH1 0x20 DUP3 DUP5 SUB SLT ISZERO PUSH2 0x4CC JUMPI PUSH2 0x4CB PUSH2 0x8CB JUMP JUMPDEST JUMPDEST PUSH1 0x0 PUSH2 0x4DA DUP5 DUP3 DUP6 ADD PUSH2 0x477 JUMP JUMPDEST SWAP2 POP POP SWAP3 SWAP2 POP POP JUMP JUMPDEST PUSH1 0x0 PUSH1 0x20 DUP3 DUP5 SUB SLT ISZERO PUSH2 0x4F9 JUMPI PUSH2 0x4F8 PUSH2 0x8CB JUMP JUMPDEST JUMPDEST PUSH1 0x0 PUSH2 0x507 DUP5 DUP3 DUP6 ADD PUSH2 0x48C JUMP JUMPDEST SWAP2 POP POP SWAP3 SWAP2 POP POP JUMP JUMPDEST PUSH1 0x0 DUP1 PUSH1 0x0 DUP1 PUSH1 0x0 PUSH1 0xA0 DUP7 DUP9 SUB SLT ISZERO PUSH2 0x52C JUMPI PUSH2 0x52B PUSH2 0x8CB JUMP JUMPDEST JUMPDEST PUSH1 0x0 PUSH2 0x53A DUP9 DUP3 DUP10 ADD PUSH2 0x4A1 JUMP JUMPDEST SWAP6 POP POP PUSH1 0x20 PUSH2 0x54B DUP9 DUP3 DUP10 ADD PUSH2 0x462 JUMP JUMPDEST SWAP5 POP POP PUSH1 0x40 PUSH2 0x55C DUP9 DUP3 DUP10 ADD PUSH2 0x48C JUMP JUMPDEST SWAP4 POP POP PUSH1 0x60 PUSH2 0x56D DUP9 DUP3 DUP10 ADD PUSH2 0x48C JUMP JUMPDEST SWAP3 POP POP PUSH1 0x80 PUSH2 0x57E DUP9 DUP3 DUP10 ADD PUSH2 0x4A1 JUMP JUMPDEST SWAP2 POP POP SWAP3 SWAP6 POP SWAP3 SWAP6 SWAP1 SWAP4 POP JUMP JUMPDEST PUSH2 0x594 DUP2 PUSH2 0x811 JUMP JUMPDEST DUP3 MSTORE POP POP JUMP JUMPDEST PUSH2 0x5A3 DUP2 PUSH2 0x7FF JUMP JUMPDEST DUP3 MSTORE POP POP JUMP JUMPDEST PUSH1 0x0 PUSH2 0x5B6 PUSH1 0x29 DUP4 PUSH2 0x64C JUMP JUMPDEST SWAP2 POP PUSH2 0x5C1 DUP3 PUSH2 0x8D0 JUMP JUMPDEST PUSH1 0x40 DUP3 ADD SWAP1 POP SWAP2 SWAP1 POP JUMP JUMPDEST PUSH2 0x5D5 DUP2 PUSH2 0x84D JUMP JUMPDEST DUP3 MSTORE POP POP JUMP JUMPDEST PUSH1 0x0 PUSH1 0x20 DUP3 ADD SWAP1 POP PUSH2 0x5F0 PUSH1 0x0 DUP4 ADD DUP5 PUSH2 0x59A JUMP JUMPDEST SWAP3 SWAP2 POP POP JUMP JUMPDEST PUSH1 0x0 PUSH1 0x20 DUP3 ADD SWAP1 POP PUSH2 0x60B PUSH1 0x0 DUP4 ADD DUP5 PUSH2 0x58B JUMP JUMPDEST SWAP3 SWAP2 POP POP JUMP JUMPDEST PUSH1 0x0 PUSH1 0x20 DUP3 ADD SWAP1 POP DUP2 DUP2 SUB PUSH1 0x0 DUP4 ADD MSTORE PUSH2 0x62A DUP2 PUSH2 0x5A9 JUMP JUMPDEST SWAP1 POP SWAP2 SWAP1 POP JUMP JUMPDEST PUSH1 0x0 PUSH1 0x20 DUP3 ADD SWAP1 POP PUSH2 0x646 PUSH1 0x0 DUP4 ADD DUP5 PUSH2 0x5CC JUMP JUMPDEST SWAP3 SWAP2 POP POP JUMP JUMPDEST PUSH1 0x0 DUP3 DUP3 MSTORE PUSH1 0x20 DUP3 ADD SWAP1 POP SWAP3 SWAP2 POP POP JUMP JUMPDEST PUSH1 0x0 PUSH2 0x668 DUP3 PUSH2 0x84D JUMP JUMPDEST SWAP2 POP PUSH2 0x673 DUP4 PUSH2 0x84D JUMP JUMPDEST SWAP3 POP DUP3 PUSH2 0x683 JUMPI PUSH2 0x682 PUSH2 0x89C JUMP JUMPDEST JUMPDEST DUP3 DUP3 DIV SWAP1 POP SWAP3 SWAP2 POP POP JUMP JUMPDEST PUSH1 0x0 PUSH2 0x699 DUP3 PUSH2 0x823 JUMP JUMPDEST SWAP2 POP PUSH2 0x6A4 DUP4 PUSH2 0x823 JUMP JUMPDEST SWAP3 POP DUP3 PUSH32 0x7FFFFFFFFFFFFFFFFFFFFFFFFFFFFFFFFFFFFFFFFFFFFFFFFFFFFFFFFFFFFFFF DIV DUP3 GT PUSH1 0x0 DUP5 SGT PUSH1 0x0 DUP5 SGT AND AND ISZERO PUSH2 0x6E3 JUMPI PUSH2 0x6E2 PUSH2 0x86D JUMP JUMPDEST JUMPDEST DUP2 PUSH32 0x8000000000000000000000000000000000000000000000000000000000000000 SDIV DUP4 SLT PUSH1 0x0 DUP5 SLT PUSH1 0x0 DUP5 SGT AND AND ISZERO PUSH2 0x720 JUMPI PUSH2 0x71F PUSH2 0x86D JUMP JUMPDEST JUMPDEST DUP3 PUSH32 0x8000000000000000000000000000000000000000000000000000000000000000 SDIV DUP3 SLT PUSH1 0x0 DUP5 SGT PUSH1 0x0 DUP5 SLT AND AND ISZERO PUSH2 0x75D JUMPI PUSH2 0x75C PUSH2 0x86D JUMP JUMPDEST JUMPDEST DUP3 PUSH32 0x7FFFFFFFFFFFFFFFFFFFFFFFFFFFFFFFFFFFFFFFFFFFFFFFFFFFFFFFFFFFFFFF SDIV DUP3 SLT PUSH1 0x0 DUP5 SLT PUSH1 0x0 DUP5 SLT AND AND ISZERO PUSH2 0x79A JUMPI PUSH2 0x799 PUSH2 0x86D JUMP JUMPDEST JUMPDEST DUP3 DUP3 MUL SWAP1 POP SWAP3 SWAP2 POP POP JUMP JUMPDEST PUSH1 0x0 PUSH2 0x7B0 DUP3 PUSH2 0x84D JUMP JUMPDEST SWAP2 POP PUSH2 0x7BB DUP4 PUSH2 0x84D JUMP JUMPDEST SWAP3 POP DUP2 PUSH32 0xFFFFFFFFFFFFFFFFFFFFFFFFFFFFFFFFFFFFFFFFFFFFFFFFFFFFFFFFFFFFFFFF DIV DUP4 GT DUP3 ISZERO ISZERO AND ISZERO PUSH2 0x7F4 JUMPI PUSH2 0x7F3 PUSH2 0x86D JUMP JUMPDEST JUMPDEST DUP3 DUP3 MUL SWAP1 POP SWAP3 SWAP2 POP POP JUMP JUMPDEST PUSH1 0x0 PUSH2 0x80A DUP3 PUSH2 0x82D JUMP JUMPDEST SWAP1 POP SWAP2 SWAP1 POP JUMP JUMPDEST PUSH1 0x0 PUSH2 0x81C DUP3 PUSH2 0x82D JUMP JUMPDEST SWAP1 POP SWAP2 SWAP1 POP JUMP JUMPDEST PUSH1 0x0 DUP2 SWAP1 POP SWAP2 SWAP1 POP JUMP JUMPDEST PUSH1 0x0 PUSH20 0xFFFFFFFFFFFFFFFFFFFFFFFFFFFFFFFFFFFFFFFF DUP3 AND SWAP1 POP SWAP2 SWAP1 POP JUMP JUMPDEST PUSH1 0x0 DUP2 SWAP1 POP SWAP2 SWAP1 POP JUMP JUMPDEST PUSH1 0x0 PUSH10 0xFFFFFFFFFFFFFFFFFFFF DUP3 AND SWAP1 POP SWAP2 SWAP1 POP JUMP JUMPDEST PUSH32 0x4E487B7100000000000000000000000000000000000000000000000000000000 PUSH1 0x0 MSTORE PUSH1 0x11 PUSH1 0x4 MSTORE PUSH1 0x24 PUSH1 0x0 REVERT JUMPDEST PUSH32 0x4E487B7100000000000000000000000000000000000000000000000000000000 PUSH1 0x0 MSTORE PUSH1 0x12 PUSH1 0x4 MSTORE PUSH1 0x24 PUSH1 0x0 REVERT JUMPDEST PUSH1 0x0 DUP1 REVERT JUMPDEST PUSH32 0x546865206D696E696D756D20616D6F756E74206F662066756E6420776F756C64 PUSH1 0x0 DUP3 ADD MSTORE PUSH32 0x206265203E3D3530240000000000000000000000000000000000000000000000 PUSH1 0x20 DUP3 ADD MSTORE POP JUMP JUMPDEST PUSH2 0x928 DUP2 PUSH2 0x823 JUMP JUMPDEST DUP2 EQ PUSH2 0x933 JUMPI PUSH1 0x0 DUP1 REVERT JUMPDEST POP JUMP JUMPDEST PUSH2 0x93F DUP2 PUSH2 0x84D JUMP JUMPDEST DUP2 EQ PUSH2 0x94A JUMPI PUSH1 0x0 DUP1 REVERT JUMPDEST POP JUMP JUMPDEST PUSH2 0x956 DUP2 PUSH2 0x857 JUMP JUMPDEST DUP2 EQ PUSH2 0x961 JUMPI PUSH1 0x0 DUP1 REVERT JUMPDEST POP JUMP INVALID LOG2 PUSH5 0x6970667358 0x22 SLT KECCAK256 LOG1 0xAA PUSH29 0x1E9BEEF249CF7DCFE560AE11AD12BF8A90A3AB9397905C70288C6B7D71 PUSH5 0x736F6C6343 STOP ADDMOD SMOD STOP CALLER "
				},
				"gasEstimates": {
					"creation": {
						"codeDepositCost": "491600",
						"executionCost": "46897",
						"totalCost": "538497"
					},
					"external": {
						"conversion(uint256)": "infinite",
						"funders(uint256)": "5022",
						"getPrice()": "infinite",
						"getVersion()": "infinite",
						"minimumUsd()": "2452",
						"owner()": "2514",
						"receiveFunds()": "infinite"
					},
					"internal": {
						"withdraw(uint256)": "infinite"
					}
				},
				"methodIdentifiers": {
					"conversion(uint256)": "ba4d0c99",
					"funders(uint256)": "dc0d3dff",
					"getPrice()": "98d5fdca",
					"getVersion()": "0d8e6e2c",
					"minimumUsd()": "098de820",
					"owner()": "8da5cb5b",
					"receiveFunds()": "005c33e1"
				}
			},
			"storageLayout": {
				"storage": [
					{
						"astId": 51,
						"contract": "contracts/FundMe.sol:FundMe",
						"label": "minimumUsd",
						"offset": 0,
						"slot": "0",
						"type": "t_uint256"
					},
					{
						"astId": 53,
						"contract": "contracts/FundMe.sol:FundMe",
						"label": "owner",
						"offset": 0,
						"slot": "1",
						"type": "t_address_payable"
					},
					{
						"astId": 56,
						"contract": "contracts/FundMe.sol:FundMe",
						"label": "priceFeed",
						"offset": 0,
						"slot": "2",
						"type": "t_contract(AggregatorV3Interface)45"
					},
					{
						"astId": 59,
						"contract": "contracts/FundMe.sol:FundMe",
						"label": "funders",
						"offset": 0,
						"slot": "3",
						"type": "t_array(t_address)dyn_storage"
					}
				],
				"types": {
					"t_address": {
						"encoding": "inplace",
						"label": "address",
						"numberOfBytes": "20"
					},
					"t_address_payable": {
						"encoding": "inplace",
						"label": "address payable",
						"numberOfBytes": "20"
					},
					"t_array(t_address)dyn_storage": {
						"base": "t_address",
						"encoding": "dynamic_array",
						"label": "address[]",
						"numberOfBytes": "32"
					},
					"t_contract(AggregatorV3Interface)45": {
						"encoding": "inplace",
						"label": "contract AggregatorV3Interface",
						"numberOfBytes": "20"
					},
					"t_uint256": {
						"encoding": "inplace",
						"label": "uint256",
						"numberOfBytes": "32"
					}
				}
			},
			"userdoc": {
				"kind": "user",
				"methods": {},
				"version": 1
			}
		}
	}
}