{
	"contracts/FundMe.sol": {
		"FundMe": {
			"abi": [
				{
					"inputs": [
						{
							"internalType": "uint256",
							"name": "",
							"type": "uint256"
						}
					],
					"name": "funders",
					"outputs": [
						{
							"internalType": "address",
							"name": "",
							"type": "address"
						}
					],
					"stateMutability": "view",
					"type": "function"
				},
				{
					"inputs": [
						{
							"internalType": "address",
							"name": "",
							"type": "address"
						}
					],
					"name": "fundersAmount",
					"outputs": [
						{
							"internalType": "uint256",
							"name": "",
							"type": "uint256"
						}
					],
					"stateMutability": "view",
					"type": "function"
				},
				{
					"inputs": [],
					"name": "minimumUsd",
					"outputs": [
						{
							"internalType": "uint256",
							"name": "",
							"type": "uint256"
						}
					],
					"stateMutability": "view",
					"type": "function"
				},
				{
					"inputs": [],
					"name": "owner",
					"outputs": [
						{
							"internalType": "address payable",
							"name": "",
							"type": "address"
						}
					],
					"stateMutability": "view",
					"type": "function"
				},
				{
					"inputs": [],
					"name": "receiveFunds",
					"outputs": [],
					"stateMutability": "payable",
					"type": "function"
				},
				{
					"inputs": [
						{
							"internalType": "uint256",
							"name": "amount",
							"type": "uint256"
						}
					],
					"name": "withdraw",
					"outputs": [],
					"stateMutability": "nonpayable",
					"type": "function"
				}
			],
			"devdoc": {
				"kind": "dev",
				"methods": {},
				"version": 1
			},
			"evm": {
				"assembly": "    /* \"contracts/FundMe.sol\":210:1834  contract FundMe{\r... */\n  mstore(0x40, 0x80)\n    /* \"contracts/FundMe.sol\":324:326  50 */\n  0x32\n    /* \"contracts/FundMe.sol\":296:326  uint256 public minimumUsd = 50 */\n  0x00\n  sstore\n    /* \"contracts/FundMe.sol\":210:1834  contract FundMe{\r... */\n  callvalue\n  dup1\n  iszero\n  tag_1\n  jumpi\n  0x00\n  dup1\n  revert\ntag_1:\n  pop\n  dataSize(sub_0)\n  dup1\n  dataOffset(sub_0)\n  0x00\n  codecopy\n  0x00\n  return\nstop\n\nsub_0: assembly {\n        /* \"contracts/FundMe.sol\":210:1834  contract FundMe{\r... */\n      mstore(0x40, 0x80)\n      jumpi(tag_1, lt(calldatasize, 0x04))\n      shr(0xe0, calldataload(0x00))\n      dup1\n      0x5c33e1\n      eq\n      tag_2\n      jumpi\n      dup1\n      0x098de820\n      eq\n      tag_3\n      jumpi\n      dup1\n      0x2e1a7d4d\n      eq\n      tag_4\n      jumpi\n      dup1\n      0x8da5cb5b\n      eq\n      tag_5\n      jumpi\n      dup1\n      0xdc0d3dff\n      eq\n      tag_6\n      jumpi\n      dup1\n      0xe73c0f23\n      eq\n      tag_7\n      jumpi\n    tag_1:\n      0x00\n      dup1\n      revert\n        /* \"contracts/FundMe.sol\":604:1335  function receiveFunds() public payable{\r... */\n    tag_2:\n      tag_8\n      tag_9\n      jump\t// in\n    tag_8:\n      stop\n        /* \"contracts/FundMe.sol\":296:326  uint256 public minimumUsd = 50 */\n    tag_3:\n      callvalue\n      dup1\n      iszero\n      tag_10\n      jumpi\n      0x00\n      dup1\n      revert\n    tag_10:\n      pop\n      tag_11\n      tag_12\n      jump\t// in\n    tag_11:\n      mload(0x40)\n      tag_13\n      swap2\n      swap1\n      tag_14\n      jump\t// in\n    tag_13:\n      mload(0x40)\n      dup1\n      swap2\n      sub\n      swap1\n      return\n        /* \"contracts/FundMe.sol\":1343:1831  function withdraw(uint256 amount) public{\r... */\n    tag_4:\n      callvalue\n      dup1\n      iszero\n      tag_15\n      jumpi\n      0x00\n      dup1\n      revert\n    tag_15:\n      pop\n      tag_16\n      0x04\n      dup1\n      calldatasize\n      sub\n      dup2\n      add\n      swap1\n      tag_17\n      swap2\n      swap1\n      tag_18\n      jump\t// in\n    tag_17:\n      tag_19\n      jump\t// in\n    tag_16:\n      stop\n        /* \"contracts/FundMe.sol\":333:361  address payable public owner */\n    tag_5:\n      callvalue\n      dup1\n      iszero\n      tag_20\n      jumpi\n      0x00\n      dup1\n      revert\n    tag_20:\n      pop\n      tag_21\n      tag_22\n      jump\t// in\n    tag_21:\n      mload(0x40)\n      tag_23\n      swap2\n      swap1\n      tag_24\n      jump\t// in\n    tag_23:\n      mload(0x40)\n      dup1\n      swap2\n      sub\n      swap1\n      return\n        /* \"contracts/FundMe.sol\":397:421  address[] public funders */\n    tag_6:\n      callvalue\n      dup1\n      iszero\n      tag_25\n      jumpi\n      0x00\n      dup1\n      revert\n    tag_25:\n      pop\n      tag_26\n      0x04\n      dup1\n      calldatasize\n      sub\n      dup2\n      add\n      swap1\n      tag_27\n      swap2\n      swap1\n      tag_18\n      jump\t// in\n    tag_27:\n      tag_28\n      jump\t// in\n    tag_26:\n      mload(0x40)\n      tag_29\n      swap2\n      swap1\n      tag_30\n      jump\t// in\n    tag_29:\n      mload(0x40)\n      dup1\n      swap2\n      sub\n      swap1\n      return\n        /* \"contracts/FundMe.sol\":547:595  mapping(address => uint256) public fundersAmount */\n    tag_7:\n      callvalue\n      dup1\n      iszero\n      tag_31\n      jumpi\n      0x00\n      dup1\n      revert\n    tag_31:\n      pop\n      tag_32\n      0x04\n      dup1\n      calldatasize\n      sub\n      dup2\n      add\n      swap1\n      tag_33\n      swap2\n      swap1\n      tag_34\n      jump\t// in\n    tag_33:\n      tag_35\n      jump\t// in\n    tag_32:\n      mload(0x40)\n      tag_36\n      swap2\n      swap1\n      tag_14\n      jump\t// in\n    tag_36:\n      mload(0x40)\n      dup1\n      swap2\n      sub\n      swap1\n      return\n        /* \"contracts/FundMe.sol\":604:1335  function receiveFunds() public payable{\r... */\n    tag_9:\n        /* \"contracts/FundMe.sol\":1050:1060  minimumUsd */\n      sload(0x00)\n        /* \"contracts/FundMe.sol\":1024:1046  msg.value.conversion() */\n      tag_38\n        /* \"contracts/FundMe.sol\":1024:1033  msg.value */\n      callvalue\n        /* \"contracts/FundMe.sol\":1024:1044  msg.value.conversion */\n      tag_39\n        /* \"contracts/FundMe.sol\":1024:1046  msg.value.conversion() */\n      jump\t// in\n    tag_38:\n        /* \"contracts/FundMe.sol\":1024:1060  msg.value.conversion() >= minimumUsd */\n      lt\n      iszero\n        /* \"contracts/FundMe.sol\":1016:1107  require(msg.value.conversion() >= minimumUsd , \"The minimum amount of fund would be >=50$\") */\n      tag_40\n      jumpi\n      mload(0x40)\n      0x08c379a000000000000000000000000000000000000000000000000000000000\n      dup2\n      mstore\n      0x04\n      add\n      tag_41\n      swap1\n      tag_42\n      jump\t// in\n    tag_41:\n      mload(0x40)\n      dup1\n      swap2\n      sub\n      swap1\n      revert\n    tag_40:\n        /* \"contracts/FundMe.sol\":1118:1125  funders */\n      0x02\n        /* \"contracts/FundMe.sol\":1131:1141  msg.sender */\n      caller\n        /* \"contracts/FundMe.sol\":1118:1142  funders.push(msg.sender) */\n      swap1\n      dup1\n      0x01\n      dup2\n      sload\n      add\n      dup1\n      dup3\n      sstore\n      dup1\n      swap2\n      pop\n      pop\n      0x01\n      swap1\n      sub\n      swap1\n      0x00\n      mstore\n      keccak256(0x00, 0x20)\n      add\n      0x00\n      swap1\n      swap2\n      swap1\n      swap2\n      swap1\n      swap2\n      0x0100\n      exp\n      dup2\n      sload\n      dup2\n      0xffffffffffffffffffffffffffffffffffffffff\n      mul\n      not\n      and\n      swap1\n      dup4\n      0xffffffffffffffffffffffffffffffffffffffff\n      and\n      mul\n      or\n      swap1\n      sstore\n      pop\n        /* \"contracts/FundMe.sol\":1242:1251  msg.value */\n      callvalue\n        /* \"contracts/FundMe.sol\":1214:1227  fundersAmount */\n      0x03\n        /* \"contracts/FundMe.sol\":1214:1239  fundersAmount[msg.sender] */\n      0x00\n        /* \"contracts/FundMe.sol\":1228:1238  msg.sender */\n      caller\n        /* \"contracts/FundMe.sol\":1214:1239  fundersAmount[msg.sender] */\n      0xffffffffffffffffffffffffffffffffffffffff\n      and\n      0xffffffffffffffffffffffffffffffffffffffff\n      and\n      dup2\n      mstore\n      0x20\n      add\n      swap1\n      dup2\n      mstore\n      0x20\n      add\n      0x00\n      keccak256\n        /* \"contracts/FundMe.sol\":1214:1251  fundersAmount[msg.sender] = msg.value */\n      dup2\n      swap1\n      sstore\n      pop\n        /* \"contracts/FundMe.sol\":604:1335  function receiveFunds() public payable{\r... */\n      jump\t// out\n        /* \"contracts/FundMe.sol\":296:326  uint256 public minimumUsd = 50 */\n    tag_12:\n      sload(0x00)\n      dup2\n      jump\t// out\n        /* \"contracts/FundMe.sol\":1343:1831  function withdraw(uint256 amount) public{\r... */\n    tag_19:\n        /* \"contracts/FundMe.sol\":1451:1470  uint256 funderIndex */\n      0x00\n        /* \"contracts/FundMe.sol\":1483:1696  for(funderIndex = 0; funderIndex < funders.length; funderIndex++){\r... */\n    tag_45:\n        /* \"contracts/FundMe.sol\":1518:1525  funders */\n      0x02\n        /* \"contracts/FundMe.sol\":1518:1532  funders.length */\n      dup1\n      sload\n      swap1\n      pop\n        /* \"contracts/FundMe.sol\":1504:1515  funderIndex */\n      dup2\n        /* \"contracts/FundMe.sol\":1504:1532  funderIndex < funders.length */\n      lt\n        /* \"contracts/FundMe.sol\":1483:1696  for(funderIndex = 0; funderIndex < funders.length; funderIndex++){\r... */\n      iszero\n      tag_46\n      jumpi\n        /* \"contracts/FundMe.sol\":1565:1579  address funder */\n      0x00\n        /* \"contracts/FundMe.sol\":1582:1589  funders */\n      0x02\n        /* \"contracts/FundMe.sol\":1590:1601  funderIndex */\n      dup3\n        /* \"contracts/FundMe.sol\":1582:1602  funders[funderIndex] */\n      dup2\n      sload\n      dup2\n      lt\n      tag_48\n      jumpi\n      tag_49\n      tag_50\n      jump\t// in\n    tag_49:\n    tag_48:\n      swap1\n      0x00\n      mstore\n      keccak256(0x00, 0x20)\n      add\n      0x00\n      swap1\n      sload\n      swap1\n      0x0100\n      exp\n      swap1\n      div\n      0xffffffffffffffffffffffffffffffffffffffff\n      and\n        /* \"contracts/FundMe.sol\":1565:1602  address funder = funders[funderIndex] */\n      swap1\n      pop\n        /* \"contracts/FundMe.sol\":1683:1684  0 */\n      0x00\n        /* \"contracts/FundMe.sol\":1659:1672  fundersAmount */\n      0x03\n        /* \"contracts/FundMe.sol\":1659:1680  fundersAmount[funder] */\n      0x00\n        /* \"contracts/FundMe.sol\":1673:1679  funder */\n      dup4\n        /* \"contracts/FundMe.sol\":1659:1680  fundersAmount[funder] */\n      0xffffffffffffffffffffffffffffffffffffffff\n      and\n      0xffffffffffffffffffffffffffffffffffffffff\n      and\n      dup2\n      mstore\n      0x20\n      add\n      swap1\n      dup2\n      mstore\n      0x20\n      add\n      0x00\n      keccak256\n        /* \"contracts/FundMe.sol\":1659:1684  fundersAmount[funder] = 0 */\n      dup2\n      swap1\n      sstore\n      pop\n        /* \"contracts/FundMe.sol\":1548:1696  {\r... */\n      pop\n        /* \"contracts/FundMe.sol\":1534:1547  funderIndex++ */\n      dup1\n      dup1\n      tag_52\n      swap1\n      tag_53\n      jump\t// in\n    tag_52:\n      swap2\n      pop\n      pop\n        /* \"contracts/FundMe.sol\":1483:1696  for(funderIndex = 0; funderIndex < funders.length; funderIndex++){\r... */\n      jump(tag_45)\n    tag_46:\n        /* \"contracts/FundMe.sol\":1730:1735  owner */\n      0x01\n      0x00\n      swap1\n      sload\n      swap1\n      0x0100\n      exp\n      swap1\n      div\n      0xffffffffffffffffffffffffffffffffffffffff\n      and\n        /* \"contracts/FundMe.sol\":1716:1735  msg.sender == owner */\n      0xffffffffffffffffffffffffffffffffffffffff\n      and\n        /* \"contracts/FundMe.sol\":1716:1726  msg.sender */\n      caller\n        /* \"contracts/FundMe.sol\":1716:1735  msg.sender == owner */\n      0xffffffffffffffffffffffffffffffffffffffff\n      and\n      eq\n        /* \"contracts/FundMe.sol\":1708:1776  require(msg.sender == owner, \"Only owner can withdraw transactions\") */\n      tag_54\n      jumpi\n      mload(0x40)\n      0x08c379a000000000000000000000000000000000000000000000000000000000\n      dup2\n      mstore\n      0x04\n      add\n      tag_55\n      swap1\n      tag_56\n      jump\t// in\n    tag_55:\n      mload(0x40)\n      dup1\n      swap2\n      sub\n      swap1\n      revert\n    tag_54:\n        /* \"contracts/FundMe.sol\":1795:1805  msg.sender */\n      caller\n        /* \"contracts/FundMe.sol\":1787:1815  payable(msg.sender).transfer */\n      0xffffffffffffffffffffffffffffffffffffffff\n      and\n        /* \"contracts/FundMe.sol\":1787:1823  payable(msg.sender).transfer(amount) */\n      0x08fc\n        /* \"contracts/FundMe.sol\":1816:1822  amount */\n      dup4\n        /* \"contracts/FundMe.sol\":1787:1823  payable(msg.sender).transfer(amount) */\n      swap1\n      dup2\n      iszero\n      mul\n      swap1\n      mload(0x40)\n      0x00\n      mload(0x40)\n      dup1\n      dup4\n      sub\n      dup2\n      dup6\n      dup9\n      dup9\n      call\n      swap4\n      pop\n      pop\n      pop\n      pop\n      iszero\n      dup1\n      iszero\n      tag_58\n      jumpi\n      returndatasize\n      0x00\n      dup1\n      returndatacopy\n      revert(0x00, returndatasize)\n    tag_58:\n      pop\n        /* \"contracts/FundMe.sol\":1383:1831  {\r... */\n      pop\n        /* \"contracts/FundMe.sol\":1343:1831  function withdraw(uint256 amount) public{\r... */\n      pop\n      jump\t// out\n        /* \"contracts/FundMe.sol\":333:361  address payable public owner */\n    tag_22:\n      0x01\n      0x00\n      swap1\n      sload\n      swap1\n      0x0100\n      exp\n      swap1\n      div\n      0xffffffffffffffffffffffffffffffffffffffff\n      and\n      dup2\n      jump\t// out\n        /* \"contracts/FundMe.sol\":397:421  address[] public funders */\n    tag_28:\n      0x02\n      dup2\n      dup2\n      sload\n      dup2\n      lt\n      tag_59\n      jumpi\n      0x00\n      dup1\n      revert\n    tag_59:\n      swap1\n      0x00\n      mstore\n      keccak256(0x00, 0x20)\n      add\n      0x00\n      swap2\n      pop\n      sload\n      swap1\n      0x0100\n      exp\n      swap1\n      div\n      0xffffffffffffffffffffffffffffffffffffffff\n      and\n      dup2\n      jump\t// out\n        /* \"contracts/FundMe.sol\":547:595  mapping(address => uint256) public fundersAmount */\n    tag_35:\n      mstore(0x20, 0x03)\n      dup1\n      0x00\n      mstore\n      keccak256(0x00, 0x40)\n      0x00\n      swap2\n      pop\n      swap1\n      pop\n      sload\n      dup2\n      jump\t// out\n        /* \"contracts/PriceConvertor.sol\":853:1167  function conversion(uint256 ethAmount) internal view returns(uint256){\r... */\n    tag_39:\n        /* \"contracts/PriceConvertor.sol\":914:921  uint256 */\n      0x00\n        /* \"contracts/PriceConvertor.sol\":1020:1036  uint256 ethPrice */\n      dup1\n        /* \"contracts/PriceConvertor.sol\":1039:1049  getPrice() */\n      tag_62\n        /* \"contracts/PriceConvertor.sol\":1039:1047  getPrice */\n      tag_63\n        /* \"contracts/PriceConvertor.sol\":1039:1049  getPrice() */\n      jump\t// in\n    tag_62:\n        /* \"contracts/PriceConvertor.sol\":1020:1049  uint256 ethPrice = getPrice() */\n      swap1\n      pop\n        /* \"contracts/PriceConvertor.sol\":1083:1099  uint256 ethinUSD */\n      0x00\n        /* \"contracts/PriceConvertor.sol\":1127:1131  1e18 */\n      0x0de0b6b3a7640000\n        /* \"contracts/PriceConvertor.sol\":1115:1123  ethPrice */\n      dup3\n        /* \"contracts/PriceConvertor.sol\":1103:1112  ethAmount */\n      dup6\n        /* \"contracts/PriceConvertor.sol\":1103:1123  ethAmount * ethPrice */\n      tag_64\n      swap2\n      swap1\n      tag_65\n      jump\t// in\n    tag_64:\n        /* \"contracts/PriceConvertor.sol\":1102:1131  (ethAmount * ethPrice) / 1e18 */\n      tag_66\n      swap2\n      swap1\n      tag_67\n      jump\t// in\n    tag_66:\n        /* \"contracts/PriceConvertor.sol\":1083:1131  uint256 ethinUSD = (ethAmount * ethPrice) / 1e18 */\n      swap1\n      pop\n        /* \"contracts/PriceConvertor.sol\":1149:1157  ethinUSD */\n      dup1\n        /* \"contracts/PriceConvertor.sol\":1142:1157  return ethinUSD */\n      swap3\n      pop\n      pop\n      pop\n        /* \"contracts/PriceConvertor.sol\":853:1167  function conversion(uint256 ethAmount) internal view returns(uint256){\r... */\n      swap2\n      swap1\n      pop\n      jump\t// out\n        /* \"contracts/PriceConvertor.sol\":251:627  function getPrice() internal view returns(uint256){\r... */\n    tag_63:\n        /* \"contracts/PriceConvertor.sol\":293:300  uint256 */\n      0x00\n        /* \"contracts/PriceConvertor.sol\":348:379  AggregatorV3Interface priceFeed */\n      dup1\n        /* \"contracts/PriceConvertor.sol\":404:446  0x9326BFA02ADD2366b30bacB125260Af641031331 */\n      0x9326bfa02add2366b30bacb125260af641031331\n        /* \"contracts/PriceConvertor.sol\":348:447  AggregatorV3Interface priceFeed = AggregatorV3Interface(0x9326BFA02ADD2366b30bacB125260Af641031331) */\n      swap1\n      pop\n        /* \"contracts/PriceConvertor.sol\":461:474  int256 answer */\n      0x00\n        /* \"contracts/PriceConvertor.sol\":482:491  priceFeed */\n      dup2\n        /* \"contracts/PriceConvertor.sol\":482:507  priceFeed.latestRoundData */\n      0xffffffffffffffffffffffffffffffffffffffff\n      and\n      0xfeaf968c\n        /* \"contracts/PriceConvertor.sol\":482:509  priceFeed.latestRoundData() */\n      mload(0x40)\n      dup2\n      0xffffffff\n      and\n      0xe0\n      shl\n      dup2\n      mstore\n      0x04\n      add\n      0xa0\n      mload(0x40)\n      dup1\n      dup4\n      sub\n      dup2\n      dup7\n      dup1\n      extcodesize\n      iszero\n      dup1\n      iszero\n      tag_69\n      jumpi\n      0x00\n      dup1\n      revert\n    tag_69:\n      pop\n      gas\n      staticcall\n      iszero\n      dup1\n      iszero\n      tag_71\n      jumpi\n      returndatasize\n      0x00\n      dup1\n      returndatacopy\n      revert(0x00, returndatasize)\n    tag_71:\n      pop\n      pop\n      pop\n      pop\n      mload(0x40)\n      returndatasize\n      not(0x1f)\n      0x1f\n      dup3\n      add\n      and\n      dup3\n      add\n      dup1\n      0x40\n      mstore\n      pop\n      dup2\n      add\n      swap1\n      tag_72\n      swap2\n      swap1\n      tag_73\n      jump\t// in\n    tag_72:\n        /* \"contracts/PriceConvertor.sol\":458:509  (, int256 answer ,,,) = priceFeed.latestRoundData() */\n      pop\n      pop\n      pop\n      swap2\n      pop\n      pop\n        /* \"contracts/PriceConvertor.sol\":605:609  1e10 */\n      0x02540be400\n        /* \"contracts/PriceConvertor.sol\":597:603  answer */\n      dup2\n        /* \"contracts/PriceConvertor.sol\":597:609  answer* 1e10 */\n      tag_74\n      swap2\n      swap1\n      tag_75\n      jump\t// in\n    tag_74:\n        /* \"contracts/PriceConvertor.sol\":582:610  return uint256(answer* 1e10) */\n      swap3\n      pop\n      pop\n      pop\n        /* \"contracts/PriceConvertor.sol\":251:627  function getPrice() internal view returns(uint256){\r... */\n      swap1\n      jump\t// out\n        /* \"#utility.yul\":7:146   */\n    tag_77:\n        /* \"#utility.yul\":53:58   */\n      0x00\n        /* \"#utility.yul\":91:97   */\n      dup2\n        /* \"#utility.yul\":78:98   */\n      calldataload\n        /* \"#utility.yul\":69:98   */\n      swap1\n      pop\n        /* \"#utility.yul\":107:140   */\n      tag_79\n        /* \"#utility.yul\":134:139   */\n      dup2\n        /* \"#utility.yul\":107:140   */\n      tag_80\n      jump\t// in\n    tag_79:\n        /* \"#utility.yul\":7:146   */\n      swap3\n      swap2\n      pop\n      pop\n      jump\t// out\n        /* \"#utility.yul\":152:293   */\n    tag_81:\n        /* \"#utility.yul\":208:213   */\n      0x00\n        /* \"#utility.yul\":239:245   */\n      dup2\n        /* \"#utility.yul\":233:246   */\n      mload\n        /* \"#utility.yul\":224:246   */\n      swap1\n      pop\n        /* \"#utility.yul\":255:287   */\n      tag_83\n        /* \"#utility.yul\":281:286   */\n      dup2\n        /* \"#utility.yul\":255:287   */\n      tag_84\n      jump\t// in\n    tag_83:\n        /* \"#utility.yul\":152:293   */\n      swap3\n      swap2\n      pop\n      pop\n      jump\t// out\n        /* \"#utility.yul\":299:438   */\n    tag_85:\n        /* \"#utility.yul\":345:350   */\n      0x00\n        /* \"#utility.yul\":383:389   */\n      dup2\n        /* \"#utility.yul\":370:390   */\n      calldataload\n        /* \"#utility.yul\":361:390   */\n      swap1\n      pop\n        /* \"#utility.yul\":399:432   */\n      tag_87\n        /* \"#utility.yul\":426:431   */\n      dup2\n        /* \"#utility.yul\":399:432   */\n      tag_88\n      jump\t// in\n    tag_87:\n        /* \"#utility.yul\":299:438   */\n      swap3\n      swap2\n      pop\n      pop\n      jump\t// out\n        /* \"#utility.yul\":444:587   */\n    tag_89:\n        /* \"#utility.yul\":501:506   */\n      0x00\n        /* \"#utility.yul\":532:538   */\n      dup2\n        /* \"#utility.yul\":526:539   */\n      mload\n        /* \"#utility.yul\":517:539   */\n      swap1\n      pop\n        /* \"#utility.yul\":548:581   */\n      tag_91\n        /* \"#utility.yul\":575:580   */\n      dup2\n        /* \"#utility.yul\":548:581   */\n      tag_88\n      jump\t// in\n    tag_91:\n        /* \"#utility.yul\":444:587   */\n      swap3\n      swap2\n      pop\n      pop\n      jump\t// out\n        /* \"#utility.yul\":593:734   */\n    tag_92:\n        /* \"#utility.yul\":649:654   */\n      0x00\n        /* \"#utility.yul\":680:686   */\n      dup2\n        /* \"#utility.yul\":674:687   */\n      mload\n        /* \"#utility.yul\":665:687   */\n      swap1\n      pop\n        /* \"#utility.yul\":696:728   */\n      tag_94\n        /* \"#utility.yul\":722:727   */\n      dup2\n        /* \"#utility.yul\":696:728   */\n      tag_95\n      jump\t// in\n    tag_94:\n        /* \"#utility.yul\":593:734   */\n      swap3\n      swap2\n      pop\n      pop\n      jump\t// out\n        /* \"#utility.yul\":740:1069   */\n    tag_34:\n        /* \"#utility.yul\":799:805   */\n      0x00\n        /* \"#utility.yul\":848:850   */\n      0x20\n        /* \"#utility.yul\":836:845   */\n      dup3\n        /* \"#utility.yul\":827:834   */\n      dup5\n        /* \"#utility.yul\":823:846   */\n      sub\n        /* \"#utility.yul\":819:851   */\n      slt\n        /* \"#utility.yul\":816:935   */\n      iszero\n      tag_97\n      jumpi\n        /* \"#utility.yul\":854:933   */\n      tag_98\n      tag_99\n      jump\t// in\n    tag_98:\n        /* \"#utility.yul\":816:935   */\n    tag_97:\n        /* \"#utility.yul\":974:975   */\n      0x00\n        /* \"#utility.yul\":999:1052   */\n      tag_100\n        /* \"#utility.yul\":1044:1051   */\n      dup5\n        /* \"#utility.yul\":1035:1041   */\n      dup3\n        /* \"#utility.yul\":1024:1033   */\n      dup6\n        /* \"#utility.yul\":1020:1042   */\n      add\n        /* \"#utility.yul\":999:1052   */\n      tag_77\n      jump\t// in\n    tag_100:\n        /* \"#utility.yul\":989:1052   */\n      swap2\n      pop\n        /* \"#utility.yul\":945:1062   */\n      pop\n        /* \"#utility.yul\":740:1069   */\n      swap3\n      swap2\n      pop\n      pop\n      jump\t// out\n        /* \"#utility.yul\":1075:1404   */\n    tag_18:\n        /* \"#utility.yul\":1134:1140   */\n      0x00\n        /* \"#utility.yul\":1183:1185   */\n      0x20\n        /* \"#utility.yul\":1171:1180   */\n      dup3\n        /* \"#utility.yul\":1162:1169   */\n      dup5\n        /* \"#utility.yul\":1158:1181   */\n      sub\n        /* \"#utility.yul\":1154:1186   */\n      slt\n        /* \"#utility.yul\":1151:1270   */\n      iszero\n      tag_102\n      jumpi\n        /* \"#utility.yul\":1189:1268   */\n      tag_103\n      tag_99\n      jump\t// in\n    tag_103:\n        /* \"#utility.yul\":1151:1270   */\n    tag_102:\n        /* \"#utility.yul\":1309:1310   */\n      0x00\n        /* \"#utility.yul\":1334:1387   */\n      tag_104\n        /* \"#utility.yul\":1379:1386   */\n      dup5\n        /* \"#utility.yul\":1370:1376   */\n      dup3\n        /* \"#utility.yul\":1359:1368   */\n      dup6\n        /* \"#utility.yul\":1355:1377   */\n      add\n        /* \"#utility.yul\":1334:1387   */\n      tag_85\n      jump\t// in\n    tag_104:\n        /* \"#utility.yul\":1324:1387   */\n      swap2\n      pop\n        /* \"#utility.yul\":1280:1397   */\n      pop\n        /* \"#utility.yul\":1075:1404   */\n      swap3\n      swap2\n      pop\n      pop\n      jump\t// out\n        /* \"#utility.yul\":1410:2381   */\n    tag_73:\n        /* \"#utility.yul\":1513:1519   */\n      0x00\n        /* \"#utility.yul\":1521:1527   */\n      dup1\n        /* \"#utility.yul\":1529:1535   */\n      0x00\n        /* \"#utility.yul\":1537:1543   */\n      dup1\n        /* \"#utility.yul\":1545:1551   */\n      0x00\n        /* \"#utility.yul\":1594:1597   */\n      0xa0\n        /* \"#utility.yul\":1582:1591   */\n      dup7\n        /* \"#utility.yul\":1573:1580   */\n      dup9\n        /* \"#utility.yul\":1569:1592   */\n      sub\n        /* \"#utility.yul\":1565:1598   */\n      slt\n        /* \"#utility.yul\":1562:1682   */\n      iszero\n      tag_106\n      jumpi\n        /* \"#utility.yul\":1601:1680   */\n      tag_107\n      tag_99\n      jump\t// in\n    tag_107:\n        /* \"#utility.yul\":1562:1682   */\n    tag_106:\n        /* \"#utility.yul\":1721:1722   */\n      0x00\n        /* \"#utility.yul\":1746:1809   */\n      tag_108\n        /* \"#utility.yul\":1801:1808   */\n      dup9\n        /* \"#utility.yul\":1792:1798   */\n      dup3\n        /* \"#utility.yul\":1781:1790   */\n      dup10\n        /* \"#utility.yul\":1777:1799   */\n      add\n        /* \"#utility.yul\":1746:1809   */\n      tag_92\n      jump\t// in\n    tag_108:\n        /* \"#utility.yul\":1736:1809   */\n      swap6\n      pop\n        /* \"#utility.yul\":1692:1819   */\n      pop\n        /* \"#utility.yul\":1858:1860   */\n      0x20\n        /* \"#utility.yul\":1884:1947   */\n      tag_109\n        /* \"#utility.yul\":1939:1946   */\n      dup9\n        /* \"#utility.yul\":1930:1936   */\n      dup3\n        /* \"#utility.yul\":1919:1928   */\n      dup10\n        /* \"#utility.yul\":1915:1937   */\n      add\n        /* \"#utility.yul\":1884:1947   */\n      tag_81\n      jump\t// in\n    tag_109:\n        /* \"#utility.yul\":1874:1947   */\n      swap5\n      pop\n        /* \"#utility.yul\":1829:1957   */\n      pop\n        /* \"#utility.yul\":1996:1998   */\n      0x40\n        /* \"#utility.yul\":2022:2086   */\n      tag_110\n        /* \"#utility.yul\":2078:2085   */\n      dup9\n        /* \"#utility.yul\":2069:2075   */\n      dup3\n        /* \"#utility.yul\":2058:2067   */\n      dup10\n        /* \"#utility.yul\":2054:2076   */\n      add\n        /* \"#utility.yul\":2022:2086   */\n      tag_89\n      jump\t// in\n    tag_110:\n        /* \"#utility.yul\":2012:2086   */\n      swap4\n      pop\n        /* \"#utility.yul\":1967:2096   */\n      pop\n        /* \"#utility.yul\":2135:2137   */\n      0x60\n        /* \"#utility.yul\":2161:2225   */\n      tag_111\n        /* \"#utility.yul\":2217:2224   */\n      dup9\n        /* \"#utility.yul\":2208:2214   */\n      dup3\n        /* \"#utility.yul\":2197:2206   */\n      dup10\n        /* \"#utility.yul\":2193:2215   */\n      add\n        /* \"#utility.yul\":2161:2225   */\n      tag_89\n      jump\t// in\n    tag_111:\n        /* \"#utility.yul\":2151:2225   */\n      swap3\n      pop\n        /* \"#utility.yul\":2106:2235   */\n      pop\n        /* \"#utility.yul\":2274:2277   */\n      0x80\n        /* \"#utility.yul\":2301:2364   */\n      tag_112\n        /* \"#utility.yul\":2356:2363   */\n      dup9\n        /* \"#utility.yul\":2347:2353   */\n      dup3\n        /* \"#utility.yul\":2336:2345   */\n      dup10\n        /* \"#utility.yul\":2332:2354   */\n      add\n        /* \"#utility.yul\":2301:2364   */\n      tag_92\n      jump\t// in\n    tag_112:\n        /* \"#utility.yul\":2291:2364   */\n      swap2\n      pop\n        /* \"#utility.yul\":2245:2374   */\n      pop\n        /* \"#utility.yul\":1410:2381   */\n      swap3\n      swap6\n      pop\n      swap3\n      swap6\n      swap1\n      swap4\n      pop\n      jump\t// out\n        /* \"#utility.yul\":2387:2529   */\n    tag_113:\n        /* \"#utility.yul\":2490:2522   */\n      tag_115\n        /* \"#utility.yul\":2516:2521   */\n      dup2\n        /* \"#utility.yul\":2490:2522   */\n      tag_116\n      jump\t// in\n    tag_115:\n        /* \"#utility.yul\":2485:2488   */\n      dup3\n        /* \"#utility.yul\":2478:2523   */\n      mstore\n        /* \"#utility.yul\":2387:2529   */\n      pop\n      pop\n      jump\t// out\n        /* \"#utility.yul\":2535:2653   */\n    tag_117:\n        /* \"#utility.yul\":2622:2646   */\n      tag_119\n        /* \"#utility.yul\":2640:2645   */\n      dup2\n        /* \"#utility.yul\":2622:2646   */\n      tag_120\n      jump\t// in\n    tag_119:\n        /* \"#utility.yul\":2617:2620   */\n      dup3\n        /* \"#utility.yul\":2610:2647   */\n      mstore\n        /* \"#utility.yul\":2535:2653   */\n      pop\n      pop\n      jump\t// out\n        /* \"#utility.yul\":2659:3025   */\n    tag_121:\n        /* \"#utility.yul\":2801:2804   */\n      0x00\n        /* \"#utility.yul\":2822:2889   */\n      tag_123\n        /* \"#utility.yul\":2886:2888   */\n      0x24\n        /* \"#utility.yul\":2881:2884   */\n      dup4\n        /* \"#utility.yul\":2822:2889   */\n      tag_124\n      jump\t// in\n    tag_123:\n        /* \"#utility.yul\":2815:2889   */\n      swap2\n      pop\n        /* \"#utility.yul\":2898:2991   */\n      tag_125\n        /* \"#utility.yul\":2987:2990   */\n      dup3\n        /* \"#utility.yul\":2898:2991   */\n      tag_126\n      jump\t// in\n    tag_125:\n        /* \"#utility.yul\":3016:3018   */\n      0x40\n        /* \"#utility.yul\":3011:3014   */\n      dup3\n        /* \"#utility.yul\":3007:3019   */\n      add\n        /* \"#utility.yul\":3000:3019   */\n      swap1\n      pop\n        /* \"#utility.yul\":2659:3025   */\n      swap2\n      swap1\n      pop\n      jump\t// out\n        /* \"#utility.yul\":3031:3397   */\n    tag_127:\n        /* \"#utility.yul\":3173:3176   */\n      0x00\n        /* \"#utility.yul\":3194:3261   */\n      tag_129\n        /* \"#utility.yul\":3258:3260   */\n      0x29\n        /* \"#utility.yul\":3253:3256   */\n      dup4\n        /* \"#utility.yul\":3194:3261   */\n      tag_124\n      jump\t// in\n    tag_129:\n        /* \"#utility.yul\":3187:3261   */\n      swap2\n      pop\n        /* \"#utility.yul\":3270:3363   */\n      tag_130\n        /* \"#utility.yul\":3359:3362   */\n      dup3\n        /* \"#utility.yul\":3270:3363   */\n      tag_131\n      jump\t// in\n    tag_130:\n        /* \"#utility.yul\":3388:3390   */\n      0x40\n        /* \"#utility.yul\":3383:3386   */\n      dup3\n        /* \"#utility.yul\":3379:3391   */\n      add\n        /* \"#utility.yul\":3372:3391   */\n      swap1\n      pop\n        /* \"#utility.yul\":3031:3397   */\n      swap2\n      swap1\n      pop\n      jump\t// out\n        /* \"#utility.yul\":3403:3521   */\n    tag_132:\n        /* \"#utility.yul\":3490:3514   */\n      tag_134\n        /* \"#utility.yul\":3508:3513   */\n      dup2\n        /* \"#utility.yul\":3490:3514   */\n      tag_135\n      jump\t// in\n    tag_134:\n        /* \"#utility.yul\":3485:3488   */\n      dup3\n        /* \"#utility.yul\":3478:3515   */\n      mstore\n        /* \"#utility.yul\":3403:3521   */\n      pop\n      pop\n      jump\t// out\n        /* \"#utility.yul\":3527:3749   */\n    tag_30:\n        /* \"#utility.yul\":3620:3624   */\n      0x00\n        /* \"#utility.yul\":3658:3660   */\n      0x20\n        /* \"#utility.yul\":3647:3656   */\n      dup3\n        /* \"#utility.yul\":3643:3661   */\n      add\n        /* \"#utility.yul\":3635:3661   */\n      swap1\n      pop\n        /* \"#utility.yul\":3671:3742   */\n      tag_137\n        /* \"#utility.yul\":3739:3740   */\n      0x00\n        /* \"#utility.yul\":3728:3737   */\n      dup4\n        /* \"#utility.yul\":3724:3741   */\n      add\n        /* \"#utility.yul\":3715:3721   */\n      dup5\n        /* \"#utility.yul\":3671:3742   */\n      tag_117\n      jump\t// in\n    tag_137:\n        /* \"#utility.yul\":3527:3749   */\n      swap3\n      swap2\n      pop\n      pop\n      jump\t// out\n        /* \"#utility.yul\":3755:4009   */\n    tag_24:\n        /* \"#utility.yul\":3864:3868   */\n      0x00\n        /* \"#utility.yul\":3902:3904   */\n      0x20\n        /* \"#utility.yul\":3891:3900   */\n      dup3\n        /* \"#utility.yul\":3887:3905   */\n      add\n        /* \"#utility.yul\":3879:3905   */\n      swap1\n      pop\n        /* \"#utility.yul\":3915:4002   */\n      tag_139\n        /* \"#utility.yul\":3999:4000   */\n      0x00\n        /* \"#utility.yul\":3988:3997   */\n      dup4\n        /* \"#utility.yul\":3984:4001   */\n      add\n        /* \"#utility.yul\":3975:3981   */\n      dup5\n        /* \"#utility.yul\":3915:4002   */\n      tag_113\n      jump\t// in\n    tag_139:\n        /* \"#utility.yul\":3755:4009   */\n      swap3\n      swap2\n      pop\n      pop\n      jump\t// out\n        /* \"#utility.yul\":4015:4434   */\n    tag_56:\n        /* \"#utility.yul\":4181:4185   */\n      0x00\n        /* \"#utility.yul\":4219:4221   */\n      0x20\n        /* \"#utility.yul\":4208:4217   */\n      dup3\n        /* \"#utility.yul\":4204:4222   */\n      add\n        /* \"#utility.yul\":4196:4222   */\n      swap1\n      pop\n        /* \"#utility.yul\":4268:4277   */\n      dup2\n        /* \"#utility.yul\":4262:4266   */\n      dup2\n        /* \"#utility.yul\":4258:4278   */\n      sub\n        /* \"#utility.yul\":4254:4255   */\n      0x00\n        /* \"#utility.yul\":4243:4252   */\n      dup4\n        /* \"#utility.yul\":4239:4256   */\n      add\n        /* \"#utility.yul\":4232:4279   */\n      mstore\n        /* \"#utility.yul\":4296:4427   */\n      tag_141\n        /* \"#utility.yul\":4422:4426   */\n      dup2\n        /* \"#utility.yul\":4296:4427   */\n      tag_121\n      jump\t// in\n    tag_141:\n        /* \"#utility.yul\":4288:4427   */\n      swap1\n      pop\n        /* \"#utility.yul\":4015:4434   */\n      swap2\n      swap1\n      pop\n      jump\t// out\n        /* \"#utility.yul\":4440:4859   */\n    tag_42:\n        /* \"#utility.yul\":4606:4610   */\n      0x00\n        /* \"#utility.yul\":4644:4646   */\n      0x20\n        /* \"#utility.yul\":4633:4642   */\n      dup3\n        /* \"#utility.yul\":4629:4647   */\n      add\n        /* \"#utility.yul\":4621:4647   */\n      swap1\n      pop\n        /* \"#utility.yul\":4693:4702   */\n      dup2\n        /* \"#utility.yul\":4687:4691   */\n      dup2\n        /* \"#utility.yul\":4683:4703   */\n      sub\n        /* \"#utility.yul\":4679:4680   */\n      0x00\n        /* \"#utility.yul\":4668:4677   */\n      dup4\n        /* \"#utility.yul\":4664:4681   */\n      add\n        /* \"#utility.yul\":4657:4704   */\n      mstore\n        /* \"#utility.yul\":4721:4852   */\n      tag_143\n        /* \"#utility.yul\":4847:4851   */\n      dup2\n        /* \"#utility.yul\":4721:4852   */\n      tag_127\n      jump\t// in\n    tag_143:\n        /* \"#utility.yul\":4713:4852   */\n      swap1\n      pop\n        /* \"#utility.yul\":4440:4859   */\n      swap2\n      swap1\n      pop\n      jump\t// out\n        /* \"#utility.yul\":4865:5087   */\n    tag_14:\n        /* \"#utility.yul\":4958:4962   */\n      0x00\n        /* \"#utility.yul\":4996:4998   */\n      0x20\n        /* \"#utility.yul\":4985:4994   */\n      dup3\n        /* \"#utility.yul\":4981:4999   */\n      add\n        /* \"#utility.yul\":4973:4999   */\n      swap1\n      pop\n        /* \"#utility.yul\":5009:5080   */\n      tag_145\n        /* \"#utility.yul\":5077:5078   */\n      0x00\n        /* \"#utility.yul\":5066:5075   */\n      dup4\n        /* \"#utility.yul\":5062:5079   */\n      add\n        /* \"#utility.yul\":5053:5059   */\n      dup5\n        /* \"#utility.yul\":5009:5080   */\n      tag_132\n      jump\t// in\n    tag_145:\n        /* \"#utility.yul\":4865:5087   */\n      swap3\n      swap2\n      pop\n      pop\n      jump\t// out\n        /* \"#utility.yul\":5174:5343   */\n    tag_124:\n        /* \"#utility.yul\":5258:5269   */\n      0x00\n        /* \"#utility.yul\":5292:5298   */\n      dup3\n        /* \"#utility.yul\":5287:5290   */\n      dup3\n        /* \"#utility.yul\":5280:5299   */\n      mstore\n        /* \"#utility.yul\":5332:5336   */\n      0x20\n        /* \"#utility.yul\":5327:5330   */\n      dup3\n        /* \"#utility.yul\":5323:5337   */\n      add\n        /* \"#utility.yul\":5308:5337   */\n      swap1\n      pop\n        /* \"#utility.yul\":5174:5343   */\n      swap3\n      swap2\n      pop\n      pop\n      jump\t// out\n        /* \"#utility.yul\":5349:5534   */\n    tag_67:\n        /* \"#utility.yul\":5389:5390   */\n      0x00\n        /* \"#utility.yul\":5406:5426   */\n      tag_150\n        /* \"#utility.yul\":5424:5425   */\n      dup3\n        /* \"#utility.yul\":5406:5426   */\n      tag_135\n      jump\t// in\n    tag_150:\n        /* \"#utility.yul\":5401:5426   */\n      swap2\n      pop\n        /* \"#utility.yul\":5440:5460   */\n      tag_151\n        /* \"#utility.yul\":5458:5459   */\n      dup4\n        /* \"#utility.yul\":5440:5460   */\n      tag_135\n      jump\t// in\n    tag_151:\n        /* \"#utility.yul\":5435:5460   */\n      swap3\n      pop\n        /* \"#utility.yul\":5479:5480   */\n      dup3\n        /* \"#utility.yul\":5469:5504   */\n      tag_152\n      jumpi\n        /* \"#utility.yul\":5484:5502   */\n      tag_153\n      tag_154\n      jump\t// in\n    tag_153:\n        /* \"#utility.yul\":5469:5504   */\n    tag_152:\n        /* \"#utility.yul\":5526:5527   */\n      dup3\n        /* \"#utility.yul\":5523:5524   */\n      dup3\n        /* \"#utility.yul\":5519:5528   */\n      div\n        /* \"#utility.yul\":5514:5528   */\n      swap1\n      pop\n        /* \"#utility.yul\":5349:5534   */\n      swap3\n      swap2\n      pop\n      pop\n      jump\t// out\n        /* \"#utility.yul\":5540:6531   */\n    tag_75:\n        /* \"#utility.yul\":5579:5586   */\n      0x00\n        /* \"#utility.yul\":5602:5621   */\n      tag_156\n        /* \"#utility.yul\":5619:5620   */\n      dup3\n        /* \"#utility.yul\":5602:5621   */\n      tag_157\n      jump\t// in\n    tag_156:\n        /* \"#utility.yul\":5597:5621   */\n      swap2\n      pop\n        /* \"#utility.yul\":5635:5654   */\n      tag_158\n        /* \"#utility.yul\":5652:5653   */\n      dup4\n        /* \"#utility.yul\":5635:5654   */\n      tag_157\n      jump\t// in\n    tag_158:\n        /* \"#utility.yul\":5630:5654   */\n      swap3\n      pop\n        /* \"#utility.yul\":5836:5837   */\n      dup3\n        /* \"#utility.yul\":5768:5834   */\n      0x7fffffffffffffffffffffffffffffffffffffffffffffffffffffffffffffff\n        /* \"#utility.yul\":5764:5838   */\n      div\n        /* \"#utility.yul\":5761:5762   */\n      dup3\n        /* \"#utility.yul\":5758:5839   */\n      gt\n        /* \"#utility.yul\":5753:5754   */\n      0x00\n        /* \"#utility.yul\":5750:5751   */\n      dup5\n        /* \"#utility.yul\":5746:5755   */\n      sgt\n        /* \"#utility.yul\":5742:5743   */\n      0x00\n        /* \"#utility.yul\":5739:5740   */\n      dup5\n        /* \"#utility.yul\":5735:5744   */\n      sgt\n        /* \"#utility.yul\":5731:5756   */\n      and\n        /* \"#utility.yul\":5727:5840   */\n      and\n        /* \"#utility.yul\":5724:5863   */\n      iszero\n      tag_159\n      jumpi\n        /* \"#utility.yul\":5843:5861   */\n      tag_160\n      tag_161\n      jump\t// in\n    tag_160:\n        /* \"#utility.yul\":5724:5863   */\n    tag_159:\n        /* \"#utility.yul\":6047:6048   */\n      dup2\n        /* \"#utility.yul\":5979:6045   */\n      0x8000000000000000000000000000000000000000000000000000000000000000\n        /* \"#utility.yul\":5974:6049   */\n      sdiv\n        /* \"#utility.yul\":5971:5972   */\n      dup4\n        /* \"#utility.yul\":5967:6050   */\n      slt\n        /* \"#utility.yul\":5962:5963   */\n      0x00\n        /* \"#utility.yul\":5959:5960   */\n      dup5\n        /* \"#utility.yul\":5955:5964   */\n      slt\n        /* \"#utility.yul\":5951:5952   */\n      0x00\n        /* \"#utility.yul\":5948:5949   */\n      dup5\n        /* \"#utility.yul\":5944:5953   */\n      sgt\n        /* \"#utility.yul\":5940:5965   */\n      and\n        /* \"#utility.yul\":5936:6051   */\n      and\n        /* \"#utility.yul\":5933:6074   */\n      iszero\n      tag_162\n      jumpi\n        /* \"#utility.yul\":6054:6072   */\n      tag_163\n      tag_161\n      jump\t// in\n    tag_163:\n        /* \"#utility.yul\":5933:6074   */\n    tag_162:\n        /* \"#utility.yul\":6258:6259   */\n      dup3\n        /* \"#utility.yul\":6190:6256   */\n      0x8000000000000000000000000000000000000000000000000000000000000000\n        /* \"#utility.yul\":6185:6260   */\n      sdiv\n        /* \"#utility.yul\":6182:6183   */\n      dup3\n        /* \"#utility.yul\":6178:6261   */\n      slt\n        /* \"#utility.yul\":6173:6174   */\n      0x00\n        /* \"#utility.yul\":6170:6171   */\n      dup5\n        /* \"#utility.yul\":6166:6175   */\n      sgt\n        /* \"#utility.yul\":6162:6163   */\n      0x00\n        /* \"#utility.yul\":6159:6160   */\n      dup5\n        /* \"#utility.yul\":6155:6164   */\n      slt\n        /* \"#utility.yul\":6151:6176   */\n      and\n        /* \"#utility.yul\":6147:6262   */\n      and\n        /* \"#utility.yul\":6144:6285   */\n      iszero\n      tag_164\n      jumpi\n        /* \"#utility.yul\":6265:6283   */\n      tag_165\n      tag_161\n      jump\t// in\n    tag_165:\n        /* \"#utility.yul\":6144:6285   */\n    tag_164:\n        /* \"#utility.yul\":6468:6469   */\n      dup3\n        /* \"#utility.yul\":6400:6466   */\n      0x7fffffffffffffffffffffffffffffffffffffffffffffffffffffffffffffff\n        /* \"#utility.yul\":6395:6470   */\n      sdiv\n        /* \"#utility.yul\":6392:6393   */\n      dup3\n        /* \"#utility.yul\":6388:6471   */\n      slt\n        /* \"#utility.yul\":6383:6384   */\n      0x00\n        /* \"#utility.yul\":6380:6381   */\n      dup5\n        /* \"#utility.yul\":6376:6385   */\n      slt\n        /* \"#utility.yul\":6372:6373   */\n      0x00\n        /* \"#utility.yul\":6369:6370   */\n      dup5\n        /* \"#utility.yul\":6365:6374   */\n      slt\n        /* \"#utility.yul\":6361:6386   */\n      and\n        /* \"#utility.yul\":6357:6472   */\n      and\n        /* \"#utility.yul\":6354:6495   */\n      iszero\n      tag_166\n      jumpi\n        /* \"#utility.yul\":6475:6493   */\n      tag_167\n      tag_161\n      jump\t// in\n    tag_167:\n        /* \"#utility.yul\":6354:6495   */\n    tag_166:\n        /* \"#utility.yul\":6523:6524   */\n      dup3\n        /* \"#utility.yul\":6520:6521   */\n      dup3\n        /* \"#utility.yul\":6516:6525   */\n      mul\n        /* \"#utility.yul\":6505:6525   */\n      swap1\n      pop\n        /* \"#utility.yul\":5540:6531   */\n      swap3\n      swap2\n      pop\n      pop\n      jump\t// out\n        /* \"#utility.yul\":6537:6885   */\n    tag_65:\n        /* \"#utility.yul\":6577:6584   */\n      0x00\n        /* \"#utility.yul\":6600:6620   */\n      tag_169\n        /* \"#utility.yul\":6618:6619   */\n      dup3\n        /* \"#utility.yul\":6600:6620   */\n      tag_135\n      jump\t// in\n    tag_169:\n        /* \"#utility.yul\":6595:6620   */\n      swap2\n      pop\n        /* \"#utility.yul\":6634:6654   */\n      tag_170\n        /* \"#utility.yul\":6652:6653   */\n      dup4\n        /* \"#utility.yul\":6634:6654   */\n      tag_135\n      jump\t// in\n    tag_170:\n        /* \"#utility.yul\":6629:6654   */\n      swap3\n      pop\n        /* \"#utility.yul\":6822:6823   */\n      dup2\n        /* \"#utility.yul\":6754:6820   */\n      0xffffffffffffffffffffffffffffffffffffffffffffffffffffffffffffffff\n        /* \"#utility.yul\":6750:6824   */\n      div\n        /* \"#utility.yul\":6747:6748   */\n      dup4\n        /* \"#utility.yul\":6744:6825   */\n      gt\n        /* \"#utility.yul\":6739:6740   */\n      dup3\n        /* \"#utility.yul\":6732:6741   */\n      iszero\n        /* \"#utility.yul\":6725:6742   */\n      iszero\n        /* \"#utility.yul\":6721:6826   */\n      and\n        /* \"#utility.yul\":6718:6849   */\n      iszero\n      tag_171\n      jumpi\n        /* \"#utility.yul\":6829:6847   */\n      tag_172\n      tag_161\n      jump\t// in\n    tag_172:\n        /* \"#utility.yul\":6718:6849   */\n    tag_171:\n        /* \"#utility.yul\":6877:6878   */\n      dup3\n        /* \"#utility.yul\":6874:6875   */\n      dup3\n        /* \"#utility.yul\":6870:6879   */\n      mul\n        /* \"#utility.yul\":6859:6879   */\n      swap1\n      pop\n        /* \"#utility.yul\":6537:6885   */\n      swap3\n      swap2\n      pop\n      pop\n      jump\t// out\n        /* \"#utility.yul\":6891:6987   */\n    tag_120:\n        /* \"#utility.yul\":6928:6935   */\n      0x00\n        /* \"#utility.yul\":6957:6981   */\n      tag_174\n        /* \"#utility.yul\":6975:6980   */\n      dup3\n        /* \"#utility.yul\":6957:6981   */\n      tag_175\n      jump\t// in\n    tag_174:\n        /* \"#utility.yul\":6946:6981   */\n      swap1\n      pop\n        /* \"#utility.yul\":6891:6987   */\n      swap2\n      swap1\n      pop\n      jump\t// out\n        /* \"#utility.yul\":6993:7097   */\n    tag_116:\n        /* \"#utility.yul\":7038:7045   */\n      0x00\n        /* \"#utility.yul\":7067:7091   */\n      tag_177\n        /* \"#utility.yul\":7085:7090   */\n      dup3\n        /* \"#utility.yul\":7067:7091   */\n      tag_175\n      jump\t// in\n    tag_177:\n        /* \"#utility.yul\":7056:7091   */\n      swap1\n      pop\n        /* \"#utility.yul\":6993:7097   */\n      swap2\n      swap1\n      pop\n      jump\t// out\n        /* \"#utility.yul\":7103:7179   */\n    tag_157:\n        /* \"#utility.yul\":7139:7146   */\n      0x00\n        /* \"#utility.yul\":7168:7173   */\n      dup2\n        /* \"#utility.yul\":7157:7173   */\n      swap1\n      pop\n        /* \"#utility.yul\":7103:7179   */\n      swap2\n      swap1\n      pop\n      jump\t// out\n        /* \"#utility.yul\":7185:7311   */\n    tag_175:\n        /* \"#utility.yul\":7222:7229   */\n      0x00\n        /* \"#utility.yul\":7262:7304   */\n      0xffffffffffffffffffffffffffffffffffffffff\n        /* \"#utility.yul\":7255:7260   */\n      dup3\n        /* \"#utility.yul\":7251:7305   */\n      and\n        /* \"#utility.yul\":7240:7305   */\n      swap1\n      pop\n        /* \"#utility.yul\":7185:7311   */\n      swap2\n      swap1\n      pop\n      jump\t// out\n        /* \"#utility.yul\":7317:7394   */\n    tag_135:\n        /* \"#utility.yul\":7354:7361   */\n      0x00\n        /* \"#utility.yul\":7383:7388   */\n      dup2\n        /* \"#utility.yul\":7372:7388   */\n      swap1\n      pop\n        /* \"#utility.yul\":7317:7394   */\n      swap2\n      swap1\n      pop\n      jump\t// out\n        /* \"#utility.yul\":7400:7505   */\n    tag_181:\n        /* \"#utility.yul\":7436:7443   */\n      0x00\n        /* \"#utility.yul\":7476:7498   */\n      0xffffffffffffffffffff\n        /* \"#utility.yul\":7469:7474   */\n      dup3\n        /* \"#utility.yul\":7465:7499   */\n      and\n        /* \"#utility.yul\":7454:7499   */\n      swap1\n      pop\n        /* \"#utility.yul\":7400:7505   */\n      swap2\n      swap1\n      pop\n      jump\t// out\n        /* \"#utility.yul\":7511:7744   */\n    tag_53:\n        /* \"#utility.yul\":7550:7553   */\n      0x00\n        /* \"#utility.yul\":7573:7597   */\n      tag_184\n        /* \"#utility.yul\":7591:7596   */\n      dup3\n        /* \"#utility.yul\":7573:7597   */\n      tag_135\n      jump\t// in\n    tag_184:\n        /* \"#utility.yul\":7564:7597   */\n      swap2\n      pop\n        /* \"#utility.yul\":7619:7685   */\n      0xffffffffffffffffffffffffffffffffffffffffffffffffffffffffffffffff\n        /* \"#utility.yul\":7612:7617   */\n      dup3\n        /* \"#utility.yul\":7609:7686   */\n      eq\n        /* \"#utility.yul\":7606:7709   */\n      iszero\n      tag_185\n      jumpi\n        /* \"#utility.yul\":7689:7707   */\n      tag_186\n      tag_161\n      jump\t// in\n    tag_186:\n        /* \"#utility.yul\":7606:7709   */\n    tag_185:\n        /* \"#utility.yul\":7736:7737   */\n      0x01\n        /* \"#utility.yul\":7729:7734   */\n      dup3\n        /* \"#utility.yul\":7725:7738   */\n      add\n        /* \"#utility.yul\":7718:7738   */\n      swap1\n      pop\n        /* \"#utility.yul\":7511:7744   */\n      swap2\n      swap1\n      pop\n      jump\t// out\n        /* \"#utility.yul\":7750:7930   */\n    tag_161:\n        /* \"#utility.yul\":7798:7875   */\n      0x4e487b7100000000000000000000000000000000000000000000000000000000\n        /* \"#utility.yul\":7795:7796   */\n      0x00\n        /* \"#utility.yul\":7788:7876   */\n      mstore\n        /* \"#utility.yul\":7895:7899   */\n      0x11\n        /* \"#utility.yul\":7892:7893   */\n      0x04\n        /* \"#utility.yul\":7885:7900   */\n      mstore\n        /* \"#utility.yul\":7919:7923   */\n      0x24\n        /* \"#utility.yul\":7916:7917   */\n      0x00\n        /* \"#utility.yul\":7909:7924   */\n      revert\n        /* \"#utility.yul\":7936:8116   */\n    tag_154:\n        /* \"#utility.yul\":7984:8061   */\n      0x4e487b7100000000000000000000000000000000000000000000000000000000\n        /* \"#utility.yul\":7981:7982   */\n      0x00\n        /* \"#utility.yul\":7974:8062   */\n      mstore\n        /* \"#utility.yul\":8081:8085   */\n      0x12\n        /* \"#utility.yul\":8078:8079   */\n      0x04\n        /* \"#utility.yul\":8071:8086   */\n      mstore\n        /* \"#utility.yul\":8105:8109   */\n      0x24\n        /* \"#utility.yul\":8102:8103   */\n      0x00\n        /* \"#utility.yul\":8095:8110   */\n      revert\n        /* \"#utility.yul\":8122:8302   */\n    tag_50:\n        /* \"#utility.yul\":8170:8247   */\n      0x4e487b7100000000000000000000000000000000000000000000000000000000\n        /* \"#utility.yul\":8167:8168   */\n      0x00\n        /* \"#utility.yul\":8160:8248   */\n      mstore\n        /* \"#utility.yul\":8267:8271   */\n      0x32\n        /* \"#utility.yul\":8264:8265   */\n      0x04\n        /* \"#utility.yul\":8257:8272   */\n      mstore\n        /* \"#utility.yul\":8291:8295   */\n      0x24\n        /* \"#utility.yul\":8288:8289   */\n      0x00\n        /* \"#utility.yul\":8281:8296   */\n      revert\n        /* \"#utility.yul\":8431:8548   */\n    tag_99:\n        /* \"#utility.yul\":8540:8541   */\n      0x00\n        /* \"#utility.yul\":8537:8538   */\n      dup1\n        /* \"#utility.yul\":8530:8542   */\n      revert\n        /* \"#utility.yul\":8554:8777   */\n    tag_126:\n        /* \"#utility.yul\":8694:8728   */\n      0x4f6e6c79206f776e65722063616e207769746864726177207472616e73616374\n        /* \"#utility.yul\":8690:8691   */\n      0x00\n        /* \"#utility.yul\":8682:8688   */\n      dup3\n        /* \"#utility.yul\":8678:8692   */\n      add\n        /* \"#utility.yul\":8671:8729   */\n      mstore\n        /* \"#utility.yul\":8763:8769   */\n      0x696f6e7300000000000000000000000000000000000000000000000000000000\n        /* \"#utility.yul\":8758:8760   */\n      0x20\n        /* \"#utility.yul\":8750:8756   */\n      dup3\n        /* \"#utility.yul\":8746:8761   */\n      add\n        /* \"#utility.yul\":8739:8770   */\n      mstore\n        /* \"#utility.yul\":8554:8777   */\n      pop\n      jump\t// out\n        /* \"#utility.yul\":8783:9011   */\n    tag_131:\n        /* \"#utility.yul\":8923:8957   */\n      0x546865206d696e696d756d20616d6f756e74206f662066756e6420776f756c64\n        /* \"#utility.yul\":8919:8920   */\n      0x00\n        /* \"#utility.yul\":8911:8917   */\n      dup3\n        /* \"#utility.yul\":8907:8921   */\n      add\n        /* \"#utility.yul\":8900:8958   */\n      mstore\n        /* \"#utility.yul\":8992:9003   */\n      0x206265203e3d3530240000000000000000000000000000000000000000000000\n        /* \"#utility.yul\":8987:8989   */\n      0x20\n        /* \"#utility.yul\":8979:8985   */\n      dup3\n        /* \"#utility.yul\":8975:8990   */\n      add\n        /* \"#utility.yul\":8968:9004   */\n      mstore\n        /* \"#utility.yul\":8783:9011   */\n      pop\n      jump\t// out\n        /* \"#utility.yul\":9017:9139   */\n    tag_80:\n        /* \"#utility.yul\":9090:9114   */\n      tag_196\n        /* \"#utility.yul\":9108:9113   */\n      dup2\n        /* \"#utility.yul\":9090:9114   */\n      tag_120\n      jump\t// in\n    tag_196:\n        /* \"#utility.yul\":9083:9088   */\n      dup2\n        /* \"#utility.yul\":9080:9115   */\n      eq\n        /* \"#utility.yul\":9070:9133   */\n      tag_197\n      jumpi\n        /* \"#utility.yul\":9129:9130   */\n      0x00\n        /* \"#utility.yul\":9126:9127   */\n      dup1\n        /* \"#utility.yul\":9119:9131   */\n      revert\n        /* \"#utility.yul\":9070:9133   */\n    tag_197:\n        /* \"#utility.yul\":9017:9139   */\n      pop\n      jump\t// out\n        /* \"#utility.yul\":9145:9265   */\n    tag_84:\n        /* \"#utility.yul\":9217:9240   */\n      tag_199\n        /* \"#utility.yul\":9234:9239   */\n      dup2\n        /* \"#utility.yul\":9217:9240   */\n      tag_157\n      jump\t// in\n    tag_199:\n        /* \"#utility.yul\":9210:9215   */\n      dup2\n        /* \"#utility.yul\":9207:9241   */\n      eq\n        /* \"#utility.yul\":9197:9259   */\n      tag_200\n      jumpi\n        /* \"#utility.yul\":9255:9256   */\n      0x00\n        /* \"#utility.yul\":9252:9253   */\n      dup1\n        /* \"#utility.yul\":9245:9257   */\n      revert\n        /* \"#utility.yul\":9197:9259   */\n    tag_200:\n        /* \"#utility.yul\":9145:9265   */\n      pop\n      jump\t// out\n        /* \"#utility.yul\":9271:9393   */\n    tag_88:\n        /* \"#utility.yul\":9344:9368   */\n      tag_202\n        /* \"#utility.yul\":9362:9367   */\n      dup2\n        /* \"#utility.yul\":9344:9368   */\n      tag_135\n      jump\t// in\n    tag_202:\n        /* \"#utility.yul\":9337:9342   */\n      dup2\n        /* \"#utility.yul\":9334:9369   */\n      eq\n        /* \"#utility.yul\":9324:9387   */\n      tag_203\n      jumpi\n        /* \"#utility.yul\":9383:9384   */\n      0x00\n        /* \"#utility.yul\":9380:9381   */\n      dup1\n        /* \"#utility.yul\":9373:9385   */\n      revert\n        /* \"#utility.yul\":9324:9387   */\n    tag_203:\n        /* \"#utility.yul\":9271:9393   */\n      pop\n      jump\t// out\n        /* \"#utility.yul\":9399:9519   */\n    tag_95:\n        /* \"#utility.yul\":9471:9494   */\n      tag_205\n        /* \"#utility.yul\":9488:9493   */\n      dup2\n        /* \"#utility.yul\":9471:9494   */\n      tag_181\n      jump\t// in\n    tag_205:\n        /* \"#utility.yul\":9464:9469   */\n      dup2\n        /* \"#utility.yul\":9461:9495   */\n      eq\n        /* \"#utility.yul\":9451:9513   */\n      tag_206\n      jumpi\n        /* \"#utility.yul\":9509:9510   */\n      0x00\n        /* \"#utility.yul\":9506:9507   */\n      dup1\n        /* \"#utility.yul\":9499:9511   */\n      revert\n        /* \"#utility.yul\":9451:9513   */\n    tag_206:\n        /* \"#utility.yul\":9399:9519   */\n      pop\n      jump\t// out\n\n    auxdata: 0xa2646970667358221220edbceae1f2c4a544254d232b96f7adb9911ec2a017f89d1855c6724b30181f9564736f6c63430008070033\n}\n",
				"bytecode": {
					"linkReferences": {},
					"object": "6080604052603260005534801561001557600080fd5b50610bbc806100256000396000f3fe6080604052600436106100545760003560e01c80625c33e114610059578063098de820146100635780632e1a7d4d1461008e5780638da5cb5b146100b7578063dc0d3dff146100e2578063e73c0f231461011f575b600080fd5b61006161015c565b005b34801561006f57600080fd5b50610078610252565b6040516100859190610775565b60405180910390f35b34801561009a57600080fd5b506100b560048036038101906100b091906105e4565b610258565b005b3480156100c357600080fd5b506100cc6103df565b6040516100d9919061071a565b60405180910390f35b3480156100ee57600080fd5b50610109600480360381019061010491906105e4565b610405565b60405161011691906106ff565b60405180910390f35b34801561012b57600080fd5b50610146600480360381019061014191906105b7565b610444565b6040516101539190610775565b60405180910390f35b6000546101683461045c565b10156101a9576040517f08c379a00000000000000000000000000000000000000000000000000000000081526004016101a090610755565b60405180910390fd5b6002339080600181540180825580915050600190039060005260206000200160009091909190916101000a81548173ffffffffffffffffffffffffffffffffffffffff021916908373ffffffffffffffffffffffffffffffffffffffff16021790555034600360003373ffffffffffffffffffffffffffffffffffffffff1673ffffffffffffffffffffffffffffffffffffffff16815260200190815260200160002081905550565b60005481565b60005b6002805490508110156103045760006002828154811061027e5761027d610a58565b5b9060005260206000200160009054906101000a900473ffffffffffffffffffffffffffffffffffffffff1690506000600360008373ffffffffffffffffffffffffffffffffffffffff1673ffffffffffffffffffffffffffffffffffffffff168152602001908152602001600020819055505080806102fc906109b1565b91505061025b565b600160009054906101000a900473ffffffffffffffffffffffffffffffffffffffff1673ffffffffffffffffffffffffffffffffffffffff163373ffffffffffffffffffffffffffffffffffffffff1614610394576040517f08c379a000000000000000000000000000000000000000000000000000000000815260040161038b90610735565b60405180910390fd5b3373ffffffffffffffffffffffffffffffffffffffff166108fc839081150290604051600060405180830381858888f193505050501580156103da573d6000803e3d6000fd5b505050565b600160009054906101000a900473ffffffffffffffffffffffffffffffffffffffff1681565b6002818154811061041557600080fd5b906000526020600020016000915054906101000a900473ffffffffffffffffffffffffffffffffffffffff1681565b60036020528060005260406000206000915090505481565b600080610467610496565b90506000670de0b6b3a7640000828561048091906108e9565b61048a91906107a1565b90508092505050919050565b600080739326bfa02add2366b30bacb125260af641031331905060008173ffffffffffffffffffffffffffffffffffffffff1663feaf968c6040518163ffffffff1660e01b815260040160a06040518083038186803b1580156104f857600080fd5b505afa15801561050c573d6000803e3d6000fd5b505050506040513d601f19601f820116820180604052508101906105309190610611565b5050509150506402540be4008161054791906107d2565b9250505090565b60008135905061055d81610b2a565b92915050565b60008151905061057281610b41565b92915050565b60008135905061058781610b58565b92915050565b60008151905061059c81610b58565b92915050565b6000815190506105b181610b6f565b92915050565b6000602082840312156105cd576105cc610a87565b5b60006105db8482850161054e565b91505092915050565b6000602082840312156105fa576105f9610a87565b5b600061060884828501610578565b91505092915050565b600080600080600060a0868803121561062d5761062c610a87565b5b600061063b888289016105a2565b955050602061064c88828901610563565b945050604061065d8882890161058d565b935050606061066e8882890161058d565b925050608061067f888289016105a2565b9150509295509295909350565b61069581610955565b82525050565b6106a481610943565b82525050565b60006106b7602483610790565b91506106c282610a8c565b604082019050919050565b60006106da602983610790565b91506106e582610adb565b604082019050919050565b6106f981610991565b82525050565b6000602082019050610714600083018461069b565b92915050565b600060208201905061072f600083018461068c565b92915050565b6000602082019050818103600083015261074e816106aa565b9050919050565b6000602082019050818103600083015261076e816106cd565b9050919050565b600060208201905061078a60008301846106f0565b92915050565b600082825260208201905092915050565b60006107ac82610991565b91506107b783610991565b9250826107c7576107c6610a29565b5b828204905092915050565b60006107dd82610967565b91506107e883610967565b9250827f7fffffffffffffffffffffffffffffffffffffffffffffffffffffffffffffff0482116000841360008413161615610827576108266109fa565b5b817f80000000000000000000000000000000000000000000000000000000000000000583126000841260008413161615610864576108636109fa565b5b827f800000000000000000000000000000000000000000000000000000000000000005821260008413600084121616156108a1576108a06109fa565b5b827f7fffffffffffffffffffffffffffffffffffffffffffffffffffffffffffffff05821260008412600084121616156108de576108dd6109fa565b5b828202905092915050565b60006108f482610991565b91506108ff83610991565b9250817fffffffffffffffffffffffffffffffffffffffffffffffffffffffffffffffff0483118215151615610938576109376109fa565b5b828202905092915050565b600061094e82610971565b9050919050565b600061096082610971565b9050919050565b6000819050919050565b600073ffffffffffffffffffffffffffffffffffffffff82169050919050565b6000819050919050565b600069ffffffffffffffffffff82169050919050565b60006109bc82610991565b91507fffffffffffffffffffffffffffffffffffffffffffffffffffffffffffffffff8214156109ef576109ee6109fa565b5b600182019050919050565b7f4e487b7100000000000000000000000000000000000000000000000000000000600052601160045260246000fd5b7f4e487b7100000000000000000000000000000000000000000000000000000000600052601260045260246000fd5b7f4e487b7100000000000000000000000000000000000000000000000000000000600052603260045260246000fd5b600080fd5b7f4f6e6c79206f776e65722063616e207769746864726177207472616e7361637460008201527f696f6e7300000000000000000000000000000000000000000000000000000000602082015250565b7f546865206d696e696d756d20616d6f756e74206f662066756e6420776f756c6460008201527f206265203e3d3530240000000000000000000000000000000000000000000000602082015250565b610b3381610943565b8114610b3e57600080fd5b50565b610b4a81610967565b8114610b5557600080fd5b50565b610b6181610991565b8114610b6c57600080fd5b50565b610b788161099b565b8114610b8357600080fd5b5056fea2646970667358221220edbceae1f2c4a544254d232b96f7adb9911ec2a017f89d1855c6724b30181f9564736f6c63430008070033",
					"opcodes": "PUSH1 0x80 PUSH1 0x40 MSTORE PUSH1 0x32 PUSH1 0x0 SSTORE CALLVALUE DUP1 ISZERO PUSH2 0x15 JUMPI PUSH1 0x0 DUP1 REVERT JUMPDEST POP PUSH2 0xBBC DUP1 PUSH2 0x25 PUSH1 0x0 CODECOPY PUSH1 0x0 RETURN INVALID PUSH1 0x80 PUSH1 0x40 MSTORE PUSH1 0x4 CALLDATASIZE LT PUSH2 0x54 JUMPI PUSH1 0x0 CALLDATALOAD PUSH1 0xE0 SHR DUP1 PUSH3 0x5C33E1 EQ PUSH2 0x59 JUMPI DUP1 PUSH4 0x98DE820 EQ PUSH2 0x63 JUMPI DUP1 PUSH4 0x2E1A7D4D EQ PUSH2 0x8E JUMPI DUP1 PUSH4 0x8DA5CB5B EQ PUSH2 0xB7 JUMPI DUP1 PUSH4 0xDC0D3DFF EQ PUSH2 0xE2 JUMPI DUP1 PUSH4 0xE73C0F23 EQ PUSH2 0x11F JUMPI JUMPDEST PUSH1 0x0 DUP1 REVERT JUMPDEST PUSH2 0x61 PUSH2 0x15C JUMP JUMPDEST STOP JUMPDEST CALLVALUE DUP1 ISZERO PUSH2 0x6F JUMPI PUSH1 0x0 DUP1 REVERT JUMPDEST POP PUSH2 0x78 PUSH2 0x252 JUMP JUMPDEST PUSH1 0x40 MLOAD PUSH2 0x85 SWAP2 SWAP1 PUSH2 0x775 JUMP JUMPDEST PUSH1 0x40 MLOAD DUP1 SWAP2 SUB SWAP1 RETURN JUMPDEST CALLVALUE DUP1 ISZERO PUSH2 0x9A JUMPI PUSH1 0x0 DUP1 REVERT JUMPDEST POP PUSH2 0xB5 PUSH1 0x4 DUP1 CALLDATASIZE SUB DUP2 ADD SWAP1 PUSH2 0xB0 SWAP2 SWAP1 PUSH2 0x5E4 JUMP JUMPDEST PUSH2 0x258 JUMP JUMPDEST STOP JUMPDEST CALLVALUE DUP1 ISZERO PUSH2 0xC3 JUMPI PUSH1 0x0 DUP1 REVERT JUMPDEST POP PUSH2 0xCC PUSH2 0x3DF JUMP JUMPDEST PUSH1 0x40 MLOAD PUSH2 0xD9 SWAP2 SWAP1 PUSH2 0x71A JUMP JUMPDEST PUSH1 0x40 MLOAD DUP1 SWAP2 SUB SWAP1 RETURN JUMPDEST CALLVALUE DUP1 ISZERO PUSH2 0xEE JUMPI PUSH1 0x0 DUP1 REVERT JUMPDEST POP PUSH2 0x109 PUSH1 0x4 DUP1 CALLDATASIZE SUB DUP2 ADD SWAP1 PUSH2 0x104 SWAP2 SWAP1 PUSH2 0x5E4 JUMP JUMPDEST PUSH2 0x405 JUMP JUMPDEST PUSH1 0x40 MLOAD PUSH2 0x116 SWAP2 SWAP1 PUSH2 0x6FF JUMP JUMPDEST PUSH1 0x40 MLOAD DUP1 SWAP2 SUB SWAP1 RETURN JUMPDEST CALLVALUE DUP1 ISZERO PUSH2 0x12B JUMPI PUSH1 0x0 DUP1 REVERT JUMPDEST POP PUSH2 0x146 PUSH1 0x4 DUP1 CALLDATASIZE SUB DUP2 ADD SWAP1 PUSH2 0x141 SWAP2 SWAP1 PUSH2 0x5B7 JUMP JUMPDEST PUSH2 0x444 JUMP JUMPDEST PUSH1 0x40 MLOAD PUSH2 0x153 SWAP2 SWAP1 PUSH2 0x775 JUMP JUMPDEST PUSH1 0x40 MLOAD DUP1 SWAP2 SUB SWAP1 RETURN JUMPDEST PUSH1 0x0 SLOAD PUSH2 0x168 CALLVALUE PUSH2 0x45C JUMP JUMPDEST LT ISZERO PUSH2 0x1A9 JUMPI PUSH1 0x40 MLOAD PUSH32 0x8C379A000000000000000000000000000000000000000000000000000000000 DUP2 MSTORE PUSH1 0x4 ADD PUSH2 0x1A0 SWAP1 PUSH2 0x755 JUMP JUMPDEST PUSH1 0x40 MLOAD DUP1 SWAP2 SUB SWAP1 REVERT JUMPDEST PUSH1 0x2 CALLER SWAP1 DUP1 PUSH1 0x1 DUP2 SLOAD ADD DUP1 DUP3 SSTORE DUP1 SWAP2 POP POP PUSH1 0x1 SWAP1 SUB SWAP1 PUSH1 0x0 MSTORE PUSH1 0x20 PUSH1 0x0 KECCAK256 ADD PUSH1 0x0 SWAP1 SWAP2 SWAP1 SWAP2 SWAP1 SWAP2 PUSH2 0x100 EXP DUP2 SLOAD DUP2 PUSH20 0xFFFFFFFFFFFFFFFFFFFFFFFFFFFFFFFFFFFFFFFF MUL NOT AND SWAP1 DUP4 PUSH20 0xFFFFFFFFFFFFFFFFFFFFFFFFFFFFFFFFFFFFFFFF AND MUL OR SWAP1 SSTORE POP CALLVALUE PUSH1 0x3 PUSH1 0x0 CALLER PUSH20 0xFFFFFFFFFFFFFFFFFFFFFFFFFFFFFFFFFFFFFFFF AND PUSH20 0xFFFFFFFFFFFFFFFFFFFFFFFFFFFFFFFFFFFFFFFF AND DUP2 MSTORE PUSH1 0x20 ADD SWAP1 DUP2 MSTORE PUSH1 0x20 ADD PUSH1 0x0 KECCAK256 DUP2 SWAP1 SSTORE POP JUMP JUMPDEST PUSH1 0x0 SLOAD DUP2 JUMP JUMPDEST PUSH1 0x0 JUMPDEST PUSH1 0x2 DUP1 SLOAD SWAP1 POP DUP2 LT ISZERO PUSH2 0x304 JUMPI PUSH1 0x0 PUSH1 0x2 DUP3 DUP2 SLOAD DUP2 LT PUSH2 0x27E JUMPI PUSH2 0x27D PUSH2 0xA58 JUMP JUMPDEST JUMPDEST SWAP1 PUSH1 0x0 MSTORE PUSH1 0x20 PUSH1 0x0 KECCAK256 ADD PUSH1 0x0 SWAP1 SLOAD SWAP1 PUSH2 0x100 EXP SWAP1 DIV PUSH20 0xFFFFFFFFFFFFFFFFFFFFFFFFFFFFFFFFFFFFFFFF AND SWAP1 POP PUSH1 0x0 PUSH1 0x3 PUSH1 0x0 DUP4 PUSH20 0xFFFFFFFFFFFFFFFFFFFFFFFFFFFFFFFFFFFFFFFF AND PUSH20 0xFFFFFFFFFFFFFFFFFFFFFFFFFFFFFFFFFFFFFFFF AND DUP2 MSTORE PUSH1 0x20 ADD SWAP1 DUP2 MSTORE PUSH1 0x20 ADD PUSH1 0x0 KECCAK256 DUP2 SWAP1 SSTORE POP POP DUP1 DUP1 PUSH2 0x2FC SWAP1 PUSH2 0x9B1 JUMP JUMPDEST SWAP2 POP POP PUSH2 0x25B JUMP JUMPDEST PUSH1 0x1 PUSH1 0x0 SWAP1 SLOAD SWAP1 PUSH2 0x100 EXP SWAP1 DIV PUSH20 0xFFFFFFFFFFFFFFFFFFFFFFFFFFFFFFFFFFFFFFFF AND PUSH20 0xFFFFFFFFFFFFFFFFFFFFFFFFFFFFFFFFFFFFFFFF AND CALLER PUSH20 0xFFFFFFFFFFFFFFFFFFFFFFFFFFFFFFFFFFFFFFFF AND EQ PUSH2 0x394 JUMPI PUSH1 0x40 MLOAD PUSH32 0x8C379A000000000000000000000000000000000000000000000000000000000 DUP2 MSTORE PUSH1 0x4 ADD PUSH2 0x38B SWAP1 PUSH2 0x735 JUMP JUMPDEST PUSH1 0x40 MLOAD DUP1 SWAP2 SUB SWAP1 REVERT JUMPDEST CALLER PUSH20 0xFFFFFFFFFFFFFFFFFFFFFFFFFFFFFFFFFFFFFFFF AND PUSH2 0x8FC DUP4 SWAP1 DUP2 ISZERO MUL SWAP1 PUSH1 0x40 MLOAD PUSH1 0x0 PUSH1 0x40 MLOAD DUP1 DUP4 SUB DUP2 DUP6 DUP9 DUP9 CALL SWAP4 POP POP POP POP ISZERO DUP1 ISZERO PUSH2 0x3DA JUMPI RETURNDATASIZE PUSH1 0x0 DUP1 RETURNDATACOPY RETURNDATASIZE PUSH1 0x0 REVERT JUMPDEST POP POP POP JUMP JUMPDEST PUSH1 0x1 PUSH1 0x0 SWAP1 SLOAD SWAP1 PUSH2 0x100 EXP SWAP1 DIV PUSH20 0xFFFFFFFFFFFFFFFFFFFFFFFFFFFFFFFFFFFFFFFF AND DUP2 JUMP JUMPDEST PUSH1 0x2 DUP2 DUP2 SLOAD DUP2 LT PUSH2 0x415 JUMPI PUSH1 0x0 DUP1 REVERT JUMPDEST SWAP1 PUSH1 0x0 MSTORE PUSH1 0x20 PUSH1 0x0 KECCAK256 ADD PUSH1 0x0 SWAP2 POP SLOAD SWAP1 PUSH2 0x100 EXP SWAP1 DIV PUSH20 0xFFFFFFFFFFFFFFFFFFFFFFFFFFFFFFFFFFFFFFFF AND DUP2 JUMP JUMPDEST PUSH1 0x3 PUSH1 0x20 MSTORE DUP1 PUSH1 0x0 MSTORE PUSH1 0x40 PUSH1 0x0 KECCAK256 PUSH1 0x0 SWAP2 POP SWAP1 POP SLOAD DUP2 JUMP JUMPDEST PUSH1 0x0 DUP1 PUSH2 0x467 PUSH2 0x496 JUMP JUMPDEST SWAP1 POP PUSH1 0x0 PUSH8 0xDE0B6B3A7640000 DUP3 DUP6 PUSH2 0x480 SWAP2 SWAP1 PUSH2 0x8E9 JUMP JUMPDEST PUSH2 0x48A SWAP2 SWAP1 PUSH2 0x7A1 JUMP JUMPDEST SWAP1 POP DUP1 SWAP3 POP POP POP SWAP2 SWAP1 POP JUMP JUMPDEST PUSH1 0x0 DUP1 PUSH20 0x9326BFA02ADD2366B30BACB125260AF641031331 SWAP1 POP PUSH1 0x0 DUP2 PUSH20 0xFFFFFFFFFFFFFFFFFFFFFFFFFFFFFFFFFFFFFFFF AND PUSH4 0xFEAF968C PUSH1 0x40 MLOAD DUP2 PUSH4 0xFFFFFFFF AND PUSH1 0xE0 SHL DUP2 MSTORE PUSH1 0x4 ADD PUSH1 0xA0 PUSH1 0x40 MLOAD DUP1 DUP4 SUB DUP2 DUP7 DUP1 EXTCODESIZE ISZERO DUP1 ISZERO PUSH2 0x4F8 JUMPI PUSH1 0x0 DUP1 REVERT JUMPDEST POP GAS STATICCALL ISZERO DUP1 ISZERO PUSH2 0x50C JUMPI RETURNDATASIZE PUSH1 0x0 DUP1 RETURNDATACOPY RETURNDATASIZE PUSH1 0x0 REVERT JUMPDEST POP POP POP POP PUSH1 0x40 MLOAD RETURNDATASIZE PUSH1 0x1F NOT PUSH1 0x1F DUP3 ADD AND DUP3 ADD DUP1 PUSH1 0x40 MSTORE POP DUP2 ADD SWAP1 PUSH2 0x530 SWAP2 SWAP1 PUSH2 0x611 JUMP JUMPDEST POP POP POP SWAP2 POP POP PUSH5 0x2540BE400 DUP2 PUSH2 0x547 SWAP2 SWAP1 PUSH2 0x7D2 JUMP JUMPDEST SWAP3 POP POP POP SWAP1 JUMP JUMPDEST PUSH1 0x0 DUP2 CALLDATALOAD SWAP1 POP PUSH2 0x55D DUP2 PUSH2 0xB2A JUMP JUMPDEST SWAP3 SWAP2 POP POP JUMP JUMPDEST PUSH1 0x0 DUP2 MLOAD SWAP1 POP PUSH2 0x572 DUP2 PUSH2 0xB41 JUMP JUMPDEST SWAP3 SWAP2 POP POP JUMP JUMPDEST PUSH1 0x0 DUP2 CALLDATALOAD SWAP1 POP PUSH2 0x587 DUP2 PUSH2 0xB58 JUMP JUMPDEST SWAP3 SWAP2 POP POP JUMP JUMPDEST PUSH1 0x0 DUP2 MLOAD SWAP1 POP PUSH2 0x59C DUP2 PUSH2 0xB58 JUMP JUMPDEST SWAP3 SWAP2 POP POP JUMP JUMPDEST PUSH1 0x0 DUP2 MLOAD SWAP1 POP PUSH2 0x5B1 DUP2 PUSH2 0xB6F JUMP JUMPDEST SWAP3 SWAP2 POP POP JUMP JUMPDEST PUSH1 0x0 PUSH1 0x20 DUP3 DUP5 SUB SLT ISZERO PUSH2 0x5CD JUMPI PUSH2 0x5CC PUSH2 0xA87 JUMP JUMPDEST JUMPDEST PUSH1 0x0 PUSH2 0x5DB DUP5 DUP3 DUP6 ADD PUSH2 0x54E JUMP JUMPDEST SWAP2 POP POP SWAP3 SWAP2 POP POP JUMP JUMPDEST PUSH1 0x0 PUSH1 0x20 DUP3 DUP5 SUB SLT ISZERO PUSH2 0x5FA JUMPI PUSH2 0x5F9 PUSH2 0xA87 JUMP JUMPDEST JUMPDEST PUSH1 0x0 PUSH2 0x608 DUP5 DUP3 DUP6 ADD PUSH2 0x578 JUMP JUMPDEST SWAP2 POP POP SWAP3 SWAP2 POP POP JUMP JUMPDEST PUSH1 0x0 DUP1 PUSH1 0x0 DUP1 PUSH1 0x0 PUSH1 0xA0 DUP7 DUP9 SUB SLT ISZERO PUSH2 0x62D JUMPI PUSH2 0x62C PUSH2 0xA87 JUMP JUMPDEST JUMPDEST PUSH1 0x0 PUSH2 0x63B DUP9 DUP3 DUP10 ADD PUSH2 0x5A2 JUMP JUMPDEST SWAP6 POP POP PUSH1 0x20 PUSH2 0x64C DUP9 DUP3 DUP10 ADD PUSH2 0x563 JUMP JUMPDEST SWAP5 POP POP PUSH1 0x40 PUSH2 0x65D DUP9 DUP3 DUP10 ADD PUSH2 0x58D JUMP JUMPDEST SWAP4 POP POP PUSH1 0x60 PUSH2 0x66E DUP9 DUP3 DUP10 ADD PUSH2 0x58D JUMP JUMPDEST SWAP3 POP POP PUSH1 0x80 PUSH2 0x67F DUP9 DUP3 DUP10 ADD PUSH2 0x5A2 JUMP JUMPDEST SWAP2 POP POP SWAP3 SWAP6 POP SWAP3 SWAP6 SWAP1 SWAP4 POP JUMP JUMPDEST PUSH2 0x695 DUP2 PUSH2 0x955 JUMP JUMPDEST DUP3 MSTORE POP POP JUMP JUMPDEST PUSH2 0x6A4 DUP2 PUSH2 0x943 JUMP JUMPDEST DUP3 MSTORE POP POP JUMP JUMPDEST PUSH1 0x0 PUSH2 0x6B7 PUSH1 0x24 DUP4 PUSH2 0x790 JUMP JUMPDEST SWAP2 POP PUSH2 0x6C2 DUP3 PUSH2 0xA8C JUMP JUMPDEST PUSH1 0x40 DUP3 ADD SWAP1 POP SWAP2 SWAP1 POP JUMP JUMPDEST PUSH1 0x0 PUSH2 0x6DA PUSH1 0x29 DUP4 PUSH2 0x790 JUMP JUMPDEST SWAP2 POP PUSH2 0x6E5 DUP3 PUSH2 0xADB JUMP JUMPDEST PUSH1 0x40 DUP3 ADD SWAP1 POP SWAP2 SWAP1 POP JUMP JUMPDEST PUSH2 0x6F9 DUP2 PUSH2 0x991 JUMP JUMPDEST DUP3 MSTORE POP POP JUMP JUMPDEST PUSH1 0x0 PUSH1 0x20 DUP3 ADD SWAP1 POP PUSH2 0x714 PUSH1 0x0 DUP4 ADD DUP5 PUSH2 0x69B JUMP JUMPDEST SWAP3 SWAP2 POP POP JUMP JUMPDEST PUSH1 0x0 PUSH1 0x20 DUP3 ADD SWAP1 POP PUSH2 0x72F PUSH1 0x0 DUP4 ADD DUP5 PUSH2 0x68C JUMP JUMPDEST SWAP3 SWAP2 POP POP JUMP JUMPDEST PUSH1 0x0 PUSH1 0x20 DUP3 ADD SWAP1 POP DUP2 DUP2 SUB PUSH1 0x0 DUP4 ADD MSTORE PUSH2 0x74E DUP2 PUSH2 0x6AA JUMP JUMPDEST SWAP1 POP SWAP2 SWAP1 POP JUMP JUMPDEST PUSH1 0x0 PUSH1 0x20 DUP3 ADD SWAP1 POP DUP2 DUP2 SUB PUSH1 0x0 DUP4 ADD MSTORE PUSH2 0x76E DUP2 PUSH2 0x6CD JUMP JUMPDEST SWAP1 POP SWAP2 SWAP1 POP JUMP JUMPDEST PUSH1 0x0 PUSH1 0x20 DUP3 ADD SWAP1 POP PUSH2 0x78A PUSH1 0x0 DUP4 ADD DUP5 PUSH2 0x6F0 JUMP JUMPDEST SWAP3 SWAP2 POP POP JUMP JUMPDEST PUSH1 0x0 DUP3 DUP3 MSTORE PUSH1 0x20 DUP3 ADD SWAP1 POP SWAP3 SWAP2 POP POP JUMP JUMPDEST PUSH1 0x0 PUSH2 0x7AC DUP3 PUSH2 0x991 JUMP JUMPDEST SWAP2 POP PUSH2 0x7B7 DUP4 PUSH2 0x991 JUMP JUMPDEST SWAP3 POP DUP3 PUSH2 0x7C7 JUMPI PUSH2 0x7C6 PUSH2 0xA29 JUMP JUMPDEST JUMPDEST DUP3 DUP3 DIV SWAP1 POP SWAP3 SWAP2 POP POP JUMP JUMPDEST PUSH1 0x0 PUSH2 0x7DD DUP3 PUSH2 0x967 JUMP JUMPDEST SWAP2 POP PUSH2 0x7E8 DUP4 PUSH2 0x967 JUMP JUMPDEST SWAP3 POP DUP3 PUSH32 0x7FFFFFFFFFFFFFFFFFFFFFFFFFFFFFFFFFFFFFFFFFFFFFFFFFFFFFFFFFFFFFFF DIV DUP3 GT PUSH1 0x0 DUP5 SGT PUSH1 0x0 DUP5 SGT AND AND ISZERO PUSH2 0x827 JUMPI PUSH2 0x826 PUSH2 0x9FA JUMP JUMPDEST JUMPDEST DUP2 PUSH32 0x8000000000000000000000000000000000000000000000000000000000000000 SDIV DUP4 SLT PUSH1 0x0 DUP5 SLT PUSH1 0x0 DUP5 SGT AND AND ISZERO PUSH2 0x864 JUMPI PUSH2 0x863 PUSH2 0x9FA JUMP JUMPDEST JUMPDEST DUP3 PUSH32 0x8000000000000000000000000000000000000000000000000000000000000000 SDIV DUP3 SLT PUSH1 0x0 DUP5 SGT PUSH1 0x0 DUP5 SLT AND AND ISZERO PUSH2 0x8A1 JUMPI PUSH2 0x8A0 PUSH2 0x9FA JUMP JUMPDEST JUMPDEST DUP3 PUSH32 0x7FFFFFFFFFFFFFFFFFFFFFFFFFFFFFFFFFFFFFFFFFFFFFFFFFFFFFFFFFFFFFFF SDIV DUP3 SLT PUSH1 0x0 DUP5 SLT PUSH1 0x0 DUP5 SLT AND AND ISZERO PUSH2 0x8DE JUMPI PUSH2 0x8DD PUSH2 0x9FA JUMP JUMPDEST JUMPDEST DUP3 DUP3 MUL SWAP1 POP SWAP3 SWAP2 POP POP JUMP JUMPDEST PUSH1 0x0 PUSH2 0x8F4 DUP3 PUSH2 0x991 JUMP JUMPDEST SWAP2 POP PUSH2 0x8FF DUP4 PUSH2 0x991 JUMP JUMPDEST SWAP3 POP DUP2 PUSH32 0xFFFFFFFFFFFFFFFFFFFFFFFFFFFFFFFFFFFFFFFFFFFFFFFFFFFFFFFFFFFFFFFF DIV DUP4 GT DUP3 ISZERO ISZERO AND ISZERO PUSH2 0x938 JUMPI PUSH2 0x937 PUSH2 0x9FA JUMP JUMPDEST JUMPDEST DUP3 DUP3 MUL SWAP1 POP SWAP3 SWAP2 POP POP JUMP JUMPDEST PUSH1 0x0 PUSH2 0x94E DUP3 PUSH2 0x971 JUMP JUMPDEST SWAP1 POP SWAP2 SWAP1 POP JUMP JUMPDEST PUSH1 0x0 PUSH2 0x960 DUP3 PUSH2 0x971 JUMP JUMPDEST SWAP1 POP SWAP2 SWAP1 POP JUMP JUMPDEST PUSH1 0x0 DUP2 SWAP1 POP SWAP2 SWAP1 POP JUMP JUMPDEST PUSH1 0x0 PUSH20 0xFFFFFFFFFFFFFFFFFFFFFFFFFFFFFFFFFFFFFFFF DUP3 AND SWAP1 POP SWAP2 SWAP1 POP JUMP JUMPDEST PUSH1 0x0 DUP2 SWAP1 POP SWAP2 SWAP1 POP JUMP JUMPDEST PUSH1 0x0 PUSH10 0xFFFFFFFFFFFFFFFFFFFF DUP3 AND SWAP1 POP SWAP2 SWAP1 POP JUMP JUMPDEST PUSH1 0x0 PUSH2 0x9BC DUP3 PUSH2 0x991 JUMP JUMPDEST SWAP2 POP PUSH32 0xFFFFFFFFFFFFFFFFFFFFFFFFFFFFFFFFFFFFFFFFFFFFFFFFFFFFFFFFFFFFFFFF DUP3 EQ ISZERO PUSH2 0x9EF JUMPI PUSH2 0x9EE PUSH2 0x9FA JUMP JUMPDEST JUMPDEST PUSH1 0x1 DUP3 ADD SWAP1 POP SWAP2 SWAP1 POP JUMP JUMPDEST PUSH32 0x4E487B7100000000000000000000000000000000000000000000000000000000 PUSH1 0x0 MSTORE PUSH1 0x11 PUSH1 0x4 MSTORE PUSH1 0x24 PUSH1 0x0 REVERT JUMPDEST PUSH32 0x4E487B7100000000000000000000000000000000000000000000000000000000 PUSH1 0x0 MSTORE PUSH1 0x12 PUSH1 0x4 MSTORE PUSH1 0x24 PUSH1 0x0 REVERT JUMPDEST PUSH32 0x4E487B7100000000000000000000000000000000000000000000000000000000 PUSH1 0x0 MSTORE PUSH1 0x32 PUSH1 0x4 MSTORE PUSH1 0x24 PUSH1 0x0 REVERT JUMPDEST PUSH1 0x0 DUP1 REVERT JUMPDEST PUSH32 0x4F6E6C79206F776E65722063616E207769746864726177207472616E73616374 PUSH1 0x0 DUP3 ADD MSTORE PUSH32 0x696F6E7300000000000000000000000000000000000000000000000000000000 PUSH1 0x20 DUP3 ADD MSTORE POP JUMP JUMPDEST PUSH32 0x546865206D696E696D756D20616D6F756E74206F662066756E6420776F756C64 PUSH1 0x0 DUP3 ADD MSTORE PUSH32 0x206265203E3D3530240000000000000000000000000000000000000000000000 PUSH1 0x20 DUP3 ADD MSTORE POP JUMP JUMPDEST PUSH2 0xB33 DUP2 PUSH2 0x943 JUMP JUMPDEST DUP2 EQ PUSH2 0xB3E JUMPI PUSH1 0x0 DUP1 REVERT JUMPDEST POP JUMP JUMPDEST PUSH2 0xB4A DUP2 PUSH2 0x967 JUMP JUMPDEST DUP2 EQ PUSH2 0xB55 JUMPI PUSH1 0x0 DUP1 REVERT JUMPDEST POP JUMP JUMPDEST PUSH2 0xB61 DUP2 PUSH2 0x991 JUMP JUMPDEST DUP2 EQ PUSH2 0xB6C JUMPI PUSH1 0x0 DUP1 REVERT JUMPDEST POP JUMP JUMPDEST PUSH2 0xB78 DUP2 PUSH2 0x99B JUMP JUMPDEST DUP2 EQ PUSH2 0xB83 JUMPI PUSH1 0x0 DUP1 REVERT JUMPDEST POP JUMP INVALID LOG2 PUSH5 0x6970667358 0x22 SLT KECCAK256 0xED 0xBC 0xEA 0xE1 CALLCODE 0xC4 0xA5 DIFFICULTY 0x25 0x4D 0x23 0x2B SWAP7 0xF7 0xAD 0xB9 SWAP2 0x1E 0xC2 LOG0 OR 0xF8 SWAP14 XOR SSTORE 0xC6 PUSH19 0x4B30181F9564736F6C63430008070033000000 "
				},
				"gasEstimates": {
					"creation": {
						"codeDepositCost": "600800",
						"executionCost": "22738",
						"totalCost": "623538"
					},
					"external": {
						"funders(uint256)": "5022",
						"fundersAmount(address)": "2902",
						"minimumUsd()": "2429",
						"owner()": "2558",
						"receiveFunds()": "infinite",
						"withdraw(uint256)": "infinite"
					}
				},
				"methodIdentifiers": {
					"funders(uint256)": "dc0d3dff",
					"fundersAmount(address)": "e73c0f23",
					"minimumUsd()": "098de820",
					"owner()": "8da5cb5b",
					"receiveFunds()": "005c33e1",
					"withdraw(uint256)": "2e1a7d4d"
				}
			},
			"storageLayout": {
				"storage": [
					{
						"astId": 54,
						"contract": "contracts/FundMe.sol:FundMe",
						"label": "minimumUsd",
						"offset": 0,
						"slot": "0",
						"type": "t_uint256"
					},
					{
						"astId": 56,
						"contract": "contracts/FundMe.sol:FundMe",
						"label": "owner",
						"offset": 0,
						"slot": "1",
						"type": "t_address_payable"
					},
					{
						"astId": 59,
						"contract": "contracts/FundMe.sol:FundMe",
						"label": "funders",
						"offset": 0,
						"slot": "2",
						"type": "t_array(t_address)dyn_storage"
					},
					{
						"astId": 63,
						"contract": "contracts/FundMe.sol:FundMe",
						"label": "fundersAmount",
						"offset": 0,
						"slot": "3",
						"type": "t_mapping(t_address,t_uint256)"
					}
				],
				"types": {
					"t_address": {
						"encoding": "inplace",
						"label": "address",
						"numberOfBytes": "20"
					},
					"t_address_payable": {
						"encoding": "inplace",
						"label": "address payable",
						"numberOfBytes": "20"
					},
					"t_array(t_address)dyn_storage": {
						"base": "t_address",
						"encoding": "dynamic_array",
						"label": "address[]",
						"numberOfBytes": "32"
					},
					"t_mapping(t_address,t_uint256)": {
						"encoding": "mapping",
						"key": "t_address",
						"label": "mapping(address => uint256)",
						"numberOfBytes": "32",
						"value": "t_uint256"
					},
					"t_uint256": {
						"encoding": "inplace",
						"label": "uint256",
						"numberOfBytes": "32"
					}
				}
			},
			"userdoc": {
				"kind": "user",
				"methods": {},
				"version": 1
			}
		}
	}
}