{
	"contracts/FundMe.sol": {
		"FundMe": {
			"abi": [
				{
					"inputs": [
						{
							"internalType": "uint256",
							"name": "",
							"type": "uint256"
						}
					],
					"name": "funders",
					"outputs": [
						{
							"internalType": "address",
							"name": "",
							"type": "address"
						}
					],
					"stateMutability": "view",
					"type": "function"
				},
				{
					"inputs": [
						{
							"internalType": "address",
							"name": "",
							"type": "address"
						}
					],
					"name": "fundersAmount",
					"outputs": [
						{
							"internalType": "uint256",
							"name": "",
							"type": "uint256"
						}
					],
					"stateMutability": "view",
					"type": "function"
				},
				{
					"inputs": [],
					"name": "minimumUsd",
					"outputs": [
						{
							"internalType": "uint256",
							"name": "",
							"type": "uint256"
						}
					],
					"stateMutability": "view",
					"type": "function"
				},
				{
					"inputs": [],
					"name": "owner",
					"outputs": [
						{
							"internalType": "address payable",
							"name": "",
							"type": "address"
						}
					],
					"stateMutability": "view",
					"type": "function"
				},
				{
					"inputs": [],
					"name": "receiveFunds",
					"outputs": [],
					"stateMutability": "payable",
					"type": "function"
				},
				{
					"inputs": [],
					"name": "withdraw",
					"outputs": [],
					"stateMutability": "nonpayable",
					"type": "function"
				},
				{
					"inputs": [
						{
							"internalType": "uint256",
							"name": "amount",
							"type": "uint256"
						}
					],
					"name": "withdrawSpecificAmount",
					"outputs": [],
					"stateMutability": "nonpayable",
					"type": "function"
				}
			],
			"devdoc": {
				"kind": "dev",
				"methods": {},
				"version": 1
			},
			"evm": {
				"assembly": "    /* \"contracts/FundMe.sol\":210:2476  contract FundMe{\r... */\n  mstore(0x40, 0x80)\n    /* \"contracts/FundMe.sol\":324:326  50 */\n  0x32\n    /* \"contracts/FundMe.sol\":296:326  uint256 public minimumUsd = 50 */\n  0x00\n  sstore\n    /* \"contracts/FundMe.sol\":210:2476  contract FundMe{\r... */\n  callvalue\n  dup1\n  iszero\n  tag_1\n  jumpi\n  0x00\n  dup1\n  revert\ntag_1:\n  pop\n  dataSize(sub_0)\n  dup1\n  dataOffset(sub_0)\n  0x00\n  codecopy\n  0x00\n  return\nstop\n\nsub_0: assembly {\n        /* \"contracts/FundMe.sol\":210:2476  contract FundMe{\r... */\n      mstore(0x40, 0x80)\n      jumpi(tag_1, lt(calldatasize, 0x04))\n      shr(0xe0, calldataload(0x00))\n      dup1\n      0x76778d6e\n      gt\n      tag_9\n      jumpi\n      dup1\n      0x76778d6e\n      eq\n      tag_5\n      jumpi\n      dup1\n      0x8da5cb5b\n      eq\n      tag_6\n      jumpi\n      dup1\n      0xdc0d3dff\n      eq\n      tag_7\n      jumpi\n      dup1\n      0xe73c0f23\n      eq\n      tag_8\n      jumpi\n      jump(tag_1)\n    tag_9:\n      dup1\n      0x5c33e1\n      eq\n      tag_2\n      jumpi\n      dup1\n      0x098de820\n      eq\n      tag_3\n      jumpi\n      dup1\n      0x3ccfd60b\n      eq\n      tag_4\n      jumpi\n    tag_1:\n      0x00\n      dup1\n      revert\n        /* \"contracts/FundMe.sol\":604:1335  function receiveFunds() public payable{\r... */\n    tag_2:\n      tag_10\n      tag_11\n      jump\t// in\n    tag_10:\n      stop\n        /* \"contracts/FundMe.sol\":296:326  uint256 public minimumUsd = 50 */\n    tag_3:\n      callvalue\n      dup1\n      iszero\n      tag_12\n      jumpi\n      0x00\n      dup1\n      revert\n    tag_12:\n      pop\n      tag_13\n      tag_14\n      jump\t// in\n    tag_13:\n      mload(0x40)\n      tag_15\n      swap2\n      swap1\n      tag_16\n      jump\t// in\n    tag_15:\n      mload(0x40)\n      dup1\n      swap2\n      sub\n      swap1\n      return\n        /* \"contracts/FundMe.sol\":1343:2275  function withdraw() public{\r... */\n    tag_4:\n      callvalue\n      dup1\n      iszero\n      tag_17\n      jumpi\n      0x00\n      dup1\n      revert\n    tag_17:\n      pop\n      tag_18\n      tag_19\n      jump\t// in\n    tag_18:\n      stop\n        /* \"contracts/FundMe.sol\":2283:2473  function withdrawSpecificAmount(uint256 amount) public{\r... */\n    tag_5:\n      callvalue\n      dup1\n      iszero\n      tag_20\n      jumpi\n      0x00\n      dup1\n      revert\n    tag_20:\n      pop\n      tag_21\n      0x04\n      dup1\n      calldatasize\n      sub\n      dup2\n      add\n      swap1\n      tag_22\n      swap2\n      swap1\n      tag_23\n      jump\t// in\n    tag_22:\n      tag_24\n      jump\t// in\n    tag_21:\n      stop\n        /* \"contracts/FundMe.sol\":333:361  address payable public owner */\n    tag_6:\n      callvalue\n      dup1\n      iszero\n      tag_25\n      jumpi\n      0x00\n      dup1\n      revert\n    tag_25:\n      pop\n      tag_26\n      tag_27\n      jump\t// in\n    tag_26:\n      mload(0x40)\n      tag_28\n      swap2\n      swap1\n      tag_29\n      jump\t// in\n    tag_28:\n      mload(0x40)\n      dup1\n      swap2\n      sub\n      swap1\n      return\n        /* \"contracts/FundMe.sol\":397:421  address[] public funders */\n    tag_7:\n      callvalue\n      dup1\n      iszero\n      tag_30\n      jumpi\n      0x00\n      dup1\n      revert\n    tag_30:\n      pop\n      tag_31\n      0x04\n      dup1\n      calldatasize\n      sub\n      dup2\n      add\n      swap1\n      tag_32\n      swap2\n      swap1\n      tag_23\n      jump\t// in\n    tag_32:\n      tag_33\n      jump\t// in\n    tag_31:\n      mload(0x40)\n      tag_34\n      swap2\n      swap1\n      tag_35\n      jump\t// in\n    tag_34:\n      mload(0x40)\n      dup1\n      swap2\n      sub\n      swap1\n      return\n        /* \"contracts/FundMe.sol\":547:595  mapping(address => uint256) public fundersAmount */\n    tag_8:\n      callvalue\n      dup1\n      iszero\n      tag_36\n      jumpi\n      0x00\n      dup1\n      revert\n    tag_36:\n      pop\n      tag_37\n      0x04\n      dup1\n      calldatasize\n      sub\n      dup2\n      add\n      swap1\n      tag_38\n      swap2\n      swap1\n      tag_39\n      jump\t// in\n    tag_38:\n      tag_40\n      jump\t// in\n    tag_37:\n      mload(0x40)\n      tag_41\n      swap2\n      swap1\n      tag_16\n      jump\t// in\n    tag_41:\n      mload(0x40)\n      dup1\n      swap2\n      sub\n      swap1\n      return\n        /* \"contracts/FundMe.sol\":604:1335  function receiveFunds() public payable{\r... */\n    tag_11:\n        /* \"contracts/FundMe.sol\":1050:1060  minimumUsd */\n      sload(0x00)\n        /* \"contracts/FundMe.sol\":1024:1046  msg.value.conversion() */\n      tag_43\n        /* \"contracts/FundMe.sol\":1024:1033  msg.value */\n      callvalue\n        /* \"contracts/FundMe.sol\":1024:1044  msg.value.conversion */\n      tag_44\n        /* \"contracts/FundMe.sol\":1024:1046  msg.value.conversion() */\n      jump\t// in\n    tag_43:\n        /* \"contracts/FundMe.sol\":1024:1060  msg.value.conversion() >= minimumUsd */\n      lt\n      iszero\n        /* \"contracts/FundMe.sol\":1016:1107  require(msg.value.conversion() >= minimumUsd , \"The minimum amount of fund would be >=50$\") */\n      tag_45\n      jumpi\n      mload(0x40)\n      0x08c379a000000000000000000000000000000000000000000000000000000000\n      dup2\n      mstore\n      0x04\n      add\n      tag_46\n      swap1\n      tag_47\n      jump\t// in\n    tag_46:\n      mload(0x40)\n      dup1\n      swap2\n      sub\n      swap1\n      revert\n    tag_45:\n        /* \"contracts/FundMe.sol\":1118:1125  funders */\n      0x02\n        /* \"contracts/FundMe.sol\":1131:1141  msg.sender */\n      caller\n        /* \"contracts/FundMe.sol\":1118:1142  funders.push(msg.sender) */\n      swap1\n      dup1\n      0x01\n      dup2\n      sload\n      add\n      dup1\n      dup3\n      sstore\n      dup1\n      swap2\n      pop\n      pop\n      0x01\n      swap1\n      sub\n      swap1\n      0x00\n      mstore\n      keccak256(0x00, 0x20)\n      add\n      0x00\n      swap1\n      swap2\n      swap1\n      swap2\n      swap1\n      swap2\n      0x0100\n      exp\n      dup2\n      sload\n      dup2\n      0xffffffffffffffffffffffffffffffffffffffff\n      mul\n      not\n      and\n      swap1\n      dup4\n      0xffffffffffffffffffffffffffffffffffffffff\n      and\n      mul\n      or\n      swap1\n      sstore\n      pop\n        /* \"contracts/FundMe.sol\":1242:1251  msg.value */\n      callvalue\n        /* \"contracts/FundMe.sol\":1214:1227  fundersAmount */\n      0x03\n        /* \"contracts/FundMe.sol\":1214:1239  fundersAmount[msg.sender] */\n      0x00\n        /* \"contracts/FundMe.sol\":1228:1238  msg.sender */\n      caller\n        /* \"contracts/FundMe.sol\":1214:1239  fundersAmount[msg.sender] */\n      0xffffffffffffffffffffffffffffffffffffffff\n      and\n      0xffffffffffffffffffffffffffffffffffffffff\n      and\n      dup2\n      mstore\n      0x20\n      add\n      swap1\n      dup2\n      mstore\n      0x20\n      add\n      0x00\n      keccak256\n        /* \"contracts/FundMe.sol\":1214:1251  fundersAmount[msg.sender] = msg.value */\n      dup2\n      swap1\n      sstore\n      pop\n        /* \"contracts/FundMe.sol\":604:1335  function receiveFunds() public payable{\r... */\n      jump\t// out\n        /* \"contracts/FundMe.sol\":296:326  uint256 public minimumUsd = 50 */\n    tag_14:\n      sload(0x00)\n      dup2\n      jump\t// out\n        /* \"contracts/FundMe.sol\":1343:2275  function withdraw() public{\r... */\n    tag_19:\n        /* \"contracts/FundMe.sol\":1437:1456  uint256 funderIndex */\n      0x00\n        /* \"contracts/FundMe.sol\":1469:1682  for(funderIndex = 0; funderIndex < funders.length; funderIndex++){\r... */\n    tag_50:\n        /* \"contracts/FundMe.sol\":1504:1511  funders */\n      0x02\n        /* \"contracts/FundMe.sol\":1504:1518  funders.length */\n      dup1\n      sload\n      swap1\n      pop\n        /* \"contracts/FundMe.sol\":1490:1501  funderIndex */\n      dup2\n        /* \"contracts/FundMe.sol\":1490:1518  funderIndex < funders.length */\n      lt\n        /* \"contracts/FundMe.sol\":1469:1682  for(funderIndex = 0; funderIndex < funders.length; funderIndex++){\r... */\n      iszero\n      tag_51\n      jumpi\n        /* \"contracts/FundMe.sol\":1551:1565  address funder */\n      0x00\n        /* \"contracts/FundMe.sol\":1568:1575  funders */\n      0x02\n        /* \"contracts/FundMe.sol\":1576:1587  funderIndex */\n      dup3\n        /* \"contracts/FundMe.sol\":1568:1588  funders[funderIndex] */\n      dup2\n      sload\n      dup2\n      lt\n      tag_53\n      jumpi\n      tag_54\n      tag_55\n      jump\t// in\n    tag_54:\n    tag_53:\n      swap1\n      0x00\n      mstore\n      keccak256(0x00, 0x20)\n      add\n      0x00\n      swap1\n      sload\n      swap1\n      0x0100\n      exp\n      swap1\n      div\n      0xffffffffffffffffffffffffffffffffffffffff\n      and\n        /* \"contracts/FundMe.sol\":1551:1588  address funder = funders[funderIndex] */\n      swap1\n      pop\n        /* \"contracts/FundMe.sol\":1669:1670  0 */\n      0x00\n        /* \"contracts/FundMe.sol\":1645:1658  fundersAmount */\n      0x03\n        /* \"contracts/FundMe.sol\":1645:1666  fundersAmount[funder] */\n      0x00\n        /* \"contracts/FundMe.sol\":1659:1665  funder */\n      dup4\n        /* \"contracts/FundMe.sol\":1645:1666  fundersAmount[funder] */\n      0xffffffffffffffffffffffffffffffffffffffff\n      and\n      0xffffffffffffffffffffffffffffffffffffffff\n      and\n      dup2\n      mstore\n      0x20\n      add\n      swap1\n      dup2\n      mstore\n      0x20\n      add\n      0x00\n      keccak256\n        /* \"contracts/FundMe.sol\":1645:1670  fundersAmount[funder] = 0 */\n      dup2\n      swap1\n      sstore\n      pop\n        /* \"contracts/FundMe.sol\":1534:1682  {\r... */\n      pop\n        /* \"contracts/FundMe.sol\":1520:1533  funderIndex++ */\n      dup1\n      dup1\n      tag_57\n      swap1\n      tag_58\n      jump\t// in\n    tag_57:\n      swap2\n      pop\n      pop\n        /* \"contracts/FundMe.sol\":1469:1682  for(funderIndex = 0; funderIndex < funders.length; funderIndex++){\r... */\n      jump(tag_50)\n    tag_51:\n        /* \"contracts/FundMe.sol\":1716:1721  owner */\n      0x01\n      0x00\n      swap1\n      sload\n      swap1\n      0x0100\n      exp\n      swap1\n      div\n      0xffffffffffffffffffffffffffffffffffffffff\n      and\n        /* \"contracts/FundMe.sol\":1702:1721  msg.sender == owner */\n      0xffffffffffffffffffffffffffffffffffffffff\n      and\n        /* \"contracts/FundMe.sol\":1702:1712  msg.sender */\n      caller\n        /* \"contracts/FundMe.sol\":1702:1721  msg.sender == owner */\n      0xffffffffffffffffffffffffffffffffffffffff\n      and\n      eq\n        /* \"contracts/FundMe.sol\":1694:1762  require(msg.sender == owner, \"Only owner can withdraw transactions\") */\n      tag_59\n      jumpi\n      mload(0x40)\n      0x08c379a000000000000000000000000000000000000000000000000000000000\n      dup2\n      mstore\n      0x04\n      add\n      tag_60\n      swap1\n      tag_61\n      jump\t// in\n    tag_60:\n      mload(0x40)\n      dup1\n      swap2\n      sub\n      swap1\n      revert\n    tag_59:\n        /* \"contracts/FundMe.sol\":1899:1909  msg.sender */\n      caller\n        /* \"contracts/FundMe.sol\":1891:1919  payable(msg.sender).transfer */\n      0xffffffffffffffffffffffffffffffffffffffff\n      and\n        /* \"contracts/FundMe.sol\":1891:1942  payable(msg.sender).transfer(address(this).balance) */\n      0x08fc\n        /* \"contracts/FundMe.sol\":1920:1941  address(this).balance */\n      selfbalance\n        /* \"contracts/FundMe.sol\":1891:1942  payable(msg.sender).transfer(address(this).balance) */\n      swap1\n      dup2\n      iszero\n      mul\n      swap1\n      mload(0x40)\n      0x00\n      mload(0x40)\n      dup1\n      dup4\n      sub\n      dup2\n      dup6\n      dup9\n      dup9\n      call\n      swap4\n      pop\n      pop\n      pop\n      pop\n      iszero\n      dup1\n      iszero\n      tag_63\n      jumpi\n      returndatasize\n      0x00\n      dup1\n      returndatacopy\n      revert(0x00, returndatasize)\n    tag_63:\n      pop\n        /* \"contracts/FundMe.sol\":1971:1983  bool success */\n      0x00\n        /* \"contracts/FundMe.sol\":1994:2004  msg.sender */\n      caller\n        /* \"contracts/FundMe.sol\":1986:2010  payable(msg.sender).send */\n      0xffffffffffffffffffffffffffffffffffffffff\n      and\n        /* \"contracts/FundMe.sol\":1986:2033  payable(msg.sender).send(address(this).balance) */\n      0x08fc\n        /* \"contracts/FundMe.sol\":2011:2032  address(this).balance */\n      selfbalance\n        /* \"contracts/FundMe.sol\":1986:2033  payable(msg.sender).send(address(this).balance) */\n      swap1\n      dup2\n      iszero\n      mul\n      swap1\n      mload(0x40)\n      0x00\n      mload(0x40)\n      dup1\n      dup4\n      sub\n      dup2\n      dup6\n      dup9\n      dup9\n      call\n      swap4\n      pop\n      pop\n      pop\n      pop\n        /* \"contracts/FundMe.sol\":1971:2033  bool success = payable(msg.sender).send(address(this).balance) */\n      swap1\n      pop\n        /* \"contracts/FundMe.sol\":2052:2059  success */\n      dup1\n        /* \"contracts/FundMe.sol\":2044:2076  require(success , \"Send Failed\") */\n      tag_65\n      jumpi\n      mload(0x40)\n      0x08c379a000000000000000000000000000000000000000000000000000000000\n      dup2\n      mstore\n      0x04\n      add\n      tag_66\n      swap1\n      tag_67\n      jump\t// in\n    tag_66:\n      mload(0x40)\n      dup1\n      swap2\n      sub\n      swap1\n      revert\n    tag_65:\n        /* \"contracts/FundMe.sol\":2106:2126  bool successWithdraw */\n      0x00\n        /* \"contracts/FundMe.sol\":2140:2150  msg.sender */\n      caller\n        /* \"contracts/FundMe.sol\":2132:2156  payable(msg.sender).call */\n      0xffffffffffffffffffffffffffffffffffffffff\n      and\n        /* \"contracts/FundMe.sol\":2178:2199  address(this).balance */\n      selfbalance\n        /* \"contracts/FundMe.sol\":2132:2214  payable(msg.sender).call{\r... */\n      mload(0x40)\n      tag_68\n      swap1\n      tag_69\n      jump\t// in\n    tag_68:\n      0x00\n      mload(0x40)\n      dup1\n      dup4\n      sub\n      dup2\n      dup6\n      dup8\n      gas\n      call\n      swap3\n      pop\n      pop\n      pop\n      returndatasize\n      dup1\n      0x00\n      dup2\n      eq\n      tag_72\n      jumpi\n      mload(0x40)\n      swap2\n      pop\n      and(add(returndatasize, 0x3f), not(0x1f))\n      dup3\n      add\n      0x40\n      mstore\n      returndatasize\n      dup3\n      mstore\n      returndatasize\n      0x00\n      0x20\n      dup5\n      add\n      returndatacopy\n      jump(tag_71)\n    tag_72:\n      0x60\n      swap2\n      pop\n    tag_71:\n      pop\n        /* \"contracts/FundMe.sol\":2105:2214  (bool successWithdraw, ) = payable(msg.sender).call{\r... */\n      pop\n      swap1\n      pop\n        /* \"contracts/FundMe.sol\":2233:2240  success */\n      dup2\n        /* \"contracts/FundMe.sol\":2225:2257  require(success , \"Send Failed\") */\n      tag_73\n      jumpi\n      mload(0x40)\n      0x08c379a000000000000000000000000000000000000000000000000000000000\n      dup2\n      mstore\n      0x04\n      add\n      tag_74\n      swap1\n      tag_67\n      jump\t// in\n    tag_74:\n      mload(0x40)\n      dup1\n      swap2\n      sub\n      swap1\n      revert\n    tag_73:\n        /* \"contracts/FundMe.sol\":1369:2275  {\r... */\n      pop\n      pop\n      pop\n        /* \"contracts/FundMe.sol\":1343:2275  function withdraw() public{\r... */\n      jump\t// out\n        /* \"contracts/FundMe.sol\":2283:2473  function withdrawSpecificAmount(uint256 amount) public{\r... */\n    tag_24:\n        /* \"contracts/FundMe.sol\":2372:2377  owner */\n      0x01\n      0x00\n      swap1\n      sload\n      swap1\n      0x0100\n      exp\n      swap1\n      div\n      0xffffffffffffffffffffffffffffffffffffffff\n      and\n        /* \"contracts/FundMe.sol\":2358:2377  msg.sender == owner */\n      0xffffffffffffffffffffffffffffffffffffffff\n      and\n        /* \"contracts/FundMe.sol\":2358:2368  msg.sender */\n      caller\n        /* \"contracts/FundMe.sol\":2358:2377  msg.sender == owner */\n      0xffffffffffffffffffffffffffffffffffffffff\n      and\n      eq\n        /* \"contracts/FundMe.sol\":2350:2418  require(msg.sender == owner, \"Only owner can withdraw transactions\") */\n      tag_76\n      jumpi\n      mload(0x40)\n      0x08c379a000000000000000000000000000000000000000000000000000000000\n      dup2\n      mstore\n      0x04\n      add\n      tag_77\n      swap1\n      tag_61\n      jump\t// in\n    tag_77:\n      mload(0x40)\n      dup1\n      swap2\n      sub\n      swap1\n      revert\n    tag_76:\n        /* \"contracts/FundMe.sol\":2437:2447  msg.sender */\n      caller\n        /* \"contracts/FundMe.sol\":2429:2457  payable(msg.sender).transfer */\n      0xffffffffffffffffffffffffffffffffffffffff\n      and\n        /* \"contracts/FundMe.sol\":2429:2465  payable(msg.sender).transfer(amount) */\n      0x08fc\n        /* \"contracts/FundMe.sol\":2458:2464  amount */\n      dup3\n        /* \"contracts/FundMe.sol\":2429:2465  payable(msg.sender).transfer(amount) */\n      swap1\n      dup2\n      iszero\n      mul\n      swap1\n      mload(0x40)\n      0x00\n      mload(0x40)\n      dup1\n      dup4\n      sub\n      dup2\n      dup6\n      dup9\n      dup9\n      call\n      swap4\n      pop\n      pop\n      pop\n      pop\n      iszero\n      dup1\n      iszero\n      tag_79\n      jumpi\n      returndatasize\n      0x00\n      dup1\n      returndatacopy\n      revert(0x00, returndatasize)\n    tag_79:\n      pop\n        /* \"contracts/FundMe.sol\":2283:2473  function withdrawSpecificAmount(uint256 amount) public{\r... */\n      pop\n      jump\t// out\n        /* \"contracts/FundMe.sol\":333:361  address payable public owner */\n    tag_27:\n      0x01\n      0x00\n      swap1\n      sload\n      swap1\n      0x0100\n      exp\n      swap1\n      div\n      0xffffffffffffffffffffffffffffffffffffffff\n      and\n      dup2\n      jump\t// out\n        /* \"contracts/FundMe.sol\":397:421  address[] public funders */\n    tag_33:\n      0x02\n      dup2\n      dup2\n      sload\n      dup2\n      lt\n      tag_80\n      jumpi\n      0x00\n      dup1\n      revert\n    tag_80:\n      swap1\n      0x00\n      mstore\n      keccak256(0x00, 0x20)\n      add\n      0x00\n      swap2\n      pop\n      sload\n      swap1\n      0x0100\n      exp\n      swap1\n      div\n      0xffffffffffffffffffffffffffffffffffffffff\n      and\n      dup2\n      jump\t// out\n        /* \"contracts/FundMe.sol\":547:595  mapping(address => uint256) public fundersAmount */\n    tag_40:\n      mstore(0x20, 0x03)\n      dup1\n      0x00\n      mstore\n      keccak256(0x00, 0x40)\n      0x00\n      swap2\n      pop\n      swap1\n      pop\n      sload\n      dup2\n      jump\t// out\n        /* \"contracts/PriceConvertor.sol\":853:1167  function conversion(uint256 ethAmount) internal view returns(uint256){\r... */\n    tag_44:\n        /* \"contracts/PriceConvertor.sol\":914:921  uint256 */\n      0x00\n        /* \"contracts/PriceConvertor.sol\":1020:1036  uint256 ethPrice */\n      dup1\n        /* \"contracts/PriceConvertor.sol\":1039:1049  getPrice() */\n      tag_83\n        /* \"contracts/PriceConvertor.sol\":1039:1047  getPrice */\n      tag_84\n        /* \"contracts/PriceConvertor.sol\":1039:1049  getPrice() */\n      jump\t// in\n    tag_83:\n        /* \"contracts/PriceConvertor.sol\":1020:1049  uint256 ethPrice = getPrice() */\n      swap1\n      pop\n        /* \"contracts/PriceConvertor.sol\":1083:1099  uint256 ethinUSD */\n      0x00\n        /* \"contracts/PriceConvertor.sol\":1127:1131  1e18 */\n      0x0de0b6b3a7640000\n        /* \"contracts/PriceConvertor.sol\":1115:1123  ethPrice */\n      dup3\n        /* \"contracts/PriceConvertor.sol\":1103:1112  ethAmount */\n      dup6\n        /* \"contracts/PriceConvertor.sol\":1103:1123  ethAmount * ethPrice */\n      tag_85\n      swap2\n      swap1\n      tag_86\n      jump\t// in\n    tag_85:\n        /* \"contracts/PriceConvertor.sol\":1102:1131  (ethAmount * ethPrice) / 1e18 */\n      tag_87\n      swap2\n      swap1\n      tag_88\n      jump\t// in\n    tag_87:\n        /* \"contracts/PriceConvertor.sol\":1083:1131  uint256 ethinUSD = (ethAmount * ethPrice) / 1e18 */\n      swap1\n      pop\n        /* \"contracts/PriceConvertor.sol\":1149:1157  ethinUSD */\n      dup1\n        /* \"contracts/PriceConvertor.sol\":1142:1157  return ethinUSD */\n      swap3\n      pop\n      pop\n      pop\n        /* \"contracts/PriceConvertor.sol\":853:1167  function conversion(uint256 ethAmount) internal view returns(uint256){\r... */\n      swap2\n      swap1\n      pop\n      jump\t// out\n        /* \"contracts/PriceConvertor.sol\":251:627  function getPrice() internal view returns(uint256){\r... */\n    tag_84:\n        /* \"contracts/PriceConvertor.sol\":293:300  uint256 */\n      0x00\n        /* \"contracts/PriceConvertor.sol\":348:379  AggregatorV3Interface priceFeed */\n      dup1\n        /* \"contracts/PriceConvertor.sol\":404:446  0x9326BFA02ADD2366b30bacB125260Af641031331 */\n      0x9326bfa02add2366b30bacb125260af641031331\n        /* \"contracts/PriceConvertor.sol\":348:447  AggregatorV3Interface priceFeed = AggregatorV3Interface(0x9326BFA02ADD2366b30bacB125260Af641031331) */\n      swap1\n      pop\n        /* \"contracts/PriceConvertor.sol\":461:474  int256 answer */\n      0x00\n        /* \"contracts/PriceConvertor.sol\":482:491  priceFeed */\n      dup2\n        /* \"contracts/PriceConvertor.sol\":482:507  priceFeed.latestRoundData */\n      0xffffffffffffffffffffffffffffffffffffffff\n      and\n      0xfeaf968c\n        /* \"contracts/PriceConvertor.sol\":482:509  priceFeed.latestRoundData() */\n      mload(0x40)\n      dup2\n      0xffffffff\n      and\n      0xe0\n      shl\n      dup2\n      mstore\n      0x04\n      add\n      0xa0\n      mload(0x40)\n      dup1\n      dup4\n      sub\n      dup2\n      dup7\n      dup1\n      extcodesize\n      iszero\n      dup1\n      iszero\n      tag_90\n      jumpi\n      0x00\n      dup1\n      revert\n    tag_90:\n      pop\n      gas\n      staticcall\n      iszero\n      dup1\n      iszero\n      tag_92\n      jumpi\n      returndatasize\n      0x00\n      dup1\n      returndatacopy\n      revert(0x00, returndatasize)\n    tag_92:\n      pop\n      pop\n      pop\n      pop\n      mload(0x40)\n      returndatasize\n      not(0x1f)\n      0x1f\n      dup3\n      add\n      and\n      dup3\n      add\n      dup1\n      0x40\n      mstore\n      pop\n      dup2\n      add\n      swap1\n      tag_93\n      swap2\n      swap1\n      tag_94\n      jump\t// in\n    tag_93:\n        /* \"contracts/PriceConvertor.sol\":458:509  (, int256 answer ,,,) = priceFeed.latestRoundData() */\n      pop\n      pop\n      pop\n      swap2\n      pop\n      pop\n        /* \"contracts/PriceConvertor.sol\":605:609  1e10 */\n      0x02540be400\n        /* \"contracts/PriceConvertor.sol\":597:603  answer */\n      dup2\n        /* \"contracts/PriceConvertor.sol\":597:609  answer* 1e10 */\n      tag_95\n      swap2\n      swap1\n      tag_96\n      jump\t// in\n    tag_95:\n        /* \"contracts/PriceConvertor.sol\":582:610  return uint256(answer* 1e10) */\n      swap3\n      pop\n      pop\n      pop\n        /* \"contracts/PriceConvertor.sol\":251:627  function getPrice() internal view returns(uint256){\r... */\n      swap1\n      jump\t// out\n        /* \"#utility.yul\":7:146   */\n    tag_98:\n        /* \"#utility.yul\":53:58   */\n      0x00\n        /* \"#utility.yul\":91:97   */\n      dup2\n        /* \"#utility.yul\":78:98   */\n      calldataload\n        /* \"#utility.yul\":69:98   */\n      swap1\n      pop\n        /* \"#utility.yul\":107:140   */\n      tag_100\n        /* \"#utility.yul\":134:139   */\n      dup2\n        /* \"#utility.yul\":107:140   */\n      tag_101\n      jump\t// in\n    tag_100:\n        /* \"#utility.yul\":7:146   */\n      swap3\n      swap2\n      pop\n      pop\n      jump\t// out\n        /* \"#utility.yul\":152:293   */\n    tag_102:\n        /* \"#utility.yul\":208:213   */\n      0x00\n        /* \"#utility.yul\":239:245   */\n      dup2\n        /* \"#utility.yul\":233:246   */\n      mload\n        /* \"#utility.yul\":224:246   */\n      swap1\n      pop\n        /* \"#utility.yul\":255:287   */\n      tag_104\n        /* \"#utility.yul\":281:286   */\n      dup2\n        /* \"#utility.yul\":255:287   */\n      tag_105\n      jump\t// in\n    tag_104:\n        /* \"#utility.yul\":152:293   */\n      swap3\n      swap2\n      pop\n      pop\n      jump\t// out\n        /* \"#utility.yul\":299:438   */\n    tag_106:\n        /* \"#utility.yul\":345:350   */\n      0x00\n        /* \"#utility.yul\":383:389   */\n      dup2\n        /* \"#utility.yul\":370:390   */\n      calldataload\n        /* \"#utility.yul\":361:390   */\n      swap1\n      pop\n        /* \"#utility.yul\":399:432   */\n      tag_108\n        /* \"#utility.yul\":426:431   */\n      dup2\n        /* \"#utility.yul\":399:432   */\n      tag_109\n      jump\t// in\n    tag_108:\n        /* \"#utility.yul\":299:438   */\n      swap3\n      swap2\n      pop\n      pop\n      jump\t// out\n        /* \"#utility.yul\":444:587   */\n    tag_110:\n        /* \"#utility.yul\":501:506   */\n      0x00\n        /* \"#utility.yul\":532:538   */\n      dup2\n        /* \"#utility.yul\":526:539   */\n      mload\n        /* \"#utility.yul\":517:539   */\n      swap1\n      pop\n        /* \"#utility.yul\":548:581   */\n      tag_112\n        /* \"#utility.yul\":575:580   */\n      dup2\n        /* \"#utility.yul\":548:581   */\n      tag_109\n      jump\t// in\n    tag_112:\n        /* \"#utility.yul\":444:587   */\n      swap3\n      swap2\n      pop\n      pop\n      jump\t// out\n        /* \"#utility.yul\":593:734   */\n    tag_113:\n        /* \"#utility.yul\":649:654   */\n      0x00\n        /* \"#utility.yul\":680:686   */\n      dup2\n        /* \"#utility.yul\":674:687   */\n      mload\n        /* \"#utility.yul\":665:687   */\n      swap1\n      pop\n        /* \"#utility.yul\":696:728   */\n      tag_115\n        /* \"#utility.yul\":722:727   */\n      dup2\n        /* \"#utility.yul\":696:728   */\n      tag_116\n      jump\t// in\n    tag_115:\n        /* \"#utility.yul\":593:734   */\n      swap3\n      swap2\n      pop\n      pop\n      jump\t// out\n        /* \"#utility.yul\":740:1069   */\n    tag_39:\n        /* \"#utility.yul\":799:805   */\n      0x00\n        /* \"#utility.yul\":848:850   */\n      0x20\n        /* \"#utility.yul\":836:845   */\n      dup3\n        /* \"#utility.yul\":827:834   */\n      dup5\n        /* \"#utility.yul\":823:846   */\n      sub\n        /* \"#utility.yul\":819:851   */\n      slt\n        /* \"#utility.yul\":816:935   */\n      iszero\n      tag_118\n      jumpi\n        /* \"#utility.yul\":854:933   */\n      tag_119\n      tag_120\n      jump\t// in\n    tag_119:\n        /* \"#utility.yul\":816:935   */\n    tag_118:\n        /* \"#utility.yul\":974:975   */\n      0x00\n        /* \"#utility.yul\":999:1052   */\n      tag_121\n        /* \"#utility.yul\":1044:1051   */\n      dup5\n        /* \"#utility.yul\":1035:1041   */\n      dup3\n        /* \"#utility.yul\":1024:1033   */\n      dup6\n        /* \"#utility.yul\":1020:1042   */\n      add\n        /* \"#utility.yul\":999:1052   */\n      tag_98\n      jump\t// in\n    tag_121:\n        /* \"#utility.yul\":989:1052   */\n      swap2\n      pop\n        /* \"#utility.yul\":945:1062   */\n      pop\n        /* \"#utility.yul\":740:1069   */\n      swap3\n      swap2\n      pop\n      pop\n      jump\t// out\n        /* \"#utility.yul\":1075:1404   */\n    tag_23:\n        /* \"#utility.yul\":1134:1140   */\n      0x00\n        /* \"#utility.yul\":1183:1185   */\n      0x20\n        /* \"#utility.yul\":1171:1180   */\n      dup3\n        /* \"#utility.yul\":1162:1169   */\n      dup5\n        /* \"#utility.yul\":1158:1181   */\n      sub\n        /* \"#utility.yul\":1154:1186   */\n      slt\n        /* \"#utility.yul\":1151:1270   */\n      iszero\n      tag_123\n      jumpi\n        /* \"#utility.yul\":1189:1268   */\n      tag_124\n      tag_120\n      jump\t// in\n    tag_124:\n        /* \"#utility.yul\":1151:1270   */\n    tag_123:\n        /* \"#utility.yul\":1309:1310   */\n      0x00\n        /* \"#utility.yul\":1334:1387   */\n      tag_125\n        /* \"#utility.yul\":1379:1386   */\n      dup5\n        /* \"#utility.yul\":1370:1376   */\n      dup3\n        /* \"#utility.yul\":1359:1368   */\n      dup6\n        /* \"#utility.yul\":1355:1377   */\n      add\n        /* \"#utility.yul\":1334:1387   */\n      tag_106\n      jump\t// in\n    tag_125:\n        /* \"#utility.yul\":1324:1387   */\n      swap2\n      pop\n        /* \"#utility.yul\":1280:1397   */\n      pop\n        /* \"#utility.yul\":1075:1404   */\n      swap3\n      swap2\n      pop\n      pop\n      jump\t// out\n        /* \"#utility.yul\":1410:2381   */\n    tag_94:\n        /* \"#utility.yul\":1513:1519   */\n      0x00\n        /* \"#utility.yul\":1521:1527   */\n      dup1\n        /* \"#utility.yul\":1529:1535   */\n      0x00\n        /* \"#utility.yul\":1537:1543   */\n      dup1\n        /* \"#utility.yul\":1545:1551   */\n      0x00\n        /* \"#utility.yul\":1594:1597   */\n      0xa0\n        /* \"#utility.yul\":1582:1591   */\n      dup7\n        /* \"#utility.yul\":1573:1580   */\n      dup9\n        /* \"#utility.yul\":1569:1592   */\n      sub\n        /* \"#utility.yul\":1565:1598   */\n      slt\n        /* \"#utility.yul\":1562:1682   */\n      iszero\n      tag_127\n      jumpi\n        /* \"#utility.yul\":1601:1680   */\n      tag_128\n      tag_120\n      jump\t// in\n    tag_128:\n        /* \"#utility.yul\":1562:1682   */\n    tag_127:\n        /* \"#utility.yul\":1721:1722   */\n      0x00\n        /* \"#utility.yul\":1746:1809   */\n      tag_129\n        /* \"#utility.yul\":1801:1808   */\n      dup9\n        /* \"#utility.yul\":1792:1798   */\n      dup3\n        /* \"#utility.yul\":1781:1790   */\n      dup10\n        /* \"#utility.yul\":1777:1799   */\n      add\n        /* \"#utility.yul\":1746:1809   */\n      tag_113\n      jump\t// in\n    tag_129:\n        /* \"#utility.yul\":1736:1809   */\n      swap6\n      pop\n        /* \"#utility.yul\":1692:1819   */\n      pop\n        /* \"#utility.yul\":1858:1860   */\n      0x20\n        /* \"#utility.yul\":1884:1947   */\n      tag_130\n        /* \"#utility.yul\":1939:1946   */\n      dup9\n        /* \"#utility.yul\":1930:1936   */\n      dup3\n        /* \"#utility.yul\":1919:1928   */\n      dup10\n        /* \"#utility.yul\":1915:1937   */\n      add\n        /* \"#utility.yul\":1884:1947   */\n      tag_102\n      jump\t// in\n    tag_130:\n        /* \"#utility.yul\":1874:1947   */\n      swap5\n      pop\n        /* \"#utility.yul\":1829:1957   */\n      pop\n        /* \"#utility.yul\":1996:1998   */\n      0x40\n        /* \"#utility.yul\":2022:2086   */\n      tag_131\n        /* \"#utility.yul\":2078:2085   */\n      dup9\n        /* \"#utility.yul\":2069:2075   */\n      dup3\n        /* \"#utility.yul\":2058:2067   */\n      dup10\n        /* \"#utility.yul\":2054:2076   */\n      add\n        /* \"#utility.yul\":2022:2086   */\n      tag_110\n      jump\t// in\n    tag_131:\n        /* \"#utility.yul\":2012:2086   */\n      swap4\n      pop\n        /* \"#utility.yul\":1967:2096   */\n      pop\n        /* \"#utility.yul\":2135:2137   */\n      0x60\n        /* \"#utility.yul\":2161:2225   */\n      tag_132\n        /* \"#utility.yul\":2217:2224   */\n      dup9\n        /* \"#utility.yul\":2208:2214   */\n      dup3\n        /* \"#utility.yul\":2197:2206   */\n      dup10\n        /* \"#utility.yul\":2193:2215   */\n      add\n        /* \"#utility.yul\":2161:2225   */\n      tag_110\n      jump\t// in\n    tag_132:\n        /* \"#utility.yul\":2151:2225   */\n      swap3\n      pop\n        /* \"#utility.yul\":2106:2235   */\n      pop\n        /* \"#utility.yul\":2274:2277   */\n      0x80\n        /* \"#utility.yul\":2301:2364   */\n      tag_133\n        /* \"#utility.yul\":2356:2363   */\n      dup9\n        /* \"#utility.yul\":2347:2353   */\n      dup3\n        /* \"#utility.yul\":2336:2345   */\n      dup10\n        /* \"#utility.yul\":2332:2354   */\n      add\n        /* \"#utility.yul\":2301:2364   */\n      tag_113\n      jump\t// in\n    tag_133:\n        /* \"#utility.yul\":2291:2364   */\n      swap2\n      pop\n        /* \"#utility.yul\":2245:2374   */\n      pop\n        /* \"#utility.yul\":1410:2381   */\n      swap3\n      swap6\n      pop\n      swap3\n      swap6\n      swap1\n      swap4\n      pop\n      jump\t// out\n        /* \"#utility.yul\":2387:2529   */\n    tag_134:\n        /* \"#utility.yul\":2490:2522   */\n      tag_136\n        /* \"#utility.yul\":2516:2521   */\n      dup2\n        /* \"#utility.yul\":2490:2522   */\n      tag_137\n      jump\t// in\n    tag_136:\n        /* \"#utility.yul\":2485:2488   */\n      dup3\n        /* \"#utility.yul\":2478:2523   */\n      mstore\n        /* \"#utility.yul\":2387:2529   */\n      pop\n      pop\n      jump\t// out\n        /* \"#utility.yul\":2535:2653   */\n    tag_138:\n        /* \"#utility.yul\":2622:2646   */\n      tag_140\n        /* \"#utility.yul\":2640:2645   */\n      dup2\n        /* \"#utility.yul\":2622:2646   */\n      tag_141\n      jump\t// in\n    tag_140:\n        /* \"#utility.yul\":2617:2620   */\n      dup3\n        /* \"#utility.yul\":2610:2647   */\n      mstore\n        /* \"#utility.yul\":2535:2653   */\n      pop\n      pop\n      jump\t// out\n        /* \"#utility.yul\":2659:3025   */\n    tag_142:\n        /* \"#utility.yul\":2801:2804   */\n      0x00\n        /* \"#utility.yul\":2822:2889   */\n      tag_144\n        /* \"#utility.yul\":2886:2888   */\n      0x24\n        /* \"#utility.yul\":2881:2884   */\n      dup4\n        /* \"#utility.yul\":2822:2889   */\n      tag_145\n      jump\t// in\n    tag_144:\n        /* \"#utility.yul\":2815:2889   */\n      swap2\n      pop\n        /* \"#utility.yul\":2898:2991   */\n      tag_146\n        /* \"#utility.yul\":2987:2990   */\n      dup3\n        /* \"#utility.yul\":2898:2991   */\n      tag_147\n      jump\t// in\n    tag_146:\n        /* \"#utility.yul\":3016:3018   */\n      0x40\n        /* \"#utility.yul\":3011:3014   */\n      dup3\n        /* \"#utility.yul\":3007:3019   */\n      add\n        /* \"#utility.yul\":3000:3019   */\n      swap1\n      pop\n        /* \"#utility.yul\":2659:3025   */\n      swap2\n      swap1\n      pop\n      jump\t// out\n        /* \"#utility.yul\":3031:3397   */\n    tag_148:\n        /* \"#utility.yul\":3173:3176   */\n      0x00\n        /* \"#utility.yul\":3194:3261   */\n      tag_150\n        /* \"#utility.yul\":3258:3260   */\n      0x0b\n        /* \"#utility.yul\":3253:3256   */\n      dup4\n        /* \"#utility.yul\":3194:3261   */\n      tag_145\n      jump\t// in\n    tag_150:\n        /* \"#utility.yul\":3187:3261   */\n      swap2\n      pop\n        /* \"#utility.yul\":3270:3363   */\n      tag_151\n        /* \"#utility.yul\":3359:3362   */\n      dup3\n        /* \"#utility.yul\":3270:3363   */\n      tag_152\n      jump\t// in\n    tag_151:\n        /* \"#utility.yul\":3388:3390   */\n      0x20\n        /* \"#utility.yul\":3383:3386   */\n      dup3\n        /* \"#utility.yul\":3379:3391   */\n      add\n        /* \"#utility.yul\":3372:3391   */\n      swap1\n      pop\n        /* \"#utility.yul\":3031:3397   */\n      swap2\n      swap1\n      pop\n      jump\t// out\n        /* \"#utility.yul\":3403:3769   */\n    tag_153:\n        /* \"#utility.yul\":3545:3548   */\n      0x00\n        /* \"#utility.yul\":3566:3633   */\n      tag_155\n        /* \"#utility.yul\":3630:3632   */\n      0x29\n        /* \"#utility.yul\":3625:3628   */\n      dup4\n        /* \"#utility.yul\":3566:3633   */\n      tag_145\n      jump\t// in\n    tag_155:\n        /* \"#utility.yul\":3559:3633   */\n      swap2\n      pop\n        /* \"#utility.yul\":3642:3735   */\n      tag_156\n        /* \"#utility.yul\":3731:3734   */\n      dup3\n        /* \"#utility.yul\":3642:3735   */\n      tag_157\n      jump\t// in\n    tag_156:\n        /* \"#utility.yul\":3760:3762   */\n      0x40\n        /* \"#utility.yul\":3755:3758   */\n      dup3\n        /* \"#utility.yul\":3751:3763   */\n      add\n        /* \"#utility.yul\":3744:3763   */\n      swap1\n      pop\n        /* \"#utility.yul\":3403:3769   */\n      swap2\n      swap1\n      pop\n      jump\t// out\n        /* \"#utility.yul\":3775:4173   */\n    tag_158:\n        /* \"#utility.yul\":3934:3937   */\n      0x00\n        /* \"#utility.yul\":3955:4038   */\n      tag_160\n        /* \"#utility.yul\":4036:4037   */\n      0x00\n        /* \"#utility.yul\":4031:4034   */\n      dup4\n        /* \"#utility.yul\":3955:4038   */\n      tag_161\n      jump\t// in\n    tag_160:\n        /* \"#utility.yul\":3948:4038   */\n      swap2\n      pop\n        /* \"#utility.yul\":4047:4140   */\n      tag_162\n        /* \"#utility.yul\":4136:4139   */\n      dup3\n        /* \"#utility.yul\":4047:4140   */\n      tag_163\n      jump\t// in\n    tag_162:\n        /* \"#utility.yul\":4165:4166   */\n      0x00\n        /* \"#utility.yul\":4160:4163   */\n      dup3\n        /* \"#utility.yul\":4156:4167   */\n      add\n        /* \"#utility.yul\":4149:4167   */\n      swap1\n      pop\n        /* \"#utility.yul\":3775:4173   */\n      swap2\n      swap1\n      pop\n      jump\t// out\n        /* \"#utility.yul\":4179:4297   */\n    tag_164:\n        /* \"#utility.yul\":4266:4290   */\n      tag_166\n        /* \"#utility.yul\":4284:4289   */\n      dup2\n        /* \"#utility.yul\":4266:4290   */\n      tag_167\n      jump\t// in\n    tag_166:\n        /* \"#utility.yul\":4261:4264   */\n      dup3\n        /* \"#utility.yul\":4254:4291   */\n      mstore\n        /* \"#utility.yul\":4179:4297   */\n      pop\n      pop\n      jump\t// out\n        /* \"#utility.yul\":4303:4682   */\n    tag_69:\n        /* \"#utility.yul\":4487:4490   */\n      0x00\n        /* \"#utility.yul\":4509:4656   */\n      tag_169\n        /* \"#utility.yul\":4652:4655   */\n      dup3\n        /* \"#utility.yul\":4509:4656   */\n      tag_158\n      jump\t// in\n    tag_169:\n        /* \"#utility.yul\":4502:4656   */\n      swap2\n      pop\n        /* \"#utility.yul\":4673:4676   */\n      dup2\n        /* \"#utility.yul\":4666:4676   */\n      swap1\n      pop\n        /* \"#utility.yul\":4303:4682   */\n      swap2\n      swap1\n      pop\n      jump\t// out\n        /* \"#utility.yul\":4688:4910   */\n    tag_35:\n        /* \"#utility.yul\":4781:4785   */\n      0x00\n        /* \"#utility.yul\":4819:4821   */\n      0x20\n        /* \"#utility.yul\":4808:4817   */\n      dup3\n        /* \"#utility.yul\":4804:4822   */\n      add\n        /* \"#utility.yul\":4796:4822   */\n      swap1\n      pop\n        /* \"#utility.yul\":4832:4903   */\n      tag_171\n        /* \"#utility.yul\":4900:4901   */\n      0x00\n        /* \"#utility.yul\":4889:4898   */\n      dup4\n        /* \"#utility.yul\":4885:4902   */\n      add\n        /* \"#utility.yul\":4876:4882   */\n      dup5\n        /* \"#utility.yul\":4832:4903   */\n      tag_138\n      jump\t// in\n    tag_171:\n        /* \"#utility.yul\":4688:4910   */\n      swap3\n      swap2\n      pop\n      pop\n      jump\t// out\n        /* \"#utility.yul\":4916:5170   */\n    tag_29:\n        /* \"#utility.yul\":5025:5029   */\n      0x00\n        /* \"#utility.yul\":5063:5065   */\n      0x20\n        /* \"#utility.yul\":5052:5061   */\n      dup3\n        /* \"#utility.yul\":5048:5066   */\n      add\n        /* \"#utility.yul\":5040:5066   */\n      swap1\n      pop\n        /* \"#utility.yul\":5076:5163   */\n      tag_173\n        /* \"#utility.yul\":5160:5161   */\n      0x00\n        /* \"#utility.yul\":5149:5158   */\n      dup4\n        /* \"#utility.yul\":5145:5162   */\n      add\n        /* \"#utility.yul\":5136:5142   */\n      dup5\n        /* \"#utility.yul\":5076:5163   */\n      tag_134\n      jump\t// in\n    tag_173:\n        /* \"#utility.yul\":4916:5170   */\n      swap3\n      swap2\n      pop\n      pop\n      jump\t// out\n        /* \"#utility.yul\":5176:5595   */\n    tag_61:\n        /* \"#utility.yul\":5342:5346   */\n      0x00\n        /* \"#utility.yul\":5380:5382   */\n      0x20\n        /* \"#utility.yul\":5369:5378   */\n      dup3\n        /* \"#utility.yul\":5365:5383   */\n      add\n        /* \"#utility.yul\":5357:5383   */\n      swap1\n      pop\n        /* \"#utility.yul\":5429:5438   */\n      dup2\n        /* \"#utility.yul\":5423:5427   */\n      dup2\n        /* \"#utility.yul\":5419:5439   */\n      sub\n        /* \"#utility.yul\":5415:5416   */\n      0x00\n        /* \"#utility.yul\":5404:5413   */\n      dup4\n        /* \"#utility.yul\":5400:5417   */\n      add\n        /* \"#utility.yul\":5393:5440   */\n      mstore\n        /* \"#utility.yul\":5457:5588   */\n      tag_175\n        /* \"#utility.yul\":5583:5587   */\n      dup2\n        /* \"#utility.yul\":5457:5588   */\n      tag_142\n      jump\t// in\n    tag_175:\n        /* \"#utility.yul\":5449:5588   */\n      swap1\n      pop\n        /* \"#utility.yul\":5176:5595   */\n      swap2\n      swap1\n      pop\n      jump\t// out\n        /* \"#utility.yul\":5601:6020   */\n    tag_67:\n        /* \"#utility.yul\":5767:5771   */\n      0x00\n        /* \"#utility.yul\":5805:5807   */\n      0x20\n        /* \"#utility.yul\":5794:5803   */\n      dup3\n        /* \"#utility.yul\":5790:5808   */\n      add\n        /* \"#utility.yul\":5782:5808   */\n      swap1\n      pop\n        /* \"#utility.yul\":5854:5863   */\n      dup2\n        /* \"#utility.yul\":5848:5852   */\n      dup2\n        /* \"#utility.yul\":5844:5864   */\n      sub\n        /* \"#utility.yul\":5840:5841   */\n      0x00\n        /* \"#utility.yul\":5829:5838   */\n      dup4\n        /* \"#utility.yul\":5825:5842   */\n      add\n        /* \"#utility.yul\":5818:5865   */\n      mstore\n        /* \"#utility.yul\":5882:6013   */\n      tag_177\n        /* \"#utility.yul\":6008:6012   */\n      dup2\n        /* \"#utility.yul\":5882:6013   */\n      tag_148\n      jump\t// in\n    tag_177:\n        /* \"#utility.yul\":5874:6013   */\n      swap1\n      pop\n        /* \"#utility.yul\":5601:6020   */\n      swap2\n      swap1\n      pop\n      jump\t// out\n        /* \"#utility.yul\":6026:6445   */\n    tag_47:\n        /* \"#utility.yul\":6192:6196   */\n      0x00\n        /* \"#utility.yul\":6230:6232   */\n      0x20\n        /* \"#utility.yul\":6219:6228   */\n      dup3\n        /* \"#utility.yul\":6215:6233   */\n      add\n        /* \"#utility.yul\":6207:6233   */\n      swap1\n      pop\n        /* \"#utility.yul\":6279:6288   */\n      dup2\n        /* \"#utility.yul\":6273:6277   */\n      dup2\n        /* \"#utility.yul\":6269:6289   */\n      sub\n        /* \"#utility.yul\":6265:6266   */\n      0x00\n        /* \"#utility.yul\":6254:6263   */\n      dup4\n        /* \"#utility.yul\":6250:6267   */\n      add\n        /* \"#utility.yul\":6243:6290   */\n      mstore\n        /* \"#utility.yul\":6307:6438   */\n      tag_179\n        /* \"#utility.yul\":6433:6437   */\n      dup2\n        /* \"#utility.yul\":6307:6438   */\n      tag_153\n      jump\t// in\n    tag_179:\n        /* \"#utility.yul\":6299:6438   */\n      swap1\n      pop\n        /* \"#utility.yul\":6026:6445   */\n      swap2\n      swap1\n      pop\n      jump\t// out\n        /* \"#utility.yul\":6451:6673   */\n    tag_16:\n        /* \"#utility.yul\":6544:6548   */\n      0x00\n        /* \"#utility.yul\":6582:6584   */\n      0x20\n        /* \"#utility.yul\":6571:6580   */\n      dup3\n        /* \"#utility.yul\":6567:6585   */\n      add\n        /* \"#utility.yul\":6559:6585   */\n      swap1\n      pop\n        /* \"#utility.yul\":6595:6666   */\n      tag_181\n        /* \"#utility.yul\":6663:6664   */\n      0x00\n        /* \"#utility.yul\":6652:6661   */\n      dup4\n        /* \"#utility.yul\":6648:6665   */\n      add\n        /* \"#utility.yul\":6639:6645   */\n      dup5\n        /* \"#utility.yul\":6595:6666   */\n      tag_164\n      jump\t// in\n    tag_181:\n        /* \"#utility.yul\":6451:6673   */\n      swap3\n      swap2\n      pop\n      pop\n      jump\t// out\n        /* \"#utility.yul\":6760:6907   */\n    tag_161:\n        /* \"#utility.yul\":6861:6872   */\n      0x00\n        /* \"#utility.yul\":6898:6901   */\n      dup2\n        /* \"#utility.yul\":6883:6901   */\n      swap1\n      pop\n        /* \"#utility.yul\":6760:6907   */\n      swap3\n      swap2\n      pop\n      pop\n      jump\t// out\n        /* \"#utility.yul\":6913:7082   */\n    tag_145:\n        /* \"#utility.yul\":6997:7008   */\n      0x00\n        /* \"#utility.yul\":7031:7037   */\n      dup3\n        /* \"#utility.yul\":7026:7029   */\n      dup3\n        /* \"#utility.yul\":7019:7038   */\n      mstore\n        /* \"#utility.yul\":7071:7075   */\n      0x20\n        /* \"#utility.yul\":7066:7069   */\n      dup3\n        /* \"#utility.yul\":7062:7076   */\n      add\n        /* \"#utility.yul\":7047:7076   */\n      swap1\n      pop\n        /* \"#utility.yul\":6913:7082   */\n      swap3\n      swap2\n      pop\n      pop\n      jump\t// out\n        /* \"#utility.yul\":7088:7273   */\n    tag_88:\n        /* \"#utility.yul\":7128:7129   */\n      0x00\n        /* \"#utility.yul\":7145:7165   */\n      tag_187\n        /* \"#utility.yul\":7163:7164   */\n      dup3\n        /* \"#utility.yul\":7145:7165   */\n      tag_167\n      jump\t// in\n    tag_187:\n        /* \"#utility.yul\":7140:7165   */\n      swap2\n      pop\n        /* \"#utility.yul\":7179:7199   */\n      tag_188\n        /* \"#utility.yul\":7197:7198   */\n      dup4\n        /* \"#utility.yul\":7179:7199   */\n      tag_167\n      jump\t// in\n    tag_188:\n        /* \"#utility.yul\":7174:7199   */\n      swap3\n      pop\n        /* \"#utility.yul\":7218:7219   */\n      dup3\n        /* \"#utility.yul\":7208:7243   */\n      tag_189\n      jumpi\n        /* \"#utility.yul\":7223:7241   */\n      tag_190\n      tag_191\n      jump\t// in\n    tag_190:\n        /* \"#utility.yul\":7208:7243   */\n    tag_189:\n        /* \"#utility.yul\":7265:7266   */\n      dup3\n        /* \"#utility.yul\":7262:7263   */\n      dup3\n        /* \"#utility.yul\":7258:7267   */\n      div\n        /* \"#utility.yul\":7253:7267   */\n      swap1\n      pop\n        /* \"#utility.yul\":7088:7273   */\n      swap3\n      swap2\n      pop\n      pop\n      jump\t// out\n        /* \"#utility.yul\":7279:8270   */\n    tag_96:\n        /* \"#utility.yul\":7318:7325   */\n      0x00\n        /* \"#utility.yul\":7341:7360   */\n      tag_193\n        /* \"#utility.yul\":7358:7359   */\n      dup3\n        /* \"#utility.yul\":7341:7360   */\n      tag_194\n      jump\t// in\n    tag_193:\n        /* \"#utility.yul\":7336:7360   */\n      swap2\n      pop\n        /* \"#utility.yul\":7374:7393   */\n      tag_195\n        /* \"#utility.yul\":7391:7392   */\n      dup4\n        /* \"#utility.yul\":7374:7393   */\n      tag_194\n      jump\t// in\n    tag_195:\n        /* \"#utility.yul\":7369:7393   */\n      swap3\n      pop\n        /* \"#utility.yul\":7575:7576   */\n      dup3\n        /* \"#utility.yul\":7507:7573   */\n      0x7fffffffffffffffffffffffffffffffffffffffffffffffffffffffffffffff\n        /* \"#utility.yul\":7503:7577   */\n      div\n        /* \"#utility.yul\":7500:7501   */\n      dup3\n        /* \"#utility.yul\":7497:7578   */\n      gt\n        /* \"#utility.yul\":7492:7493   */\n      0x00\n        /* \"#utility.yul\":7489:7490   */\n      dup5\n        /* \"#utility.yul\":7485:7494   */\n      sgt\n        /* \"#utility.yul\":7481:7482   */\n      0x00\n        /* \"#utility.yul\":7478:7479   */\n      dup5\n        /* \"#utility.yul\":7474:7483   */\n      sgt\n        /* \"#utility.yul\":7470:7495   */\n      and\n        /* \"#utility.yul\":7466:7579   */\n      and\n        /* \"#utility.yul\":7463:7602   */\n      iszero\n      tag_196\n      jumpi\n        /* \"#utility.yul\":7582:7600   */\n      tag_197\n      tag_198\n      jump\t// in\n    tag_197:\n        /* \"#utility.yul\":7463:7602   */\n    tag_196:\n        /* \"#utility.yul\":7786:7787   */\n      dup2\n        /* \"#utility.yul\":7718:7784   */\n      0x8000000000000000000000000000000000000000000000000000000000000000\n        /* \"#utility.yul\":7713:7788   */\n      sdiv\n        /* \"#utility.yul\":7710:7711   */\n      dup4\n        /* \"#utility.yul\":7706:7789   */\n      slt\n        /* \"#utility.yul\":7701:7702   */\n      0x00\n        /* \"#utility.yul\":7698:7699   */\n      dup5\n        /* \"#utility.yul\":7694:7703   */\n      slt\n        /* \"#utility.yul\":7690:7691   */\n      0x00\n        /* \"#utility.yul\":7687:7688   */\n      dup5\n        /* \"#utility.yul\":7683:7692   */\n      sgt\n        /* \"#utility.yul\":7679:7704   */\n      and\n        /* \"#utility.yul\":7675:7790   */\n      and\n        /* \"#utility.yul\":7672:7813   */\n      iszero\n      tag_199\n      jumpi\n        /* \"#utility.yul\":7793:7811   */\n      tag_200\n      tag_198\n      jump\t// in\n    tag_200:\n        /* \"#utility.yul\":7672:7813   */\n    tag_199:\n        /* \"#utility.yul\":7997:7998   */\n      dup3\n        /* \"#utility.yul\":7929:7995   */\n      0x8000000000000000000000000000000000000000000000000000000000000000\n        /* \"#utility.yul\":7924:7999   */\n      sdiv\n        /* \"#utility.yul\":7921:7922   */\n      dup3\n        /* \"#utility.yul\":7917:8000   */\n      slt\n        /* \"#utility.yul\":7912:7913   */\n      0x00\n        /* \"#utility.yul\":7909:7910   */\n      dup5\n        /* \"#utility.yul\":7905:7914   */\n      sgt\n        /* \"#utility.yul\":7901:7902   */\n      0x00\n        /* \"#utility.yul\":7898:7899   */\n      dup5\n        /* \"#utility.yul\":7894:7903   */\n      slt\n        /* \"#utility.yul\":7890:7915   */\n      and\n        /* \"#utility.yul\":7886:8001   */\n      and\n        /* \"#utility.yul\":7883:8024   */\n      iszero\n      tag_201\n      jumpi\n        /* \"#utility.yul\":8004:8022   */\n      tag_202\n      tag_198\n      jump\t// in\n    tag_202:\n        /* \"#utility.yul\":7883:8024   */\n    tag_201:\n        /* \"#utility.yul\":8207:8208   */\n      dup3\n        /* \"#utility.yul\":8139:8205   */\n      0x7fffffffffffffffffffffffffffffffffffffffffffffffffffffffffffffff\n        /* \"#utility.yul\":8134:8209   */\n      sdiv\n        /* \"#utility.yul\":8131:8132   */\n      dup3\n        /* \"#utility.yul\":8127:8210   */\n      slt\n        /* \"#utility.yul\":8122:8123   */\n      0x00\n        /* \"#utility.yul\":8119:8120   */\n      dup5\n        /* \"#utility.yul\":8115:8124   */\n      slt\n        /* \"#utility.yul\":8111:8112   */\n      0x00\n        /* \"#utility.yul\":8108:8109   */\n      dup5\n        /* \"#utility.yul\":8104:8113   */\n      slt\n        /* \"#utility.yul\":8100:8125   */\n      and\n        /* \"#utility.yul\":8096:8211   */\n      and\n        /* \"#utility.yul\":8093:8234   */\n      iszero\n      tag_203\n      jumpi\n        /* \"#utility.yul\":8214:8232   */\n      tag_204\n      tag_198\n      jump\t// in\n    tag_204:\n        /* \"#utility.yul\":8093:8234   */\n    tag_203:\n        /* \"#utility.yul\":8262:8263   */\n      dup3\n        /* \"#utility.yul\":8259:8260   */\n      dup3\n        /* \"#utility.yul\":8255:8264   */\n      mul\n        /* \"#utility.yul\":8244:8264   */\n      swap1\n      pop\n        /* \"#utility.yul\":7279:8270   */\n      swap3\n      swap2\n      pop\n      pop\n      jump\t// out\n        /* \"#utility.yul\":8276:8624   */\n    tag_86:\n        /* \"#utility.yul\":8316:8323   */\n      0x00\n        /* \"#utility.yul\":8339:8359   */\n      tag_206\n        /* \"#utility.yul\":8357:8358   */\n      dup3\n        /* \"#utility.yul\":8339:8359   */\n      tag_167\n      jump\t// in\n    tag_206:\n        /* \"#utility.yul\":8334:8359   */\n      swap2\n      pop\n        /* \"#utility.yul\":8373:8393   */\n      tag_207\n        /* \"#utility.yul\":8391:8392   */\n      dup4\n        /* \"#utility.yul\":8373:8393   */\n      tag_167\n      jump\t// in\n    tag_207:\n        /* \"#utility.yul\":8368:8393   */\n      swap3\n      pop\n        /* \"#utility.yul\":8561:8562   */\n      dup2\n        /* \"#utility.yul\":8493:8559   */\n      0xffffffffffffffffffffffffffffffffffffffffffffffffffffffffffffffff\n        /* \"#utility.yul\":8489:8563   */\n      div\n        /* \"#utility.yul\":8486:8487   */\n      dup4\n        /* \"#utility.yul\":8483:8564   */\n      gt\n        /* \"#utility.yul\":8478:8479   */\n      dup3\n        /* \"#utility.yul\":8471:8480   */\n      iszero\n        /* \"#utility.yul\":8464:8481   */\n      iszero\n        /* \"#utility.yul\":8460:8565   */\n      and\n        /* \"#utility.yul\":8457:8588   */\n      iszero\n      tag_208\n      jumpi\n        /* \"#utility.yul\":8568:8586   */\n      tag_209\n      tag_198\n      jump\t// in\n    tag_209:\n        /* \"#utility.yul\":8457:8588   */\n    tag_208:\n        /* \"#utility.yul\":8616:8617   */\n      dup3\n        /* \"#utility.yul\":8613:8614   */\n      dup3\n        /* \"#utility.yul\":8609:8618   */\n      mul\n        /* \"#utility.yul\":8598:8618   */\n      swap1\n      pop\n        /* \"#utility.yul\":8276:8624   */\n      swap3\n      swap2\n      pop\n      pop\n      jump\t// out\n        /* \"#utility.yul\":8630:8726   */\n    tag_141:\n        /* \"#utility.yul\":8667:8674   */\n      0x00\n        /* \"#utility.yul\":8696:8720   */\n      tag_211\n        /* \"#utility.yul\":8714:8719   */\n      dup3\n        /* \"#utility.yul\":8696:8720   */\n      tag_212\n      jump\t// in\n    tag_211:\n        /* \"#utility.yul\":8685:8720   */\n      swap1\n      pop\n        /* \"#utility.yul\":8630:8726   */\n      swap2\n      swap1\n      pop\n      jump\t// out\n        /* \"#utility.yul\":8732:8836   */\n    tag_137:\n        /* \"#utility.yul\":8777:8784   */\n      0x00\n        /* \"#utility.yul\":8806:8830   */\n      tag_214\n        /* \"#utility.yul\":8824:8829   */\n      dup3\n        /* \"#utility.yul\":8806:8830   */\n      tag_212\n      jump\t// in\n    tag_214:\n        /* \"#utility.yul\":8795:8830   */\n      swap1\n      pop\n        /* \"#utility.yul\":8732:8836   */\n      swap2\n      swap1\n      pop\n      jump\t// out\n        /* \"#utility.yul\":8842:8918   */\n    tag_194:\n        /* \"#utility.yul\":8878:8885   */\n      0x00\n        /* \"#utility.yul\":8907:8912   */\n      dup2\n        /* \"#utility.yul\":8896:8912   */\n      swap1\n      pop\n        /* \"#utility.yul\":8842:8918   */\n      swap2\n      swap1\n      pop\n      jump\t// out\n        /* \"#utility.yul\":8924:9050   */\n    tag_212:\n        /* \"#utility.yul\":8961:8968   */\n      0x00\n        /* \"#utility.yul\":9001:9043   */\n      0xffffffffffffffffffffffffffffffffffffffff\n        /* \"#utility.yul\":8994:8999   */\n      dup3\n        /* \"#utility.yul\":8990:9044   */\n      and\n        /* \"#utility.yul\":8979:9044   */\n      swap1\n      pop\n        /* \"#utility.yul\":8924:9050   */\n      swap2\n      swap1\n      pop\n      jump\t// out\n        /* \"#utility.yul\":9056:9133   */\n    tag_167:\n        /* \"#utility.yul\":9093:9100   */\n      0x00\n        /* \"#utility.yul\":9122:9127   */\n      dup2\n        /* \"#utility.yul\":9111:9127   */\n      swap1\n      pop\n        /* \"#utility.yul\":9056:9133   */\n      swap2\n      swap1\n      pop\n      jump\t// out\n        /* \"#utility.yul\":9139:9244   */\n    tag_218:\n        /* \"#utility.yul\":9175:9182   */\n      0x00\n        /* \"#utility.yul\":9215:9237   */\n      0xffffffffffffffffffff\n        /* \"#utility.yul\":9208:9213   */\n      dup3\n        /* \"#utility.yul\":9204:9238   */\n      and\n        /* \"#utility.yul\":9193:9238   */\n      swap1\n      pop\n        /* \"#utility.yul\":9139:9244   */\n      swap2\n      swap1\n      pop\n      jump\t// out\n        /* \"#utility.yul\":9250:9483   */\n    tag_58:\n        /* \"#utility.yul\":9289:9292   */\n      0x00\n        /* \"#utility.yul\":9312:9336   */\n      tag_221\n        /* \"#utility.yul\":9330:9335   */\n      dup3\n        /* \"#utility.yul\":9312:9336   */\n      tag_167\n      jump\t// in\n    tag_221:\n        /* \"#utility.yul\":9303:9336   */\n      swap2\n      pop\n        /* \"#utility.yul\":9358:9424   */\n      0xffffffffffffffffffffffffffffffffffffffffffffffffffffffffffffffff\n        /* \"#utility.yul\":9351:9356   */\n      dup3\n        /* \"#utility.yul\":9348:9425   */\n      eq\n        /* \"#utility.yul\":9345:9448   */\n      iszero\n      tag_222\n      jumpi\n        /* \"#utility.yul\":9428:9446   */\n      tag_223\n      tag_198\n      jump\t// in\n    tag_223:\n        /* \"#utility.yul\":9345:9448   */\n    tag_222:\n        /* \"#utility.yul\":9475:9476   */\n      0x01\n        /* \"#utility.yul\":9468:9473   */\n      dup3\n        /* \"#utility.yul\":9464:9477   */\n      add\n        /* \"#utility.yul\":9457:9477   */\n      swap1\n      pop\n        /* \"#utility.yul\":9250:9483   */\n      swap2\n      swap1\n      pop\n      jump\t// out\n        /* \"#utility.yul\":9489:9669   */\n    tag_198:\n        /* \"#utility.yul\":9537:9614   */\n      0x4e487b7100000000000000000000000000000000000000000000000000000000\n        /* \"#utility.yul\":9534:9535   */\n      0x00\n        /* \"#utility.yul\":9527:9615   */\n      mstore\n        /* \"#utility.yul\":9634:9638   */\n      0x11\n        /* \"#utility.yul\":9631:9632   */\n      0x04\n        /* \"#utility.yul\":9624:9639   */\n      mstore\n        /* \"#utility.yul\":9658:9662   */\n      0x24\n        /* \"#utility.yul\":9655:9656   */\n      0x00\n        /* \"#utility.yul\":9648:9663   */\n      revert\n        /* \"#utility.yul\":9675:9855   */\n    tag_191:\n        /* \"#utility.yul\":9723:9800   */\n      0x4e487b7100000000000000000000000000000000000000000000000000000000\n        /* \"#utility.yul\":9720:9721   */\n      0x00\n        /* \"#utility.yul\":9713:9801   */\n      mstore\n        /* \"#utility.yul\":9820:9824   */\n      0x12\n        /* \"#utility.yul\":9817:9818   */\n      0x04\n        /* \"#utility.yul\":9810:9825   */\n      mstore\n        /* \"#utility.yul\":9844:9848   */\n      0x24\n        /* \"#utility.yul\":9841:9842   */\n      0x00\n        /* \"#utility.yul\":9834:9849   */\n      revert\n        /* \"#utility.yul\":9861:10041   */\n    tag_55:\n        /* \"#utility.yul\":9909:9986   */\n      0x4e487b7100000000000000000000000000000000000000000000000000000000\n        /* \"#utility.yul\":9906:9907   */\n      0x00\n        /* \"#utility.yul\":9899:9987   */\n      mstore\n        /* \"#utility.yul\":10006:10010   */\n      0x32\n        /* \"#utility.yul\":10003:10004   */\n      0x04\n        /* \"#utility.yul\":9996:10011   */\n      mstore\n        /* \"#utility.yul\":10030:10034   */\n      0x24\n        /* \"#utility.yul\":10027:10028   */\n      0x00\n        /* \"#utility.yul\":10020:10035   */\n      revert\n        /* \"#utility.yul\":10170:10287   */\n    tag_120:\n        /* \"#utility.yul\":10279:10280   */\n      0x00\n        /* \"#utility.yul\":10276:10277   */\n      dup1\n        /* \"#utility.yul\":10269:10281   */\n      revert\n        /* \"#utility.yul\":10293:10516   */\n    tag_147:\n        /* \"#utility.yul\":10433:10467   */\n      0x4f6e6c79206f776e65722063616e207769746864726177207472616e73616374\n        /* \"#utility.yul\":10429:10430   */\n      0x00\n        /* \"#utility.yul\":10421:10427   */\n      dup3\n        /* \"#utility.yul\":10417:10431   */\n      add\n        /* \"#utility.yul\":10410:10468   */\n      mstore\n        /* \"#utility.yul\":10502:10508   */\n      0x696f6e7300000000000000000000000000000000000000000000000000000000\n        /* \"#utility.yul\":10497:10499   */\n      0x20\n        /* \"#utility.yul\":10489:10495   */\n      dup3\n        /* \"#utility.yul\":10485:10500   */\n      add\n        /* \"#utility.yul\":10478:10509   */\n      mstore\n        /* \"#utility.yul\":10293:10516   */\n      pop\n      jump\t// out\n        /* \"#utility.yul\":10522:10683   */\n    tag_152:\n        /* \"#utility.yul\":10662:10675   */\n      0x53656e64204661696c6564000000000000000000000000000000000000000000\n        /* \"#utility.yul\":10658:10659   */\n      0x00\n        /* \"#utility.yul\":10650:10656   */\n      dup3\n        /* \"#utility.yul\":10646:10660   */\n      add\n        /* \"#utility.yul\":10639:10676   */\n      mstore\n        /* \"#utility.yul\":10522:10683   */\n      pop\n      jump\t// out\n        /* \"#utility.yul\":10689:10917   */\n    tag_157:\n        /* \"#utility.yul\":10829:10863   */\n      0x546865206d696e696d756d20616d6f756e74206f662066756e6420776f756c64\n        /* \"#utility.yul\":10825:10826   */\n      0x00\n        /* \"#utility.yul\":10817:10823   */\n      dup3\n        /* \"#utility.yul\":10813:10827   */\n      add\n        /* \"#utility.yul\":10806:10864   */\n      mstore\n        /* \"#utility.yul\":10898:10909   */\n      0x206265203e3d3530240000000000000000000000000000000000000000000000\n        /* \"#utility.yul\":10893:10895   */\n      0x20\n        /* \"#utility.yul\":10885:10891   */\n      dup3\n        /* \"#utility.yul\":10881:10896   */\n      add\n        /* \"#utility.yul\":10874:10910   */\n      mstore\n        /* \"#utility.yul\":10689:10917   */\n      pop\n      jump\t// out\n        /* \"#utility.yul\":10923:11037   */\n    tag_163:\n      pop\n      jump\t// out\n        /* \"#utility.yul\":11043:11165   */\n    tag_101:\n        /* \"#utility.yul\":11116:11140   */\n      tag_235\n        /* \"#utility.yul\":11134:11139   */\n      dup2\n        /* \"#utility.yul\":11116:11140   */\n      tag_141\n      jump\t// in\n    tag_235:\n        /* \"#utility.yul\":11109:11114   */\n      dup2\n        /* \"#utility.yul\":11106:11141   */\n      eq\n        /* \"#utility.yul\":11096:11159   */\n      tag_236\n      jumpi\n        /* \"#utility.yul\":11155:11156   */\n      0x00\n        /* \"#utility.yul\":11152:11153   */\n      dup1\n        /* \"#utility.yul\":11145:11157   */\n      revert\n        /* \"#utility.yul\":11096:11159   */\n    tag_236:\n        /* \"#utility.yul\":11043:11165   */\n      pop\n      jump\t// out\n        /* \"#utility.yul\":11171:11291   */\n    tag_105:\n        /* \"#utility.yul\":11243:11266   */\n      tag_238\n        /* \"#utility.yul\":11260:11265   */\n      dup2\n        /* \"#utility.yul\":11243:11266   */\n      tag_194\n      jump\t// in\n    tag_238:\n        /* \"#utility.yul\":11236:11241   */\n      dup2\n        /* \"#utility.yul\":11233:11267   */\n      eq\n        /* \"#utility.yul\":11223:11285   */\n      tag_239\n      jumpi\n        /* \"#utility.yul\":11281:11282   */\n      0x00\n        /* \"#utility.yul\":11278:11279   */\n      dup1\n        /* \"#utility.yul\":11271:11283   */\n      revert\n        /* \"#utility.yul\":11223:11285   */\n    tag_239:\n        /* \"#utility.yul\":11171:11291   */\n      pop\n      jump\t// out\n        /* \"#utility.yul\":11297:11419   */\n    tag_109:\n        /* \"#utility.yul\":11370:11394   */\n      tag_241\n        /* \"#utility.yul\":11388:11393   */\n      dup2\n        /* \"#utility.yul\":11370:11394   */\n      tag_167\n      jump\t// in\n    tag_241:\n        /* \"#utility.yul\":11363:11368   */\n      dup2\n        /* \"#utility.yul\":11360:11395   */\n      eq\n        /* \"#utility.yul\":11350:11413   */\n      tag_242\n      jumpi\n        /* \"#utility.yul\":11409:11410   */\n      0x00\n        /* \"#utility.yul\":11406:11407   */\n      dup1\n        /* \"#utility.yul\":11399:11411   */\n      revert\n        /* \"#utility.yul\":11350:11413   */\n    tag_242:\n        /* \"#utility.yul\":11297:11419   */\n      pop\n      jump\t// out\n        /* \"#utility.yul\":11425:11545   */\n    tag_116:\n        /* \"#utility.yul\":11497:11520   */\n      tag_244\n        /* \"#utility.yul\":11514:11519   */\n      dup2\n        /* \"#utility.yul\":11497:11520   */\n      tag_218\n      jump\t// in\n    tag_244:\n        /* \"#utility.yul\":11490:11495   */\n      dup2\n        /* \"#utility.yul\":11487:11521   */\n      eq\n        /* \"#utility.yul\":11477:11539   */\n      tag_245\n      jumpi\n        /* \"#utility.yul\":11535:11536   */\n      0x00\n        /* \"#utility.yul\":11532:11533   */\n      dup1\n        /* \"#utility.yul\":11525:11537   */\n      revert\n        /* \"#utility.yul\":11477:11539   */\n    tag_245:\n        /* \"#utility.yul\":11425:11545   */\n      pop\n      jump\t// out\n\n    auxdata: 0xa264697066735822122077d45e82c0b2f13f508b9300ac5300109250d100943328007849a4cdf089022664736f6c63430008070033\n}\n",
				"bytecode": {
					"linkReferences": {},
					"object": "6080604052603260005534801561001557600080fd5b50610ea0806100256000396000f3fe60806040526004361061006f5760003560e01c806376778d6e1161004e57806376778d6e146100c05780638da5cb5b146100e9578063dc0d3dff14610114578063e73c0f23146101515761006f565b80625c33e114610074578063098de8201461007e5780633ccfd60b146100a9575b600080fd5b61007c61018e565b005b34801561008a57600080fd5b50610093610284565b6040516100a09190610a22565b60405180910390f35b3480156100b557600080fd5b506100be61028a565b005b3480156100cc57600080fd5b506100e760048036038101906100e29190610816565b610537565b005b3480156100f557600080fd5b506100fe610611565b60405161010b91906109a7565b60405180910390f35b34801561012057600080fd5b5061013b60048036038101906101369190610816565b610637565b604051610148919061098c565b60405180910390f35b34801561015d57600080fd5b50610178600480360381019061017391906107e9565b610676565b6040516101859190610a22565b60405180910390f35b60005461019a3461068e565b10156101db576040517f08c379a00000000000000000000000000000000000000000000000000000000081526004016101d290610a02565b60405180910390fd5b6002339080600181540180825580915050600190039060005260206000200160009091909190916101000a81548173ffffffffffffffffffffffffffffffffffffffff021916908373ffffffffffffffffffffffffffffffffffffffff16021790555034600360003373ffffffffffffffffffffffffffffffffffffffff1673ffffffffffffffffffffffffffffffffffffffff16815260200190815260200160002081905550565b60005481565b60005b600280549050811015610336576000600282815481106102b0576102af610d10565b5b9060005260206000200160009054906101000a900473ffffffffffffffffffffffffffffffffffffffff1690506000600360008373ffffffffffffffffffffffffffffffffffffffff1673ffffffffffffffffffffffffffffffffffffffff1681526020019081526020016000208190555050808061032e90610c69565b91505061028d565b600160009054906101000a900473ffffffffffffffffffffffffffffffffffffffff1673ffffffffffffffffffffffffffffffffffffffff163373ffffffffffffffffffffffffffffffffffffffff16146103c6576040517f08c379a00000000000000000000000000000000000000000000000000000000081526004016103bd906109c2565b60405180910390fd5b3373ffffffffffffffffffffffffffffffffffffffff166108fc479081150290604051600060405180830381858888f1935050505015801561040c573d6000803e3d6000fd5b5060003373ffffffffffffffffffffffffffffffffffffffff166108fc479081150290604051600060405180830381858888f19350505050905080610486576040517f08c379a000000000000000000000000000000000000000000000000000000000815260040161047d906109e2565b60405180910390fd5b60003373ffffffffffffffffffffffffffffffffffffffff16476040516104ac90610977565b60006040518083038185875af1925050503d80600081146104e9576040519150601f19603f3d011682016040523d82523d6000602084013e6104ee565b606091505b5050905081610532576040517f08c379a0000000000000000000000000000000000000000000000000000000008152600401610529906109e2565b60405180910390fd5b505050565b600160009054906101000a900473ffffffffffffffffffffffffffffffffffffffff1673ffffffffffffffffffffffffffffffffffffffff163373ffffffffffffffffffffffffffffffffffffffff16146105c7576040517f08c379a00000000000000000000000000000000000000000000000000000000081526004016105be906109c2565b60405180910390fd5b3373ffffffffffffffffffffffffffffffffffffffff166108fc829081150290604051600060405180830381858888f1935050505015801561060d573d6000803e3d6000fd5b5050565b600160009054906101000a900473ffffffffffffffffffffffffffffffffffffffff1681565b6002818154811061064757600080fd5b906000526020600020016000915054906101000a900473ffffffffffffffffffffffffffffffffffffffff1681565b60036020528060005260406000206000915090505481565b6000806106996106c8565b90506000670de0b6b3a764000082856106b29190610ba1565b6106bc9190610a59565b90508092505050919050565b600080739326bfa02add2366b30bacb125260af641031331905060008173ffffffffffffffffffffffffffffffffffffffff1663feaf968c6040518163ffffffff1660e01b815260040160a06040518083038186803b15801561072a57600080fd5b505afa15801561073e573d6000803e3d6000fd5b505050506040513d601f19601f820116820180604052508101906107629190610843565b5050509150506402540be400816107799190610a8a565b9250505090565b60008135905061078f81610e0e565b92915050565b6000815190506107a481610e25565b92915050565b6000813590506107b981610e3c565b92915050565b6000815190506107ce81610e3c565b92915050565b6000815190506107e381610e53565b92915050565b6000602082840312156107ff576107fe610d3f565b5b600061080d84828501610780565b91505092915050565b60006020828403121561082c5761082b610d3f565b5b600061083a848285016107aa565b91505092915050565b600080600080600060a0868803121561085f5761085e610d3f565b5b600061086d888289016107d4565b955050602061087e88828901610795565b945050604061088f888289016107bf565b93505060606108a0888289016107bf565b92505060806108b1888289016107d4565b9150509295509295909350565b6108c781610c0d565b82525050565b6108d681610bfb565b82525050565b60006108e9602483610a48565b91506108f482610d44565b604082019050919050565b600061090c600b83610a48565b915061091782610d93565b602082019050919050565b600061092f602983610a48565b915061093a82610dbc565b604082019050919050565b6000610952600083610a3d565b915061095d82610e0b565b600082019050919050565b61097181610c49565b82525050565b600061098282610945565b9150819050919050565b60006020820190506109a160008301846108cd565b92915050565b60006020820190506109bc60008301846108be565b92915050565b600060208201905081810360008301526109db816108dc565b9050919050565b600060208201905081810360008301526109fb816108ff565b9050919050565b60006020820190508181036000830152610a1b81610922565b9050919050565b6000602082019050610a376000830184610968565b92915050565b600081905092915050565b600082825260208201905092915050565b6000610a6482610c49565b9150610a6f83610c49565b925082610a7f57610a7e610ce1565b5b828204905092915050565b6000610a9582610c1f565b9150610aa083610c1f565b9250827f7fffffffffffffffffffffffffffffffffffffffffffffffffffffffffffffff0482116000841360008413161615610adf57610ade610cb2565b5b817f80000000000000000000000000000000000000000000000000000000000000000583126000841260008413161615610b1c57610b1b610cb2565b5b827f80000000000000000000000000000000000000000000000000000000000000000582126000841360008412161615610b5957610b58610cb2565b5b827f7fffffffffffffffffffffffffffffffffffffffffffffffffffffffffffffff0582126000841260008412161615610b9657610b95610cb2565b5b828202905092915050565b6000610bac82610c49565b9150610bb783610c49565b9250817fffffffffffffffffffffffffffffffffffffffffffffffffffffffffffffffff0483118215151615610bf057610bef610cb2565b5b828202905092915050565b6000610c0682610c29565b9050919050565b6000610c1882610c29565b9050919050565b6000819050919050565b600073ffffffffffffffffffffffffffffffffffffffff82169050919050565b6000819050919050565b600069ffffffffffffffffffff82169050919050565b6000610c7482610c49565b91507fffffffffffffffffffffffffffffffffffffffffffffffffffffffffffffffff821415610ca757610ca6610cb2565b5b600182019050919050565b7f4e487b7100000000000000000000000000000000000000000000000000000000600052601160045260246000fd5b7f4e487b7100000000000000000000000000000000000000000000000000000000600052601260045260246000fd5b7f4e487b7100000000000000000000000000000000000000000000000000000000600052603260045260246000fd5b600080fd5b7f4f6e6c79206f776e65722063616e207769746864726177207472616e7361637460008201527f696f6e7300000000000000000000000000000000000000000000000000000000602082015250565b7f53656e64204661696c6564000000000000000000000000000000000000000000600082015250565b7f546865206d696e696d756d20616d6f756e74206f662066756e6420776f756c6460008201527f206265203e3d3530240000000000000000000000000000000000000000000000602082015250565b50565b610e1781610bfb565b8114610e2257600080fd5b50565b610e2e81610c1f565b8114610e3957600080fd5b50565b610e4581610c49565b8114610e5057600080fd5b50565b610e5c81610c53565b8114610e6757600080fd5b5056fea264697066735822122077d45e82c0b2f13f508b9300ac5300109250d100943328007849a4cdf089022664736f6c63430008070033",
					"opcodes": "PUSH1 0x80 PUSH1 0x40 MSTORE PUSH1 0x32 PUSH1 0x0 SSTORE CALLVALUE DUP1 ISZERO PUSH2 0x15 JUMPI PUSH1 0x0 DUP1 REVERT JUMPDEST POP PUSH2 0xEA0 DUP1 PUSH2 0x25 PUSH1 0x0 CODECOPY PUSH1 0x0 RETURN INVALID PUSH1 0x80 PUSH1 0x40 MSTORE PUSH1 0x4 CALLDATASIZE LT PUSH2 0x6F JUMPI PUSH1 0x0 CALLDATALOAD PUSH1 0xE0 SHR DUP1 PUSH4 0x76778D6E GT PUSH2 0x4E JUMPI DUP1 PUSH4 0x76778D6E EQ PUSH2 0xC0 JUMPI DUP1 PUSH4 0x8DA5CB5B EQ PUSH2 0xE9 JUMPI DUP1 PUSH4 0xDC0D3DFF EQ PUSH2 0x114 JUMPI DUP1 PUSH4 0xE73C0F23 EQ PUSH2 0x151 JUMPI PUSH2 0x6F JUMP JUMPDEST DUP1 PUSH3 0x5C33E1 EQ PUSH2 0x74 JUMPI DUP1 PUSH4 0x98DE820 EQ PUSH2 0x7E JUMPI DUP1 PUSH4 0x3CCFD60B EQ PUSH2 0xA9 JUMPI JUMPDEST PUSH1 0x0 DUP1 REVERT JUMPDEST PUSH2 0x7C PUSH2 0x18E JUMP JUMPDEST STOP JUMPDEST CALLVALUE DUP1 ISZERO PUSH2 0x8A JUMPI PUSH1 0x0 DUP1 REVERT JUMPDEST POP PUSH2 0x93 PUSH2 0x284 JUMP JUMPDEST PUSH1 0x40 MLOAD PUSH2 0xA0 SWAP2 SWAP1 PUSH2 0xA22 JUMP JUMPDEST PUSH1 0x40 MLOAD DUP1 SWAP2 SUB SWAP1 RETURN JUMPDEST CALLVALUE DUP1 ISZERO PUSH2 0xB5 JUMPI PUSH1 0x0 DUP1 REVERT JUMPDEST POP PUSH2 0xBE PUSH2 0x28A JUMP JUMPDEST STOP JUMPDEST CALLVALUE DUP1 ISZERO PUSH2 0xCC JUMPI PUSH1 0x0 DUP1 REVERT JUMPDEST POP PUSH2 0xE7 PUSH1 0x4 DUP1 CALLDATASIZE SUB DUP2 ADD SWAP1 PUSH2 0xE2 SWAP2 SWAP1 PUSH2 0x816 JUMP JUMPDEST PUSH2 0x537 JUMP JUMPDEST STOP JUMPDEST CALLVALUE DUP1 ISZERO PUSH2 0xF5 JUMPI PUSH1 0x0 DUP1 REVERT JUMPDEST POP PUSH2 0xFE PUSH2 0x611 JUMP JUMPDEST PUSH1 0x40 MLOAD PUSH2 0x10B SWAP2 SWAP1 PUSH2 0x9A7 JUMP JUMPDEST PUSH1 0x40 MLOAD DUP1 SWAP2 SUB SWAP1 RETURN JUMPDEST CALLVALUE DUP1 ISZERO PUSH2 0x120 JUMPI PUSH1 0x0 DUP1 REVERT JUMPDEST POP PUSH2 0x13B PUSH1 0x4 DUP1 CALLDATASIZE SUB DUP2 ADD SWAP1 PUSH2 0x136 SWAP2 SWAP1 PUSH2 0x816 JUMP JUMPDEST PUSH2 0x637 JUMP JUMPDEST PUSH1 0x40 MLOAD PUSH2 0x148 SWAP2 SWAP1 PUSH2 0x98C JUMP JUMPDEST PUSH1 0x40 MLOAD DUP1 SWAP2 SUB SWAP1 RETURN JUMPDEST CALLVALUE DUP1 ISZERO PUSH2 0x15D JUMPI PUSH1 0x0 DUP1 REVERT JUMPDEST POP PUSH2 0x178 PUSH1 0x4 DUP1 CALLDATASIZE SUB DUP2 ADD SWAP1 PUSH2 0x173 SWAP2 SWAP1 PUSH2 0x7E9 JUMP JUMPDEST PUSH2 0x676 JUMP JUMPDEST PUSH1 0x40 MLOAD PUSH2 0x185 SWAP2 SWAP1 PUSH2 0xA22 JUMP JUMPDEST PUSH1 0x40 MLOAD DUP1 SWAP2 SUB SWAP1 RETURN JUMPDEST PUSH1 0x0 SLOAD PUSH2 0x19A CALLVALUE PUSH2 0x68E JUMP JUMPDEST LT ISZERO PUSH2 0x1DB JUMPI PUSH1 0x40 MLOAD PUSH32 0x8C379A000000000000000000000000000000000000000000000000000000000 DUP2 MSTORE PUSH1 0x4 ADD PUSH2 0x1D2 SWAP1 PUSH2 0xA02 JUMP JUMPDEST PUSH1 0x40 MLOAD DUP1 SWAP2 SUB SWAP1 REVERT JUMPDEST PUSH1 0x2 CALLER SWAP1 DUP1 PUSH1 0x1 DUP2 SLOAD ADD DUP1 DUP3 SSTORE DUP1 SWAP2 POP POP PUSH1 0x1 SWAP1 SUB SWAP1 PUSH1 0x0 MSTORE PUSH1 0x20 PUSH1 0x0 KECCAK256 ADD PUSH1 0x0 SWAP1 SWAP2 SWAP1 SWAP2 SWAP1 SWAP2 PUSH2 0x100 EXP DUP2 SLOAD DUP2 PUSH20 0xFFFFFFFFFFFFFFFFFFFFFFFFFFFFFFFFFFFFFFFF MUL NOT AND SWAP1 DUP4 PUSH20 0xFFFFFFFFFFFFFFFFFFFFFFFFFFFFFFFFFFFFFFFF AND MUL OR SWAP1 SSTORE POP CALLVALUE PUSH1 0x3 PUSH1 0x0 CALLER PUSH20 0xFFFFFFFFFFFFFFFFFFFFFFFFFFFFFFFFFFFFFFFF AND PUSH20 0xFFFFFFFFFFFFFFFFFFFFFFFFFFFFFFFFFFFFFFFF AND DUP2 MSTORE PUSH1 0x20 ADD SWAP1 DUP2 MSTORE PUSH1 0x20 ADD PUSH1 0x0 KECCAK256 DUP2 SWAP1 SSTORE POP JUMP JUMPDEST PUSH1 0x0 SLOAD DUP2 JUMP JUMPDEST PUSH1 0x0 JUMPDEST PUSH1 0x2 DUP1 SLOAD SWAP1 POP DUP2 LT ISZERO PUSH2 0x336 JUMPI PUSH1 0x0 PUSH1 0x2 DUP3 DUP2 SLOAD DUP2 LT PUSH2 0x2B0 JUMPI PUSH2 0x2AF PUSH2 0xD10 JUMP JUMPDEST JUMPDEST SWAP1 PUSH1 0x0 MSTORE PUSH1 0x20 PUSH1 0x0 KECCAK256 ADD PUSH1 0x0 SWAP1 SLOAD SWAP1 PUSH2 0x100 EXP SWAP1 DIV PUSH20 0xFFFFFFFFFFFFFFFFFFFFFFFFFFFFFFFFFFFFFFFF AND SWAP1 POP PUSH1 0x0 PUSH1 0x3 PUSH1 0x0 DUP4 PUSH20 0xFFFFFFFFFFFFFFFFFFFFFFFFFFFFFFFFFFFFFFFF AND PUSH20 0xFFFFFFFFFFFFFFFFFFFFFFFFFFFFFFFFFFFFFFFF AND DUP2 MSTORE PUSH1 0x20 ADD SWAP1 DUP2 MSTORE PUSH1 0x20 ADD PUSH1 0x0 KECCAK256 DUP2 SWAP1 SSTORE POP POP DUP1 DUP1 PUSH2 0x32E SWAP1 PUSH2 0xC69 JUMP JUMPDEST SWAP2 POP POP PUSH2 0x28D JUMP JUMPDEST PUSH1 0x1 PUSH1 0x0 SWAP1 SLOAD SWAP1 PUSH2 0x100 EXP SWAP1 DIV PUSH20 0xFFFFFFFFFFFFFFFFFFFFFFFFFFFFFFFFFFFFFFFF AND PUSH20 0xFFFFFFFFFFFFFFFFFFFFFFFFFFFFFFFFFFFFFFFF AND CALLER PUSH20 0xFFFFFFFFFFFFFFFFFFFFFFFFFFFFFFFFFFFFFFFF AND EQ PUSH2 0x3C6 JUMPI PUSH1 0x40 MLOAD PUSH32 0x8C379A000000000000000000000000000000000000000000000000000000000 DUP2 MSTORE PUSH1 0x4 ADD PUSH2 0x3BD SWAP1 PUSH2 0x9C2 JUMP JUMPDEST PUSH1 0x40 MLOAD DUP1 SWAP2 SUB SWAP1 REVERT JUMPDEST CALLER PUSH20 0xFFFFFFFFFFFFFFFFFFFFFFFFFFFFFFFFFFFFFFFF AND PUSH2 0x8FC SELFBALANCE SWAP1 DUP2 ISZERO MUL SWAP1 PUSH1 0x40 MLOAD PUSH1 0x0 PUSH1 0x40 MLOAD DUP1 DUP4 SUB DUP2 DUP6 DUP9 DUP9 CALL SWAP4 POP POP POP POP ISZERO DUP1 ISZERO PUSH2 0x40C JUMPI RETURNDATASIZE PUSH1 0x0 DUP1 RETURNDATACOPY RETURNDATASIZE PUSH1 0x0 REVERT JUMPDEST POP PUSH1 0x0 CALLER PUSH20 0xFFFFFFFFFFFFFFFFFFFFFFFFFFFFFFFFFFFFFFFF AND PUSH2 0x8FC SELFBALANCE SWAP1 DUP2 ISZERO MUL SWAP1 PUSH1 0x40 MLOAD PUSH1 0x0 PUSH1 0x40 MLOAD DUP1 DUP4 SUB DUP2 DUP6 DUP9 DUP9 CALL SWAP4 POP POP POP POP SWAP1 POP DUP1 PUSH2 0x486 JUMPI PUSH1 0x40 MLOAD PUSH32 0x8C379A000000000000000000000000000000000000000000000000000000000 DUP2 MSTORE PUSH1 0x4 ADD PUSH2 0x47D SWAP1 PUSH2 0x9E2 JUMP JUMPDEST PUSH1 0x40 MLOAD DUP1 SWAP2 SUB SWAP1 REVERT JUMPDEST PUSH1 0x0 CALLER PUSH20 0xFFFFFFFFFFFFFFFFFFFFFFFFFFFFFFFFFFFFFFFF AND SELFBALANCE PUSH1 0x40 MLOAD PUSH2 0x4AC SWAP1 PUSH2 0x977 JUMP JUMPDEST PUSH1 0x0 PUSH1 0x40 MLOAD DUP1 DUP4 SUB DUP2 DUP6 DUP8 GAS CALL SWAP3 POP POP POP RETURNDATASIZE DUP1 PUSH1 0x0 DUP2 EQ PUSH2 0x4E9 JUMPI PUSH1 0x40 MLOAD SWAP2 POP PUSH1 0x1F NOT PUSH1 0x3F RETURNDATASIZE ADD AND DUP3 ADD PUSH1 0x40 MSTORE RETURNDATASIZE DUP3 MSTORE RETURNDATASIZE PUSH1 0x0 PUSH1 0x20 DUP5 ADD RETURNDATACOPY PUSH2 0x4EE JUMP JUMPDEST PUSH1 0x60 SWAP2 POP JUMPDEST POP POP SWAP1 POP DUP2 PUSH2 0x532 JUMPI PUSH1 0x40 MLOAD PUSH32 0x8C379A000000000000000000000000000000000000000000000000000000000 DUP2 MSTORE PUSH1 0x4 ADD PUSH2 0x529 SWAP1 PUSH2 0x9E2 JUMP JUMPDEST PUSH1 0x40 MLOAD DUP1 SWAP2 SUB SWAP1 REVERT JUMPDEST POP POP POP JUMP JUMPDEST PUSH1 0x1 PUSH1 0x0 SWAP1 SLOAD SWAP1 PUSH2 0x100 EXP SWAP1 DIV PUSH20 0xFFFFFFFFFFFFFFFFFFFFFFFFFFFFFFFFFFFFFFFF AND PUSH20 0xFFFFFFFFFFFFFFFFFFFFFFFFFFFFFFFFFFFFFFFF AND CALLER PUSH20 0xFFFFFFFFFFFFFFFFFFFFFFFFFFFFFFFFFFFFFFFF AND EQ PUSH2 0x5C7 JUMPI PUSH1 0x40 MLOAD PUSH32 0x8C379A000000000000000000000000000000000000000000000000000000000 DUP2 MSTORE PUSH1 0x4 ADD PUSH2 0x5BE SWAP1 PUSH2 0x9C2 JUMP JUMPDEST PUSH1 0x40 MLOAD DUP1 SWAP2 SUB SWAP1 REVERT JUMPDEST CALLER PUSH20 0xFFFFFFFFFFFFFFFFFFFFFFFFFFFFFFFFFFFFFFFF AND PUSH2 0x8FC DUP3 SWAP1 DUP2 ISZERO MUL SWAP1 PUSH1 0x40 MLOAD PUSH1 0x0 PUSH1 0x40 MLOAD DUP1 DUP4 SUB DUP2 DUP6 DUP9 DUP9 CALL SWAP4 POP POP POP POP ISZERO DUP1 ISZERO PUSH2 0x60D JUMPI RETURNDATASIZE PUSH1 0x0 DUP1 RETURNDATACOPY RETURNDATASIZE PUSH1 0x0 REVERT JUMPDEST POP POP JUMP JUMPDEST PUSH1 0x1 PUSH1 0x0 SWAP1 SLOAD SWAP1 PUSH2 0x100 EXP SWAP1 DIV PUSH20 0xFFFFFFFFFFFFFFFFFFFFFFFFFFFFFFFFFFFFFFFF AND DUP2 JUMP JUMPDEST PUSH1 0x2 DUP2 DUP2 SLOAD DUP2 LT PUSH2 0x647 JUMPI PUSH1 0x0 DUP1 REVERT JUMPDEST SWAP1 PUSH1 0x0 MSTORE PUSH1 0x20 PUSH1 0x0 KECCAK256 ADD PUSH1 0x0 SWAP2 POP SLOAD SWAP1 PUSH2 0x100 EXP SWAP1 DIV PUSH20 0xFFFFFFFFFFFFFFFFFFFFFFFFFFFFFFFFFFFFFFFF AND DUP2 JUMP JUMPDEST PUSH1 0x3 PUSH1 0x20 MSTORE DUP1 PUSH1 0x0 MSTORE PUSH1 0x40 PUSH1 0x0 KECCAK256 PUSH1 0x0 SWAP2 POP SWAP1 POP SLOAD DUP2 JUMP JUMPDEST PUSH1 0x0 DUP1 PUSH2 0x699 PUSH2 0x6C8 JUMP JUMPDEST SWAP1 POP PUSH1 0x0 PUSH8 0xDE0B6B3A7640000 DUP3 DUP6 PUSH2 0x6B2 SWAP2 SWAP1 PUSH2 0xBA1 JUMP JUMPDEST PUSH2 0x6BC SWAP2 SWAP1 PUSH2 0xA59 JUMP JUMPDEST SWAP1 POP DUP1 SWAP3 POP POP POP SWAP2 SWAP1 POP JUMP JUMPDEST PUSH1 0x0 DUP1 PUSH20 0x9326BFA02ADD2366B30BACB125260AF641031331 SWAP1 POP PUSH1 0x0 DUP2 PUSH20 0xFFFFFFFFFFFFFFFFFFFFFFFFFFFFFFFFFFFFFFFF AND PUSH4 0xFEAF968C PUSH1 0x40 MLOAD DUP2 PUSH4 0xFFFFFFFF AND PUSH1 0xE0 SHL DUP2 MSTORE PUSH1 0x4 ADD PUSH1 0xA0 PUSH1 0x40 MLOAD DUP1 DUP4 SUB DUP2 DUP7 DUP1 EXTCODESIZE ISZERO DUP1 ISZERO PUSH2 0x72A JUMPI PUSH1 0x0 DUP1 REVERT JUMPDEST POP GAS STATICCALL ISZERO DUP1 ISZERO PUSH2 0x73E JUMPI RETURNDATASIZE PUSH1 0x0 DUP1 RETURNDATACOPY RETURNDATASIZE PUSH1 0x0 REVERT JUMPDEST POP POP POP POP PUSH1 0x40 MLOAD RETURNDATASIZE PUSH1 0x1F NOT PUSH1 0x1F DUP3 ADD AND DUP3 ADD DUP1 PUSH1 0x40 MSTORE POP DUP2 ADD SWAP1 PUSH2 0x762 SWAP2 SWAP1 PUSH2 0x843 JUMP JUMPDEST POP POP POP SWAP2 POP POP PUSH5 0x2540BE400 DUP2 PUSH2 0x779 SWAP2 SWAP1 PUSH2 0xA8A JUMP JUMPDEST SWAP3 POP POP POP SWAP1 JUMP JUMPDEST PUSH1 0x0 DUP2 CALLDATALOAD SWAP1 POP PUSH2 0x78F DUP2 PUSH2 0xE0E JUMP JUMPDEST SWAP3 SWAP2 POP POP JUMP JUMPDEST PUSH1 0x0 DUP2 MLOAD SWAP1 POP PUSH2 0x7A4 DUP2 PUSH2 0xE25 JUMP JUMPDEST SWAP3 SWAP2 POP POP JUMP JUMPDEST PUSH1 0x0 DUP2 CALLDATALOAD SWAP1 POP PUSH2 0x7B9 DUP2 PUSH2 0xE3C JUMP JUMPDEST SWAP3 SWAP2 POP POP JUMP JUMPDEST PUSH1 0x0 DUP2 MLOAD SWAP1 POP PUSH2 0x7CE DUP2 PUSH2 0xE3C JUMP JUMPDEST SWAP3 SWAP2 POP POP JUMP JUMPDEST PUSH1 0x0 DUP2 MLOAD SWAP1 POP PUSH2 0x7E3 DUP2 PUSH2 0xE53 JUMP JUMPDEST SWAP3 SWAP2 POP POP JUMP JUMPDEST PUSH1 0x0 PUSH1 0x20 DUP3 DUP5 SUB SLT ISZERO PUSH2 0x7FF JUMPI PUSH2 0x7FE PUSH2 0xD3F JUMP JUMPDEST JUMPDEST PUSH1 0x0 PUSH2 0x80D DUP5 DUP3 DUP6 ADD PUSH2 0x780 JUMP JUMPDEST SWAP2 POP POP SWAP3 SWAP2 POP POP JUMP JUMPDEST PUSH1 0x0 PUSH1 0x20 DUP3 DUP5 SUB SLT ISZERO PUSH2 0x82C JUMPI PUSH2 0x82B PUSH2 0xD3F JUMP JUMPDEST JUMPDEST PUSH1 0x0 PUSH2 0x83A DUP5 DUP3 DUP6 ADD PUSH2 0x7AA JUMP JUMPDEST SWAP2 POP POP SWAP3 SWAP2 POP POP JUMP JUMPDEST PUSH1 0x0 DUP1 PUSH1 0x0 DUP1 PUSH1 0x0 PUSH1 0xA0 DUP7 DUP9 SUB SLT ISZERO PUSH2 0x85F JUMPI PUSH2 0x85E PUSH2 0xD3F JUMP JUMPDEST JUMPDEST PUSH1 0x0 PUSH2 0x86D DUP9 DUP3 DUP10 ADD PUSH2 0x7D4 JUMP JUMPDEST SWAP6 POP POP PUSH1 0x20 PUSH2 0x87E DUP9 DUP3 DUP10 ADD PUSH2 0x795 JUMP JUMPDEST SWAP5 POP POP PUSH1 0x40 PUSH2 0x88F DUP9 DUP3 DUP10 ADD PUSH2 0x7BF JUMP JUMPDEST SWAP4 POP POP PUSH1 0x60 PUSH2 0x8A0 DUP9 DUP3 DUP10 ADD PUSH2 0x7BF JUMP JUMPDEST SWAP3 POP POP PUSH1 0x80 PUSH2 0x8B1 DUP9 DUP3 DUP10 ADD PUSH2 0x7D4 JUMP JUMPDEST SWAP2 POP POP SWAP3 SWAP6 POP SWAP3 SWAP6 SWAP1 SWAP4 POP JUMP JUMPDEST PUSH2 0x8C7 DUP2 PUSH2 0xC0D JUMP JUMPDEST DUP3 MSTORE POP POP JUMP JUMPDEST PUSH2 0x8D6 DUP2 PUSH2 0xBFB JUMP JUMPDEST DUP3 MSTORE POP POP JUMP JUMPDEST PUSH1 0x0 PUSH2 0x8E9 PUSH1 0x24 DUP4 PUSH2 0xA48 JUMP JUMPDEST SWAP2 POP PUSH2 0x8F4 DUP3 PUSH2 0xD44 JUMP JUMPDEST PUSH1 0x40 DUP3 ADD SWAP1 POP SWAP2 SWAP1 POP JUMP JUMPDEST PUSH1 0x0 PUSH2 0x90C PUSH1 0xB DUP4 PUSH2 0xA48 JUMP JUMPDEST SWAP2 POP PUSH2 0x917 DUP3 PUSH2 0xD93 JUMP JUMPDEST PUSH1 0x20 DUP3 ADD SWAP1 POP SWAP2 SWAP1 POP JUMP JUMPDEST PUSH1 0x0 PUSH2 0x92F PUSH1 0x29 DUP4 PUSH2 0xA48 JUMP JUMPDEST SWAP2 POP PUSH2 0x93A DUP3 PUSH2 0xDBC JUMP JUMPDEST PUSH1 0x40 DUP3 ADD SWAP1 POP SWAP2 SWAP1 POP JUMP JUMPDEST PUSH1 0x0 PUSH2 0x952 PUSH1 0x0 DUP4 PUSH2 0xA3D JUMP JUMPDEST SWAP2 POP PUSH2 0x95D DUP3 PUSH2 0xE0B JUMP JUMPDEST PUSH1 0x0 DUP3 ADD SWAP1 POP SWAP2 SWAP1 POP JUMP JUMPDEST PUSH2 0x971 DUP2 PUSH2 0xC49 JUMP JUMPDEST DUP3 MSTORE POP POP JUMP JUMPDEST PUSH1 0x0 PUSH2 0x982 DUP3 PUSH2 0x945 JUMP JUMPDEST SWAP2 POP DUP2 SWAP1 POP SWAP2 SWAP1 POP JUMP JUMPDEST PUSH1 0x0 PUSH1 0x20 DUP3 ADD SWAP1 POP PUSH2 0x9A1 PUSH1 0x0 DUP4 ADD DUP5 PUSH2 0x8CD JUMP JUMPDEST SWAP3 SWAP2 POP POP JUMP JUMPDEST PUSH1 0x0 PUSH1 0x20 DUP3 ADD SWAP1 POP PUSH2 0x9BC PUSH1 0x0 DUP4 ADD DUP5 PUSH2 0x8BE JUMP JUMPDEST SWAP3 SWAP2 POP POP JUMP JUMPDEST PUSH1 0x0 PUSH1 0x20 DUP3 ADD SWAP1 POP DUP2 DUP2 SUB PUSH1 0x0 DUP4 ADD MSTORE PUSH2 0x9DB DUP2 PUSH2 0x8DC JUMP JUMPDEST SWAP1 POP SWAP2 SWAP1 POP JUMP JUMPDEST PUSH1 0x0 PUSH1 0x20 DUP3 ADD SWAP1 POP DUP2 DUP2 SUB PUSH1 0x0 DUP4 ADD MSTORE PUSH2 0x9FB DUP2 PUSH2 0x8FF JUMP JUMPDEST SWAP1 POP SWAP2 SWAP1 POP JUMP JUMPDEST PUSH1 0x0 PUSH1 0x20 DUP3 ADD SWAP1 POP DUP2 DUP2 SUB PUSH1 0x0 DUP4 ADD MSTORE PUSH2 0xA1B DUP2 PUSH2 0x922 JUMP JUMPDEST SWAP1 POP SWAP2 SWAP1 POP JUMP JUMPDEST PUSH1 0x0 PUSH1 0x20 DUP3 ADD SWAP1 POP PUSH2 0xA37 PUSH1 0x0 DUP4 ADD DUP5 PUSH2 0x968 JUMP JUMPDEST SWAP3 SWAP2 POP POP JUMP JUMPDEST PUSH1 0x0 DUP2 SWAP1 POP SWAP3 SWAP2 POP POP JUMP JUMPDEST PUSH1 0x0 DUP3 DUP3 MSTORE PUSH1 0x20 DUP3 ADD SWAP1 POP SWAP3 SWAP2 POP POP JUMP JUMPDEST PUSH1 0x0 PUSH2 0xA64 DUP3 PUSH2 0xC49 JUMP JUMPDEST SWAP2 POP PUSH2 0xA6F DUP4 PUSH2 0xC49 JUMP JUMPDEST SWAP3 POP DUP3 PUSH2 0xA7F JUMPI PUSH2 0xA7E PUSH2 0xCE1 JUMP JUMPDEST JUMPDEST DUP3 DUP3 DIV SWAP1 POP SWAP3 SWAP2 POP POP JUMP JUMPDEST PUSH1 0x0 PUSH2 0xA95 DUP3 PUSH2 0xC1F JUMP JUMPDEST SWAP2 POP PUSH2 0xAA0 DUP4 PUSH2 0xC1F JUMP JUMPDEST SWAP3 POP DUP3 PUSH32 0x7FFFFFFFFFFFFFFFFFFFFFFFFFFFFFFFFFFFFFFFFFFFFFFFFFFFFFFFFFFFFFFF DIV DUP3 GT PUSH1 0x0 DUP5 SGT PUSH1 0x0 DUP5 SGT AND AND ISZERO PUSH2 0xADF JUMPI PUSH2 0xADE PUSH2 0xCB2 JUMP JUMPDEST JUMPDEST DUP2 PUSH32 0x8000000000000000000000000000000000000000000000000000000000000000 SDIV DUP4 SLT PUSH1 0x0 DUP5 SLT PUSH1 0x0 DUP5 SGT AND AND ISZERO PUSH2 0xB1C JUMPI PUSH2 0xB1B PUSH2 0xCB2 JUMP JUMPDEST JUMPDEST DUP3 PUSH32 0x8000000000000000000000000000000000000000000000000000000000000000 SDIV DUP3 SLT PUSH1 0x0 DUP5 SGT PUSH1 0x0 DUP5 SLT AND AND ISZERO PUSH2 0xB59 JUMPI PUSH2 0xB58 PUSH2 0xCB2 JUMP JUMPDEST JUMPDEST DUP3 PUSH32 0x7FFFFFFFFFFFFFFFFFFFFFFFFFFFFFFFFFFFFFFFFFFFFFFFFFFFFFFFFFFFFFFF SDIV DUP3 SLT PUSH1 0x0 DUP5 SLT PUSH1 0x0 DUP5 SLT AND AND ISZERO PUSH2 0xB96 JUMPI PUSH2 0xB95 PUSH2 0xCB2 JUMP JUMPDEST JUMPDEST DUP3 DUP3 MUL SWAP1 POP SWAP3 SWAP2 POP POP JUMP JUMPDEST PUSH1 0x0 PUSH2 0xBAC DUP3 PUSH2 0xC49 JUMP JUMPDEST SWAP2 POP PUSH2 0xBB7 DUP4 PUSH2 0xC49 JUMP JUMPDEST SWAP3 POP DUP2 PUSH32 0xFFFFFFFFFFFFFFFFFFFFFFFFFFFFFFFFFFFFFFFFFFFFFFFFFFFFFFFFFFFFFFFF DIV DUP4 GT DUP3 ISZERO ISZERO AND ISZERO PUSH2 0xBF0 JUMPI PUSH2 0xBEF PUSH2 0xCB2 JUMP JUMPDEST JUMPDEST DUP3 DUP3 MUL SWAP1 POP SWAP3 SWAP2 POP POP JUMP JUMPDEST PUSH1 0x0 PUSH2 0xC06 DUP3 PUSH2 0xC29 JUMP JUMPDEST SWAP1 POP SWAP2 SWAP1 POP JUMP JUMPDEST PUSH1 0x0 PUSH2 0xC18 DUP3 PUSH2 0xC29 JUMP JUMPDEST SWAP1 POP SWAP2 SWAP1 POP JUMP JUMPDEST PUSH1 0x0 DUP2 SWAP1 POP SWAP2 SWAP1 POP JUMP JUMPDEST PUSH1 0x0 PUSH20 0xFFFFFFFFFFFFFFFFFFFFFFFFFFFFFFFFFFFFFFFF DUP3 AND SWAP1 POP SWAP2 SWAP1 POP JUMP JUMPDEST PUSH1 0x0 DUP2 SWAP1 POP SWAP2 SWAP1 POP JUMP JUMPDEST PUSH1 0x0 PUSH10 0xFFFFFFFFFFFFFFFFFFFF DUP3 AND SWAP1 POP SWAP2 SWAP1 POP JUMP JUMPDEST PUSH1 0x0 PUSH2 0xC74 DUP3 PUSH2 0xC49 JUMP JUMPDEST SWAP2 POP PUSH32 0xFFFFFFFFFFFFFFFFFFFFFFFFFFFFFFFFFFFFFFFFFFFFFFFFFFFFFFFFFFFFFFFF DUP3 EQ ISZERO PUSH2 0xCA7 JUMPI PUSH2 0xCA6 PUSH2 0xCB2 JUMP JUMPDEST JUMPDEST PUSH1 0x1 DUP3 ADD SWAP1 POP SWAP2 SWAP1 POP JUMP JUMPDEST PUSH32 0x4E487B7100000000000000000000000000000000000000000000000000000000 PUSH1 0x0 MSTORE PUSH1 0x11 PUSH1 0x4 MSTORE PUSH1 0x24 PUSH1 0x0 REVERT JUMPDEST PUSH32 0x4E487B7100000000000000000000000000000000000000000000000000000000 PUSH1 0x0 MSTORE PUSH1 0x12 PUSH1 0x4 MSTORE PUSH1 0x24 PUSH1 0x0 REVERT JUMPDEST PUSH32 0x4E487B7100000000000000000000000000000000000000000000000000000000 PUSH1 0x0 MSTORE PUSH1 0x32 PUSH1 0x4 MSTORE PUSH1 0x24 PUSH1 0x0 REVERT JUMPDEST PUSH1 0x0 DUP1 REVERT JUMPDEST PUSH32 0x4F6E6C79206F776E65722063616E207769746864726177207472616E73616374 PUSH1 0x0 DUP3 ADD MSTORE PUSH32 0x696F6E7300000000000000000000000000000000000000000000000000000000 PUSH1 0x20 DUP3 ADD MSTORE POP JUMP JUMPDEST PUSH32 0x53656E64204661696C6564000000000000000000000000000000000000000000 PUSH1 0x0 DUP3 ADD MSTORE POP JUMP JUMPDEST PUSH32 0x546865206D696E696D756D20616D6F756E74206F662066756E6420776F756C64 PUSH1 0x0 DUP3 ADD MSTORE PUSH32 0x206265203E3D3530240000000000000000000000000000000000000000000000 PUSH1 0x20 DUP3 ADD MSTORE POP JUMP JUMPDEST POP JUMP JUMPDEST PUSH2 0xE17 DUP2 PUSH2 0xBFB JUMP JUMPDEST DUP2 EQ PUSH2 0xE22 JUMPI PUSH1 0x0 DUP1 REVERT JUMPDEST POP JUMP JUMPDEST PUSH2 0xE2E DUP2 PUSH2 0xC1F JUMP JUMPDEST DUP2 EQ PUSH2 0xE39 JUMPI PUSH1 0x0 DUP1 REVERT JUMPDEST POP JUMP JUMPDEST PUSH2 0xE45 DUP2 PUSH2 0xC49 JUMP JUMPDEST DUP2 EQ PUSH2 0xE50 JUMPI PUSH1 0x0 DUP1 REVERT JUMPDEST POP JUMP JUMPDEST PUSH2 0xE5C DUP2 PUSH2 0xC53 JUMP JUMPDEST DUP2 EQ PUSH2 0xE67 JUMPI PUSH1 0x0 DUP1 REVERT JUMPDEST POP JUMP INVALID LOG2 PUSH5 0x6970667358 0x22 SLT KECCAK256 PUSH24 0xD45E82C0B2F13F508B9300AC5300109250D1009433280078 0x49 LOG4 0xCD CREATE DUP10 MUL 0x26 PUSH5 0x736F6C6343 STOP ADDMOD SMOD STOP CALLER "
				},
				"gasEstimates": {
					"creation": {
						"codeDepositCost": "748800",
						"executionCost": "22885",
						"totalCost": "771685"
					},
					"external": {
						"funders(uint256)": "5000",
						"fundersAmount(address)": "2880",
						"minimumUsd()": "2452",
						"owner()": "2536",
						"receiveFunds()": "infinite",
						"withdraw()": "infinite",
						"withdrawSpecificAmount(uint256)": "infinite"
					}
				},
				"methodIdentifiers": {
					"funders(uint256)": "dc0d3dff",
					"fundersAmount(address)": "e73c0f23",
					"minimumUsd()": "098de820",
					"owner()": "8da5cb5b",
					"receiveFunds()": "005c33e1",
					"withdraw()": "3ccfd60b",
					"withdrawSpecificAmount(uint256)": "76778d6e"
				}
			},
			"storageLayout": {
				"storage": [
					{
						"astId": 54,
						"contract": "contracts/FundMe.sol:FundMe",
						"label": "minimumUsd",
						"offset": 0,
						"slot": "0",
						"type": "t_uint256"
					},
					{
						"astId": 56,
						"contract": "contracts/FundMe.sol:FundMe",
						"label": "owner",
						"offset": 0,
						"slot": "1",
						"type": "t_address_payable"
					},
					{
						"astId": 59,
						"contract": "contracts/FundMe.sol:FundMe",
						"label": "funders",
						"offset": 0,
						"slot": "2",
						"type": "t_array(t_address)dyn_storage"
					},
					{
						"astId": 63,
						"contract": "contracts/FundMe.sol:FundMe",
						"label": "fundersAmount",
						"offset": 0,
						"slot": "3",
						"type": "t_mapping(t_address,t_uint256)"
					}
				],
				"types": {
					"t_address": {
						"encoding": "inplace",
						"label": "address",
						"numberOfBytes": "20"
					},
					"t_address_payable": {
						"encoding": "inplace",
						"label": "address payable",
						"numberOfBytes": "20"
					},
					"t_array(t_address)dyn_storage": {
						"base": "t_address",
						"encoding": "dynamic_array",
						"label": "address[]",
						"numberOfBytes": "32"
					},
					"t_mapping(t_address,t_uint256)": {
						"encoding": "mapping",
						"key": "t_address",
						"label": "mapping(address => uint256)",
						"numberOfBytes": "32",
						"value": "t_uint256"
					},
					"t_uint256": {
						"encoding": "inplace",
						"label": "uint256",
						"numberOfBytes": "32"
					}
				}
			},
			"userdoc": {
				"kind": "user",
				"methods": {},
				"version": 1
			}
		}
	}
}