{
	"contracts/FundMe.sol": {
		"FundMe": {
			"abi": [
				{
					"inputs": [],
					"stateMutability": "nonpayable",
					"type": "constructor"
				},
				{
					"inputs": [
						{
							"internalType": "uint256",
							"name": "ethAmount",
							"type": "uint256"
						}
					],
					"name": "conversion",
					"outputs": [
						{
							"internalType": "uint256",
							"name": "",
							"type": "uint256"
						}
					],
					"stateMutability": "view",
					"type": "function"
				},
				{
					"inputs": [],
					"name": "getPrice",
					"outputs": [
						{
							"internalType": "uint256",
							"name": "",
							"type": "uint256"
						}
					],
					"stateMutability": "view",
					"type": "function"
				},
				{
					"inputs": [],
					"name": "getVersion",
					"outputs": [
						{
							"internalType": "uint256",
							"name": "",
							"type": "uint256"
						}
					],
					"stateMutability": "view",
					"type": "function"
				},
				{
					"inputs": [],
					"name": "minimumUsd",
					"outputs": [
						{
							"internalType": "uint256",
							"name": "",
							"type": "uint256"
						}
					],
					"stateMutability": "view",
					"type": "function"
				},
				{
					"inputs": [],
					"name": "receiveFunds",
					"outputs": [],
					"stateMutability": "payable",
					"type": "function"
				}
			],
			"devdoc": {
				"kind": "dev",
				"methods": {},
				"version": 1
			},
			"evm": {
				"assembly": "    /* \"contracts/FundMe.sol\":327:1614  contract FundMe{\r... */\n  mstore(0x40, 0x80)\n    /* \"contracts/FundMe.sol\":379:381  50 */\n  0x32\n    /* \"contracts/FundMe.sol\":351:381  uint256 public minimumUsd = 50 */\n  0x00\n  sstore\n    /* \"contracts/FundMe.sol\":437:546  constructor(){\r... */\n  callvalue\n  dup1\n  iszero\n  tag_1\n  jumpi\n  0x00\n  dup1\n  revert\ntag_1:\n  pop\n    /* \"contracts/FundMe.sol\":495:537  0x8A753747A1Fa494EC906cE90E9f37563A8AF630e */\n  0x8a753747a1fa494ec906ce90e9f37563a8af630e\n    /* \"contracts/FundMe.sol\":461:470  priceFeed */\n  0x01\n  0x00\n    /* \"contracts/FundMe.sol\":461:538  priceFeed = AggregatorV3Interface(0x8A753747A1Fa494EC906cE90E9f37563A8AF630e) */\n  0x0100\n  exp\n  dup2\n  sload\n  dup2\n  0xffffffffffffffffffffffffffffffffffffffff\n  mul\n  not\n  and\n  swap1\n  dup4\n  0xffffffffffffffffffffffffffffffffffffffff\n  and\n  mul\n  or\n  swap1\n  sstore\n  pop\n    /* \"contracts/FundMe.sol\":327:1614  contract FundMe{\r... */\n  dataSize(sub_0)\n  dup1\n  dataOffset(sub_0)\n  0x00\n  codecopy\n  0x00\n  return\nstop\n\nsub_0: assembly {\n        /* \"contracts/FundMe.sol\":327:1614  contract FundMe{\r... */\n      mstore(0x40, 0x80)\n      jumpi(tag_1, lt(calldatasize, 0x04))\n      shr(0xe0, calldataload(0x00))\n      dup1\n      0x5c33e1\n      eq\n      tag_2\n      jumpi\n      dup1\n      0x098de820\n      eq\n      tag_3\n      jumpi\n      dup1\n      0x0d8e6e2c\n      eq\n      tag_4\n      jumpi\n      dup1\n      0x98d5fdca\n      eq\n      tag_5\n      jumpi\n      dup1\n      0xba4d0c99\n      eq\n      tag_6\n      jumpi\n    tag_1:\n      0x00\n      dup1\n      revert\n        /* \"contracts/FundMe.sol\":554:869  function receiveFunds() public payable{\r... */\n    tag_2:\n      tag_7\n      tag_8\n      jump\t// in\n    tag_7:\n      stop\n        /* \"contracts/FundMe.sol\":351:381  uint256 public minimumUsd = 50 */\n    tag_3:\n      callvalue\n      dup1\n      iszero\n      tag_9\n      jumpi\n      0x00\n      dup1\n      revert\n    tag_9:\n      pop\n      tag_10\n      tag_11\n      jump\t// in\n    tag_10:\n      mload(0x40)\n      tag_12\n      swap2\n      swap1\n      tag_13\n      jump\t// in\n    tag_12:\n      mload(0x40)\n      dup1\n      swap2\n      sub\n      swap1\n      return\n        /* \"contracts/FundMe.sol\":1149:1246  function getVersion() public view returns(uint256){\r... */\n    tag_4:\n      callvalue\n      dup1\n      iszero\n      tag_14\n      jumpi\n      0x00\n      dup1\n      revert\n    tag_14:\n      pop\n      tag_15\n      tag_16\n      jump\t// in\n    tag_15:\n      mload(0x40)\n      tag_17\n      swap2\n      swap1\n      tag_13\n      jump\t// in\n    tag_17:\n      mload(0x40)\n      dup1\n      swap2\n      sub\n      swap1\n      return\n        /* \"contracts/FundMe.sol\":877:1141  function getPrice() public view returns(uint256){\r... */\n    tag_5:\n      callvalue\n      dup1\n      iszero\n      tag_18\n      jumpi\n      0x00\n      dup1\n      revert\n    tag_18:\n      pop\n      tag_19\n      tag_20\n      jump\t// in\n    tag_19:\n      mload(0x40)\n      tag_21\n      swap2\n      swap1\n      tag_13\n      jump\t// in\n    tag_21:\n      mload(0x40)\n      dup1\n      swap2\n      sub\n      swap1\n      return\n        /* \"contracts/FundMe.sol\":1254:1566  function conversion(uint256 ethAmount) public view returns(uint256){\r... */\n    tag_6:\n      callvalue\n      dup1\n      iszero\n      tag_22\n      jumpi\n      0x00\n      dup1\n      revert\n    tag_22:\n      pop\n      tag_23\n      0x04\n      dup1\n      calldatasize\n      sub\n      dup2\n      add\n      swap1\n      tag_24\n      swap2\n      swap1\n      tag_25\n      jump\t// in\n    tag_24:\n      tag_26\n      jump\t// in\n    tag_23:\n      mload(0x40)\n      tag_27\n      swap2\n      swap1\n      tag_13\n      jump\t// in\n    tag_27:\n      mload(0x40)\n      dup1\n      swap2\n      sub\n      swap1\n      return\n        /* \"contracts/FundMe.sol\":554:869  function receiveFunds() public payable{\r... */\n    tag_8:\n        /* \"contracts/FundMe.sol\":726:736  minimumUsd */\n      sload(0x00)\n        /* \"contracts/FundMe.sol\":701:722  conversion(msg.value) */\n      tag_29\n        /* \"contracts/FundMe.sol\":712:721  msg.value */\n      callvalue\n        /* \"contracts/FundMe.sol\":701:711  conversion */\n      tag_26\n        /* \"contracts/FundMe.sol\":701:722  conversion(msg.value) */\n      jump\t// in\n    tag_29:\n        /* \"contracts/FundMe.sol\":701:736  conversion(msg.value) >= minimumUsd */\n      lt\n      iszero\n        /* \"contracts/FundMe.sol\":693:783  require(conversion(msg.value) >= minimumUsd , \"The minimum amount of fund would be 1 eth\") */\n      tag_30\n      jumpi\n      mload(0x40)\n      0x08c379a000000000000000000000000000000000000000000000000000000000\n      dup2\n      mstore\n      0x04\n      add\n      tag_31\n      swap1\n      tag_32\n      jump\t// in\n    tag_31:\n      mload(0x40)\n      dup1\n      swap2\n      sub\n      swap1\n      revert\n    tag_30:\n        /* \"contracts/FundMe.sol\":554:869  function receiveFunds() public payable{\r... */\n      jump\t// out\n        /* \"contracts/FundMe.sol\":351:381  uint256 public minimumUsd = 50 */\n    tag_11:\n      sload(0x00)\n      dup2\n      jump\t// out\n        /* \"contracts/FundMe.sol\":1149:1246  function getVersion() public view returns(uint256){\r... */\n    tag_16:\n        /* \"contracts/FundMe.sol\":1191:1198  uint256 */\n      0x00\n        /* \"contracts/FundMe.sol\":1219:1228  priceFeed */\n      0x01\n      0x00\n      swap1\n      sload\n      swap1\n      0x0100\n      exp\n      swap1\n      div\n      0xffffffffffffffffffffffffffffffffffffffff\n      and\n        /* \"contracts/FundMe.sol\":1219:1236  priceFeed.version */\n      0xffffffffffffffffffffffffffffffffffffffff\n      and\n      0x54fd4d50\n        /* \"contracts/FundMe.sol\":1219:1238  priceFeed.version() */\n      mload(0x40)\n      dup2\n      0xffffffff\n      and\n      0xe0\n      shl\n      dup2\n      mstore\n      0x04\n      add\n      0x20\n      mload(0x40)\n      dup1\n      dup4\n      sub\n      dup2\n      dup7\n      dup1\n      extcodesize\n      iszero\n      dup1\n      iszero\n      tag_34\n      jumpi\n      0x00\n      dup1\n      revert\n    tag_34:\n      pop\n      gas\n      staticcall\n      iszero\n      dup1\n      iszero\n      tag_36\n      jumpi\n      returndatasize\n      0x00\n      dup1\n      returndatacopy\n      revert(0x00, returndatasize)\n    tag_36:\n      pop\n      pop\n      pop\n      pop\n      mload(0x40)\n      returndatasize\n      not(0x1f)\n      0x1f\n      dup3\n      add\n      and\n      dup3\n      add\n      dup1\n      0x40\n      mstore\n      pop\n      dup2\n      add\n      swap1\n      tag_37\n      swap2\n      swap1\n      tag_38\n      jump\t// in\n    tag_37:\n        /* \"contracts/FundMe.sol\":1212:1238  return priceFeed.version() */\n      swap1\n      pop\n        /* \"contracts/FundMe.sol\":1149:1246  function getVersion() public view returns(uint256){\r... */\n      swap1\n      jump\t// out\n        /* \"contracts/FundMe.sol\":877:1141  function getPrice() public view returns(uint256){\r... */\n    tag_20:\n        /* \"contracts/FundMe.sol\":917:924  uint256 */\n      0x00\n        /* \"contracts/FundMe.sol\":975:988  int256 answer */\n      dup1\n        /* \"contracts/FundMe.sol\":996:1005  priceFeed */\n      0x01\n      0x00\n      swap1\n      sload\n      swap1\n      0x0100\n      exp\n      swap1\n      div\n      0xffffffffffffffffffffffffffffffffffffffff\n      and\n        /* \"contracts/FundMe.sol\":996:1021  priceFeed.latestRoundData */\n      0xffffffffffffffffffffffffffffffffffffffff\n      and\n      0xfeaf968c\n        /* \"contracts/FundMe.sol\":996:1023  priceFeed.latestRoundData() */\n      mload(0x40)\n      dup2\n      0xffffffff\n      and\n      0xe0\n      shl\n      dup2\n      mstore\n      0x04\n      add\n      0xa0\n      mload(0x40)\n      dup1\n      dup4\n      sub\n      dup2\n      dup7\n      dup1\n      extcodesize\n      iszero\n      dup1\n      iszero\n      tag_40\n      jumpi\n      0x00\n      dup1\n      revert\n    tag_40:\n      pop\n      gas\n      staticcall\n      iszero\n      dup1\n      iszero\n      tag_42\n      jumpi\n      returndatasize\n      0x00\n      dup1\n      returndatacopy\n      revert(0x00, returndatasize)\n    tag_42:\n      pop\n      pop\n      pop\n      pop\n      mload(0x40)\n      returndatasize\n      not(0x1f)\n      0x1f\n      dup3\n      add\n      and\n      dup3\n      add\n      dup1\n      0x40\n      mstore\n      pop\n      dup2\n      add\n      swap1\n      tag_43\n      swap2\n      swap1\n      tag_44\n      jump\t// in\n    tag_43:\n        /* \"contracts/FundMe.sol\":972:1023  (, int256 answer ,,,) = priceFeed.latestRoundData() */\n      pop\n      pop\n      pop\n      swap2\n      pop\n      pop\n        /* \"contracts/FundMe.sol\":1119:1123  1e10 */\n      0x02540be400\n        /* \"contracts/FundMe.sol\":1111:1117  answer */\n      dup2\n        /* \"contracts/FundMe.sol\":1111:1123  answer* 1e10 */\n      tag_45\n      swap2\n      swap1\n      tag_46\n      jump\t// in\n    tag_45:\n        /* \"contracts/FundMe.sol\":1096:1124  return uint256(answer* 1e10) */\n      swap2\n      pop\n      pop\n        /* \"contracts/FundMe.sol\":877:1141  function getPrice() public view returns(uint256){\r... */\n      swap1\n      jump\t// out\n        /* \"contracts/FundMe.sol\":1254:1566  function conversion(uint256 ethAmount) public view returns(uint256){\r... */\n    tag_26:\n        /* \"contracts/FundMe.sol\":1313:1320  uint256 */\n      0x00\n        /* \"contracts/FundMe.sol\":1419:1435  uint256 ethPrice */\n      dup1\n        /* \"contracts/FundMe.sol\":1438:1448  getPrice() */\n      tag_48\n        /* \"contracts/FundMe.sol\":1438:1446  getPrice */\n      tag_20\n        /* \"contracts/FundMe.sol\":1438:1448  getPrice() */\n      jump\t// in\n    tag_48:\n        /* \"contracts/FundMe.sol\":1419:1448  uint256 ethPrice = getPrice() */\n      swap1\n      pop\n        /* \"contracts/FundMe.sol\":1482:1498  uint256 ethinUSD */\n      0x00\n        /* \"contracts/FundMe.sol\":1526:1530  1e18 */\n      0x0de0b6b3a7640000\n        /* \"contracts/FundMe.sol\":1514:1522  ethPrice */\n      dup3\n        /* \"contracts/FundMe.sol\":1502:1511  ethAmount */\n      dup6\n        /* \"contracts/FundMe.sol\":1502:1522  ethAmount * ethPrice */\n      tag_49\n      swap2\n      swap1\n      tag_50\n      jump\t// in\n    tag_49:\n        /* \"contracts/FundMe.sol\":1501:1530  (ethAmount * ethPrice) / 1e18 */\n      tag_51\n      swap2\n      swap1\n      tag_52\n      jump\t// in\n    tag_51:\n        /* \"contracts/FundMe.sol\":1482:1530  uint256 ethinUSD = (ethAmount * ethPrice) / 1e18 */\n      swap1\n      pop\n        /* \"contracts/FundMe.sol\":1548:1556  ethinUSD */\n      dup1\n        /* \"contracts/FundMe.sol\":1541:1556  return ethinUSD */\n      swap3\n      pop\n      pop\n      pop\n        /* \"contracts/FundMe.sol\":1254:1566  function conversion(uint256 ethAmount) public view returns(uint256){\r... */\n      swap2\n      swap1\n      pop\n      jump\t// out\n        /* \"#utility.yul\":7:148   */\n    tag_54:\n        /* \"#utility.yul\":63:68   */\n      0x00\n        /* \"#utility.yul\":94:100   */\n      dup2\n        /* \"#utility.yul\":88:101   */\n      mload\n        /* \"#utility.yul\":79:101   */\n      swap1\n      pop\n        /* \"#utility.yul\":110:142   */\n      tag_56\n        /* \"#utility.yul\":136:141   */\n      dup2\n        /* \"#utility.yul\":110:142   */\n      tag_57\n      jump\t// in\n    tag_56:\n        /* \"#utility.yul\":7:148   */\n      swap3\n      swap2\n      pop\n      pop\n      jump\t// out\n        /* \"#utility.yul\":154:293   */\n    tag_58:\n        /* \"#utility.yul\":200:205   */\n      0x00\n        /* \"#utility.yul\":238:244   */\n      dup2\n        /* \"#utility.yul\":225:245   */\n      calldataload\n        /* \"#utility.yul\":216:245   */\n      swap1\n      pop\n        /* \"#utility.yul\":254:287   */\n      tag_60\n        /* \"#utility.yul\":281:286   */\n      dup2\n        /* \"#utility.yul\":254:287   */\n      tag_61\n      jump\t// in\n    tag_60:\n        /* \"#utility.yul\":154:293   */\n      swap3\n      swap2\n      pop\n      pop\n      jump\t// out\n        /* \"#utility.yul\":299:442   */\n    tag_62:\n        /* \"#utility.yul\":356:361   */\n      0x00\n        /* \"#utility.yul\":387:393   */\n      dup2\n        /* \"#utility.yul\":381:394   */\n      mload\n        /* \"#utility.yul\":372:394   */\n      swap1\n      pop\n        /* \"#utility.yul\":403:436   */\n      tag_64\n        /* \"#utility.yul\":430:435   */\n      dup2\n        /* \"#utility.yul\":403:436   */\n      tag_61\n      jump\t// in\n    tag_64:\n        /* \"#utility.yul\":299:442   */\n      swap3\n      swap2\n      pop\n      pop\n      jump\t// out\n        /* \"#utility.yul\":448:589   */\n    tag_65:\n        /* \"#utility.yul\":504:509   */\n      0x00\n        /* \"#utility.yul\":535:541   */\n      dup2\n        /* \"#utility.yul\":529:542   */\n      mload\n        /* \"#utility.yul\":520:542   */\n      swap1\n      pop\n        /* \"#utility.yul\":551:583   */\n      tag_67\n        /* \"#utility.yul\":577:582   */\n      dup2\n        /* \"#utility.yul\":551:583   */\n      tag_68\n      jump\t// in\n    tag_67:\n        /* \"#utility.yul\":448:589   */\n      swap3\n      swap2\n      pop\n      pop\n      jump\t// out\n        /* \"#utility.yul\":595:924   */\n    tag_25:\n        /* \"#utility.yul\":654:660   */\n      0x00\n        /* \"#utility.yul\":703:705   */\n      0x20\n        /* \"#utility.yul\":691:700   */\n      dup3\n        /* \"#utility.yul\":682:689   */\n      dup5\n        /* \"#utility.yul\":678:701   */\n      sub\n        /* \"#utility.yul\":674:706   */\n      slt\n        /* \"#utility.yul\":671:790   */\n      iszero\n      tag_70\n      jumpi\n        /* \"#utility.yul\":709:788   */\n      tag_71\n      tag_72\n      jump\t// in\n    tag_71:\n        /* \"#utility.yul\":671:790   */\n    tag_70:\n        /* \"#utility.yul\":829:830   */\n      0x00\n        /* \"#utility.yul\":854:907   */\n      tag_73\n        /* \"#utility.yul\":899:906   */\n      dup5\n        /* \"#utility.yul\":890:896   */\n      dup3\n        /* \"#utility.yul\":879:888   */\n      dup6\n        /* \"#utility.yul\":875:897   */\n      add\n        /* \"#utility.yul\":854:907   */\n      tag_58\n      jump\t// in\n    tag_73:\n        /* \"#utility.yul\":844:907   */\n      swap2\n      pop\n        /* \"#utility.yul\":800:917   */\n      pop\n        /* \"#utility.yul\":595:924   */\n      swap3\n      swap2\n      pop\n      pop\n      jump\t// out\n        /* \"#utility.yul\":930:1281   */\n    tag_38:\n        /* \"#utility.yul\":1000:1006   */\n      0x00\n        /* \"#utility.yul\":1049:1051   */\n      0x20\n        /* \"#utility.yul\":1037:1046   */\n      dup3\n        /* \"#utility.yul\":1028:1035   */\n      dup5\n        /* \"#utility.yul\":1024:1047   */\n      sub\n        /* \"#utility.yul\":1020:1052   */\n      slt\n        /* \"#utility.yul\":1017:1136   */\n      iszero\n      tag_75\n      jumpi\n        /* \"#utility.yul\":1055:1134   */\n      tag_76\n      tag_72\n      jump\t// in\n    tag_76:\n        /* \"#utility.yul\":1017:1136   */\n    tag_75:\n        /* \"#utility.yul\":1175:1176   */\n      0x00\n        /* \"#utility.yul\":1200:1264   */\n      tag_77\n        /* \"#utility.yul\":1256:1263   */\n      dup5\n        /* \"#utility.yul\":1247:1253   */\n      dup3\n        /* \"#utility.yul\":1236:1245   */\n      dup6\n        /* \"#utility.yul\":1232:1254   */\n      add\n        /* \"#utility.yul\":1200:1264   */\n      tag_62\n      jump\t// in\n    tag_77:\n        /* \"#utility.yul\":1190:1264   */\n      swap2\n      pop\n        /* \"#utility.yul\":1146:1274   */\n      pop\n        /* \"#utility.yul\":930:1281   */\n      swap3\n      swap2\n      pop\n      pop\n      jump\t// out\n        /* \"#utility.yul\":1287:2258   */\n    tag_44:\n        /* \"#utility.yul\":1390:1396   */\n      0x00\n        /* \"#utility.yul\":1398:1404   */\n      dup1\n        /* \"#utility.yul\":1406:1412   */\n      0x00\n        /* \"#utility.yul\":1414:1420   */\n      dup1\n        /* \"#utility.yul\":1422:1428   */\n      0x00\n        /* \"#utility.yul\":1471:1474   */\n      0xa0\n        /* \"#utility.yul\":1459:1468   */\n      dup7\n        /* \"#utility.yul\":1450:1457   */\n      dup9\n        /* \"#utility.yul\":1446:1469   */\n      sub\n        /* \"#utility.yul\":1442:1475   */\n      slt\n        /* \"#utility.yul\":1439:1559   */\n      iszero\n      tag_79\n      jumpi\n        /* \"#utility.yul\":1478:1557   */\n      tag_80\n      tag_72\n      jump\t// in\n    tag_80:\n        /* \"#utility.yul\":1439:1559   */\n    tag_79:\n        /* \"#utility.yul\":1598:1599   */\n      0x00\n        /* \"#utility.yul\":1623:1686   */\n      tag_81\n        /* \"#utility.yul\":1678:1685   */\n      dup9\n        /* \"#utility.yul\":1669:1675   */\n      dup3\n        /* \"#utility.yul\":1658:1667   */\n      dup10\n        /* \"#utility.yul\":1654:1676   */\n      add\n        /* \"#utility.yul\":1623:1686   */\n      tag_65\n      jump\t// in\n    tag_81:\n        /* \"#utility.yul\":1613:1686   */\n      swap6\n      pop\n        /* \"#utility.yul\":1569:1696   */\n      pop\n        /* \"#utility.yul\":1735:1737   */\n      0x20\n        /* \"#utility.yul\":1761:1824   */\n      tag_82\n        /* \"#utility.yul\":1816:1823   */\n      dup9\n        /* \"#utility.yul\":1807:1813   */\n      dup3\n        /* \"#utility.yul\":1796:1805   */\n      dup10\n        /* \"#utility.yul\":1792:1814   */\n      add\n        /* \"#utility.yul\":1761:1824   */\n      tag_54\n      jump\t// in\n    tag_82:\n        /* \"#utility.yul\":1751:1824   */\n      swap5\n      pop\n        /* \"#utility.yul\":1706:1834   */\n      pop\n        /* \"#utility.yul\":1873:1875   */\n      0x40\n        /* \"#utility.yul\":1899:1963   */\n      tag_83\n        /* \"#utility.yul\":1955:1962   */\n      dup9\n        /* \"#utility.yul\":1946:1952   */\n      dup3\n        /* \"#utility.yul\":1935:1944   */\n      dup10\n        /* \"#utility.yul\":1931:1953   */\n      add\n        /* \"#utility.yul\":1899:1963   */\n      tag_62\n      jump\t// in\n    tag_83:\n        /* \"#utility.yul\":1889:1963   */\n      swap4\n      pop\n        /* \"#utility.yul\":1844:1973   */\n      pop\n        /* \"#utility.yul\":2012:2014   */\n      0x60\n        /* \"#utility.yul\":2038:2102   */\n      tag_84\n        /* \"#utility.yul\":2094:2101   */\n      dup9\n        /* \"#utility.yul\":2085:2091   */\n      dup3\n        /* \"#utility.yul\":2074:2083   */\n      dup10\n        /* \"#utility.yul\":2070:2092   */\n      add\n        /* \"#utility.yul\":2038:2102   */\n      tag_62\n      jump\t// in\n    tag_84:\n        /* \"#utility.yul\":2028:2102   */\n      swap3\n      pop\n        /* \"#utility.yul\":1983:2112   */\n      pop\n        /* \"#utility.yul\":2151:2154   */\n      0x80\n        /* \"#utility.yul\":2178:2241   */\n      tag_85\n        /* \"#utility.yul\":2233:2240   */\n      dup9\n        /* \"#utility.yul\":2224:2230   */\n      dup3\n        /* \"#utility.yul\":2213:2222   */\n      dup10\n        /* \"#utility.yul\":2209:2231   */\n      add\n        /* \"#utility.yul\":2178:2241   */\n      tag_65\n      jump\t// in\n    tag_85:\n        /* \"#utility.yul\":2168:2241   */\n      swap2\n      pop\n        /* \"#utility.yul\":2122:2251   */\n      pop\n        /* \"#utility.yul\":1287:2258   */\n      swap3\n      swap6\n      pop\n      swap3\n      swap6\n      swap1\n      swap4\n      pop\n      jump\t// out\n        /* \"#utility.yul\":2264:2630   */\n    tag_86:\n        /* \"#utility.yul\":2406:2409   */\n      0x00\n        /* \"#utility.yul\":2427:2494   */\n      tag_88\n        /* \"#utility.yul\":2491:2493   */\n      0x29\n        /* \"#utility.yul\":2486:2489   */\n      dup4\n        /* \"#utility.yul\":2427:2494   */\n      tag_89\n      jump\t// in\n    tag_88:\n        /* \"#utility.yul\":2420:2494   */\n      swap2\n      pop\n        /* \"#utility.yul\":2503:2596   */\n      tag_90\n        /* \"#utility.yul\":2592:2595   */\n      dup3\n        /* \"#utility.yul\":2503:2596   */\n      tag_91\n      jump\t// in\n    tag_90:\n        /* \"#utility.yul\":2621:2623   */\n      0x40\n        /* \"#utility.yul\":2616:2619   */\n      dup3\n        /* \"#utility.yul\":2612:2624   */\n      add\n        /* \"#utility.yul\":2605:2624   */\n      swap1\n      pop\n        /* \"#utility.yul\":2264:2630   */\n      swap2\n      swap1\n      pop\n      jump\t// out\n        /* \"#utility.yul\":2636:2754   */\n    tag_92:\n        /* \"#utility.yul\":2723:2747   */\n      tag_94\n        /* \"#utility.yul\":2741:2746   */\n      dup2\n        /* \"#utility.yul\":2723:2747   */\n      tag_95\n      jump\t// in\n    tag_94:\n        /* \"#utility.yul\":2718:2721   */\n      dup3\n        /* \"#utility.yul\":2711:2748   */\n      mstore\n        /* \"#utility.yul\":2636:2754   */\n      pop\n      pop\n      jump\t// out\n        /* \"#utility.yul\":2760:3179   */\n    tag_32:\n        /* \"#utility.yul\":2926:2930   */\n      0x00\n        /* \"#utility.yul\":2964:2966   */\n      0x20\n        /* \"#utility.yul\":2953:2962   */\n      dup3\n        /* \"#utility.yul\":2949:2967   */\n      add\n        /* \"#utility.yul\":2941:2967   */\n      swap1\n      pop\n        /* \"#utility.yul\":3013:3022   */\n      dup2\n        /* \"#utility.yul\":3007:3011   */\n      dup2\n        /* \"#utility.yul\":3003:3023   */\n      sub\n        /* \"#utility.yul\":2999:3000   */\n      0x00\n        /* \"#utility.yul\":2988:2997   */\n      dup4\n        /* \"#utility.yul\":2984:3001   */\n      add\n        /* \"#utility.yul\":2977:3024   */\n      mstore\n        /* \"#utility.yul\":3041:3172   */\n      tag_97\n        /* \"#utility.yul\":3167:3171   */\n      dup2\n        /* \"#utility.yul\":3041:3172   */\n      tag_86\n      jump\t// in\n    tag_97:\n        /* \"#utility.yul\":3033:3172   */\n      swap1\n      pop\n        /* \"#utility.yul\":2760:3179   */\n      swap2\n      swap1\n      pop\n      jump\t// out\n        /* \"#utility.yul\":3185:3407   */\n    tag_13:\n        /* \"#utility.yul\":3278:3282   */\n      0x00\n        /* \"#utility.yul\":3316:3318   */\n      0x20\n        /* \"#utility.yul\":3305:3314   */\n      dup3\n        /* \"#utility.yul\":3301:3319   */\n      add\n        /* \"#utility.yul\":3293:3319   */\n      swap1\n      pop\n        /* \"#utility.yul\":3329:3400   */\n      tag_99\n        /* \"#utility.yul\":3397:3398   */\n      0x00\n        /* \"#utility.yul\":3386:3395   */\n      dup4\n        /* \"#utility.yul\":3382:3399   */\n      add\n        /* \"#utility.yul\":3373:3379   */\n      dup5\n        /* \"#utility.yul\":3329:3400   */\n      tag_92\n      jump\t// in\n    tag_99:\n        /* \"#utility.yul\":3185:3407   */\n      swap3\n      swap2\n      pop\n      pop\n      jump\t// out\n        /* \"#utility.yul\":3494:3663   */\n    tag_89:\n        /* \"#utility.yul\":3578:3589   */\n      0x00\n        /* \"#utility.yul\":3612:3618   */\n      dup3\n        /* \"#utility.yul\":3607:3610   */\n      dup3\n        /* \"#utility.yul\":3600:3619   */\n      mstore\n        /* \"#utility.yul\":3652:3656   */\n      0x20\n        /* \"#utility.yul\":3647:3650   */\n      dup3\n        /* \"#utility.yul\":3643:3657   */\n      add\n        /* \"#utility.yul\":3628:3657   */\n      swap1\n      pop\n        /* \"#utility.yul\":3494:3663   */\n      swap3\n      swap2\n      pop\n      pop\n      jump\t// out\n        /* \"#utility.yul\":3669:3854   */\n    tag_52:\n        /* \"#utility.yul\":3709:3710   */\n      0x00\n        /* \"#utility.yul\":3726:3746   */\n      tag_104\n        /* \"#utility.yul\":3744:3745   */\n      dup3\n        /* \"#utility.yul\":3726:3746   */\n      tag_95\n      jump\t// in\n    tag_104:\n        /* \"#utility.yul\":3721:3746   */\n      swap2\n      pop\n        /* \"#utility.yul\":3760:3780   */\n      tag_105\n        /* \"#utility.yul\":3778:3779   */\n      dup4\n        /* \"#utility.yul\":3760:3780   */\n      tag_95\n      jump\t// in\n    tag_105:\n        /* \"#utility.yul\":3755:3780   */\n      swap3\n      pop\n        /* \"#utility.yul\":3799:3800   */\n      dup3\n        /* \"#utility.yul\":3789:3824   */\n      tag_106\n      jumpi\n        /* \"#utility.yul\":3804:3822   */\n      tag_107\n      tag_108\n      jump\t// in\n    tag_107:\n        /* \"#utility.yul\":3789:3824   */\n    tag_106:\n        /* \"#utility.yul\":3846:3847   */\n      dup3\n        /* \"#utility.yul\":3843:3844   */\n      dup3\n        /* \"#utility.yul\":3839:3848   */\n      div\n        /* \"#utility.yul\":3834:3848   */\n      swap1\n      pop\n        /* \"#utility.yul\":3669:3854   */\n      swap3\n      swap2\n      pop\n      pop\n      jump\t// out\n        /* \"#utility.yul\":3860:4851   */\n    tag_46:\n        /* \"#utility.yul\":3899:3906   */\n      0x00\n        /* \"#utility.yul\":3922:3941   */\n      tag_110\n        /* \"#utility.yul\":3939:3940   */\n      dup3\n        /* \"#utility.yul\":3922:3941   */\n      tag_111\n      jump\t// in\n    tag_110:\n        /* \"#utility.yul\":3917:3941   */\n      swap2\n      pop\n        /* \"#utility.yul\":3955:3974   */\n      tag_112\n        /* \"#utility.yul\":3972:3973   */\n      dup4\n        /* \"#utility.yul\":3955:3974   */\n      tag_111\n      jump\t// in\n    tag_112:\n        /* \"#utility.yul\":3950:3974   */\n      swap3\n      pop\n        /* \"#utility.yul\":4156:4157   */\n      dup3\n        /* \"#utility.yul\":4088:4154   */\n      0x7fffffffffffffffffffffffffffffffffffffffffffffffffffffffffffffff\n        /* \"#utility.yul\":4084:4158   */\n      div\n        /* \"#utility.yul\":4081:4082   */\n      dup3\n        /* \"#utility.yul\":4078:4159   */\n      gt\n        /* \"#utility.yul\":4073:4074   */\n      0x00\n        /* \"#utility.yul\":4070:4071   */\n      dup5\n        /* \"#utility.yul\":4066:4075   */\n      sgt\n        /* \"#utility.yul\":4062:4063   */\n      0x00\n        /* \"#utility.yul\":4059:4060   */\n      dup5\n        /* \"#utility.yul\":4055:4064   */\n      sgt\n        /* \"#utility.yul\":4051:4076   */\n      and\n        /* \"#utility.yul\":4047:4160   */\n      and\n        /* \"#utility.yul\":4044:4183   */\n      iszero\n      tag_113\n      jumpi\n        /* \"#utility.yul\":4163:4181   */\n      tag_114\n      tag_115\n      jump\t// in\n    tag_114:\n        /* \"#utility.yul\":4044:4183   */\n    tag_113:\n        /* \"#utility.yul\":4367:4368   */\n      dup2\n        /* \"#utility.yul\":4299:4365   */\n      0x8000000000000000000000000000000000000000000000000000000000000000\n        /* \"#utility.yul\":4294:4369   */\n      sdiv\n        /* \"#utility.yul\":4291:4292   */\n      dup4\n        /* \"#utility.yul\":4287:4370   */\n      slt\n        /* \"#utility.yul\":4282:4283   */\n      0x00\n        /* \"#utility.yul\":4279:4280   */\n      dup5\n        /* \"#utility.yul\":4275:4284   */\n      slt\n        /* \"#utility.yul\":4271:4272   */\n      0x00\n        /* \"#utility.yul\":4268:4269   */\n      dup5\n        /* \"#utility.yul\":4264:4273   */\n      sgt\n        /* \"#utility.yul\":4260:4285   */\n      and\n        /* \"#utility.yul\":4256:4371   */\n      and\n        /* \"#utility.yul\":4253:4394   */\n      iszero\n      tag_116\n      jumpi\n        /* \"#utility.yul\":4374:4392   */\n      tag_117\n      tag_115\n      jump\t// in\n    tag_117:\n        /* \"#utility.yul\":4253:4394   */\n    tag_116:\n        /* \"#utility.yul\":4578:4579   */\n      dup3\n        /* \"#utility.yul\":4510:4576   */\n      0x8000000000000000000000000000000000000000000000000000000000000000\n        /* \"#utility.yul\":4505:4580   */\n      sdiv\n        /* \"#utility.yul\":4502:4503   */\n      dup3\n        /* \"#utility.yul\":4498:4581   */\n      slt\n        /* \"#utility.yul\":4493:4494   */\n      0x00\n        /* \"#utility.yul\":4490:4491   */\n      dup5\n        /* \"#utility.yul\":4486:4495   */\n      sgt\n        /* \"#utility.yul\":4482:4483   */\n      0x00\n        /* \"#utility.yul\":4479:4480   */\n      dup5\n        /* \"#utility.yul\":4475:4484   */\n      slt\n        /* \"#utility.yul\":4471:4496   */\n      and\n        /* \"#utility.yul\":4467:4582   */\n      and\n        /* \"#utility.yul\":4464:4605   */\n      iszero\n      tag_118\n      jumpi\n        /* \"#utility.yul\":4585:4603   */\n      tag_119\n      tag_115\n      jump\t// in\n    tag_119:\n        /* \"#utility.yul\":4464:4605   */\n    tag_118:\n        /* \"#utility.yul\":4788:4789   */\n      dup3\n        /* \"#utility.yul\":4720:4786   */\n      0x7fffffffffffffffffffffffffffffffffffffffffffffffffffffffffffffff\n        /* \"#utility.yul\":4715:4790   */\n      sdiv\n        /* \"#utility.yul\":4712:4713   */\n      dup3\n        /* \"#utility.yul\":4708:4791   */\n      slt\n        /* \"#utility.yul\":4703:4704   */\n      0x00\n        /* \"#utility.yul\":4700:4701   */\n      dup5\n        /* \"#utility.yul\":4696:4705   */\n      slt\n        /* \"#utility.yul\":4692:4693   */\n      0x00\n        /* \"#utility.yul\":4689:4690   */\n      dup5\n        /* \"#utility.yul\":4685:4694   */\n      slt\n        /* \"#utility.yul\":4681:4706   */\n      and\n        /* \"#utility.yul\":4677:4792   */\n      and\n        /* \"#utility.yul\":4674:4815   */\n      iszero\n      tag_120\n      jumpi\n        /* \"#utility.yul\":4795:4813   */\n      tag_121\n      tag_115\n      jump\t// in\n    tag_121:\n        /* \"#utility.yul\":4674:4815   */\n    tag_120:\n        /* \"#utility.yul\":4843:4844   */\n      dup3\n        /* \"#utility.yul\":4840:4841   */\n      dup3\n        /* \"#utility.yul\":4836:4845   */\n      mul\n        /* \"#utility.yul\":4825:4845   */\n      swap1\n      pop\n        /* \"#utility.yul\":3860:4851   */\n      swap3\n      swap2\n      pop\n      pop\n      jump\t// out\n        /* \"#utility.yul\":4857:5205   */\n    tag_50:\n        /* \"#utility.yul\":4897:4904   */\n      0x00\n        /* \"#utility.yul\":4920:4940   */\n      tag_123\n        /* \"#utility.yul\":4938:4939   */\n      dup3\n        /* \"#utility.yul\":4920:4940   */\n      tag_95\n      jump\t// in\n    tag_123:\n        /* \"#utility.yul\":4915:4940   */\n      swap2\n      pop\n        /* \"#utility.yul\":4954:4974   */\n      tag_124\n        /* \"#utility.yul\":4972:4973   */\n      dup4\n        /* \"#utility.yul\":4954:4974   */\n      tag_95\n      jump\t// in\n    tag_124:\n        /* \"#utility.yul\":4949:4974   */\n      swap3\n      pop\n        /* \"#utility.yul\":5142:5143   */\n      dup2\n        /* \"#utility.yul\":5074:5140   */\n      0xffffffffffffffffffffffffffffffffffffffffffffffffffffffffffffffff\n        /* \"#utility.yul\":5070:5144   */\n      div\n        /* \"#utility.yul\":5067:5068   */\n      dup4\n        /* \"#utility.yul\":5064:5145   */\n      gt\n        /* \"#utility.yul\":5059:5060   */\n      dup3\n        /* \"#utility.yul\":5052:5061   */\n      iszero\n        /* \"#utility.yul\":5045:5062   */\n      iszero\n        /* \"#utility.yul\":5041:5146   */\n      and\n        /* \"#utility.yul\":5038:5169   */\n      iszero\n      tag_125\n      jumpi\n        /* \"#utility.yul\":5149:5167   */\n      tag_126\n      tag_115\n      jump\t// in\n    tag_126:\n        /* \"#utility.yul\":5038:5169   */\n    tag_125:\n        /* \"#utility.yul\":5197:5198   */\n      dup3\n        /* \"#utility.yul\":5194:5195   */\n      dup3\n        /* \"#utility.yul\":5190:5199   */\n      mul\n        /* \"#utility.yul\":5179:5199   */\n      swap1\n      pop\n        /* \"#utility.yul\":4857:5205   */\n      swap3\n      swap2\n      pop\n      pop\n      jump\t// out\n        /* \"#utility.yul\":5211:5287   */\n    tag_111:\n        /* \"#utility.yul\":5247:5254   */\n      0x00\n        /* \"#utility.yul\":5276:5281   */\n      dup2\n        /* \"#utility.yul\":5265:5281   */\n      swap1\n      pop\n        /* \"#utility.yul\":5211:5287   */\n      swap2\n      swap1\n      pop\n      jump\t// out\n        /* \"#utility.yul\":5293:5370   */\n    tag_95:\n        /* \"#utility.yul\":5330:5337   */\n      0x00\n        /* \"#utility.yul\":5359:5364   */\n      dup2\n        /* \"#utility.yul\":5348:5364   */\n      swap1\n      pop\n        /* \"#utility.yul\":5293:5370   */\n      swap2\n      swap1\n      pop\n      jump\t// out\n        /* \"#utility.yul\":5376:5481   */\n    tag_129:\n        /* \"#utility.yul\":5412:5419   */\n      0x00\n        /* \"#utility.yul\":5452:5474   */\n      0xffffffffffffffffffff\n        /* \"#utility.yul\":5445:5450   */\n      dup3\n        /* \"#utility.yul\":5441:5475   */\n      and\n        /* \"#utility.yul\":5430:5475   */\n      swap1\n      pop\n        /* \"#utility.yul\":5376:5481   */\n      swap2\n      swap1\n      pop\n      jump\t// out\n        /* \"#utility.yul\":5487:5667   */\n    tag_115:\n        /* \"#utility.yul\":5535:5612   */\n      0x4e487b7100000000000000000000000000000000000000000000000000000000\n        /* \"#utility.yul\":5532:5533   */\n      0x00\n        /* \"#utility.yul\":5525:5613   */\n      mstore\n        /* \"#utility.yul\":5632:5636   */\n      0x11\n        /* \"#utility.yul\":5629:5630   */\n      0x04\n        /* \"#utility.yul\":5622:5637   */\n      mstore\n        /* \"#utility.yul\":5656:5660   */\n      0x24\n        /* \"#utility.yul\":5653:5654   */\n      0x00\n        /* \"#utility.yul\":5646:5661   */\n      revert\n        /* \"#utility.yul\":5673:5853   */\n    tag_108:\n        /* \"#utility.yul\":5721:5798   */\n      0x4e487b7100000000000000000000000000000000000000000000000000000000\n        /* \"#utility.yul\":5718:5719   */\n      0x00\n        /* \"#utility.yul\":5711:5799   */\n      mstore\n        /* \"#utility.yul\":5818:5822   */\n      0x12\n        /* \"#utility.yul\":5815:5816   */\n      0x04\n        /* \"#utility.yul\":5808:5823   */\n      mstore\n        /* \"#utility.yul\":5842:5846   */\n      0x24\n        /* \"#utility.yul\":5839:5840   */\n      0x00\n        /* \"#utility.yul\":5832:5847   */\n      revert\n        /* \"#utility.yul\":5982:6099   */\n    tag_72:\n        /* \"#utility.yul\":6091:6092   */\n      0x00\n        /* \"#utility.yul\":6088:6089   */\n      dup1\n        /* \"#utility.yul\":6081:6093   */\n      revert\n        /* \"#utility.yul\":6105:6333   */\n    tag_91:\n        /* \"#utility.yul\":6245:6279   */\n      0x546865206d696e696d756d20616d6f756e74206f662066756e6420776f756c64\n        /* \"#utility.yul\":6241:6242   */\n      0x00\n        /* \"#utility.yul\":6233:6239   */\n      dup3\n        /* \"#utility.yul\":6229:6243   */\n      add\n        /* \"#utility.yul\":6222:6280   */\n      mstore\n        /* \"#utility.yul\":6314:6325   */\n      0x2062652031206574680000000000000000000000000000000000000000000000\n        /* \"#utility.yul\":6309:6311   */\n      0x20\n        /* \"#utility.yul\":6301:6307   */\n      dup3\n        /* \"#utility.yul\":6297:6312   */\n      add\n        /* \"#utility.yul\":6290:6326   */\n      mstore\n        /* \"#utility.yul\":6105:6333   */\n      pop\n      jump\t// out\n        /* \"#utility.yul\":6339:6459   */\n    tag_57:\n        /* \"#utility.yul\":6411:6434   */\n      tag_138\n        /* \"#utility.yul\":6428:6433   */\n      dup2\n        /* \"#utility.yul\":6411:6434   */\n      tag_111\n      jump\t// in\n    tag_138:\n        /* \"#utility.yul\":6404:6409   */\n      dup2\n        /* \"#utility.yul\":6401:6435   */\n      eq\n        /* \"#utility.yul\":6391:6453   */\n      tag_139\n      jumpi\n        /* \"#utility.yul\":6449:6450   */\n      0x00\n        /* \"#utility.yul\":6446:6447   */\n      dup1\n        /* \"#utility.yul\":6439:6451   */\n      revert\n        /* \"#utility.yul\":6391:6453   */\n    tag_139:\n        /* \"#utility.yul\":6339:6459   */\n      pop\n      jump\t// out\n        /* \"#utility.yul\":6465:6587   */\n    tag_61:\n        /* \"#utility.yul\":6538:6562   */\n      tag_141\n        /* \"#utility.yul\":6556:6561   */\n      dup2\n        /* \"#utility.yul\":6538:6562   */\n      tag_95\n      jump\t// in\n    tag_141:\n        /* \"#utility.yul\":6531:6536   */\n      dup2\n        /* \"#utility.yul\":6528:6563   */\n      eq\n        /* \"#utility.yul\":6518:6581   */\n      tag_142\n      jumpi\n        /* \"#utility.yul\":6577:6578   */\n      0x00\n        /* \"#utility.yul\":6574:6575   */\n      dup1\n        /* \"#utility.yul\":6567:6579   */\n      revert\n        /* \"#utility.yul\":6518:6581   */\n    tag_142:\n        /* \"#utility.yul\":6465:6587   */\n      pop\n      jump\t// out\n        /* \"#utility.yul\":6593:6713   */\n    tag_68:\n        /* \"#utility.yul\":6665:6688   */\n      tag_144\n        /* \"#utility.yul\":6682:6687   */\n      dup2\n        /* \"#utility.yul\":6665:6688   */\n      tag_129\n      jump\t// in\n    tag_144:\n        /* \"#utility.yul\":6658:6663   */\n      dup2\n        /* \"#utility.yul\":6655:6689   */\n      eq\n        /* \"#utility.yul\":6645:6707   */\n      tag_145\n      jumpi\n        /* \"#utility.yul\":6703:6704   */\n      0x00\n        /* \"#utility.yul\":6700:6701   */\n      dup1\n        /* \"#utility.yul\":6693:6705   */\n      revert\n        /* \"#utility.yul\":6645:6707   */\n    tag_145:\n        /* \"#utility.yul\":6593:6713   */\n      pop\n      jump\t// out\n\n    auxdata: 0xa26469706673582212205e0e7756988cfe7eda90ddbe1d7da7562bcf290365f4f6cb13ce6a29fa81540464736f6c63430008070033\n}\n",
				"bytecode": {
					"linkReferences": {},
					"object": "6080604052603260005534801561001557600080fd5b50738a753747a1fa494ec906ce90e9f37563a8af630e600160006101000a81548173ffffffffffffffffffffffffffffffffffffffff021916908373ffffffffffffffffffffffffffffffffffffffff1602179055506107ac8061007a6000396000f3fe6080604052600436106100495760003560e01c80625c33e11461004e578063098de820146100585780630d8e6e2c1461008357806398d5fdca146100ae578063ba4d0c99146100d9575b600080fd5b610056610116565b005b34801561006457600080fd5b5061006d610165565b60405161007a9190610487565b60405180910390f35b34801561008f57600080fd5b5061009861016b565b6040516100a59190610487565b60405180910390f35b3480156100ba57600080fd5b506100c3610212565b6040516100d09190610487565b60405180910390f35b3480156100e557600080fd5b5061010060048036038101906100fb9190610360565b6102d2565b60405161010d9190610487565b60405180910390f35b600054610122346102d2565b1015610163576040517f08c379a000000000000000000000000000000000000000000000000000000000815260040161015a90610467565b60405180910390fd5b565b60005481565b6000600160009054906101000a900473ffffffffffffffffffffffffffffffffffffffff1673ffffffffffffffffffffffffffffffffffffffff166354fd4d506040518163ffffffff1660e01b815260040160206040518083038186803b1580156101d557600080fd5b505afa1580156101e9573d6000803e3d6000fd5b505050506040513d601f19601f8201168201806040525081019061020d919061038d565b905090565b600080600160009054906101000a900473ffffffffffffffffffffffffffffffffffffffff1673ffffffffffffffffffffffffffffffffffffffff1663feaf968c6040518163ffffffff1660e01b815260040160a06040518083038186803b15801561027d57600080fd5b505afa158015610291573d6000803e3d6000fd5b505050506040513d601f19601f820116820180604052508101906102b591906103ba565b5050509150506402540be400816102cc91906104e4565b91505090565b6000806102dd610212565b90506000670de0b6b3a764000082856102f691906105fb565b61030091906104b3565b90508092505050919050565b60008151905061031b81610731565b92915050565b60008135905061033081610748565b92915050565b60008151905061034581610748565b92915050565b60008151905061035a8161075f565b92915050565b600060208284031215610376576103756106dd565b5b600061038484828501610321565b91505092915050565b6000602082840312156103a3576103a26106dd565b5b60006103b184828501610336565b91505092915050565b600080600080600060a086880312156103d6576103d56106dd565b5b60006103e48882890161034b565b95505060206103f58882890161030c565b945050604061040688828901610336565b935050606061041788828901610336565b92505060806104288882890161034b565b9150509295509295909350565b60006104426029836104a2565b915061044d826106e2565b604082019050919050565b6104618161065f565b82525050565b6000602082019050818103600083015261048081610435565b9050919050565b600060208201905061049c6000830184610458565b92915050565b600082825260208201905092915050565b60006104be8261065f565b91506104c98361065f565b9250826104d9576104d86106ae565b5b828204905092915050565b60006104ef82610655565b91506104fa83610655565b9250827f7fffffffffffffffffffffffffffffffffffffffffffffffffffffffffffffff04821160008413600084131616156105395761053861067f565b5b817f800000000000000000000000000000000000000000000000000000000000000005831260008412600084131616156105765761057561067f565b5b827f800000000000000000000000000000000000000000000000000000000000000005821260008413600084121616156105b3576105b261067f565b5b827f7fffffffffffffffffffffffffffffffffffffffffffffffffffffffffffffff05821260008412600084121616156105f0576105ef61067f565b5b828202905092915050565b60006106068261065f565b91506106118361065f565b9250817fffffffffffffffffffffffffffffffffffffffffffffffffffffffffffffffff048311821515161561064a5761064961067f565b5b828202905092915050565b6000819050919050565b6000819050919050565b600069ffffffffffffffffffff82169050919050565b7f4e487b7100000000000000000000000000000000000000000000000000000000600052601160045260246000fd5b7f4e487b7100000000000000000000000000000000000000000000000000000000600052601260045260246000fd5b600080fd5b7f546865206d696e696d756d20616d6f756e74206f662066756e6420776f756c6460008201527f2062652031206574680000000000000000000000000000000000000000000000602082015250565b61073a81610655565b811461074557600080fd5b50565b6107518161065f565b811461075c57600080fd5b50565b61076881610669565b811461077357600080fd5b5056fea26469706673582212205e0e7756988cfe7eda90ddbe1d7da7562bcf290365f4f6cb13ce6a29fa81540464736f6c63430008070033",
					"opcodes": "PUSH1 0x80 PUSH1 0x40 MSTORE PUSH1 0x32 PUSH1 0x0 SSTORE CALLVALUE DUP1 ISZERO PUSH2 0x15 JUMPI PUSH1 0x0 DUP1 REVERT JUMPDEST POP PUSH20 0x8A753747A1FA494EC906CE90E9F37563A8AF630E PUSH1 0x1 PUSH1 0x0 PUSH2 0x100 EXP DUP2 SLOAD DUP2 PUSH20 0xFFFFFFFFFFFFFFFFFFFFFFFFFFFFFFFFFFFFFFFF MUL NOT AND SWAP1 DUP4 PUSH20 0xFFFFFFFFFFFFFFFFFFFFFFFFFFFFFFFFFFFFFFFF AND MUL OR SWAP1 SSTORE POP PUSH2 0x7AC DUP1 PUSH2 0x7A PUSH1 0x0 CODECOPY PUSH1 0x0 RETURN INVALID PUSH1 0x80 PUSH1 0x40 MSTORE PUSH1 0x4 CALLDATASIZE LT PUSH2 0x49 JUMPI PUSH1 0x0 CALLDATALOAD PUSH1 0xE0 SHR DUP1 PUSH3 0x5C33E1 EQ PUSH2 0x4E JUMPI DUP1 PUSH4 0x98DE820 EQ PUSH2 0x58 JUMPI DUP1 PUSH4 0xD8E6E2C EQ PUSH2 0x83 JUMPI DUP1 PUSH4 0x98D5FDCA EQ PUSH2 0xAE JUMPI DUP1 PUSH4 0xBA4D0C99 EQ PUSH2 0xD9 JUMPI JUMPDEST PUSH1 0x0 DUP1 REVERT JUMPDEST PUSH2 0x56 PUSH2 0x116 JUMP JUMPDEST STOP JUMPDEST CALLVALUE DUP1 ISZERO PUSH2 0x64 JUMPI PUSH1 0x0 DUP1 REVERT JUMPDEST POP PUSH2 0x6D PUSH2 0x165 JUMP JUMPDEST PUSH1 0x40 MLOAD PUSH2 0x7A SWAP2 SWAP1 PUSH2 0x487 JUMP JUMPDEST PUSH1 0x40 MLOAD DUP1 SWAP2 SUB SWAP1 RETURN JUMPDEST CALLVALUE DUP1 ISZERO PUSH2 0x8F JUMPI PUSH1 0x0 DUP1 REVERT JUMPDEST POP PUSH2 0x98 PUSH2 0x16B JUMP JUMPDEST PUSH1 0x40 MLOAD PUSH2 0xA5 SWAP2 SWAP1 PUSH2 0x487 JUMP JUMPDEST PUSH1 0x40 MLOAD DUP1 SWAP2 SUB SWAP1 RETURN JUMPDEST CALLVALUE DUP1 ISZERO PUSH2 0xBA JUMPI PUSH1 0x0 DUP1 REVERT JUMPDEST POP PUSH2 0xC3 PUSH2 0x212 JUMP JUMPDEST PUSH1 0x40 MLOAD PUSH2 0xD0 SWAP2 SWAP1 PUSH2 0x487 JUMP JUMPDEST PUSH1 0x40 MLOAD DUP1 SWAP2 SUB SWAP1 RETURN JUMPDEST CALLVALUE DUP1 ISZERO PUSH2 0xE5 JUMPI PUSH1 0x0 DUP1 REVERT JUMPDEST POP PUSH2 0x100 PUSH1 0x4 DUP1 CALLDATASIZE SUB DUP2 ADD SWAP1 PUSH2 0xFB SWAP2 SWAP1 PUSH2 0x360 JUMP JUMPDEST PUSH2 0x2D2 JUMP JUMPDEST PUSH1 0x40 MLOAD PUSH2 0x10D SWAP2 SWAP1 PUSH2 0x487 JUMP JUMPDEST PUSH1 0x40 MLOAD DUP1 SWAP2 SUB SWAP1 RETURN JUMPDEST PUSH1 0x0 SLOAD PUSH2 0x122 CALLVALUE PUSH2 0x2D2 JUMP JUMPDEST LT ISZERO PUSH2 0x163 JUMPI PUSH1 0x40 MLOAD PUSH32 0x8C379A000000000000000000000000000000000000000000000000000000000 DUP2 MSTORE PUSH1 0x4 ADD PUSH2 0x15A SWAP1 PUSH2 0x467 JUMP JUMPDEST PUSH1 0x40 MLOAD DUP1 SWAP2 SUB SWAP1 REVERT JUMPDEST JUMP JUMPDEST PUSH1 0x0 SLOAD DUP2 JUMP JUMPDEST PUSH1 0x0 PUSH1 0x1 PUSH1 0x0 SWAP1 SLOAD SWAP1 PUSH2 0x100 EXP SWAP1 DIV PUSH20 0xFFFFFFFFFFFFFFFFFFFFFFFFFFFFFFFFFFFFFFFF AND PUSH20 0xFFFFFFFFFFFFFFFFFFFFFFFFFFFFFFFFFFFFFFFF AND PUSH4 0x54FD4D50 PUSH1 0x40 MLOAD DUP2 PUSH4 0xFFFFFFFF AND PUSH1 0xE0 SHL DUP2 MSTORE PUSH1 0x4 ADD PUSH1 0x20 PUSH1 0x40 MLOAD DUP1 DUP4 SUB DUP2 DUP7 DUP1 EXTCODESIZE ISZERO DUP1 ISZERO PUSH2 0x1D5 JUMPI PUSH1 0x0 DUP1 REVERT JUMPDEST POP GAS STATICCALL ISZERO DUP1 ISZERO PUSH2 0x1E9 JUMPI RETURNDATASIZE PUSH1 0x0 DUP1 RETURNDATACOPY RETURNDATASIZE PUSH1 0x0 REVERT JUMPDEST POP POP POP POP PUSH1 0x40 MLOAD RETURNDATASIZE PUSH1 0x1F NOT PUSH1 0x1F DUP3 ADD AND DUP3 ADD DUP1 PUSH1 0x40 MSTORE POP DUP2 ADD SWAP1 PUSH2 0x20D SWAP2 SWAP1 PUSH2 0x38D JUMP JUMPDEST SWAP1 POP SWAP1 JUMP JUMPDEST PUSH1 0x0 DUP1 PUSH1 0x1 PUSH1 0x0 SWAP1 SLOAD SWAP1 PUSH2 0x100 EXP SWAP1 DIV PUSH20 0xFFFFFFFFFFFFFFFFFFFFFFFFFFFFFFFFFFFFFFFF AND PUSH20 0xFFFFFFFFFFFFFFFFFFFFFFFFFFFFFFFFFFFFFFFF AND PUSH4 0xFEAF968C PUSH1 0x40 MLOAD DUP2 PUSH4 0xFFFFFFFF AND PUSH1 0xE0 SHL DUP2 MSTORE PUSH1 0x4 ADD PUSH1 0xA0 PUSH1 0x40 MLOAD DUP1 DUP4 SUB DUP2 DUP7 DUP1 EXTCODESIZE ISZERO DUP1 ISZERO PUSH2 0x27D JUMPI PUSH1 0x0 DUP1 REVERT JUMPDEST POP GAS STATICCALL ISZERO DUP1 ISZERO PUSH2 0x291 JUMPI RETURNDATASIZE PUSH1 0x0 DUP1 RETURNDATACOPY RETURNDATASIZE PUSH1 0x0 REVERT JUMPDEST POP POP POP POP PUSH1 0x40 MLOAD RETURNDATASIZE PUSH1 0x1F NOT PUSH1 0x1F DUP3 ADD AND DUP3 ADD DUP1 PUSH1 0x40 MSTORE POP DUP2 ADD SWAP1 PUSH2 0x2B5 SWAP2 SWAP1 PUSH2 0x3BA JUMP JUMPDEST POP POP POP SWAP2 POP POP PUSH5 0x2540BE400 DUP2 PUSH2 0x2CC SWAP2 SWAP1 PUSH2 0x4E4 JUMP JUMPDEST SWAP2 POP POP SWAP1 JUMP JUMPDEST PUSH1 0x0 DUP1 PUSH2 0x2DD PUSH2 0x212 JUMP JUMPDEST SWAP1 POP PUSH1 0x0 PUSH8 0xDE0B6B3A7640000 DUP3 DUP6 PUSH2 0x2F6 SWAP2 SWAP1 PUSH2 0x5FB JUMP JUMPDEST PUSH2 0x300 SWAP2 SWAP1 PUSH2 0x4B3 JUMP JUMPDEST SWAP1 POP DUP1 SWAP3 POP POP POP SWAP2 SWAP1 POP JUMP JUMPDEST PUSH1 0x0 DUP2 MLOAD SWAP1 POP PUSH2 0x31B DUP2 PUSH2 0x731 JUMP JUMPDEST SWAP3 SWAP2 POP POP JUMP JUMPDEST PUSH1 0x0 DUP2 CALLDATALOAD SWAP1 POP PUSH2 0x330 DUP2 PUSH2 0x748 JUMP JUMPDEST SWAP3 SWAP2 POP POP JUMP JUMPDEST PUSH1 0x0 DUP2 MLOAD SWAP1 POP PUSH2 0x345 DUP2 PUSH2 0x748 JUMP JUMPDEST SWAP3 SWAP2 POP POP JUMP JUMPDEST PUSH1 0x0 DUP2 MLOAD SWAP1 POP PUSH2 0x35A DUP2 PUSH2 0x75F JUMP JUMPDEST SWAP3 SWAP2 POP POP JUMP JUMPDEST PUSH1 0x0 PUSH1 0x20 DUP3 DUP5 SUB SLT ISZERO PUSH2 0x376 JUMPI PUSH2 0x375 PUSH2 0x6DD JUMP JUMPDEST JUMPDEST PUSH1 0x0 PUSH2 0x384 DUP5 DUP3 DUP6 ADD PUSH2 0x321 JUMP JUMPDEST SWAP2 POP POP SWAP3 SWAP2 POP POP JUMP JUMPDEST PUSH1 0x0 PUSH1 0x20 DUP3 DUP5 SUB SLT ISZERO PUSH2 0x3A3 JUMPI PUSH2 0x3A2 PUSH2 0x6DD JUMP JUMPDEST JUMPDEST PUSH1 0x0 PUSH2 0x3B1 DUP5 DUP3 DUP6 ADD PUSH2 0x336 JUMP JUMPDEST SWAP2 POP POP SWAP3 SWAP2 POP POP JUMP JUMPDEST PUSH1 0x0 DUP1 PUSH1 0x0 DUP1 PUSH1 0x0 PUSH1 0xA0 DUP7 DUP9 SUB SLT ISZERO PUSH2 0x3D6 JUMPI PUSH2 0x3D5 PUSH2 0x6DD JUMP JUMPDEST JUMPDEST PUSH1 0x0 PUSH2 0x3E4 DUP9 DUP3 DUP10 ADD PUSH2 0x34B JUMP JUMPDEST SWAP6 POP POP PUSH1 0x20 PUSH2 0x3F5 DUP9 DUP3 DUP10 ADD PUSH2 0x30C JUMP JUMPDEST SWAP5 POP POP PUSH1 0x40 PUSH2 0x406 DUP9 DUP3 DUP10 ADD PUSH2 0x336 JUMP JUMPDEST SWAP4 POP POP PUSH1 0x60 PUSH2 0x417 DUP9 DUP3 DUP10 ADD PUSH2 0x336 JUMP JUMPDEST SWAP3 POP POP PUSH1 0x80 PUSH2 0x428 DUP9 DUP3 DUP10 ADD PUSH2 0x34B JUMP JUMPDEST SWAP2 POP POP SWAP3 SWAP6 POP SWAP3 SWAP6 SWAP1 SWAP4 POP JUMP JUMPDEST PUSH1 0x0 PUSH2 0x442 PUSH1 0x29 DUP4 PUSH2 0x4A2 JUMP JUMPDEST SWAP2 POP PUSH2 0x44D DUP3 PUSH2 0x6E2 JUMP JUMPDEST PUSH1 0x40 DUP3 ADD SWAP1 POP SWAP2 SWAP1 POP JUMP JUMPDEST PUSH2 0x461 DUP2 PUSH2 0x65F JUMP JUMPDEST DUP3 MSTORE POP POP JUMP JUMPDEST PUSH1 0x0 PUSH1 0x20 DUP3 ADD SWAP1 POP DUP2 DUP2 SUB PUSH1 0x0 DUP4 ADD MSTORE PUSH2 0x480 DUP2 PUSH2 0x435 JUMP JUMPDEST SWAP1 POP SWAP2 SWAP1 POP JUMP JUMPDEST PUSH1 0x0 PUSH1 0x20 DUP3 ADD SWAP1 POP PUSH2 0x49C PUSH1 0x0 DUP4 ADD DUP5 PUSH2 0x458 JUMP JUMPDEST SWAP3 SWAP2 POP POP JUMP JUMPDEST PUSH1 0x0 DUP3 DUP3 MSTORE PUSH1 0x20 DUP3 ADD SWAP1 POP SWAP3 SWAP2 POP POP JUMP JUMPDEST PUSH1 0x0 PUSH2 0x4BE DUP3 PUSH2 0x65F JUMP JUMPDEST SWAP2 POP PUSH2 0x4C9 DUP4 PUSH2 0x65F JUMP JUMPDEST SWAP3 POP DUP3 PUSH2 0x4D9 JUMPI PUSH2 0x4D8 PUSH2 0x6AE JUMP JUMPDEST JUMPDEST DUP3 DUP3 DIV SWAP1 POP SWAP3 SWAP2 POP POP JUMP JUMPDEST PUSH1 0x0 PUSH2 0x4EF DUP3 PUSH2 0x655 JUMP JUMPDEST SWAP2 POP PUSH2 0x4FA DUP4 PUSH2 0x655 JUMP JUMPDEST SWAP3 POP DUP3 PUSH32 0x7FFFFFFFFFFFFFFFFFFFFFFFFFFFFFFFFFFFFFFFFFFFFFFFFFFFFFFFFFFFFFFF DIV DUP3 GT PUSH1 0x0 DUP5 SGT PUSH1 0x0 DUP5 SGT AND AND ISZERO PUSH2 0x539 JUMPI PUSH2 0x538 PUSH2 0x67F JUMP JUMPDEST JUMPDEST DUP2 PUSH32 0x8000000000000000000000000000000000000000000000000000000000000000 SDIV DUP4 SLT PUSH1 0x0 DUP5 SLT PUSH1 0x0 DUP5 SGT AND AND ISZERO PUSH2 0x576 JUMPI PUSH2 0x575 PUSH2 0x67F JUMP JUMPDEST JUMPDEST DUP3 PUSH32 0x8000000000000000000000000000000000000000000000000000000000000000 SDIV DUP3 SLT PUSH1 0x0 DUP5 SGT PUSH1 0x0 DUP5 SLT AND AND ISZERO PUSH2 0x5B3 JUMPI PUSH2 0x5B2 PUSH2 0x67F JUMP JUMPDEST JUMPDEST DUP3 PUSH32 0x7FFFFFFFFFFFFFFFFFFFFFFFFFFFFFFFFFFFFFFFFFFFFFFFFFFFFFFFFFFFFFFF SDIV DUP3 SLT PUSH1 0x0 DUP5 SLT PUSH1 0x0 DUP5 SLT AND AND ISZERO PUSH2 0x5F0 JUMPI PUSH2 0x5EF PUSH2 0x67F JUMP JUMPDEST JUMPDEST DUP3 DUP3 MUL SWAP1 POP SWAP3 SWAP2 POP POP JUMP JUMPDEST PUSH1 0x0 PUSH2 0x606 DUP3 PUSH2 0x65F JUMP JUMPDEST SWAP2 POP PUSH2 0x611 DUP4 PUSH2 0x65F JUMP JUMPDEST SWAP3 POP DUP2 PUSH32 0xFFFFFFFFFFFFFFFFFFFFFFFFFFFFFFFFFFFFFFFFFFFFFFFFFFFFFFFFFFFFFFFF DIV DUP4 GT DUP3 ISZERO ISZERO AND ISZERO PUSH2 0x64A JUMPI PUSH2 0x649 PUSH2 0x67F JUMP JUMPDEST JUMPDEST DUP3 DUP3 MUL SWAP1 POP SWAP3 SWAP2 POP POP JUMP JUMPDEST PUSH1 0x0 DUP2 SWAP1 POP SWAP2 SWAP1 POP JUMP JUMPDEST PUSH1 0x0 DUP2 SWAP1 POP SWAP2 SWAP1 POP JUMP JUMPDEST PUSH1 0x0 PUSH10 0xFFFFFFFFFFFFFFFFFFFF DUP3 AND SWAP1 POP SWAP2 SWAP1 POP JUMP JUMPDEST PUSH32 0x4E487B7100000000000000000000000000000000000000000000000000000000 PUSH1 0x0 MSTORE PUSH1 0x11 PUSH1 0x4 MSTORE PUSH1 0x24 PUSH1 0x0 REVERT JUMPDEST PUSH32 0x4E487B7100000000000000000000000000000000000000000000000000000000 PUSH1 0x0 MSTORE PUSH1 0x12 PUSH1 0x4 MSTORE PUSH1 0x24 PUSH1 0x0 REVERT JUMPDEST PUSH1 0x0 DUP1 REVERT JUMPDEST PUSH32 0x546865206D696E696D756D20616D6F756E74206F662066756E6420776F756C64 PUSH1 0x0 DUP3 ADD MSTORE PUSH32 0x2062652031206574680000000000000000000000000000000000000000000000 PUSH1 0x20 DUP3 ADD MSTORE POP JUMP JUMPDEST PUSH2 0x73A DUP2 PUSH2 0x655 JUMP JUMPDEST DUP2 EQ PUSH2 0x745 JUMPI PUSH1 0x0 DUP1 REVERT JUMPDEST POP JUMP JUMPDEST PUSH2 0x751 DUP2 PUSH2 0x65F JUMP JUMPDEST DUP2 EQ PUSH2 0x75C JUMPI PUSH1 0x0 DUP1 REVERT JUMPDEST POP JUMP JUMPDEST PUSH2 0x768 DUP2 PUSH2 0x669 JUMP JUMPDEST DUP2 EQ PUSH2 0x773 JUMPI PUSH1 0x0 DUP1 REVERT JUMPDEST POP JUMP INVALID LOG2 PUSH5 0x6970667358 0x22 SLT KECCAK256 0x5E 0xE PUSH24 0x56988CFE7EDA90DDBE1D7DA7562BCF290365F4F6CB13CE6A 0x29 STATICCALL DUP2 SLOAD DIV PUSH5 0x736F6C6343 STOP ADDMOD SMOD STOP CALLER "
				},
				"gasEstimates": {
					"creation": {
						"codeDepositCost": "392800",
						"executionCost": "46803",
						"totalCost": "439603"
					},
					"external": {
						"conversion(uint256)": "infinite",
						"getPrice()": "infinite",
						"getVersion()": "infinite",
						"minimumUsd()": "2429",
						"receiveFunds()": "infinite"
					},
					"internal": {
						"withdraw()": "infinite"
					}
				},
				"methodIdentifiers": {
					"conversion(uint256)": "ba4d0c99",
					"getPrice()": "98d5fdca",
					"getVersion()": "0d8e6e2c",
					"minimumUsd()": "098de820",
					"receiveFunds()": "005c33e1"
				}
			},
			"storageLayout": {
				"storage": [
					{
						"astId": 51,
						"contract": "contracts/FundMe.sol:FundMe",
						"label": "minimumUsd",
						"offset": 0,
						"slot": "0",
						"type": "t_uint256"
					},
					{
						"astId": 54,
						"contract": "contracts/FundMe.sol:FundMe",
						"label": "priceFeed",
						"offset": 0,
						"slot": "1",
						"type": "t_contract(AggregatorV3Interface)45"
					}
				],
				"types": {
					"t_contract(AggregatorV3Interface)45": {
						"encoding": "inplace",
						"label": "contract AggregatorV3Interface",
						"numberOfBytes": "20"
					},
					"t_uint256": {
						"encoding": "inplace",
						"label": "uint256",
						"numberOfBytes": "32"
					}
				}
			},
			"userdoc": {
				"kind": "user",
				"methods": {},
				"version": 1
			}
		}
	}
}