{
	"contracts/FundMe.sol": {
		"FundMe": {
			"abi": [
				{
					"inputs": [],
					"stateMutability": "nonpayable",
					"type": "constructor"
				},
				{
					"inputs": [],
					"name": "MINIMUM_USD",
					"outputs": [
						{
							"internalType": "uint256",
							"name": "",
							"type": "uint256"
						}
					],
					"stateMutability": "view",
					"type": "function"
				},
				{
					"inputs": [
						{
							"internalType": "uint256",
							"name": "",
							"type": "uint256"
						}
					],
					"name": "funders",
					"outputs": [
						{
							"internalType": "address",
							"name": "",
							"type": "address"
						}
					],
					"stateMutability": "view",
					"type": "function"
				},
				{
					"inputs": [
						{
							"internalType": "address",
							"name": "",
							"type": "address"
						}
					],
					"name": "fundersAmount",
					"outputs": [
						{
							"internalType": "uint256",
							"name": "",
							"type": "uint256"
						}
					],
					"stateMutability": "view",
					"type": "function"
				},
				{
					"inputs": [],
					"name": "owner",
					"outputs": [
						{
							"internalType": "address",
							"name": "",
							"type": "address"
						}
					],
					"stateMutability": "view",
					"type": "function"
				},
				{
					"inputs": [],
					"name": "receiveFunds",
					"outputs": [],
					"stateMutability": "payable",
					"type": "function"
				},
				{
					"inputs": [],
					"name": "totalFunds",
					"outputs": [
						{
							"internalType": "uint256",
							"name": "",
							"type": "uint256"
						}
					],
					"stateMutability": "view",
					"type": "function"
				},
				{
					"inputs": [],
					"name": "withdraw",
					"outputs": [],
					"stateMutability": "nonpayable",
					"type": "function"
				},
				{
					"inputs": [
						{
							"internalType": "uint256",
							"name": "amount",
							"type": "uint256"
						}
					],
					"name": "withdrawSpecificAmount",
					"outputs": [],
					"stateMutability": "nonpayable",
					"type": "function"
				}
			],
			"devdoc": {
				"kind": "dev",
				"methods": {},
				"version": 1
			},
			"evm": {
				"assembly": "    /* \"contracts/FundMe.sol\":210:2807  contract FundMe{\r... */\n  mstore(0x40, 0x80)\n    /* \"contracts/FundMe.sol\":617:815  constructor(){\r... */\n  callvalue\n  dup1\n  iszero\n  tag_1\n  jumpi\n  0x00\n  dup1\n  revert\ntag_1:\n  pop\n    /* \"contracts/FundMe.sol\":722:732  msg.sender */\n  caller\n    /* \"contracts/FundMe.sol\":714:719  owner */\n  0x00\n  dup1\n    /* \"contracts/FundMe.sol\":714:732  owner = msg.sender */\n  0x0100\n  exp\n  dup2\n  sload\n  dup2\n  0xffffffffffffffffffffffffffffffffffffffff\n  mul\n  not\n  and\n  swap1\n  dup4\n  0xffffffffffffffffffffffffffffffffffffffff\n  and\n  mul\n  or\n  swap1\n  sstore\n  pop\n    /* \"contracts/FundMe.sol\":210:2807  contract FundMe{\r... */\n  dataSize(sub_0)\n  dup1\n  dataOffset(sub_0)\n  0x00\n  codecopy\n  0x00\n  return\nstop\n\nsub_0: assembly {\n        /* \"contracts/FundMe.sol\":210:2807  contract FundMe{\r... */\n      mstore(0x40, 0x80)\n      jumpi(tag_1, lt(calldatasize, 0x04))\n      shr(0xe0, calldataload(0x00))\n      dup1\n      0x8da5cb5b\n      gt\n      tag_10\n      jumpi\n      dup1\n      0x8da5cb5b\n      eq\n      tag_6\n      jumpi\n      dup1\n      0x968ed600\n      eq\n      tag_7\n      jumpi\n      dup1\n      0xdc0d3dff\n      eq\n      tag_8\n      jumpi\n      dup1\n      0xe73c0f23\n      eq\n      tag_9\n      jumpi\n      jump(tag_1)\n    tag_10:\n      dup1\n      0x5c33e1\n      eq\n      tag_2\n      jumpi\n      dup1\n      0x3ccfd60b\n      eq\n      tag_3\n      jumpi\n      dup1\n      0x6b69a592\n      eq\n      tag_4\n      jumpi\n      dup1\n      0x76778d6e\n      eq\n      tag_5\n      jumpi\n    tag_1:\n      0x00\n      dup1\n      revert\n        /* \"contracts/FundMe.sol\":823:1555  function receiveFunds() public payable{\r... */\n    tag_2:\n      tag_11\n      tag_12\n      jump\t// in\n    tag_11:\n      stop\n        /* \"contracts/FundMe.sol\":1563:2436  function withdraw() public onlyOwner{\r... */\n    tag_3:\n      callvalue\n      dup1\n      iszero\n      tag_13\n      jumpi\n      0x00\n      dup1\n      revert\n    tag_13:\n      pop\n      tag_14\n      tag_15\n      jump\t// in\n    tag_14:\n      stop\n        /* \"contracts/FundMe.sol\":296:347  uint256 public constant MINIMUM_USD = 50 * 10 ** 18 */\n    tag_4:\n      callvalue\n      dup1\n      iszero\n      tag_16\n      jumpi\n      0x00\n      dup1\n      revert\n    tag_16:\n      pop\n      tag_17\n      tag_18\n      jump\t// in\n    tag_17:\n      mload(0x40)\n      tag_19\n      swap2\n      swap1\n      tag_20\n      jump\t// in\n    tag_19:\n      mload(0x40)\n      dup1\n      swap2\n      sub\n      swap1\n      return\n        /* \"contracts/FundMe.sol\":2444:2565  function withdrawSpecificAmount(uint256 amount) public onlyOwner{\r... */\n    tag_5:\n      callvalue\n      dup1\n      iszero\n      tag_21\n      jumpi\n      0x00\n      dup1\n      revert\n    tag_21:\n      pop\n      tag_22\n      0x04\n      dup1\n      calldatasize\n      sub\n      dup2\n      add\n      swap1\n      tag_23\n      swap2\n      swap1\n      tag_24\n      jump\t// in\n    tag_23:\n      tag_25\n      jump\t// in\n    tag_22:\n      stop\n        /* \"contracts/FundMe.sol\":354:374  address public owner */\n    tag_6:\n      callvalue\n      dup1\n      iszero\n      tag_26\n      jumpi\n      0x00\n      dup1\n      revert\n    tag_26:\n      pop\n      tag_27\n      tag_28\n      jump\t// in\n    tag_27:\n      mload(0x40)\n      tag_29\n      swap2\n      swap1\n      tag_30\n      jump\t// in\n    tag_29:\n      mload(0x40)\n      dup1\n      swap2\n      sub\n      swap1\n      return\n        /* \"contracts/FundMe.sol\":2573:2677  function totalFunds() public onlyOwner view returns(uint){\r... */\n    tag_7:\n      callvalue\n      dup1\n      iszero\n      tag_31\n      jumpi\n      0x00\n      dup1\n      revert\n    tag_31:\n      pop\n      tag_32\n      tag_33\n      jump\t// in\n    tag_32:\n      mload(0x40)\n      tag_34\n      swap2\n      swap1\n      tag_20\n      jump\t// in\n    tag_34:\n      mload(0x40)\n      dup1\n      swap2\n      sub\n      swap1\n      return\n        /* \"contracts/FundMe.sol\":410:434  address[] public funders */\n    tag_8:\n      callvalue\n      dup1\n      iszero\n      tag_35\n      jumpi\n      0x00\n      dup1\n      revert\n    tag_35:\n      pop\n      tag_36\n      0x04\n      dup1\n      calldatasize\n      sub\n      dup2\n      add\n      swap1\n      tag_37\n      swap2\n      swap1\n      tag_24\n      jump\t// in\n    tag_37:\n      tag_38\n      jump\t// in\n    tag_36:\n      mload(0x40)\n      tag_39\n      swap2\n      swap1\n      tag_30\n      jump\t// in\n    tag_39:\n      mload(0x40)\n      dup1\n      swap2\n      sub\n      swap1\n      return\n        /* \"contracts/FundMe.sol\":560:608  mapping(address => uint256) public fundersAmount */\n    tag_9:\n      callvalue\n      dup1\n      iszero\n      tag_40\n      jumpi\n      0x00\n      dup1\n      revert\n    tag_40:\n      pop\n      tag_41\n      0x04\n      dup1\n      calldatasize\n      sub\n      dup2\n      add\n      swap1\n      tag_42\n      swap2\n      swap1\n      tag_43\n      jump\t// in\n    tag_42:\n      tag_44\n      jump\t// in\n    tag_41:\n      mload(0x40)\n      tag_45\n      swap2\n      swap1\n      tag_20\n      jump\t// in\n    tag_45:\n      mload(0x40)\n      dup1\n      swap2\n      sub\n      swap1\n      return\n        /* \"contracts/FundMe.sol\":823:1555  function receiveFunds() public payable{\r... */\n    tag_12:\n        /* \"contracts/FundMe.sol\":334:347  50 * 10 ** 18 */\n      0x02b5e3af16b1880000\n        /* \"contracts/FundMe.sol\":1243:1265  msg.value.conversion() */\n      tag_47\n        /* \"contracts/FundMe.sol\":1243:1252  msg.value */\n      callvalue\n        /* \"contracts/FundMe.sol\":1243:1263  msg.value.conversion */\n      tag_48\n        /* \"contracts/FundMe.sol\":1243:1265  msg.value.conversion() */\n      jump\t// in\n    tag_47:\n        /* \"contracts/FundMe.sol\":1243:1280  msg.value.conversion() >= MINIMUM_USD */\n      lt\n      iszero\n        /* \"contracts/FundMe.sol\":1235:1327  require(msg.value.conversion() >= MINIMUM_USD , \"The minimum amount of fund would be >=50$\") */\n      tag_49\n      jumpi\n      mload(0x40)\n      0x08c379a000000000000000000000000000000000000000000000000000000000\n      dup2\n      mstore\n      0x04\n      add\n      tag_50\n      swap1\n      tag_51\n      jump\t// in\n    tag_50:\n      mload(0x40)\n      dup1\n      swap2\n      sub\n      swap1\n      revert\n    tag_49:\n        /* \"contracts/FundMe.sol\":1338:1345  funders */\n      0x01\n        /* \"contracts/FundMe.sol\":1351:1361  msg.sender */\n      caller\n        /* \"contracts/FundMe.sol\":1338:1362  funders.push(msg.sender) */\n      swap1\n      dup1\n      0x01\n      dup2\n      sload\n      add\n      dup1\n      dup3\n      sstore\n      dup1\n      swap2\n      pop\n      pop\n      0x01\n      swap1\n      sub\n      swap1\n      0x00\n      mstore\n      keccak256(0x00, 0x20)\n      add\n      0x00\n      swap1\n      swap2\n      swap1\n      swap2\n      swap1\n      swap2\n      0x0100\n      exp\n      dup2\n      sload\n      dup2\n      0xffffffffffffffffffffffffffffffffffffffff\n      mul\n      not\n      and\n      swap1\n      dup4\n      0xffffffffffffffffffffffffffffffffffffffff\n      and\n      mul\n      or\n      swap1\n      sstore\n      pop\n        /* \"contracts/FundMe.sol\":1462:1471  msg.value */\n      callvalue\n        /* \"contracts/FundMe.sol\":1434:1447  fundersAmount */\n      0x02\n        /* \"contracts/FundMe.sol\":1434:1459  fundersAmount[msg.sender] */\n      0x00\n        /* \"contracts/FundMe.sol\":1448:1458  msg.sender */\n      caller\n        /* \"contracts/FundMe.sol\":1434:1459  fundersAmount[msg.sender] */\n      0xffffffffffffffffffffffffffffffffffffffff\n      and\n      0xffffffffffffffffffffffffffffffffffffffff\n      and\n      dup2\n      mstore\n      0x20\n      add\n      swap1\n      dup2\n      mstore\n      0x20\n      add\n      0x00\n      keccak256\n        /* \"contracts/FundMe.sol\":1434:1471  fundersAmount[msg.sender] = msg.value */\n      dup2\n      swap1\n      sstore\n      pop\n        /* \"contracts/FundMe.sol\":823:1555  function receiveFunds() public payable{\r... */\n      jump\t// out\n        /* \"contracts/FundMe.sol\":1563:2436  function withdraw() public onlyOwner{\r... */\n    tag_15:\n        /* \"contracts/FundMe.sol\":2738:2743  owner */\n      0x00\n      dup1\n      sload\n      swap1\n      0x0100\n      exp\n      swap1\n      div\n      0xffffffffffffffffffffffffffffffffffffffff\n      and\n        /* \"contracts/FundMe.sol\":2724:2743  msg.sender == owner */\n      0xffffffffffffffffffffffffffffffffffffffff\n      and\n        /* \"contracts/FundMe.sol\":2724:2734  msg.sender */\n      caller\n        /* \"contracts/FundMe.sol\":2724:2743  msg.sender == owner */\n      0xffffffffffffffffffffffffffffffffffffffff\n      and\n      eq\n        /* \"contracts/FundMe.sol\":2716:2784  require(msg.sender == owner, \"Only owner can withdraw transactions\") */\n      tag_54\n      jumpi\n      mload(0x40)\n      0x08c379a000000000000000000000000000000000000000000000000000000000\n      dup2\n      mstore\n      0x04\n      add\n      tag_55\n      swap1\n      tag_56\n      jump\t// in\n    tag_55:\n      mload(0x40)\n      dup1\n      swap2\n      sub\n      swap1\n      revert\n    tag_54:\n        /* \"contracts/FundMe.sol\":1669:1688  uint256 funderIndex */\n      0x00\n        /* \"contracts/FundMe.sol\":1701:1914  for(funderIndex = 0; funderIndex < funders.length; funderIndex++){\r... */\n    tag_58:\n        /* \"contracts/FundMe.sol\":1736:1743  funders */\n      0x01\n        /* \"contracts/FundMe.sol\":1736:1750  funders.length */\n      dup1\n      sload\n      swap1\n      pop\n        /* \"contracts/FundMe.sol\":1722:1733  funderIndex */\n      dup2\n        /* \"contracts/FundMe.sol\":1722:1750  funderIndex < funders.length */\n      lt\n        /* \"contracts/FundMe.sol\":1701:1914  for(funderIndex = 0; funderIndex < funders.length; funderIndex++){\r... */\n      iszero\n      tag_59\n      jumpi\n        /* \"contracts/FundMe.sol\":1783:1797  address funder */\n      0x00\n        /* \"contracts/FundMe.sol\":1800:1807  funders */\n      0x01\n        /* \"contracts/FundMe.sol\":1808:1819  funderIndex */\n      dup3\n        /* \"contracts/FundMe.sol\":1800:1820  funders[funderIndex] */\n      dup2\n      sload\n      dup2\n      lt\n      tag_61\n      jumpi\n      tag_62\n      tag_63\n      jump\t// in\n    tag_62:\n    tag_61:\n      swap1\n      0x00\n      mstore\n      keccak256(0x00, 0x20)\n      add\n      0x00\n      swap1\n      sload\n      swap1\n      0x0100\n      exp\n      swap1\n      div\n      0xffffffffffffffffffffffffffffffffffffffff\n      and\n        /* \"contracts/FundMe.sol\":1783:1820  address funder = funders[funderIndex] */\n      swap1\n      pop\n        /* \"contracts/FundMe.sol\":1901:1902  0 */\n      0x00\n        /* \"contracts/FundMe.sol\":1877:1890  fundersAmount */\n      0x02\n        /* \"contracts/FundMe.sol\":1877:1898  fundersAmount[funder] */\n      0x00\n        /* \"contracts/FundMe.sol\":1891:1897  funder */\n      dup4\n        /* \"contracts/FundMe.sol\":1877:1898  fundersAmount[funder] */\n      0xffffffffffffffffffffffffffffffffffffffff\n      and\n      0xffffffffffffffffffffffffffffffffffffffff\n      and\n      dup2\n      mstore\n      0x20\n      add\n      swap1\n      dup2\n      mstore\n      0x20\n      add\n      0x00\n      keccak256\n        /* \"contracts/FundMe.sol\":1877:1902  fundersAmount[funder] = 0 */\n      dup2\n      swap1\n      sstore\n      pop\n        /* \"contracts/FundMe.sol\":1766:1914  {\r... */\n      pop\n        /* \"contracts/FundMe.sol\":1752:1765  funderIndex++ */\n      dup1\n      dup1\n      tag_65\n      swap1\n      tag_66\n      jump\t// in\n    tag_65:\n      swap2\n      pop\n      pop\n        /* \"contracts/FundMe.sol\":1701:1914  for(funderIndex = 0; funderIndex < funders.length; funderIndex++){\r... */\n      jump(tag_58)\n    tag_59:\n        /* \"contracts/FundMe.sol\":2052:2062  msg.sender */\n      caller\n        /* \"contracts/FundMe.sol\":2044:2072  payable(msg.sender).transfer */\n      0xffffffffffffffffffffffffffffffffffffffff\n      and\n        /* \"contracts/FundMe.sol\":2044:2095  payable(msg.sender).transfer(address(this).balance) */\n      0x08fc\n        /* \"contracts/FundMe.sol\":2073:2094  address(this).balance */\n      selfbalance\n        /* \"contracts/FundMe.sol\":2044:2095  payable(msg.sender).transfer(address(this).balance) */\n      swap1\n      dup2\n      iszero\n      mul\n      swap1\n      mload(0x40)\n      0x00\n      mload(0x40)\n      dup1\n      dup4\n      sub\n      dup2\n      dup6\n      dup9\n      dup9\n      call\n      swap4\n      pop\n      pop\n      pop\n      pop\n      iszero\n      dup1\n      iszero\n      tag_68\n      jumpi\n      returndatasize\n      0x00\n      dup1\n      returndatacopy\n      revert(0x00, returndatasize)\n    tag_68:\n      pop\n        /* \"contracts/FundMe.sol\":2124:2136  bool success */\n      0x00\n        /* \"contracts/FundMe.sol\":2147:2157  msg.sender */\n      caller\n        /* \"contracts/FundMe.sol\":2139:2163  payable(msg.sender).send */\n      0xffffffffffffffffffffffffffffffffffffffff\n      and\n        /* \"contracts/FundMe.sol\":2139:2186  payable(msg.sender).send(address(this).balance) */\n      0x08fc\n        /* \"contracts/FundMe.sol\":2164:2185  address(this).balance */\n      selfbalance\n        /* \"contracts/FundMe.sol\":2139:2186  payable(msg.sender).send(address(this).balance) */\n      swap1\n      dup2\n      iszero\n      mul\n      swap1\n      mload(0x40)\n      0x00\n      mload(0x40)\n      dup1\n      dup4\n      sub\n      dup2\n      dup6\n      dup9\n      dup9\n      call\n      swap4\n      pop\n      pop\n      pop\n      pop\n        /* \"contracts/FundMe.sol\":2124:2186  bool success = payable(msg.sender).send(address(this).balance) */\n      swap1\n      pop\n        /* \"contracts/FundMe.sol\":2205:2212  success */\n      dup1\n        /* \"contracts/FundMe.sol\":2197:2229  require(success , \"Send Failed\") */\n      tag_70\n      jumpi\n      mload(0x40)\n      0x08c379a000000000000000000000000000000000000000000000000000000000\n      dup2\n      mstore\n      0x04\n      add\n      tag_71\n      swap1\n      tag_72\n      jump\t// in\n    tag_71:\n      mload(0x40)\n      dup1\n      swap2\n      sub\n      swap1\n      revert\n    tag_70:\n        /* \"contracts/FundMe.sol\":2259:2279  bool successWithdraw */\n      0x00\n        /* \"contracts/FundMe.sol\":2293:2303  msg.sender */\n      caller\n        /* \"contracts/FundMe.sol\":2285:2309  payable(msg.sender).call */\n      0xffffffffffffffffffffffffffffffffffffffff\n      and\n        /* \"contracts/FundMe.sol\":2331:2352  address(this).balance */\n      selfbalance\n        /* \"contracts/FundMe.sol\":2285:2367  payable(msg.sender).call{\r... */\n      mload(0x40)\n      tag_73\n      swap1\n      tag_74\n      jump\t// in\n    tag_73:\n      0x00\n      mload(0x40)\n      dup1\n      dup4\n      sub\n      dup2\n      dup6\n      dup8\n      gas\n      call\n      swap3\n      pop\n      pop\n      pop\n      returndatasize\n      dup1\n      0x00\n      dup2\n      eq\n      tag_77\n      jumpi\n      mload(0x40)\n      swap2\n      pop\n      and(add(returndatasize, 0x3f), not(0x1f))\n      dup3\n      add\n      0x40\n      mstore\n      returndatasize\n      dup3\n      mstore\n      returndatasize\n      0x00\n      0x20\n      dup5\n      add\n      returndatacopy\n      jump(tag_76)\n    tag_77:\n      0x60\n      swap2\n      pop\n    tag_76:\n      pop\n        /* \"contracts/FundMe.sol\":2258:2367  (bool successWithdraw, ) = payable(msg.sender).call{\r... */\n      pop\n      swap1\n      pop\n        /* \"contracts/FundMe.sol\":2386:2401  successWithdraw */\n      dup1\n        /* \"contracts/FundMe.sol\":2378:2418  require(successWithdraw , \"Call Failed\") */\n      tag_78\n      jumpi\n      mload(0x40)\n      0x08c379a000000000000000000000000000000000000000000000000000000000\n      dup2\n      mstore\n      0x04\n      add\n      tag_79\n      swap1\n      tag_80\n      jump\t// in\n    tag_79:\n      mload(0x40)\n      dup1\n      swap2\n      sub\n      swap1\n      revert\n    tag_78:\n        /* \"contracts/FundMe.sol\":1599:2436  {\r... */\n      pop\n      pop\n      pop\n        /* \"contracts/FundMe.sol\":1563:2436  function withdraw() public onlyOwner{\r... */\n      jump\t// out\n        /* \"contracts/FundMe.sol\":296:347  uint256 public constant MINIMUM_USD = 50 * 10 ** 18 */\n    tag_18:\n        /* \"contracts/FundMe.sol\":334:347  50 * 10 ** 18 */\n      0x02b5e3af16b1880000\n        /* \"contracts/FundMe.sol\":296:347  uint256 public constant MINIMUM_USD = 50 * 10 ** 18 */\n      dup2\n      jump\t// out\n        /* \"contracts/FundMe.sol\":2444:2565  function withdrawSpecificAmount(uint256 amount) public onlyOwner{\r... */\n    tag_25:\n        /* \"contracts/FundMe.sol\":2738:2743  owner */\n      0x00\n      dup1\n      sload\n      swap1\n      0x0100\n      exp\n      swap1\n      div\n      0xffffffffffffffffffffffffffffffffffffffff\n      and\n        /* \"contracts/FundMe.sol\":2724:2743  msg.sender == owner */\n      0xffffffffffffffffffffffffffffffffffffffff\n      and\n        /* \"contracts/FundMe.sol\":2724:2734  msg.sender */\n      caller\n        /* \"contracts/FundMe.sol\":2724:2743  msg.sender == owner */\n      0xffffffffffffffffffffffffffffffffffffffff\n      and\n      eq\n        /* \"contracts/FundMe.sol\":2716:2784  require(msg.sender == owner, \"Only owner can withdraw transactions\") */\n      tag_82\n      jumpi\n      mload(0x40)\n      0x08c379a000000000000000000000000000000000000000000000000000000000\n      dup2\n      mstore\n      0x04\n      add\n      tag_83\n      swap1\n      tag_56\n      jump\t// in\n    tag_83:\n      mload(0x40)\n      dup1\n      swap2\n      sub\n      swap1\n      revert\n    tag_82:\n        /* \"contracts/FundMe.sol\":2529:2539  msg.sender */\n      caller\n        /* \"contracts/FundMe.sol\":2521:2549  payable(msg.sender).transfer */\n      0xffffffffffffffffffffffffffffffffffffffff\n      and\n        /* \"contracts/FundMe.sol\":2521:2557  payable(msg.sender).transfer(amount) */\n      0x08fc\n        /* \"contracts/FundMe.sol\":2550:2556  amount */\n      dup3\n        /* \"contracts/FundMe.sol\":2521:2557  payable(msg.sender).transfer(amount) */\n      swap1\n      dup2\n      iszero\n      mul\n      swap1\n      mload(0x40)\n      0x00\n      mload(0x40)\n      dup1\n      dup4\n      sub\n      dup2\n      dup6\n      dup9\n      dup9\n      call\n      swap4\n      pop\n      pop\n      pop\n      pop\n      iszero\n      dup1\n      iszero\n      tag_86\n      jumpi\n      returndatasize\n      0x00\n      dup1\n      returndatacopy\n      revert(0x00, returndatasize)\n    tag_86:\n      pop\n        /* \"contracts/FundMe.sol\":2444:2565  function withdrawSpecificAmount(uint256 amount) public onlyOwner{\r... */\n      pop\n      jump\t// out\n        /* \"contracts/FundMe.sol\":354:374  address public owner */\n    tag_28:\n      0x00\n      dup1\n      sload\n      swap1\n      0x0100\n      exp\n      swap1\n      div\n      0xffffffffffffffffffffffffffffffffffffffff\n      and\n      dup2\n      jump\t// out\n        /* \"contracts/FundMe.sol\":2573:2677  function totalFunds() public onlyOwner view returns(uint){\r... */\n    tag_33:\n        /* \"contracts/FundMe.sol\":2625:2629  uint */\n      0x00\n        /* \"contracts/FundMe.sol\":2738:2743  owner */\n      dup1\n      0x00\n      swap1\n      sload\n      swap1\n      0x0100\n      exp\n      swap1\n      div\n      0xffffffffffffffffffffffffffffffffffffffff\n      and\n        /* \"contracts/FundMe.sol\":2724:2743  msg.sender == owner */\n      0xffffffffffffffffffffffffffffffffffffffff\n      and\n        /* \"contracts/FundMe.sol\":2724:2734  msg.sender */\n      caller\n        /* \"contracts/FundMe.sol\":2724:2743  msg.sender == owner */\n      0xffffffffffffffffffffffffffffffffffffffff\n      and\n      eq\n        /* \"contracts/FundMe.sol\":2716:2784  require(msg.sender == owner, \"Only owner can withdraw transactions\") */\n      tag_88\n      jumpi\n      mload(0x40)\n      0x08c379a000000000000000000000000000000000000000000000000000000000\n      dup2\n      mstore\n      0x04\n      add\n      tag_89\n      swap1\n      tag_56\n      jump\t// in\n    tag_89:\n      mload(0x40)\n      dup1\n      swap2\n      sub\n      swap1\n      revert\n    tag_88:\n        /* \"contracts/FundMe.sol\":2648:2669  address(this).balance */\n      selfbalance\n        /* \"contracts/FundMe.sol\":2641:2669  return address(this).balance */\n      swap1\n      pop\n        /* \"contracts/FundMe.sol\":2573:2677  function totalFunds() public onlyOwner view returns(uint){\r... */\n      swap1\n      jump\t// out\n        /* \"contracts/FundMe.sol\":410:434  address[] public funders */\n    tag_38:\n      0x01\n      dup2\n      dup2\n      sload\n      dup2\n      lt\n      tag_91\n      jumpi\n      0x00\n      dup1\n      revert\n    tag_91:\n      swap1\n      0x00\n      mstore\n      keccak256(0x00, 0x20)\n      add\n      0x00\n      swap2\n      pop\n      sload\n      swap1\n      0x0100\n      exp\n      swap1\n      div\n      0xffffffffffffffffffffffffffffffffffffffff\n      and\n      dup2\n      jump\t// out\n        /* \"contracts/FundMe.sol\":560:608  mapping(address => uint256) public fundersAmount */\n    tag_44:\n      mstore(0x20, 0x02)\n      dup1\n      0x00\n      mstore\n      keccak256(0x00, 0x40)\n      0x00\n      swap2\n      pop\n      swap1\n      pop\n      sload\n      dup2\n      jump\t// out\n        /* \"contracts/PriceConvertor.sol\":853:1167  function conversion(uint256 ethAmount) internal view returns(uint256){\r... */\n    tag_48:\n        /* \"contracts/PriceConvertor.sol\":914:921  uint256 */\n      0x00\n        /* \"contracts/PriceConvertor.sol\":1020:1036  uint256 ethPrice */\n      dup1\n        /* \"contracts/PriceConvertor.sol\":1039:1049  getPrice() */\n      tag_94\n        /* \"contracts/PriceConvertor.sol\":1039:1047  getPrice */\n      tag_95\n        /* \"contracts/PriceConvertor.sol\":1039:1049  getPrice() */\n      jump\t// in\n    tag_94:\n        /* \"contracts/PriceConvertor.sol\":1020:1049  uint256 ethPrice = getPrice() */\n      swap1\n      pop\n        /* \"contracts/PriceConvertor.sol\":1083:1099  uint256 ethinUSD */\n      0x00\n        /* \"contracts/PriceConvertor.sol\":1127:1131  1e18 */\n      0x0de0b6b3a7640000\n        /* \"contracts/PriceConvertor.sol\":1115:1123  ethPrice */\n      dup3\n        /* \"contracts/PriceConvertor.sol\":1103:1112  ethAmount */\n      dup6\n        /* \"contracts/PriceConvertor.sol\":1103:1123  ethAmount * ethPrice */\n      tag_96\n      swap2\n      swap1\n      tag_97\n      jump\t// in\n    tag_96:\n        /* \"contracts/PriceConvertor.sol\":1102:1131  (ethAmount * ethPrice) / 1e18 */\n      tag_98\n      swap2\n      swap1\n      tag_99\n      jump\t// in\n    tag_98:\n        /* \"contracts/PriceConvertor.sol\":1083:1131  uint256 ethinUSD = (ethAmount * ethPrice) / 1e18 */\n      swap1\n      pop\n        /* \"contracts/PriceConvertor.sol\":1149:1157  ethinUSD */\n      dup1\n        /* \"contracts/PriceConvertor.sol\":1142:1157  return ethinUSD */\n      swap3\n      pop\n      pop\n      pop\n        /* \"contracts/PriceConvertor.sol\":853:1167  function conversion(uint256 ethAmount) internal view returns(uint256){\r... */\n      swap2\n      swap1\n      pop\n      jump\t// out\n        /* \"contracts/PriceConvertor.sol\":251:627  function getPrice() internal view returns(uint256){\r... */\n    tag_95:\n        /* \"contracts/PriceConvertor.sol\":293:300  uint256 */\n      0x00\n        /* \"contracts/PriceConvertor.sol\":348:379  AggregatorV3Interface priceFeed */\n      dup1\n        /* \"contracts/PriceConvertor.sol\":404:446  0x8A753747A1Fa494EC906cE90E9f37563A8AF630e */\n      0x8a753747a1fa494ec906ce90e9f37563a8af630e\n        /* \"contracts/PriceConvertor.sol\":348:447  AggregatorV3Interface priceFeed = AggregatorV3Interface(0x8A753747A1Fa494EC906cE90E9f37563A8AF630e) */\n      swap1\n      pop\n        /* \"contracts/PriceConvertor.sol\":461:474  int256 answer */\n      0x00\n        /* \"contracts/PriceConvertor.sol\":482:491  priceFeed */\n      dup2\n        /* \"contracts/PriceConvertor.sol\":482:507  priceFeed.latestRoundData */\n      0xffffffffffffffffffffffffffffffffffffffff\n      and\n      0xfeaf968c\n        /* \"contracts/PriceConvertor.sol\":482:509  priceFeed.latestRoundData() */\n      mload(0x40)\n      dup2\n      0xffffffff\n      and\n      0xe0\n      shl\n      dup2\n      mstore\n      0x04\n      add\n      0xa0\n      mload(0x40)\n      dup1\n      dup4\n      sub\n      dup2\n      dup7\n      dup1\n      extcodesize\n      iszero\n      dup1\n      iszero\n      tag_101\n      jumpi\n      0x00\n      dup1\n      revert\n    tag_101:\n      pop\n      gas\n      staticcall\n      iszero\n      dup1\n      iszero\n      tag_103\n      jumpi\n      returndatasize\n      0x00\n      dup1\n      returndatacopy\n      revert(0x00, returndatasize)\n    tag_103:\n      pop\n      pop\n      pop\n      pop\n      mload(0x40)\n      returndatasize\n      not(0x1f)\n      0x1f\n      dup3\n      add\n      and\n      dup3\n      add\n      dup1\n      0x40\n      mstore\n      pop\n      dup2\n      add\n      swap1\n      tag_104\n      swap2\n      swap1\n      tag_105\n      jump\t// in\n    tag_104:\n        /* \"contracts/PriceConvertor.sol\":458:509  (, int256 answer ,,,) = priceFeed.latestRoundData() */\n      pop\n      pop\n      pop\n      swap2\n      pop\n      pop\n        /* \"contracts/PriceConvertor.sol\":605:609  1e10 */\n      0x02540be400\n        /* \"contracts/PriceConvertor.sol\":597:603  answer */\n      dup2\n        /* \"contracts/PriceConvertor.sol\":597:609  answer* 1e10 */\n      tag_106\n      swap2\n      swap1\n      tag_107\n      jump\t// in\n    tag_106:\n        /* \"contracts/PriceConvertor.sol\":582:610  return uint256(answer* 1e10) */\n      swap3\n      pop\n      pop\n      pop\n        /* \"contracts/PriceConvertor.sol\":251:627  function getPrice() internal view returns(uint256){\r... */\n      swap1\n      jump\t// out\n        /* \"#utility.yul\":7:146   */\n    tag_109:\n        /* \"#utility.yul\":53:58   */\n      0x00\n        /* \"#utility.yul\":91:97   */\n      dup2\n        /* \"#utility.yul\":78:98   */\n      calldataload\n        /* \"#utility.yul\":69:98   */\n      swap1\n      pop\n        /* \"#utility.yul\":107:140   */\n      tag_111\n        /* \"#utility.yul\":134:139   */\n      dup2\n        /* \"#utility.yul\":107:140   */\n      tag_112\n      jump\t// in\n    tag_111:\n        /* \"#utility.yul\":7:146   */\n      swap3\n      swap2\n      pop\n      pop\n      jump\t// out\n        /* \"#utility.yul\":152:293   */\n    tag_113:\n        /* \"#utility.yul\":208:213   */\n      0x00\n        /* \"#utility.yul\":239:245   */\n      dup2\n        /* \"#utility.yul\":233:246   */\n      mload\n        /* \"#utility.yul\":224:246   */\n      swap1\n      pop\n        /* \"#utility.yul\":255:287   */\n      tag_115\n        /* \"#utility.yul\":281:286   */\n      dup2\n        /* \"#utility.yul\":255:287   */\n      tag_116\n      jump\t// in\n    tag_115:\n        /* \"#utility.yul\":152:293   */\n      swap3\n      swap2\n      pop\n      pop\n      jump\t// out\n        /* \"#utility.yul\":299:438   */\n    tag_117:\n        /* \"#utility.yul\":345:350   */\n      0x00\n        /* \"#utility.yul\":383:389   */\n      dup2\n        /* \"#utility.yul\":370:390   */\n      calldataload\n        /* \"#utility.yul\":361:390   */\n      swap1\n      pop\n        /* \"#utility.yul\":399:432   */\n      tag_119\n        /* \"#utility.yul\":426:431   */\n      dup2\n        /* \"#utility.yul\":399:432   */\n      tag_120\n      jump\t// in\n    tag_119:\n        /* \"#utility.yul\":299:438   */\n      swap3\n      swap2\n      pop\n      pop\n      jump\t// out\n        /* \"#utility.yul\":444:587   */\n    tag_121:\n        /* \"#utility.yul\":501:506   */\n      0x00\n        /* \"#utility.yul\":532:538   */\n      dup2\n        /* \"#utility.yul\":526:539   */\n      mload\n        /* \"#utility.yul\":517:539   */\n      swap1\n      pop\n        /* \"#utility.yul\":548:581   */\n      tag_123\n        /* \"#utility.yul\":575:580   */\n      dup2\n        /* \"#utility.yul\":548:581   */\n      tag_120\n      jump\t// in\n    tag_123:\n        /* \"#utility.yul\":444:587   */\n      swap3\n      swap2\n      pop\n      pop\n      jump\t// out\n        /* \"#utility.yul\":593:734   */\n    tag_124:\n        /* \"#utility.yul\":649:654   */\n      0x00\n        /* \"#utility.yul\":680:686   */\n      dup2\n        /* \"#utility.yul\":674:687   */\n      mload\n        /* \"#utility.yul\":665:687   */\n      swap1\n      pop\n        /* \"#utility.yul\":696:728   */\n      tag_126\n        /* \"#utility.yul\":722:727   */\n      dup2\n        /* \"#utility.yul\":696:728   */\n      tag_127\n      jump\t// in\n    tag_126:\n        /* \"#utility.yul\":593:734   */\n      swap3\n      swap2\n      pop\n      pop\n      jump\t// out\n        /* \"#utility.yul\":740:1069   */\n    tag_43:\n        /* \"#utility.yul\":799:805   */\n      0x00\n        /* \"#utility.yul\":848:850   */\n      0x20\n        /* \"#utility.yul\":836:845   */\n      dup3\n        /* \"#utility.yul\":827:834   */\n      dup5\n        /* \"#utility.yul\":823:846   */\n      sub\n        /* \"#utility.yul\":819:851   */\n      slt\n        /* \"#utility.yul\":816:935   */\n      iszero\n      tag_129\n      jumpi\n        /* \"#utility.yul\":854:933   */\n      tag_130\n      tag_131\n      jump\t// in\n    tag_130:\n        /* \"#utility.yul\":816:935   */\n    tag_129:\n        /* \"#utility.yul\":974:975   */\n      0x00\n        /* \"#utility.yul\":999:1052   */\n      tag_132\n        /* \"#utility.yul\":1044:1051   */\n      dup5\n        /* \"#utility.yul\":1035:1041   */\n      dup3\n        /* \"#utility.yul\":1024:1033   */\n      dup6\n        /* \"#utility.yul\":1020:1042   */\n      add\n        /* \"#utility.yul\":999:1052   */\n      tag_109\n      jump\t// in\n    tag_132:\n        /* \"#utility.yul\":989:1052   */\n      swap2\n      pop\n        /* \"#utility.yul\":945:1062   */\n      pop\n        /* \"#utility.yul\":740:1069   */\n      swap3\n      swap2\n      pop\n      pop\n      jump\t// out\n        /* \"#utility.yul\":1075:1404   */\n    tag_24:\n        /* \"#utility.yul\":1134:1140   */\n      0x00\n        /* \"#utility.yul\":1183:1185   */\n      0x20\n        /* \"#utility.yul\":1171:1180   */\n      dup3\n        /* \"#utility.yul\":1162:1169   */\n      dup5\n        /* \"#utility.yul\":1158:1181   */\n      sub\n        /* \"#utility.yul\":1154:1186   */\n      slt\n        /* \"#utility.yul\":1151:1270   */\n      iszero\n      tag_134\n      jumpi\n        /* \"#utility.yul\":1189:1268   */\n      tag_135\n      tag_131\n      jump\t// in\n    tag_135:\n        /* \"#utility.yul\":1151:1270   */\n    tag_134:\n        /* \"#utility.yul\":1309:1310   */\n      0x00\n        /* \"#utility.yul\":1334:1387   */\n      tag_136\n        /* \"#utility.yul\":1379:1386   */\n      dup5\n        /* \"#utility.yul\":1370:1376   */\n      dup3\n        /* \"#utility.yul\":1359:1368   */\n      dup6\n        /* \"#utility.yul\":1355:1377   */\n      add\n        /* \"#utility.yul\":1334:1387   */\n      tag_117\n      jump\t// in\n    tag_136:\n        /* \"#utility.yul\":1324:1387   */\n      swap2\n      pop\n        /* \"#utility.yul\":1280:1397   */\n      pop\n        /* \"#utility.yul\":1075:1404   */\n      swap3\n      swap2\n      pop\n      pop\n      jump\t// out\n        /* \"#utility.yul\":1410:2381   */\n    tag_105:\n        /* \"#utility.yul\":1513:1519   */\n      0x00\n        /* \"#utility.yul\":1521:1527   */\n      dup1\n        /* \"#utility.yul\":1529:1535   */\n      0x00\n        /* \"#utility.yul\":1537:1543   */\n      dup1\n        /* \"#utility.yul\":1545:1551   */\n      0x00\n        /* \"#utility.yul\":1594:1597   */\n      0xa0\n        /* \"#utility.yul\":1582:1591   */\n      dup7\n        /* \"#utility.yul\":1573:1580   */\n      dup9\n        /* \"#utility.yul\":1569:1592   */\n      sub\n        /* \"#utility.yul\":1565:1598   */\n      slt\n        /* \"#utility.yul\":1562:1682   */\n      iszero\n      tag_138\n      jumpi\n        /* \"#utility.yul\":1601:1680   */\n      tag_139\n      tag_131\n      jump\t// in\n    tag_139:\n        /* \"#utility.yul\":1562:1682   */\n    tag_138:\n        /* \"#utility.yul\":1721:1722   */\n      0x00\n        /* \"#utility.yul\":1746:1809   */\n      tag_140\n        /* \"#utility.yul\":1801:1808   */\n      dup9\n        /* \"#utility.yul\":1792:1798   */\n      dup3\n        /* \"#utility.yul\":1781:1790   */\n      dup10\n        /* \"#utility.yul\":1777:1799   */\n      add\n        /* \"#utility.yul\":1746:1809   */\n      tag_124\n      jump\t// in\n    tag_140:\n        /* \"#utility.yul\":1736:1809   */\n      swap6\n      pop\n        /* \"#utility.yul\":1692:1819   */\n      pop\n        /* \"#utility.yul\":1858:1860   */\n      0x20\n        /* \"#utility.yul\":1884:1947   */\n      tag_141\n        /* \"#utility.yul\":1939:1946   */\n      dup9\n        /* \"#utility.yul\":1930:1936   */\n      dup3\n        /* \"#utility.yul\":1919:1928   */\n      dup10\n        /* \"#utility.yul\":1915:1937   */\n      add\n        /* \"#utility.yul\":1884:1947   */\n      tag_113\n      jump\t// in\n    tag_141:\n        /* \"#utility.yul\":1874:1947   */\n      swap5\n      pop\n        /* \"#utility.yul\":1829:1957   */\n      pop\n        /* \"#utility.yul\":1996:1998   */\n      0x40\n        /* \"#utility.yul\":2022:2086   */\n      tag_142\n        /* \"#utility.yul\":2078:2085   */\n      dup9\n        /* \"#utility.yul\":2069:2075   */\n      dup3\n        /* \"#utility.yul\":2058:2067   */\n      dup10\n        /* \"#utility.yul\":2054:2076   */\n      add\n        /* \"#utility.yul\":2022:2086   */\n      tag_121\n      jump\t// in\n    tag_142:\n        /* \"#utility.yul\":2012:2086   */\n      swap4\n      pop\n        /* \"#utility.yul\":1967:2096   */\n      pop\n        /* \"#utility.yul\":2135:2137   */\n      0x60\n        /* \"#utility.yul\":2161:2225   */\n      tag_143\n        /* \"#utility.yul\":2217:2224   */\n      dup9\n        /* \"#utility.yul\":2208:2214   */\n      dup3\n        /* \"#utility.yul\":2197:2206   */\n      dup10\n        /* \"#utility.yul\":2193:2215   */\n      add\n        /* \"#utility.yul\":2161:2225   */\n      tag_121\n      jump\t// in\n    tag_143:\n        /* \"#utility.yul\":2151:2225   */\n      swap3\n      pop\n        /* \"#utility.yul\":2106:2235   */\n      pop\n        /* \"#utility.yul\":2274:2277   */\n      0x80\n        /* \"#utility.yul\":2301:2364   */\n      tag_144\n        /* \"#utility.yul\":2356:2363   */\n      dup9\n        /* \"#utility.yul\":2347:2353   */\n      dup3\n        /* \"#utility.yul\":2336:2345   */\n      dup10\n        /* \"#utility.yul\":2332:2354   */\n      add\n        /* \"#utility.yul\":2301:2364   */\n      tag_124\n      jump\t// in\n    tag_144:\n        /* \"#utility.yul\":2291:2364   */\n      swap2\n      pop\n        /* \"#utility.yul\":2245:2374   */\n      pop\n        /* \"#utility.yul\":1410:2381   */\n      swap3\n      swap6\n      pop\n      swap3\n      swap6\n      swap1\n      swap4\n      pop\n      jump\t// out\n        /* \"#utility.yul\":2387:2505   */\n    tag_145:\n        /* \"#utility.yul\":2474:2498   */\n      tag_147\n        /* \"#utility.yul\":2492:2497   */\n      dup2\n        /* \"#utility.yul\":2474:2498   */\n      tag_148\n      jump\t// in\n    tag_147:\n        /* \"#utility.yul\":2469:2472   */\n      dup3\n        /* \"#utility.yul\":2462:2499   */\n      mstore\n        /* \"#utility.yul\":2387:2505   */\n      pop\n      pop\n      jump\t// out\n        /* \"#utility.yul\":2511:2877   */\n    tag_149:\n        /* \"#utility.yul\":2653:2656   */\n      0x00\n        /* \"#utility.yul\":2674:2741   */\n      tag_151\n        /* \"#utility.yul\":2738:2740   */\n      0x24\n        /* \"#utility.yul\":2733:2736   */\n      dup4\n        /* \"#utility.yul\":2674:2741   */\n      tag_152\n      jump\t// in\n    tag_151:\n        /* \"#utility.yul\":2667:2741   */\n      swap2\n      pop\n        /* \"#utility.yul\":2750:2843   */\n      tag_153\n        /* \"#utility.yul\":2839:2842   */\n      dup3\n        /* \"#utility.yul\":2750:2843   */\n      tag_154\n      jump\t// in\n    tag_153:\n        /* \"#utility.yul\":2868:2870   */\n      0x40\n        /* \"#utility.yul\":2863:2866   */\n      dup3\n        /* \"#utility.yul\":2859:2871   */\n      add\n        /* \"#utility.yul\":2852:2871   */\n      swap1\n      pop\n        /* \"#utility.yul\":2511:2877   */\n      swap2\n      swap1\n      pop\n      jump\t// out\n        /* \"#utility.yul\":2883:3249   */\n    tag_155:\n        /* \"#utility.yul\":3025:3028   */\n      0x00\n        /* \"#utility.yul\":3046:3113   */\n      tag_157\n        /* \"#utility.yul\":3110:3112   */\n      0x0b\n        /* \"#utility.yul\":3105:3108   */\n      dup4\n        /* \"#utility.yul\":3046:3113   */\n      tag_152\n      jump\t// in\n    tag_157:\n        /* \"#utility.yul\":3039:3113   */\n      swap2\n      pop\n        /* \"#utility.yul\":3122:3215   */\n      tag_158\n        /* \"#utility.yul\":3211:3214   */\n      dup3\n        /* \"#utility.yul\":3122:3215   */\n      tag_159\n      jump\t// in\n    tag_158:\n        /* \"#utility.yul\":3240:3242   */\n      0x20\n        /* \"#utility.yul\":3235:3238   */\n      dup3\n        /* \"#utility.yul\":3231:3243   */\n      add\n        /* \"#utility.yul\":3224:3243   */\n      swap1\n      pop\n        /* \"#utility.yul\":2883:3249   */\n      swap2\n      swap1\n      pop\n      jump\t// out\n        /* \"#utility.yul\":3255:3621   */\n    tag_160:\n        /* \"#utility.yul\":3397:3400   */\n      0x00\n        /* \"#utility.yul\":3418:3485   */\n      tag_162\n        /* \"#utility.yul\":3482:3484   */\n      0x29\n        /* \"#utility.yul\":3477:3480   */\n      dup4\n        /* \"#utility.yul\":3418:3485   */\n      tag_152\n      jump\t// in\n    tag_162:\n        /* \"#utility.yul\":3411:3485   */\n      swap2\n      pop\n        /* \"#utility.yul\":3494:3587   */\n      tag_163\n        /* \"#utility.yul\":3583:3586   */\n      dup3\n        /* \"#utility.yul\":3494:3587   */\n      tag_164\n      jump\t// in\n    tag_163:\n        /* \"#utility.yul\":3612:3614   */\n      0x40\n        /* \"#utility.yul\":3607:3610   */\n      dup3\n        /* \"#utility.yul\":3603:3615   */\n      add\n        /* \"#utility.yul\":3596:3615   */\n      swap1\n      pop\n        /* \"#utility.yul\":3255:3621   */\n      swap2\n      swap1\n      pop\n      jump\t// out\n        /* \"#utility.yul\":3627:4025   */\n    tag_165:\n        /* \"#utility.yul\":3786:3789   */\n      0x00\n        /* \"#utility.yul\":3807:3890   */\n      tag_167\n        /* \"#utility.yul\":3888:3889   */\n      0x00\n        /* \"#utility.yul\":3883:3886   */\n      dup4\n        /* \"#utility.yul\":3807:3890   */\n      tag_168\n      jump\t// in\n    tag_167:\n        /* \"#utility.yul\":3800:3890   */\n      swap2\n      pop\n        /* \"#utility.yul\":3899:3992   */\n      tag_169\n        /* \"#utility.yul\":3988:3991   */\n      dup3\n        /* \"#utility.yul\":3899:3992   */\n      tag_170\n      jump\t// in\n    tag_169:\n        /* \"#utility.yul\":4017:4018   */\n      0x00\n        /* \"#utility.yul\":4012:4015   */\n      dup3\n        /* \"#utility.yul\":4008:4019   */\n      add\n        /* \"#utility.yul\":4001:4019   */\n      swap1\n      pop\n        /* \"#utility.yul\":3627:4025   */\n      swap2\n      swap1\n      pop\n      jump\t// out\n        /* \"#utility.yul\":4031:4397   */\n    tag_171:\n        /* \"#utility.yul\":4173:4176   */\n      0x00\n        /* \"#utility.yul\":4194:4261   */\n      tag_173\n        /* \"#utility.yul\":4258:4260   */\n      0x0b\n        /* \"#utility.yul\":4253:4256   */\n      dup4\n        /* \"#utility.yul\":4194:4261   */\n      tag_152\n      jump\t// in\n    tag_173:\n        /* \"#utility.yul\":4187:4261   */\n      swap2\n      pop\n        /* \"#utility.yul\":4270:4363   */\n      tag_174\n        /* \"#utility.yul\":4359:4362   */\n      dup3\n        /* \"#utility.yul\":4270:4363   */\n      tag_175\n      jump\t// in\n    tag_174:\n        /* \"#utility.yul\":4388:4390   */\n      0x20\n        /* \"#utility.yul\":4383:4386   */\n      dup3\n        /* \"#utility.yul\":4379:4391   */\n      add\n        /* \"#utility.yul\":4372:4391   */\n      swap1\n      pop\n        /* \"#utility.yul\":4031:4397   */\n      swap2\n      swap1\n      pop\n      jump\t// out\n        /* \"#utility.yul\":4403:4521   */\n    tag_176:\n        /* \"#utility.yul\":4490:4514   */\n      tag_178\n        /* \"#utility.yul\":4508:4513   */\n      dup2\n        /* \"#utility.yul\":4490:4514   */\n      tag_179\n      jump\t// in\n    tag_178:\n        /* \"#utility.yul\":4485:4488   */\n      dup3\n        /* \"#utility.yul\":4478:4515   */\n      mstore\n        /* \"#utility.yul\":4403:4521   */\n      pop\n      pop\n      jump\t// out\n        /* \"#utility.yul\":4527:4906   */\n    tag_74:\n        /* \"#utility.yul\":4711:4714   */\n      0x00\n        /* \"#utility.yul\":4733:4880   */\n      tag_181\n        /* \"#utility.yul\":4876:4879   */\n      dup3\n        /* \"#utility.yul\":4733:4880   */\n      tag_165\n      jump\t// in\n    tag_181:\n        /* \"#utility.yul\":4726:4880   */\n      swap2\n      pop\n        /* \"#utility.yul\":4897:4900   */\n      dup2\n        /* \"#utility.yul\":4890:4900   */\n      swap1\n      pop\n        /* \"#utility.yul\":4527:4906   */\n      swap2\n      swap1\n      pop\n      jump\t// out\n        /* \"#utility.yul\":4912:5134   */\n    tag_30:\n        /* \"#utility.yul\":5005:5009   */\n      0x00\n        /* \"#utility.yul\":5043:5045   */\n      0x20\n        /* \"#utility.yul\":5032:5041   */\n      dup3\n        /* \"#utility.yul\":5028:5046   */\n      add\n        /* \"#utility.yul\":5020:5046   */\n      swap1\n      pop\n        /* \"#utility.yul\":5056:5127   */\n      tag_183\n        /* \"#utility.yul\":5124:5125   */\n      0x00\n        /* \"#utility.yul\":5113:5122   */\n      dup4\n        /* \"#utility.yul\":5109:5126   */\n      add\n        /* \"#utility.yul\":5100:5106   */\n      dup5\n        /* \"#utility.yul\":5056:5127   */\n      tag_145\n      jump\t// in\n    tag_183:\n        /* \"#utility.yul\":4912:5134   */\n      swap3\n      swap2\n      pop\n      pop\n      jump\t// out\n        /* \"#utility.yul\":5140:5559   */\n    tag_56:\n        /* \"#utility.yul\":5306:5310   */\n      0x00\n        /* \"#utility.yul\":5344:5346   */\n      0x20\n        /* \"#utility.yul\":5333:5342   */\n      dup3\n        /* \"#utility.yul\":5329:5347   */\n      add\n        /* \"#utility.yul\":5321:5347   */\n      swap1\n      pop\n        /* \"#utility.yul\":5393:5402   */\n      dup2\n        /* \"#utility.yul\":5387:5391   */\n      dup2\n        /* \"#utility.yul\":5383:5403   */\n      sub\n        /* \"#utility.yul\":5379:5380   */\n      0x00\n        /* \"#utility.yul\":5368:5377   */\n      dup4\n        /* \"#utility.yul\":5364:5381   */\n      add\n        /* \"#utility.yul\":5357:5404   */\n      mstore\n        /* \"#utility.yul\":5421:5552   */\n      tag_185\n        /* \"#utility.yul\":5547:5551   */\n      dup2\n        /* \"#utility.yul\":5421:5552   */\n      tag_149\n      jump\t// in\n    tag_185:\n        /* \"#utility.yul\":5413:5552   */\n      swap1\n      pop\n        /* \"#utility.yul\":5140:5559   */\n      swap2\n      swap1\n      pop\n      jump\t// out\n        /* \"#utility.yul\":5565:5984   */\n    tag_72:\n        /* \"#utility.yul\":5731:5735   */\n      0x00\n        /* \"#utility.yul\":5769:5771   */\n      0x20\n        /* \"#utility.yul\":5758:5767   */\n      dup3\n        /* \"#utility.yul\":5754:5772   */\n      add\n        /* \"#utility.yul\":5746:5772   */\n      swap1\n      pop\n        /* \"#utility.yul\":5818:5827   */\n      dup2\n        /* \"#utility.yul\":5812:5816   */\n      dup2\n        /* \"#utility.yul\":5808:5828   */\n      sub\n        /* \"#utility.yul\":5804:5805   */\n      0x00\n        /* \"#utility.yul\":5793:5802   */\n      dup4\n        /* \"#utility.yul\":5789:5806   */\n      add\n        /* \"#utility.yul\":5782:5829   */\n      mstore\n        /* \"#utility.yul\":5846:5977   */\n      tag_187\n        /* \"#utility.yul\":5972:5976   */\n      dup2\n        /* \"#utility.yul\":5846:5977   */\n      tag_155\n      jump\t// in\n    tag_187:\n        /* \"#utility.yul\":5838:5977   */\n      swap1\n      pop\n        /* \"#utility.yul\":5565:5984   */\n      swap2\n      swap1\n      pop\n      jump\t// out\n        /* \"#utility.yul\":5990:6409   */\n    tag_51:\n        /* \"#utility.yul\":6156:6160   */\n      0x00\n        /* \"#utility.yul\":6194:6196   */\n      0x20\n        /* \"#utility.yul\":6183:6192   */\n      dup3\n        /* \"#utility.yul\":6179:6197   */\n      add\n        /* \"#utility.yul\":6171:6197   */\n      swap1\n      pop\n        /* \"#utility.yul\":6243:6252   */\n      dup2\n        /* \"#utility.yul\":6237:6241   */\n      dup2\n        /* \"#utility.yul\":6233:6253   */\n      sub\n        /* \"#utility.yul\":6229:6230   */\n      0x00\n        /* \"#utility.yul\":6218:6227   */\n      dup4\n        /* \"#utility.yul\":6214:6231   */\n      add\n        /* \"#utility.yul\":6207:6254   */\n      mstore\n        /* \"#utility.yul\":6271:6402   */\n      tag_189\n        /* \"#utility.yul\":6397:6401   */\n      dup2\n        /* \"#utility.yul\":6271:6402   */\n      tag_160\n      jump\t// in\n    tag_189:\n        /* \"#utility.yul\":6263:6402   */\n      swap1\n      pop\n        /* \"#utility.yul\":5990:6409   */\n      swap2\n      swap1\n      pop\n      jump\t// out\n        /* \"#utility.yul\":6415:6834   */\n    tag_80:\n        /* \"#utility.yul\":6581:6585   */\n      0x00\n        /* \"#utility.yul\":6619:6621   */\n      0x20\n        /* \"#utility.yul\":6608:6617   */\n      dup3\n        /* \"#utility.yul\":6604:6622   */\n      add\n        /* \"#utility.yul\":6596:6622   */\n      swap1\n      pop\n        /* \"#utility.yul\":6668:6677   */\n      dup2\n        /* \"#utility.yul\":6662:6666   */\n      dup2\n        /* \"#utility.yul\":6658:6678   */\n      sub\n        /* \"#utility.yul\":6654:6655   */\n      0x00\n        /* \"#utility.yul\":6643:6652   */\n      dup4\n        /* \"#utility.yul\":6639:6656   */\n      add\n        /* \"#utility.yul\":6632:6679   */\n      mstore\n        /* \"#utility.yul\":6696:6827   */\n      tag_191\n        /* \"#utility.yul\":6822:6826   */\n      dup2\n        /* \"#utility.yul\":6696:6827   */\n      tag_171\n      jump\t// in\n    tag_191:\n        /* \"#utility.yul\":6688:6827   */\n      swap1\n      pop\n        /* \"#utility.yul\":6415:6834   */\n      swap2\n      swap1\n      pop\n      jump\t// out\n        /* \"#utility.yul\":6840:7062   */\n    tag_20:\n        /* \"#utility.yul\":6933:6937   */\n      0x00\n        /* \"#utility.yul\":6971:6973   */\n      0x20\n        /* \"#utility.yul\":6960:6969   */\n      dup3\n        /* \"#utility.yul\":6956:6974   */\n      add\n        /* \"#utility.yul\":6948:6974   */\n      swap1\n      pop\n        /* \"#utility.yul\":6984:7055   */\n      tag_193\n        /* \"#utility.yul\":7052:7053   */\n      0x00\n        /* \"#utility.yul\":7041:7050   */\n      dup4\n        /* \"#utility.yul\":7037:7054   */\n      add\n        /* \"#utility.yul\":7028:7034   */\n      dup5\n        /* \"#utility.yul\":6984:7055   */\n      tag_176\n      jump\t// in\n    tag_193:\n        /* \"#utility.yul\":6840:7062   */\n      swap3\n      swap2\n      pop\n      pop\n      jump\t// out\n        /* \"#utility.yul\":7149:7296   */\n    tag_168:\n        /* \"#utility.yul\":7250:7261   */\n      0x00\n        /* \"#utility.yul\":7287:7290   */\n      dup2\n        /* \"#utility.yul\":7272:7290   */\n      swap1\n      pop\n        /* \"#utility.yul\":7149:7296   */\n      swap3\n      swap2\n      pop\n      pop\n      jump\t// out\n        /* \"#utility.yul\":7302:7471   */\n    tag_152:\n        /* \"#utility.yul\":7386:7397   */\n      0x00\n        /* \"#utility.yul\":7420:7426   */\n      dup3\n        /* \"#utility.yul\":7415:7418   */\n      dup3\n        /* \"#utility.yul\":7408:7427   */\n      mstore\n        /* \"#utility.yul\":7460:7464   */\n      0x20\n        /* \"#utility.yul\":7455:7458   */\n      dup3\n        /* \"#utility.yul\":7451:7465   */\n      add\n        /* \"#utility.yul\":7436:7465   */\n      swap1\n      pop\n        /* \"#utility.yul\":7302:7471   */\n      swap3\n      swap2\n      pop\n      pop\n      jump\t// out\n        /* \"#utility.yul\":7477:7662   */\n    tag_99:\n        /* \"#utility.yul\":7517:7518   */\n      0x00\n        /* \"#utility.yul\":7534:7554   */\n      tag_199\n        /* \"#utility.yul\":7552:7553   */\n      dup3\n        /* \"#utility.yul\":7534:7554   */\n      tag_179\n      jump\t// in\n    tag_199:\n        /* \"#utility.yul\":7529:7554   */\n      swap2\n      pop\n        /* \"#utility.yul\":7568:7588   */\n      tag_200\n        /* \"#utility.yul\":7586:7587   */\n      dup4\n        /* \"#utility.yul\":7568:7588   */\n      tag_179\n      jump\t// in\n    tag_200:\n        /* \"#utility.yul\":7563:7588   */\n      swap3\n      pop\n        /* \"#utility.yul\":7607:7608   */\n      dup3\n        /* \"#utility.yul\":7597:7632   */\n      tag_201\n      jumpi\n        /* \"#utility.yul\":7612:7630   */\n      tag_202\n      tag_203\n      jump\t// in\n    tag_202:\n        /* \"#utility.yul\":7597:7632   */\n    tag_201:\n        /* \"#utility.yul\":7654:7655   */\n      dup3\n        /* \"#utility.yul\":7651:7652   */\n      dup3\n        /* \"#utility.yul\":7647:7656   */\n      div\n        /* \"#utility.yul\":7642:7656   */\n      swap1\n      pop\n        /* \"#utility.yul\":7477:7662   */\n      swap3\n      swap2\n      pop\n      pop\n      jump\t// out\n        /* \"#utility.yul\":7668:8659   */\n    tag_107:\n        /* \"#utility.yul\":7707:7714   */\n      0x00\n        /* \"#utility.yul\":7730:7749   */\n      tag_205\n        /* \"#utility.yul\":7747:7748   */\n      dup3\n        /* \"#utility.yul\":7730:7749   */\n      tag_206\n      jump\t// in\n    tag_205:\n        /* \"#utility.yul\":7725:7749   */\n      swap2\n      pop\n        /* \"#utility.yul\":7763:7782   */\n      tag_207\n        /* \"#utility.yul\":7780:7781   */\n      dup4\n        /* \"#utility.yul\":7763:7782   */\n      tag_206\n      jump\t// in\n    tag_207:\n        /* \"#utility.yul\":7758:7782   */\n      swap3\n      pop\n        /* \"#utility.yul\":7964:7965   */\n      dup3\n        /* \"#utility.yul\":7896:7962   */\n      0x7fffffffffffffffffffffffffffffffffffffffffffffffffffffffffffffff\n        /* \"#utility.yul\":7892:7966   */\n      div\n        /* \"#utility.yul\":7889:7890   */\n      dup3\n        /* \"#utility.yul\":7886:7967   */\n      gt\n        /* \"#utility.yul\":7881:7882   */\n      0x00\n        /* \"#utility.yul\":7878:7879   */\n      dup5\n        /* \"#utility.yul\":7874:7883   */\n      sgt\n        /* \"#utility.yul\":7870:7871   */\n      0x00\n        /* \"#utility.yul\":7867:7868   */\n      dup5\n        /* \"#utility.yul\":7863:7872   */\n      sgt\n        /* \"#utility.yul\":7859:7884   */\n      and\n        /* \"#utility.yul\":7855:7968   */\n      and\n        /* \"#utility.yul\":7852:7991   */\n      iszero\n      tag_208\n      jumpi\n        /* \"#utility.yul\":7971:7989   */\n      tag_209\n      tag_210\n      jump\t// in\n    tag_209:\n        /* \"#utility.yul\":7852:7991   */\n    tag_208:\n        /* \"#utility.yul\":8175:8176   */\n      dup2\n        /* \"#utility.yul\":8107:8173   */\n      0x8000000000000000000000000000000000000000000000000000000000000000\n        /* \"#utility.yul\":8102:8177   */\n      sdiv\n        /* \"#utility.yul\":8099:8100   */\n      dup4\n        /* \"#utility.yul\":8095:8178   */\n      slt\n        /* \"#utility.yul\":8090:8091   */\n      0x00\n        /* \"#utility.yul\":8087:8088   */\n      dup5\n        /* \"#utility.yul\":8083:8092   */\n      slt\n        /* \"#utility.yul\":8079:8080   */\n      0x00\n        /* \"#utility.yul\":8076:8077   */\n      dup5\n        /* \"#utility.yul\":8072:8081   */\n      sgt\n        /* \"#utility.yul\":8068:8093   */\n      and\n        /* \"#utility.yul\":8064:8179   */\n      and\n        /* \"#utility.yul\":8061:8202   */\n      iszero\n      tag_211\n      jumpi\n        /* \"#utility.yul\":8182:8200   */\n      tag_212\n      tag_210\n      jump\t// in\n    tag_212:\n        /* \"#utility.yul\":8061:8202   */\n    tag_211:\n        /* \"#utility.yul\":8386:8387   */\n      dup3\n        /* \"#utility.yul\":8318:8384   */\n      0x8000000000000000000000000000000000000000000000000000000000000000\n        /* \"#utility.yul\":8313:8388   */\n      sdiv\n        /* \"#utility.yul\":8310:8311   */\n      dup3\n        /* \"#utility.yul\":8306:8389   */\n      slt\n        /* \"#utility.yul\":8301:8302   */\n      0x00\n        /* \"#utility.yul\":8298:8299   */\n      dup5\n        /* \"#utility.yul\":8294:8303   */\n      sgt\n        /* \"#utility.yul\":8290:8291   */\n      0x00\n        /* \"#utility.yul\":8287:8288   */\n      dup5\n        /* \"#utility.yul\":8283:8292   */\n      slt\n        /* \"#utility.yul\":8279:8304   */\n      and\n        /* \"#utility.yul\":8275:8390   */\n      and\n        /* \"#utility.yul\":8272:8413   */\n      iszero\n      tag_213\n      jumpi\n        /* \"#utility.yul\":8393:8411   */\n      tag_214\n      tag_210\n      jump\t// in\n    tag_214:\n        /* \"#utility.yul\":8272:8413   */\n    tag_213:\n        /* \"#utility.yul\":8596:8597   */\n      dup3\n        /* \"#utility.yul\":8528:8594   */\n      0x7fffffffffffffffffffffffffffffffffffffffffffffffffffffffffffffff\n        /* \"#utility.yul\":8523:8598   */\n      sdiv\n        /* \"#utility.yul\":8520:8521   */\n      dup3\n        /* \"#utility.yul\":8516:8599   */\n      slt\n        /* \"#utility.yul\":8511:8512   */\n      0x00\n        /* \"#utility.yul\":8508:8509   */\n      dup5\n        /* \"#utility.yul\":8504:8513   */\n      slt\n        /* \"#utility.yul\":8500:8501   */\n      0x00\n        /* \"#utility.yul\":8497:8498   */\n      dup5\n        /* \"#utility.yul\":8493:8502   */\n      slt\n        /* \"#utility.yul\":8489:8514   */\n      and\n        /* \"#utility.yul\":8485:8600   */\n      and\n        /* \"#utility.yul\":8482:8623   */\n      iszero\n      tag_215\n      jumpi\n        /* \"#utility.yul\":8603:8621   */\n      tag_216\n      tag_210\n      jump\t// in\n    tag_216:\n        /* \"#utility.yul\":8482:8623   */\n    tag_215:\n        /* \"#utility.yul\":8651:8652   */\n      dup3\n        /* \"#utility.yul\":8648:8649   */\n      dup3\n        /* \"#utility.yul\":8644:8653   */\n      mul\n        /* \"#utility.yul\":8633:8653   */\n      swap1\n      pop\n        /* \"#utility.yul\":7668:8659   */\n      swap3\n      swap2\n      pop\n      pop\n      jump\t// out\n        /* \"#utility.yul\":8665:9013   */\n    tag_97:\n        /* \"#utility.yul\":8705:8712   */\n      0x00\n        /* \"#utility.yul\":8728:8748   */\n      tag_218\n        /* \"#utility.yul\":8746:8747   */\n      dup3\n        /* \"#utility.yul\":8728:8748   */\n      tag_179\n      jump\t// in\n    tag_218:\n        /* \"#utility.yul\":8723:8748   */\n      swap2\n      pop\n        /* \"#utility.yul\":8762:8782   */\n      tag_219\n        /* \"#utility.yul\":8780:8781   */\n      dup4\n        /* \"#utility.yul\":8762:8782   */\n      tag_179\n      jump\t// in\n    tag_219:\n        /* \"#utility.yul\":8757:8782   */\n      swap3\n      pop\n        /* \"#utility.yul\":8950:8951   */\n      dup2\n        /* \"#utility.yul\":8882:8948   */\n      0xffffffffffffffffffffffffffffffffffffffffffffffffffffffffffffffff\n        /* \"#utility.yul\":8878:8952   */\n      div\n        /* \"#utility.yul\":8875:8876   */\n      dup4\n        /* \"#utility.yul\":8872:8953   */\n      gt\n        /* \"#utility.yul\":8867:8868   */\n      dup3\n        /* \"#utility.yul\":8860:8869   */\n      iszero\n        /* \"#utility.yul\":8853:8870   */\n      iszero\n        /* \"#utility.yul\":8849:8954   */\n      and\n        /* \"#utility.yul\":8846:8977   */\n      iszero\n      tag_220\n      jumpi\n        /* \"#utility.yul\":8957:8975   */\n      tag_221\n      tag_210\n      jump\t// in\n    tag_221:\n        /* \"#utility.yul\":8846:8977   */\n    tag_220:\n        /* \"#utility.yul\":9005:9006   */\n      dup3\n        /* \"#utility.yul\":9002:9003   */\n      dup3\n        /* \"#utility.yul\":8998:9007   */\n      mul\n        /* \"#utility.yul\":8987:9007   */\n      swap1\n      pop\n        /* \"#utility.yul\":8665:9013   */\n      swap3\n      swap2\n      pop\n      pop\n      jump\t// out\n        /* \"#utility.yul\":9019:9115   */\n    tag_148:\n        /* \"#utility.yul\":9056:9063   */\n      0x00\n        /* \"#utility.yul\":9085:9109   */\n      tag_223\n        /* \"#utility.yul\":9103:9108   */\n      dup3\n        /* \"#utility.yul\":9085:9109   */\n      tag_224\n      jump\t// in\n    tag_223:\n        /* \"#utility.yul\":9074:9109   */\n      swap1\n      pop\n        /* \"#utility.yul\":9019:9115   */\n      swap2\n      swap1\n      pop\n      jump\t// out\n        /* \"#utility.yul\":9121:9197   */\n    tag_206:\n        /* \"#utility.yul\":9157:9164   */\n      0x00\n        /* \"#utility.yul\":9186:9191   */\n      dup2\n        /* \"#utility.yul\":9175:9191   */\n      swap1\n      pop\n        /* \"#utility.yul\":9121:9197   */\n      swap2\n      swap1\n      pop\n      jump\t// out\n        /* \"#utility.yul\":9203:9329   */\n    tag_224:\n        /* \"#utility.yul\":9240:9247   */\n      0x00\n        /* \"#utility.yul\":9280:9322   */\n      0xffffffffffffffffffffffffffffffffffffffff\n        /* \"#utility.yul\":9273:9278   */\n      dup3\n        /* \"#utility.yul\":9269:9323   */\n      and\n        /* \"#utility.yul\":9258:9323   */\n      swap1\n      pop\n        /* \"#utility.yul\":9203:9329   */\n      swap2\n      swap1\n      pop\n      jump\t// out\n        /* \"#utility.yul\":9335:9412   */\n    tag_179:\n        /* \"#utility.yul\":9372:9379   */\n      0x00\n        /* \"#utility.yul\":9401:9406   */\n      dup2\n        /* \"#utility.yul\":9390:9406   */\n      swap1\n      pop\n        /* \"#utility.yul\":9335:9412   */\n      swap2\n      swap1\n      pop\n      jump\t// out\n        /* \"#utility.yul\":9418:9523   */\n    tag_228:\n        /* \"#utility.yul\":9454:9461   */\n      0x00\n        /* \"#utility.yul\":9494:9516   */\n      0xffffffffffffffffffff\n        /* \"#utility.yul\":9487:9492   */\n      dup3\n        /* \"#utility.yul\":9483:9517   */\n      and\n        /* \"#utility.yul\":9472:9517   */\n      swap1\n      pop\n        /* \"#utility.yul\":9418:9523   */\n      swap2\n      swap1\n      pop\n      jump\t// out\n        /* \"#utility.yul\":9529:9762   */\n    tag_66:\n        /* \"#utility.yul\":9568:9571   */\n      0x00\n        /* \"#utility.yul\":9591:9615   */\n      tag_231\n        /* \"#utility.yul\":9609:9614   */\n      dup3\n        /* \"#utility.yul\":9591:9615   */\n      tag_179\n      jump\t// in\n    tag_231:\n        /* \"#utility.yul\":9582:9615   */\n      swap2\n      pop\n        /* \"#utility.yul\":9637:9703   */\n      0xffffffffffffffffffffffffffffffffffffffffffffffffffffffffffffffff\n        /* \"#utility.yul\":9630:9635   */\n      dup3\n        /* \"#utility.yul\":9627:9704   */\n      eq\n        /* \"#utility.yul\":9624:9727   */\n      iszero\n      tag_232\n      jumpi\n        /* \"#utility.yul\":9707:9725   */\n      tag_233\n      tag_210\n      jump\t// in\n    tag_233:\n        /* \"#utility.yul\":9624:9727   */\n    tag_232:\n        /* \"#utility.yul\":9754:9755   */\n      0x01\n        /* \"#utility.yul\":9747:9752   */\n      dup3\n        /* \"#utility.yul\":9743:9756   */\n      add\n        /* \"#utility.yul\":9736:9756   */\n      swap1\n      pop\n        /* \"#utility.yul\":9529:9762   */\n      swap2\n      swap1\n      pop\n      jump\t// out\n        /* \"#utility.yul\":9768:9948   */\n    tag_210:\n        /* \"#utility.yul\":9816:9893   */\n      0x4e487b7100000000000000000000000000000000000000000000000000000000\n        /* \"#utility.yul\":9813:9814   */\n      0x00\n        /* \"#utility.yul\":9806:9894   */\n      mstore\n        /* \"#utility.yul\":9913:9917   */\n      0x11\n        /* \"#utility.yul\":9910:9911   */\n      0x04\n        /* \"#utility.yul\":9903:9918   */\n      mstore\n        /* \"#utility.yul\":9937:9941   */\n      0x24\n        /* \"#utility.yul\":9934:9935   */\n      0x00\n        /* \"#utility.yul\":9927:9942   */\n      revert\n        /* \"#utility.yul\":9954:10134   */\n    tag_203:\n        /* \"#utility.yul\":10002:10079   */\n      0x4e487b7100000000000000000000000000000000000000000000000000000000\n        /* \"#utility.yul\":9999:10000   */\n      0x00\n        /* \"#utility.yul\":9992:10080   */\n      mstore\n        /* \"#utility.yul\":10099:10103   */\n      0x12\n        /* \"#utility.yul\":10096:10097   */\n      0x04\n        /* \"#utility.yul\":10089:10104   */\n      mstore\n        /* \"#utility.yul\":10123:10127   */\n      0x24\n        /* \"#utility.yul\":10120:10121   */\n      0x00\n        /* \"#utility.yul\":10113:10128   */\n      revert\n        /* \"#utility.yul\":10140:10320   */\n    tag_63:\n        /* \"#utility.yul\":10188:10265   */\n      0x4e487b7100000000000000000000000000000000000000000000000000000000\n        /* \"#utility.yul\":10185:10186   */\n      0x00\n        /* \"#utility.yul\":10178:10266   */\n      mstore\n        /* \"#utility.yul\":10285:10289   */\n      0x32\n        /* \"#utility.yul\":10282:10283   */\n      0x04\n        /* \"#utility.yul\":10275:10290   */\n      mstore\n        /* \"#utility.yul\":10309:10313   */\n      0x24\n        /* \"#utility.yul\":10306:10307   */\n      0x00\n        /* \"#utility.yul\":10299:10314   */\n      revert\n        /* \"#utility.yul\":10449:10566   */\n    tag_131:\n        /* \"#utility.yul\":10558:10559   */\n      0x00\n        /* \"#utility.yul\":10555:10556   */\n      dup1\n        /* \"#utility.yul\":10548:10560   */\n      revert\n        /* \"#utility.yul\":10572:10795   */\n    tag_154:\n        /* \"#utility.yul\":10712:10746   */\n      0x4f6e6c79206f776e65722063616e207769746864726177207472616e73616374\n        /* \"#utility.yul\":10708:10709   */\n      0x00\n        /* \"#utility.yul\":10700:10706   */\n      dup3\n        /* \"#utility.yul\":10696:10710   */\n      add\n        /* \"#utility.yul\":10689:10747   */\n      mstore\n        /* \"#utility.yul\":10781:10787   */\n      0x696f6e7300000000000000000000000000000000000000000000000000000000\n        /* \"#utility.yul\":10776:10778   */\n      0x20\n        /* \"#utility.yul\":10768:10774   */\n      dup3\n        /* \"#utility.yul\":10764:10779   */\n      add\n        /* \"#utility.yul\":10757:10788   */\n      mstore\n        /* \"#utility.yul\":10572:10795   */\n      pop\n      jump\t// out\n        /* \"#utility.yul\":10801:10962   */\n    tag_159:\n        /* \"#utility.yul\":10941:10954   */\n      0x53656e64204661696c6564000000000000000000000000000000000000000000\n        /* \"#utility.yul\":10937:10938   */\n      0x00\n        /* \"#utility.yul\":10929:10935   */\n      dup3\n        /* \"#utility.yul\":10925:10939   */\n      add\n        /* \"#utility.yul\":10918:10955   */\n      mstore\n        /* \"#utility.yul\":10801:10962   */\n      pop\n      jump\t// out\n        /* \"#utility.yul\":10968:11196   */\n    tag_164:\n        /* \"#utility.yul\":11108:11142   */\n      0x546865206d696e696d756d20616d6f756e74206f662066756e6420776f756c64\n        /* \"#utility.yul\":11104:11105   */\n      0x00\n        /* \"#utility.yul\":11096:11102   */\n      dup3\n        /* \"#utility.yul\":11092:11106   */\n      add\n        /* \"#utility.yul\":11085:11143   */\n      mstore\n        /* \"#utility.yul\":11177:11188   */\n      0x206265203e3d3530240000000000000000000000000000000000000000000000\n        /* \"#utility.yul\":11172:11174   */\n      0x20\n        /* \"#utility.yul\":11164:11170   */\n      dup3\n        /* \"#utility.yul\":11160:11175   */\n      add\n        /* \"#utility.yul\":11153:11189   */\n      mstore\n        /* \"#utility.yul\":10968:11196   */\n      pop\n      jump\t// out\n        /* \"#utility.yul\":11202:11316   */\n    tag_170:\n      pop\n      jump\t// out\n        /* \"#utility.yul\":11322:11483   */\n    tag_175:\n        /* \"#utility.yul\":11462:11475   */\n      0x43616c6c204661696c6564000000000000000000000000000000000000000000\n        /* \"#utility.yul\":11458:11459   */\n      0x00\n        /* \"#utility.yul\":11450:11456   */\n      dup3\n        /* \"#utility.yul\":11446:11460   */\n      add\n        /* \"#utility.yul\":11439:11476   */\n      mstore\n        /* \"#utility.yul\":11322:11483   */\n      pop\n      jump\t// out\n        /* \"#utility.yul\":11489:11611   */\n    tag_112:\n        /* \"#utility.yul\":11562:11586   */\n      tag_246\n        /* \"#utility.yul\":11580:11585   */\n      dup2\n        /* \"#utility.yul\":11562:11586   */\n      tag_148\n      jump\t// in\n    tag_246:\n        /* \"#utility.yul\":11555:11560   */\n      dup2\n        /* \"#utility.yul\":11552:11587   */\n      eq\n        /* \"#utility.yul\":11542:11605   */\n      tag_247\n      jumpi\n        /* \"#utility.yul\":11601:11602   */\n      0x00\n        /* \"#utility.yul\":11598:11599   */\n      dup1\n        /* \"#utility.yul\":11591:11603   */\n      revert\n        /* \"#utility.yul\":11542:11605   */\n    tag_247:\n        /* \"#utility.yul\":11489:11611   */\n      pop\n      jump\t// out\n        /* \"#utility.yul\":11617:11737   */\n    tag_116:\n        /* \"#utility.yul\":11689:11712   */\n      tag_249\n        /* \"#utility.yul\":11706:11711   */\n      dup2\n        /* \"#utility.yul\":11689:11712   */\n      tag_206\n      jump\t// in\n    tag_249:\n        /* \"#utility.yul\":11682:11687   */\n      dup2\n        /* \"#utility.yul\":11679:11713   */\n      eq\n        /* \"#utility.yul\":11669:11731   */\n      tag_250\n      jumpi\n        /* \"#utility.yul\":11727:11728   */\n      0x00\n        /* \"#utility.yul\":11724:11725   */\n      dup1\n        /* \"#utility.yul\":11717:11729   */\n      revert\n        /* \"#utility.yul\":11669:11731   */\n    tag_250:\n        /* \"#utility.yul\":11617:11737   */\n      pop\n      jump\t// out\n        /* \"#utility.yul\":11743:11865   */\n    tag_120:\n        /* \"#utility.yul\":11816:11840   */\n      tag_252\n        /* \"#utility.yul\":11834:11839   */\n      dup2\n        /* \"#utility.yul\":11816:11840   */\n      tag_179\n      jump\t// in\n    tag_252:\n        /* \"#utility.yul\":11809:11814   */\n      dup2\n        /* \"#utility.yul\":11806:11841   */\n      eq\n        /* \"#utility.yul\":11796:11859   */\n      tag_253\n      jumpi\n        /* \"#utility.yul\":11855:11856   */\n      0x00\n        /* \"#utility.yul\":11852:11853   */\n      dup1\n        /* \"#utility.yul\":11845:11857   */\n      revert\n        /* \"#utility.yul\":11796:11859   */\n    tag_253:\n        /* \"#utility.yul\":11743:11865   */\n      pop\n      jump\t// out\n        /* \"#utility.yul\":11871:11991   */\n    tag_127:\n        /* \"#utility.yul\":11943:11966   */\n      tag_255\n        /* \"#utility.yul\":11960:11965   */\n      dup2\n        /* \"#utility.yul\":11943:11966   */\n      tag_228\n      jump\t// in\n    tag_255:\n        /* \"#utility.yul\":11936:11941   */\n      dup2\n        /* \"#utility.yul\":11933:11967   */\n      eq\n        /* \"#utility.yul\":11923:11985   */\n      tag_256\n      jumpi\n        /* \"#utility.yul\":11981:11982   */\n      0x00\n        /* \"#utility.yul\":11978:11979   */\n      dup1\n        /* \"#utility.yul\":11971:11983   */\n      revert\n        /* \"#utility.yul\":11923:11985   */\n    tag_256:\n        /* \"#utility.yul\":11871:11991   */\n      pop\n      jump\t// out\n\n    auxdata: 0xa264697066735822122084f04cca709967791c331c173476d67aaf82cd04e795640d859cb7c2c27520db64736f6c63430008070033\n}\n",
				"bytecode": {
					"linkReferences": {},
					"object": "608060405234801561001057600080fd5b50336000806101000a81548173ffffffffffffffffffffffffffffffffffffffff021916908373ffffffffffffffffffffffffffffffffffffffff160217905550610fa5806100606000396000f3fe60806040526004361061007a5760003560e01c80638da5cb5b1161004e5780638da5cb5b146100f4578063968ed6001461011f578063dc0d3dff1461014a578063e73c0f23146101875761007a565b80625c33e11461007f5780633ccfd60b146100895780636b69a592146100a057806376778d6e146100cb575b600080fd5b6100876101c4565b005b34801561009557600080fd5b5061009e6102c1565b005b3480156100ac57600080fd5b506100b561056c565b6040516100c29190610b10565b60405180910390f35b3480156100d757600080fd5b506100f260048036038101906100ed91906108eb565b610579565b005b34801561010057600080fd5b50610109610651565b6040516101169190610a75565b60405180910390f35b34801561012b57600080fd5b50610134610675565b6040516101419190610b10565b60405180910390f35b34801561015657600080fd5b50610171600480360381019061016c91906108eb565b61070c565b60405161017e9190610a75565b60405180910390f35b34801561019357600080fd5b506101ae60048036038101906101a991906108be565b61074b565b6040516101bb9190610b10565b60405180910390f35b6802b5e3af16b18800006101d734610763565b1015610218576040517f08c379a000000000000000000000000000000000000000000000000000000000815260040161020f90610ad0565b60405180910390fd5b6001339080600181540180825580915050600190039060005260206000200160009091909190916101000a81548173ffffffffffffffffffffffffffffffffffffffff021916908373ffffffffffffffffffffffffffffffffffffffff16021790555034600260003373ffffffffffffffffffffffffffffffffffffffff1673ffffffffffffffffffffffffffffffffffffffff16815260200190815260200160002081905550565b60008054906101000a900473ffffffffffffffffffffffffffffffffffffffff1673ffffffffffffffffffffffffffffffffffffffff163373ffffffffffffffffffffffffffffffffffffffff161461034f576040517f08c379a000000000000000000000000000000000000000000000000000000000815260040161034690610a90565b60405180910390fd5b60005b6001805490508110156103fb5760006001828154811061037557610374610dec565b5b9060005260206000200160009054906101000a900473ffffffffffffffffffffffffffffffffffffffff1690506000600260008373ffffffffffffffffffffffffffffffffffffffff1673ffffffffffffffffffffffffffffffffffffffff168152602001908152602001600020819055505080806103f390610d45565b915050610352565b3373ffffffffffffffffffffffffffffffffffffffff166108fc479081150290604051600060405180830381858888f19350505050158015610441573d6000803e3d6000fd5b5060003373ffffffffffffffffffffffffffffffffffffffff166108fc479081150290604051600060405180830381858888f193505050509050806104bb576040517f08c379a00000000000000000000000000000000000000000000000000000000081526004016104b290610ab0565b60405180910390fd5b60003373ffffffffffffffffffffffffffffffffffffffff16476040516104e190610a60565b60006040518083038185875af1925050503d806000811461051e576040519150601f19603f3d011682016040523d82523d6000602084013e610523565b606091505b5050905080610567576040517f08c379a000000000000000000000000000000000000000000000000000000000815260040161055e90610af0565b60405180910390fd5b505050565b6802b5e3af16b188000081565b60008054906101000a900473ffffffffffffffffffffffffffffffffffffffff1673ffffffffffffffffffffffffffffffffffffffff163373ffffffffffffffffffffffffffffffffffffffff1614610607576040517f08c379a00000000000000000000000000000000000000000000000000000000081526004016105fe90610a90565b60405180910390fd5b3373ffffffffffffffffffffffffffffffffffffffff166108fc829081150290604051600060405180830381858888f1935050505015801561064d573d6000803e3d6000fd5b5050565b60008054906101000a900473ffffffffffffffffffffffffffffffffffffffff1681565b60008060009054906101000a900473ffffffffffffffffffffffffffffffffffffffff1673ffffffffffffffffffffffffffffffffffffffff163373ffffffffffffffffffffffffffffffffffffffff1614610706576040517f08c379a00000000000000000000000000000000000000000000000000000000081526004016106fd90610a90565b60405180910390fd5b47905090565b6001818154811061071c57600080fd5b906000526020600020016000915054906101000a900473ffffffffffffffffffffffffffffffffffffffff1681565b60026020528060005260406000206000915090505481565b60008061076e61079d565b90506000670de0b6b3a764000082856107879190610c8f565b6107919190610b47565b90508092505050919050565b600080738a753747a1fa494ec906ce90e9f37563a8af630e905060008173ffffffffffffffffffffffffffffffffffffffff1663feaf968c6040518163ffffffff1660e01b815260040160a06040518083038186803b1580156107ff57600080fd5b505afa158015610813573d6000803e3d6000fd5b505050506040513d601f19601f820116820180604052508101906108379190610918565b5050509150506402540be4008161084e9190610b78565b9250505090565b60008135905061086481610f13565b92915050565b60008151905061087981610f2a565b92915050565b60008135905061088e81610f41565b92915050565b6000815190506108a381610f41565b92915050565b6000815190506108b881610f58565b92915050565b6000602082840312156108d4576108d3610e1b565b5b60006108e284828501610855565b91505092915050565b60006020828403121561090157610900610e1b565b5b600061090f8482850161087f565b91505092915050565b600080600080600060a0868803121561093457610933610e1b565b5b6000610942888289016108a9565b95505060206109538882890161086a565b945050604061096488828901610894565b935050606061097588828901610894565b9250506080610986888289016108a9565b9150509295509295909350565b61099c81610ce9565b82525050565b60006109af602483610b36565b91506109ba82610e20565b604082019050919050565b60006109d2600b83610b36565b91506109dd82610e6f565b602082019050919050565b60006109f5602983610b36565b9150610a0082610e98565b604082019050919050565b6000610a18600083610b2b565b9150610a2382610ee7565b600082019050919050565b6000610a3b600b83610b36565b9150610a4682610eea565b602082019050919050565b610a5a81610d25565b82525050565b6000610a6b82610a0b565b9150819050919050565b6000602082019050610a8a6000830184610993565b92915050565b60006020820190508181036000830152610aa9816109a2565b9050919050565b60006020820190508181036000830152610ac9816109c5565b9050919050565b60006020820190508181036000830152610ae9816109e8565b9050919050565b60006020820190508181036000830152610b0981610a2e565b9050919050565b6000602082019050610b256000830184610a51565b92915050565b600081905092915050565b600082825260208201905092915050565b6000610b5282610d25565b9150610b5d83610d25565b925082610b6d57610b6c610dbd565b5b828204905092915050565b6000610b8382610cfb565b9150610b8e83610cfb565b9250827f7fffffffffffffffffffffffffffffffffffffffffffffffffffffffffffffff0482116000841360008413161615610bcd57610bcc610d8e565b5b817f80000000000000000000000000000000000000000000000000000000000000000583126000841260008413161615610c0a57610c09610d8e565b5b827f80000000000000000000000000000000000000000000000000000000000000000582126000841360008412161615610c4757610c46610d8e565b5b827f7fffffffffffffffffffffffffffffffffffffffffffffffffffffffffffffff0582126000841260008412161615610c8457610c83610d8e565b5b828202905092915050565b6000610c9a82610d25565b9150610ca583610d25565b9250817fffffffffffffffffffffffffffffffffffffffffffffffffffffffffffffffff0483118215151615610cde57610cdd610d8e565b5b828202905092915050565b6000610cf482610d05565b9050919050565b6000819050919050565b600073ffffffffffffffffffffffffffffffffffffffff82169050919050565b6000819050919050565b600069ffffffffffffffffffff82169050919050565b6000610d5082610d25565b91507fffffffffffffffffffffffffffffffffffffffffffffffffffffffffffffffff821415610d8357610d82610d8e565b5b600182019050919050565b7f4e487b7100000000000000000000000000000000000000000000000000000000600052601160045260246000fd5b7f4e487b7100000000000000000000000000000000000000000000000000000000600052601260045260246000fd5b7f4e487b7100000000000000000000000000000000000000000000000000000000600052603260045260246000fd5b600080fd5b7f4f6e6c79206f776e65722063616e207769746864726177207472616e7361637460008201527f696f6e7300000000000000000000000000000000000000000000000000000000602082015250565b7f53656e64204661696c6564000000000000000000000000000000000000000000600082015250565b7f546865206d696e696d756d20616d6f756e74206f662066756e6420776f756c6460008201527f206265203e3d3530240000000000000000000000000000000000000000000000602082015250565b50565b7f43616c6c204661696c6564000000000000000000000000000000000000000000600082015250565b610f1c81610ce9565b8114610f2757600080fd5b50565b610f3381610cfb565b8114610f3e57600080fd5b50565b610f4a81610d25565b8114610f5557600080fd5b50565b610f6181610d2f565b8114610f6c57600080fd5b5056fea264697066735822122084f04cca709967791c331c173476d67aaf82cd04e795640d859cb7c2c27520db64736f6c63430008070033",
					"opcodes": "PUSH1 0x80 PUSH1 0x40 MSTORE CALLVALUE DUP1 ISZERO PUSH2 0x10 JUMPI PUSH1 0x0 DUP1 REVERT JUMPDEST POP CALLER PUSH1 0x0 DUP1 PUSH2 0x100 EXP DUP2 SLOAD DUP2 PUSH20 0xFFFFFFFFFFFFFFFFFFFFFFFFFFFFFFFFFFFFFFFF MUL NOT AND SWAP1 DUP4 PUSH20 0xFFFFFFFFFFFFFFFFFFFFFFFFFFFFFFFFFFFFFFFF AND MUL OR SWAP1 SSTORE POP PUSH2 0xFA5 DUP1 PUSH2 0x60 PUSH1 0x0 CODECOPY PUSH1 0x0 RETURN INVALID PUSH1 0x80 PUSH1 0x40 MSTORE PUSH1 0x4 CALLDATASIZE LT PUSH2 0x7A JUMPI PUSH1 0x0 CALLDATALOAD PUSH1 0xE0 SHR DUP1 PUSH4 0x8DA5CB5B GT PUSH2 0x4E JUMPI DUP1 PUSH4 0x8DA5CB5B EQ PUSH2 0xF4 JUMPI DUP1 PUSH4 0x968ED600 EQ PUSH2 0x11F JUMPI DUP1 PUSH4 0xDC0D3DFF EQ PUSH2 0x14A JUMPI DUP1 PUSH4 0xE73C0F23 EQ PUSH2 0x187 JUMPI PUSH2 0x7A JUMP JUMPDEST DUP1 PUSH3 0x5C33E1 EQ PUSH2 0x7F JUMPI DUP1 PUSH4 0x3CCFD60B EQ PUSH2 0x89 JUMPI DUP1 PUSH4 0x6B69A592 EQ PUSH2 0xA0 JUMPI DUP1 PUSH4 0x76778D6E EQ PUSH2 0xCB JUMPI JUMPDEST PUSH1 0x0 DUP1 REVERT JUMPDEST PUSH2 0x87 PUSH2 0x1C4 JUMP JUMPDEST STOP JUMPDEST CALLVALUE DUP1 ISZERO PUSH2 0x95 JUMPI PUSH1 0x0 DUP1 REVERT JUMPDEST POP PUSH2 0x9E PUSH2 0x2C1 JUMP JUMPDEST STOP JUMPDEST CALLVALUE DUP1 ISZERO PUSH2 0xAC JUMPI PUSH1 0x0 DUP1 REVERT JUMPDEST POP PUSH2 0xB5 PUSH2 0x56C JUMP JUMPDEST PUSH1 0x40 MLOAD PUSH2 0xC2 SWAP2 SWAP1 PUSH2 0xB10 JUMP JUMPDEST PUSH1 0x40 MLOAD DUP1 SWAP2 SUB SWAP1 RETURN JUMPDEST CALLVALUE DUP1 ISZERO PUSH2 0xD7 JUMPI PUSH1 0x0 DUP1 REVERT JUMPDEST POP PUSH2 0xF2 PUSH1 0x4 DUP1 CALLDATASIZE SUB DUP2 ADD SWAP1 PUSH2 0xED SWAP2 SWAP1 PUSH2 0x8EB JUMP JUMPDEST PUSH2 0x579 JUMP JUMPDEST STOP JUMPDEST CALLVALUE DUP1 ISZERO PUSH2 0x100 JUMPI PUSH1 0x0 DUP1 REVERT JUMPDEST POP PUSH2 0x109 PUSH2 0x651 JUMP JUMPDEST PUSH1 0x40 MLOAD PUSH2 0x116 SWAP2 SWAP1 PUSH2 0xA75 JUMP JUMPDEST PUSH1 0x40 MLOAD DUP1 SWAP2 SUB SWAP1 RETURN JUMPDEST CALLVALUE DUP1 ISZERO PUSH2 0x12B JUMPI PUSH1 0x0 DUP1 REVERT JUMPDEST POP PUSH2 0x134 PUSH2 0x675 JUMP JUMPDEST PUSH1 0x40 MLOAD PUSH2 0x141 SWAP2 SWAP1 PUSH2 0xB10 JUMP JUMPDEST PUSH1 0x40 MLOAD DUP1 SWAP2 SUB SWAP1 RETURN JUMPDEST CALLVALUE DUP1 ISZERO PUSH2 0x156 JUMPI PUSH1 0x0 DUP1 REVERT JUMPDEST POP PUSH2 0x171 PUSH1 0x4 DUP1 CALLDATASIZE SUB DUP2 ADD SWAP1 PUSH2 0x16C SWAP2 SWAP1 PUSH2 0x8EB JUMP JUMPDEST PUSH2 0x70C JUMP JUMPDEST PUSH1 0x40 MLOAD PUSH2 0x17E SWAP2 SWAP1 PUSH2 0xA75 JUMP JUMPDEST PUSH1 0x40 MLOAD DUP1 SWAP2 SUB SWAP1 RETURN JUMPDEST CALLVALUE DUP1 ISZERO PUSH2 0x193 JUMPI PUSH1 0x0 DUP1 REVERT JUMPDEST POP PUSH2 0x1AE PUSH1 0x4 DUP1 CALLDATASIZE SUB DUP2 ADD SWAP1 PUSH2 0x1A9 SWAP2 SWAP1 PUSH2 0x8BE JUMP JUMPDEST PUSH2 0x74B JUMP JUMPDEST PUSH1 0x40 MLOAD PUSH2 0x1BB SWAP2 SWAP1 PUSH2 0xB10 JUMP JUMPDEST PUSH1 0x40 MLOAD DUP1 SWAP2 SUB SWAP1 RETURN JUMPDEST PUSH9 0x2B5E3AF16B1880000 PUSH2 0x1D7 CALLVALUE PUSH2 0x763 JUMP JUMPDEST LT ISZERO PUSH2 0x218 JUMPI PUSH1 0x40 MLOAD PUSH32 0x8C379A000000000000000000000000000000000000000000000000000000000 DUP2 MSTORE PUSH1 0x4 ADD PUSH2 0x20F SWAP1 PUSH2 0xAD0 JUMP JUMPDEST PUSH1 0x40 MLOAD DUP1 SWAP2 SUB SWAP1 REVERT JUMPDEST PUSH1 0x1 CALLER SWAP1 DUP1 PUSH1 0x1 DUP2 SLOAD ADD DUP1 DUP3 SSTORE DUP1 SWAP2 POP POP PUSH1 0x1 SWAP1 SUB SWAP1 PUSH1 0x0 MSTORE PUSH1 0x20 PUSH1 0x0 KECCAK256 ADD PUSH1 0x0 SWAP1 SWAP2 SWAP1 SWAP2 SWAP1 SWAP2 PUSH2 0x100 EXP DUP2 SLOAD DUP2 PUSH20 0xFFFFFFFFFFFFFFFFFFFFFFFFFFFFFFFFFFFFFFFF MUL NOT AND SWAP1 DUP4 PUSH20 0xFFFFFFFFFFFFFFFFFFFFFFFFFFFFFFFFFFFFFFFF AND MUL OR SWAP1 SSTORE POP CALLVALUE PUSH1 0x2 PUSH1 0x0 CALLER PUSH20 0xFFFFFFFFFFFFFFFFFFFFFFFFFFFFFFFFFFFFFFFF AND PUSH20 0xFFFFFFFFFFFFFFFFFFFFFFFFFFFFFFFFFFFFFFFF AND DUP2 MSTORE PUSH1 0x20 ADD SWAP1 DUP2 MSTORE PUSH1 0x20 ADD PUSH1 0x0 KECCAK256 DUP2 SWAP1 SSTORE POP JUMP JUMPDEST PUSH1 0x0 DUP1 SLOAD SWAP1 PUSH2 0x100 EXP SWAP1 DIV PUSH20 0xFFFFFFFFFFFFFFFFFFFFFFFFFFFFFFFFFFFFFFFF AND PUSH20 0xFFFFFFFFFFFFFFFFFFFFFFFFFFFFFFFFFFFFFFFF AND CALLER PUSH20 0xFFFFFFFFFFFFFFFFFFFFFFFFFFFFFFFFFFFFFFFF AND EQ PUSH2 0x34F JUMPI PUSH1 0x40 MLOAD PUSH32 0x8C379A000000000000000000000000000000000000000000000000000000000 DUP2 MSTORE PUSH1 0x4 ADD PUSH2 0x346 SWAP1 PUSH2 0xA90 JUMP JUMPDEST PUSH1 0x40 MLOAD DUP1 SWAP2 SUB SWAP1 REVERT JUMPDEST PUSH1 0x0 JUMPDEST PUSH1 0x1 DUP1 SLOAD SWAP1 POP DUP2 LT ISZERO PUSH2 0x3FB JUMPI PUSH1 0x0 PUSH1 0x1 DUP3 DUP2 SLOAD DUP2 LT PUSH2 0x375 JUMPI PUSH2 0x374 PUSH2 0xDEC JUMP JUMPDEST JUMPDEST SWAP1 PUSH1 0x0 MSTORE PUSH1 0x20 PUSH1 0x0 KECCAK256 ADD PUSH1 0x0 SWAP1 SLOAD SWAP1 PUSH2 0x100 EXP SWAP1 DIV PUSH20 0xFFFFFFFFFFFFFFFFFFFFFFFFFFFFFFFFFFFFFFFF AND SWAP1 POP PUSH1 0x0 PUSH1 0x2 PUSH1 0x0 DUP4 PUSH20 0xFFFFFFFFFFFFFFFFFFFFFFFFFFFFFFFFFFFFFFFF AND PUSH20 0xFFFFFFFFFFFFFFFFFFFFFFFFFFFFFFFFFFFFFFFF AND DUP2 MSTORE PUSH1 0x20 ADD SWAP1 DUP2 MSTORE PUSH1 0x20 ADD PUSH1 0x0 KECCAK256 DUP2 SWAP1 SSTORE POP POP DUP1 DUP1 PUSH2 0x3F3 SWAP1 PUSH2 0xD45 JUMP JUMPDEST SWAP2 POP POP PUSH2 0x352 JUMP JUMPDEST CALLER PUSH20 0xFFFFFFFFFFFFFFFFFFFFFFFFFFFFFFFFFFFFFFFF AND PUSH2 0x8FC SELFBALANCE SWAP1 DUP2 ISZERO MUL SWAP1 PUSH1 0x40 MLOAD PUSH1 0x0 PUSH1 0x40 MLOAD DUP1 DUP4 SUB DUP2 DUP6 DUP9 DUP9 CALL SWAP4 POP POP POP POP ISZERO DUP1 ISZERO PUSH2 0x441 JUMPI RETURNDATASIZE PUSH1 0x0 DUP1 RETURNDATACOPY RETURNDATASIZE PUSH1 0x0 REVERT JUMPDEST POP PUSH1 0x0 CALLER PUSH20 0xFFFFFFFFFFFFFFFFFFFFFFFFFFFFFFFFFFFFFFFF AND PUSH2 0x8FC SELFBALANCE SWAP1 DUP2 ISZERO MUL SWAP1 PUSH1 0x40 MLOAD PUSH1 0x0 PUSH1 0x40 MLOAD DUP1 DUP4 SUB DUP2 DUP6 DUP9 DUP9 CALL SWAP4 POP POP POP POP SWAP1 POP DUP1 PUSH2 0x4BB JUMPI PUSH1 0x40 MLOAD PUSH32 0x8C379A000000000000000000000000000000000000000000000000000000000 DUP2 MSTORE PUSH1 0x4 ADD PUSH2 0x4B2 SWAP1 PUSH2 0xAB0 JUMP JUMPDEST PUSH1 0x40 MLOAD DUP1 SWAP2 SUB SWAP1 REVERT JUMPDEST PUSH1 0x0 CALLER PUSH20 0xFFFFFFFFFFFFFFFFFFFFFFFFFFFFFFFFFFFFFFFF AND SELFBALANCE PUSH1 0x40 MLOAD PUSH2 0x4E1 SWAP1 PUSH2 0xA60 JUMP JUMPDEST PUSH1 0x0 PUSH1 0x40 MLOAD DUP1 DUP4 SUB DUP2 DUP6 DUP8 GAS CALL SWAP3 POP POP POP RETURNDATASIZE DUP1 PUSH1 0x0 DUP2 EQ PUSH2 0x51E JUMPI PUSH1 0x40 MLOAD SWAP2 POP PUSH1 0x1F NOT PUSH1 0x3F RETURNDATASIZE ADD AND DUP3 ADD PUSH1 0x40 MSTORE RETURNDATASIZE DUP3 MSTORE RETURNDATASIZE PUSH1 0x0 PUSH1 0x20 DUP5 ADD RETURNDATACOPY PUSH2 0x523 JUMP JUMPDEST PUSH1 0x60 SWAP2 POP JUMPDEST POP POP SWAP1 POP DUP1 PUSH2 0x567 JUMPI PUSH1 0x40 MLOAD PUSH32 0x8C379A000000000000000000000000000000000000000000000000000000000 DUP2 MSTORE PUSH1 0x4 ADD PUSH2 0x55E SWAP1 PUSH2 0xAF0 JUMP JUMPDEST PUSH1 0x40 MLOAD DUP1 SWAP2 SUB SWAP1 REVERT JUMPDEST POP POP POP JUMP JUMPDEST PUSH9 0x2B5E3AF16B1880000 DUP2 JUMP JUMPDEST PUSH1 0x0 DUP1 SLOAD SWAP1 PUSH2 0x100 EXP SWAP1 DIV PUSH20 0xFFFFFFFFFFFFFFFFFFFFFFFFFFFFFFFFFFFFFFFF AND PUSH20 0xFFFFFFFFFFFFFFFFFFFFFFFFFFFFFFFFFFFFFFFF AND CALLER PUSH20 0xFFFFFFFFFFFFFFFFFFFFFFFFFFFFFFFFFFFFFFFF AND EQ PUSH2 0x607 JUMPI PUSH1 0x40 MLOAD PUSH32 0x8C379A000000000000000000000000000000000000000000000000000000000 DUP2 MSTORE PUSH1 0x4 ADD PUSH2 0x5FE SWAP1 PUSH2 0xA90 JUMP JUMPDEST PUSH1 0x40 MLOAD DUP1 SWAP2 SUB SWAP1 REVERT JUMPDEST CALLER PUSH20 0xFFFFFFFFFFFFFFFFFFFFFFFFFFFFFFFFFFFFFFFF AND PUSH2 0x8FC DUP3 SWAP1 DUP2 ISZERO MUL SWAP1 PUSH1 0x40 MLOAD PUSH1 0x0 PUSH1 0x40 MLOAD DUP1 DUP4 SUB DUP2 DUP6 DUP9 DUP9 CALL SWAP4 POP POP POP POP ISZERO DUP1 ISZERO PUSH2 0x64D JUMPI RETURNDATASIZE PUSH1 0x0 DUP1 RETURNDATACOPY RETURNDATASIZE PUSH1 0x0 REVERT JUMPDEST POP POP JUMP JUMPDEST PUSH1 0x0 DUP1 SLOAD SWAP1 PUSH2 0x100 EXP SWAP1 DIV PUSH20 0xFFFFFFFFFFFFFFFFFFFFFFFFFFFFFFFFFFFFFFFF AND DUP2 JUMP JUMPDEST PUSH1 0x0 DUP1 PUSH1 0x0 SWAP1 SLOAD SWAP1 PUSH2 0x100 EXP SWAP1 DIV PUSH20 0xFFFFFFFFFFFFFFFFFFFFFFFFFFFFFFFFFFFFFFFF AND PUSH20 0xFFFFFFFFFFFFFFFFFFFFFFFFFFFFFFFFFFFFFFFF AND CALLER PUSH20 0xFFFFFFFFFFFFFFFFFFFFFFFFFFFFFFFFFFFFFFFF AND EQ PUSH2 0x706 JUMPI PUSH1 0x40 MLOAD PUSH32 0x8C379A000000000000000000000000000000000000000000000000000000000 DUP2 MSTORE PUSH1 0x4 ADD PUSH2 0x6FD SWAP1 PUSH2 0xA90 JUMP JUMPDEST PUSH1 0x40 MLOAD DUP1 SWAP2 SUB SWAP1 REVERT JUMPDEST SELFBALANCE SWAP1 POP SWAP1 JUMP JUMPDEST PUSH1 0x1 DUP2 DUP2 SLOAD DUP2 LT PUSH2 0x71C JUMPI PUSH1 0x0 DUP1 REVERT JUMPDEST SWAP1 PUSH1 0x0 MSTORE PUSH1 0x20 PUSH1 0x0 KECCAK256 ADD PUSH1 0x0 SWAP2 POP SLOAD SWAP1 PUSH2 0x100 EXP SWAP1 DIV PUSH20 0xFFFFFFFFFFFFFFFFFFFFFFFFFFFFFFFFFFFFFFFF AND DUP2 JUMP JUMPDEST PUSH1 0x2 PUSH1 0x20 MSTORE DUP1 PUSH1 0x0 MSTORE PUSH1 0x40 PUSH1 0x0 KECCAK256 PUSH1 0x0 SWAP2 POP SWAP1 POP SLOAD DUP2 JUMP JUMPDEST PUSH1 0x0 DUP1 PUSH2 0x76E PUSH2 0x79D JUMP JUMPDEST SWAP1 POP PUSH1 0x0 PUSH8 0xDE0B6B3A7640000 DUP3 DUP6 PUSH2 0x787 SWAP2 SWAP1 PUSH2 0xC8F JUMP JUMPDEST PUSH2 0x791 SWAP2 SWAP1 PUSH2 0xB47 JUMP JUMPDEST SWAP1 POP DUP1 SWAP3 POP POP POP SWAP2 SWAP1 POP JUMP JUMPDEST PUSH1 0x0 DUP1 PUSH20 0x8A753747A1FA494EC906CE90E9F37563A8AF630E SWAP1 POP PUSH1 0x0 DUP2 PUSH20 0xFFFFFFFFFFFFFFFFFFFFFFFFFFFFFFFFFFFFFFFF AND PUSH4 0xFEAF968C PUSH1 0x40 MLOAD DUP2 PUSH4 0xFFFFFFFF AND PUSH1 0xE0 SHL DUP2 MSTORE PUSH1 0x4 ADD PUSH1 0xA0 PUSH1 0x40 MLOAD DUP1 DUP4 SUB DUP2 DUP7 DUP1 EXTCODESIZE ISZERO DUP1 ISZERO PUSH2 0x7FF JUMPI PUSH1 0x0 DUP1 REVERT JUMPDEST POP GAS STATICCALL ISZERO DUP1 ISZERO PUSH2 0x813 JUMPI RETURNDATASIZE PUSH1 0x0 DUP1 RETURNDATACOPY RETURNDATASIZE PUSH1 0x0 REVERT JUMPDEST POP POP POP POP PUSH1 0x40 MLOAD RETURNDATASIZE PUSH1 0x1F NOT PUSH1 0x1F DUP3 ADD AND DUP3 ADD DUP1 PUSH1 0x40 MSTORE POP DUP2 ADD SWAP1 PUSH2 0x837 SWAP2 SWAP1 PUSH2 0x918 JUMP JUMPDEST POP POP POP SWAP2 POP POP PUSH5 0x2540BE400 DUP2 PUSH2 0x84E SWAP2 SWAP1 PUSH2 0xB78 JUMP JUMPDEST SWAP3 POP POP POP SWAP1 JUMP JUMPDEST PUSH1 0x0 DUP2 CALLDATALOAD SWAP1 POP PUSH2 0x864 DUP2 PUSH2 0xF13 JUMP JUMPDEST SWAP3 SWAP2 POP POP JUMP JUMPDEST PUSH1 0x0 DUP2 MLOAD SWAP1 POP PUSH2 0x879 DUP2 PUSH2 0xF2A JUMP JUMPDEST SWAP3 SWAP2 POP POP JUMP JUMPDEST PUSH1 0x0 DUP2 CALLDATALOAD SWAP1 POP PUSH2 0x88E DUP2 PUSH2 0xF41 JUMP JUMPDEST SWAP3 SWAP2 POP POP JUMP JUMPDEST PUSH1 0x0 DUP2 MLOAD SWAP1 POP PUSH2 0x8A3 DUP2 PUSH2 0xF41 JUMP JUMPDEST SWAP3 SWAP2 POP POP JUMP JUMPDEST PUSH1 0x0 DUP2 MLOAD SWAP1 POP PUSH2 0x8B8 DUP2 PUSH2 0xF58 JUMP JUMPDEST SWAP3 SWAP2 POP POP JUMP JUMPDEST PUSH1 0x0 PUSH1 0x20 DUP3 DUP5 SUB SLT ISZERO PUSH2 0x8D4 JUMPI PUSH2 0x8D3 PUSH2 0xE1B JUMP JUMPDEST JUMPDEST PUSH1 0x0 PUSH2 0x8E2 DUP5 DUP3 DUP6 ADD PUSH2 0x855 JUMP JUMPDEST SWAP2 POP POP SWAP3 SWAP2 POP POP JUMP JUMPDEST PUSH1 0x0 PUSH1 0x20 DUP3 DUP5 SUB SLT ISZERO PUSH2 0x901 JUMPI PUSH2 0x900 PUSH2 0xE1B JUMP JUMPDEST JUMPDEST PUSH1 0x0 PUSH2 0x90F DUP5 DUP3 DUP6 ADD PUSH2 0x87F JUMP JUMPDEST SWAP2 POP POP SWAP3 SWAP2 POP POP JUMP JUMPDEST PUSH1 0x0 DUP1 PUSH1 0x0 DUP1 PUSH1 0x0 PUSH1 0xA0 DUP7 DUP9 SUB SLT ISZERO PUSH2 0x934 JUMPI PUSH2 0x933 PUSH2 0xE1B JUMP JUMPDEST JUMPDEST PUSH1 0x0 PUSH2 0x942 DUP9 DUP3 DUP10 ADD PUSH2 0x8A9 JUMP JUMPDEST SWAP6 POP POP PUSH1 0x20 PUSH2 0x953 DUP9 DUP3 DUP10 ADD PUSH2 0x86A JUMP JUMPDEST SWAP5 POP POP PUSH1 0x40 PUSH2 0x964 DUP9 DUP3 DUP10 ADD PUSH2 0x894 JUMP JUMPDEST SWAP4 POP POP PUSH1 0x60 PUSH2 0x975 DUP9 DUP3 DUP10 ADD PUSH2 0x894 JUMP JUMPDEST SWAP3 POP POP PUSH1 0x80 PUSH2 0x986 DUP9 DUP3 DUP10 ADD PUSH2 0x8A9 JUMP JUMPDEST SWAP2 POP POP SWAP3 SWAP6 POP SWAP3 SWAP6 SWAP1 SWAP4 POP JUMP JUMPDEST PUSH2 0x99C DUP2 PUSH2 0xCE9 JUMP JUMPDEST DUP3 MSTORE POP POP JUMP JUMPDEST PUSH1 0x0 PUSH2 0x9AF PUSH1 0x24 DUP4 PUSH2 0xB36 JUMP JUMPDEST SWAP2 POP PUSH2 0x9BA DUP3 PUSH2 0xE20 JUMP JUMPDEST PUSH1 0x40 DUP3 ADD SWAP1 POP SWAP2 SWAP1 POP JUMP JUMPDEST PUSH1 0x0 PUSH2 0x9D2 PUSH1 0xB DUP4 PUSH2 0xB36 JUMP JUMPDEST SWAP2 POP PUSH2 0x9DD DUP3 PUSH2 0xE6F JUMP JUMPDEST PUSH1 0x20 DUP3 ADD SWAP1 POP SWAP2 SWAP1 POP JUMP JUMPDEST PUSH1 0x0 PUSH2 0x9F5 PUSH1 0x29 DUP4 PUSH2 0xB36 JUMP JUMPDEST SWAP2 POP PUSH2 0xA00 DUP3 PUSH2 0xE98 JUMP JUMPDEST PUSH1 0x40 DUP3 ADD SWAP1 POP SWAP2 SWAP1 POP JUMP JUMPDEST PUSH1 0x0 PUSH2 0xA18 PUSH1 0x0 DUP4 PUSH2 0xB2B JUMP JUMPDEST SWAP2 POP PUSH2 0xA23 DUP3 PUSH2 0xEE7 JUMP JUMPDEST PUSH1 0x0 DUP3 ADD SWAP1 POP SWAP2 SWAP1 POP JUMP JUMPDEST PUSH1 0x0 PUSH2 0xA3B PUSH1 0xB DUP4 PUSH2 0xB36 JUMP JUMPDEST SWAP2 POP PUSH2 0xA46 DUP3 PUSH2 0xEEA JUMP JUMPDEST PUSH1 0x20 DUP3 ADD SWAP1 POP SWAP2 SWAP1 POP JUMP JUMPDEST PUSH2 0xA5A DUP2 PUSH2 0xD25 JUMP JUMPDEST DUP3 MSTORE POP POP JUMP JUMPDEST PUSH1 0x0 PUSH2 0xA6B DUP3 PUSH2 0xA0B JUMP JUMPDEST SWAP2 POP DUP2 SWAP1 POP SWAP2 SWAP1 POP JUMP JUMPDEST PUSH1 0x0 PUSH1 0x20 DUP3 ADD SWAP1 POP PUSH2 0xA8A PUSH1 0x0 DUP4 ADD DUP5 PUSH2 0x993 JUMP JUMPDEST SWAP3 SWAP2 POP POP JUMP JUMPDEST PUSH1 0x0 PUSH1 0x20 DUP3 ADD SWAP1 POP DUP2 DUP2 SUB PUSH1 0x0 DUP4 ADD MSTORE PUSH2 0xAA9 DUP2 PUSH2 0x9A2 JUMP JUMPDEST SWAP1 POP SWAP2 SWAP1 POP JUMP JUMPDEST PUSH1 0x0 PUSH1 0x20 DUP3 ADD SWAP1 POP DUP2 DUP2 SUB PUSH1 0x0 DUP4 ADD MSTORE PUSH2 0xAC9 DUP2 PUSH2 0x9C5 JUMP JUMPDEST SWAP1 POP SWAP2 SWAP1 POP JUMP JUMPDEST PUSH1 0x0 PUSH1 0x20 DUP3 ADD SWAP1 POP DUP2 DUP2 SUB PUSH1 0x0 DUP4 ADD MSTORE PUSH2 0xAE9 DUP2 PUSH2 0x9E8 JUMP JUMPDEST SWAP1 POP SWAP2 SWAP1 POP JUMP JUMPDEST PUSH1 0x0 PUSH1 0x20 DUP3 ADD SWAP1 POP DUP2 DUP2 SUB PUSH1 0x0 DUP4 ADD MSTORE PUSH2 0xB09 DUP2 PUSH2 0xA2E JUMP JUMPDEST SWAP1 POP SWAP2 SWAP1 POP JUMP JUMPDEST PUSH1 0x0 PUSH1 0x20 DUP3 ADD SWAP1 POP PUSH2 0xB25 PUSH1 0x0 DUP4 ADD DUP5 PUSH2 0xA51 JUMP JUMPDEST SWAP3 SWAP2 POP POP JUMP JUMPDEST PUSH1 0x0 DUP2 SWAP1 POP SWAP3 SWAP2 POP POP JUMP JUMPDEST PUSH1 0x0 DUP3 DUP3 MSTORE PUSH1 0x20 DUP3 ADD SWAP1 POP SWAP3 SWAP2 POP POP JUMP JUMPDEST PUSH1 0x0 PUSH2 0xB52 DUP3 PUSH2 0xD25 JUMP JUMPDEST SWAP2 POP PUSH2 0xB5D DUP4 PUSH2 0xD25 JUMP JUMPDEST SWAP3 POP DUP3 PUSH2 0xB6D JUMPI PUSH2 0xB6C PUSH2 0xDBD JUMP JUMPDEST JUMPDEST DUP3 DUP3 DIV SWAP1 POP SWAP3 SWAP2 POP POP JUMP JUMPDEST PUSH1 0x0 PUSH2 0xB83 DUP3 PUSH2 0xCFB JUMP JUMPDEST SWAP2 POP PUSH2 0xB8E DUP4 PUSH2 0xCFB JUMP JUMPDEST SWAP3 POP DUP3 PUSH32 0x7FFFFFFFFFFFFFFFFFFFFFFFFFFFFFFFFFFFFFFFFFFFFFFFFFFFFFFFFFFFFFFF DIV DUP3 GT PUSH1 0x0 DUP5 SGT PUSH1 0x0 DUP5 SGT AND AND ISZERO PUSH2 0xBCD JUMPI PUSH2 0xBCC PUSH2 0xD8E JUMP JUMPDEST JUMPDEST DUP2 PUSH32 0x8000000000000000000000000000000000000000000000000000000000000000 SDIV DUP4 SLT PUSH1 0x0 DUP5 SLT PUSH1 0x0 DUP5 SGT AND AND ISZERO PUSH2 0xC0A JUMPI PUSH2 0xC09 PUSH2 0xD8E JUMP JUMPDEST JUMPDEST DUP3 PUSH32 0x8000000000000000000000000000000000000000000000000000000000000000 SDIV DUP3 SLT PUSH1 0x0 DUP5 SGT PUSH1 0x0 DUP5 SLT AND AND ISZERO PUSH2 0xC47 JUMPI PUSH2 0xC46 PUSH2 0xD8E JUMP JUMPDEST JUMPDEST DUP3 PUSH32 0x7FFFFFFFFFFFFFFFFFFFFFFFFFFFFFFFFFFFFFFFFFFFFFFFFFFFFFFFFFFFFFFF SDIV DUP3 SLT PUSH1 0x0 DUP5 SLT PUSH1 0x0 DUP5 SLT AND AND ISZERO PUSH2 0xC84 JUMPI PUSH2 0xC83 PUSH2 0xD8E JUMP JUMPDEST JUMPDEST DUP3 DUP3 MUL SWAP1 POP SWAP3 SWAP2 POP POP JUMP JUMPDEST PUSH1 0x0 PUSH2 0xC9A DUP3 PUSH2 0xD25 JUMP JUMPDEST SWAP2 POP PUSH2 0xCA5 DUP4 PUSH2 0xD25 JUMP JUMPDEST SWAP3 POP DUP2 PUSH32 0xFFFFFFFFFFFFFFFFFFFFFFFFFFFFFFFFFFFFFFFFFFFFFFFFFFFFFFFFFFFFFFFF DIV DUP4 GT DUP3 ISZERO ISZERO AND ISZERO PUSH2 0xCDE JUMPI PUSH2 0xCDD PUSH2 0xD8E JUMP JUMPDEST JUMPDEST DUP3 DUP3 MUL SWAP1 POP SWAP3 SWAP2 POP POP JUMP JUMPDEST PUSH1 0x0 PUSH2 0xCF4 DUP3 PUSH2 0xD05 JUMP JUMPDEST SWAP1 POP SWAP2 SWAP1 POP JUMP JUMPDEST PUSH1 0x0 DUP2 SWAP1 POP SWAP2 SWAP1 POP JUMP JUMPDEST PUSH1 0x0 PUSH20 0xFFFFFFFFFFFFFFFFFFFFFFFFFFFFFFFFFFFFFFFF DUP3 AND SWAP1 POP SWAP2 SWAP1 POP JUMP JUMPDEST PUSH1 0x0 DUP2 SWAP1 POP SWAP2 SWAP1 POP JUMP JUMPDEST PUSH1 0x0 PUSH10 0xFFFFFFFFFFFFFFFFFFFF DUP3 AND SWAP1 POP SWAP2 SWAP1 POP JUMP JUMPDEST PUSH1 0x0 PUSH2 0xD50 DUP3 PUSH2 0xD25 JUMP JUMPDEST SWAP2 POP PUSH32 0xFFFFFFFFFFFFFFFFFFFFFFFFFFFFFFFFFFFFFFFFFFFFFFFFFFFFFFFFFFFFFFFF DUP3 EQ ISZERO PUSH2 0xD83 JUMPI PUSH2 0xD82 PUSH2 0xD8E JUMP JUMPDEST JUMPDEST PUSH1 0x1 DUP3 ADD SWAP1 POP SWAP2 SWAP1 POP JUMP JUMPDEST PUSH32 0x4E487B7100000000000000000000000000000000000000000000000000000000 PUSH1 0x0 MSTORE PUSH1 0x11 PUSH1 0x4 MSTORE PUSH1 0x24 PUSH1 0x0 REVERT JUMPDEST PUSH32 0x4E487B7100000000000000000000000000000000000000000000000000000000 PUSH1 0x0 MSTORE PUSH1 0x12 PUSH1 0x4 MSTORE PUSH1 0x24 PUSH1 0x0 REVERT JUMPDEST PUSH32 0x4E487B7100000000000000000000000000000000000000000000000000000000 PUSH1 0x0 MSTORE PUSH1 0x32 PUSH1 0x4 MSTORE PUSH1 0x24 PUSH1 0x0 REVERT JUMPDEST PUSH1 0x0 DUP1 REVERT JUMPDEST PUSH32 0x4F6E6C79206F776E65722063616E207769746864726177207472616E73616374 PUSH1 0x0 DUP3 ADD MSTORE PUSH32 0x696F6E7300000000000000000000000000000000000000000000000000000000 PUSH1 0x20 DUP3 ADD MSTORE POP JUMP JUMPDEST PUSH32 0x53656E64204661696C6564000000000000000000000000000000000000000000 PUSH1 0x0 DUP3 ADD MSTORE POP JUMP JUMPDEST PUSH32 0x546865206D696E696D756D20616D6F756E74206F662066756E6420776F756C64 PUSH1 0x0 DUP3 ADD MSTORE PUSH32 0x206265203E3D3530240000000000000000000000000000000000000000000000 PUSH1 0x20 DUP3 ADD MSTORE POP JUMP JUMPDEST POP JUMP JUMPDEST PUSH32 0x43616C6C204661696C6564000000000000000000000000000000000000000000 PUSH1 0x0 DUP3 ADD MSTORE POP JUMP JUMPDEST PUSH2 0xF1C DUP2 PUSH2 0xCE9 JUMP JUMPDEST DUP2 EQ PUSH2 0xF27 JUMPI PUSH1 0x0 DUP1 REVERT JUMPDEST POP JUMP JUMPDEST PUSH2 0xF33 DUP2 PUSH2 0xCFB JUMP JUMPDEST DUP2 EQ PUSH2 0xF3E JUMPI PUSH1 0x0 DUP1 REVERT JUMPDEST POP JUMP JUMPDEST PUSH2 0xF4A DUP2 PUSH2 0xD25 JUMP JUMPDEST DUP2 EQ PUSH2 0xF55 JUMPI PUSH1 0x0 DUP1 REVERT JUMPDEST POP JUMP JUMPDEST PUSH2 0xF61 DUP2 PUSH2 0xD2F JUMP JUMPDEST DUP2 EQ PUSH2 0xF6C JUMPI PUSH1 0x0 DUP1 REVERT JUMPDEST POP JUMP INVALID LOG2 PUSH5 0x6970667358 0x22 SLT KECCAK256 DUP5 CREATE 0x4C 0xCA PUSH17 0x9967791C331C173476D67AAF82CD04E795 PUSH5 0xD859CB7C2 0xC2 PUSH22 0x20DB64736F6C63430008070033000000000000000000 "
				},
				"gasEstimates": {
					"creation": {
						"codeDepositCost": "801000",
						"executionCost": "25104",
						"totalCost": "826104"
					},
					"external": {
						"MINIMUM_USD()": "374",
						"funders(uint256)": "5000",
						"fundersAmount(address)": "2880",
						"owner()": "2511",
						"receiveFunds()": "infinite",
						"totalFunds()": "2646",
						"withdraw()": "infinite",
						"withdrawSpecificAmount(uint256)": "infinite"
					}
				},
				"methodIdentifiers": {
					"MINIMUM_USD()": "6b69a592",
					"funders(uint256)": "dc0d3dff",
					"fundersAmount(address)": "e73c0f23",
					"owner()": "8da5cb5b",
					"receiveFunds()": "005c33e1",
					"totalFunds()": "968ed600",
					"withdraw()": "3ccfd60b",
					"withdrawSpecificAmount(uint256)": "76778d6e"
				}
			},
			"storageLayout": {
				"storage": [
					{
						"astId": 60,
						"contract": "contracts/FundMe.sol:FundMe",
						"label": "owner",
						"offset": 0,
						"slot": "0",
						"type": "t_address"
					},
					{
						"astId": 63,
						"contract": "contracts/FundMe.sol:FundMe",
						"label": "funders",
						"offset": 0,
						"slot": "1",
						"type": "t_array(t_address)dyn_storage"
					},
					{
						"astId": 67,
						"contract": "contracts/FundMe.sol:FundMe",
						"label": "fundersAmount",
						"offset": 0,
						"slot": "2",
						"type": "t_mapping(t_address,t_uint256)"
					}
				],
				"types": {
					"t_address": {
						"encoding": "inplace",
						"label": "address",
						"numberOfBytes": "20"
					},
					"t_array(t_address)dyn_storage": {
						"base": "t_address",
						"encoding": "dynamic_array",
						"label": "address[]",
						"numberOfBytes": "32"
					},
					"t_mapping(t_address,t_uint256)": {
						"encoding": "mapping",
						"key": "t_address",
						"label": "mapping(address => uint256)",
						"numberOfBytes": "32",
						"value": "t_uint256"
					},
					"t_uint256": {
						"encoding": "inplace",
						"label": "uint256",
						"numberOfBytes": "32"
					}
				}
			},
			"userdoc": {
				"kind": "user",
				"methods": {},
				"version": 1
			}
		}
	}
}