{
	"contracts/FundMe.sol": {
		"FundMe": {
			"abi": [
				{
					"inputs": [],
					"stateMutability": "nonpayable",
					"type": "constructor"
				},
				{
					"inputs": [],
					"name": "notOwner",
					"type": "error"
				},
				{
					"inputs": [],
					"name": "MINIMUM_USD",
					"outputs": [
						{
							"internalType": "uint256",
							"name": "",
							"type": "uint256"
						}
					],
					"stateMutability": "view",
					"type": "function"
				},
				{
					"inputs": [
						{
							"internalType": "uint256",
							"name": "",
							"type": "uint256"
						}
					],
					"name": "funders",
					"outputs": [
						{
							"internalType": "address",
							"name": "",
							"type": "address"
						}
					],
					"stateMutability": "view",
					"type": "function"
				},
				{
					"inputs": [
						{
							"internalType": "address",
							"name": "",
							"type": "address"
						}
					],
					"name": "fundersAmount",
					"outputs": [
						{
							"internalType": "uint256",
							"name": "",
							"type": "uint256"
						}
					],
					"stateMutability": "view",
					"type": "function"
				},
				{
					"inputs": [],
					"name": "i_owner",
					"outputs": [
						{
							"internalType": "address",
							"name": "",
							"type": "address"
						}
					],
					"stateMutability": "view",
					"type": "function"
				},
				{
					"inputs": [],
					"name": "receiveFunds",
					"outputs": [],
					"stateMutability": "payable",
					"type": "function"
				},
				{
					"inputs": [],
					"name": "totalFunds",
					"outputs": [
						{
							"internalType": "uint256",
							"name": "",
							"type": "uint256"
						}
					],
					"stateMutability": "view",
					"type": "function"
				},
				{
					"inputs": [],
					"name": "withdraw",
					"outputs": [],
					"stateMutability": "nonpayable",
					"type": "function"
				},
				{
					"inputs": [
						{
							"internalType": "uint256",
							"name": "amount",
							"type": "uint256"
						}
					],
					"name": "withdrawSpecificAmount",
					"outputs": [],
					"stateMutability": "nonpayable",
					"type": "function"
				}
			],
			"devdoc": {
				"kind": "dev",
				"methods": {},
				"version": 1
			},
			"evm": {
				"assembly": "    /* \"contracts/FundMe.sol\":231:2926  contract FundMe{\r... */\n  mstore(0x40, 0xa0)\n    /* \"contracts/FundMe.sol\":650:850  constructor(){\r... */\n  callvalue\n  dup1\n  iszero\n  tag_1\n  jumpi\n  0x00\n  dup1\n  revert\ntag_1:\n  pop\n    /* \"contracts/FundMe.sol\":757:767  msg.sender */\n  caller\n    /* \"contracts/FundMe.sol\":747:767  i_owner = msg.sender */\n  0xffffffffffffffffffffffffffffffffffffffff\n  and\n  0x80\n  dup2\n  0xffffffffffffffffffffffffffffffffffffffff\n  and\n  0x60\n  shl\n  dup2\n  mstore\n  pop\n  pop\n    /* \"contracts/FundMe.sol\":231:2926  contract FundMe{\r... */\n  shr(0x60, mload(0x80))\n  codecopy(0x00, dataOffset(sub_0), dataSize(sub_0))\n  0x00\n  assignImmutable(\"0xd9670a00d025e59e1bd58d53874bea4ab34fea782716e2c168e89a3c8452d3bb\")\n  return(0x00, dataSize(sub_0))\nstop\n\nsub_0: assembly {\n        /* \"contracts/FundMe.sol\":231:2926  contract FundMe{\r... */\n      mstore(0x40, 0x80)\n      jumpi(tag_1, lt(calldatasize, 0x04))\n      shr(0xe0, calldataload(0x00))\n      dup1\n      0x968ed600\n      gt\n      tag_10\n      jumpi\n      dup1\n      0x968ed600\n      eq\n      tag_6\n      jumpi\n      dup1\n      0xdba6335f\n      eq\n      tag_7\n      jumpi\n      dup1\n      0xdc0d3dff\n      eq\n      tag_8\n      jumpi\n      dup1\n      0xe73c0f23\n      eq\n      tag_9\n      jumpi\n      jump(tag_1)\n    tag_10:\n      dup1\n      0x5c33e1\n      eq\n      tag_2\n      jumpi\n      dup1\n      0x3ccfd60b\n      eq\n      tag_3\n      jumpi\n      dup1\n      0x6b69a592\n      eq\n      tag_4\n      jumpi\n      dup1\n      0x76778d6e\n      eq\n      tag_5\n      jumpi\n    tag_1:\n      0x00\n      dup1\n      revert\n        /* \"contracts/FundMe.sol\":858:1590  function receiveFunds() public payable{\r... */\n    tag_2:\n      tag_11\n      tag_12\n      jump\t// in\n    tag_11:\n      stop\n        /* \"contracts/FundMe.sol\":1598:2471  function withdraw() public onlyOwner{\r... */\n    tag_3:\n      callvalue\n      dup1\n      iszero\n      tag_13\n      jumpi\n      0x00\n      dup1\n      revert\n    tag_13:\n      pop\n      tag_14\n      tag_15\n      jump\t// in\n    tag_14:\n      stop\n        /* \"contracts/FundMe.sol\":317:368  uint256 public constant MINIMUM_USD = 50 * 10 ** 18 */\n    tag_4:\n      callvalue\n      dup1\n      iszero\n      tag_16\n      jumpi\n      0x00\n      dup1\n      revert\n    tag_16:\n      pop\n      tag_17\n      tag_18\n      jump\t// in\n    tag_17:\n      mload(0x40)\n      tag_19\n      swap2\n      swap1\n      tag_20\n      jump\t// in\n    tag_19:\n      mload(0x40)\n      dup1\n      swap2\n      sub\n      swap1\n      return\n        /* \"contracts/FundMe.sol\":2479:2600  function withdrawSpecificAmount(uint256 amount) public onlyOwner{\r... */\n    tag_5:\n      callvalue\n      dup1\n      iszero\n      tag_21\n      jumpi\n      0x00\n      dup1\n      revert\n    tag_21:\n      pop\n      tag_22\n      0x04\n      dup1\n      calldatasize\n      sub\n      dup2\n      add\n      swap1\n      tag_23\n      swap2\n      swap1\n      tag_24\n      jump\t// in\n    tag_23:\n      tag_25\n      jump\t// in\n    tag_22:\n      stop\n        /* \"contracts/FundMe.sol\":2608:2712  function totalFunds() public onlyOwner view returns(uint){\r... */\n    tag_6:\n      callvalue\n      dup1\n      iszero\n      tag_26\n      jumpi\n      0x00\n      dup1\n      revert\n    tag_26:\n      pop\n      tag_27\n      tag_28\n      jump\t// in\n    tag_27:\n      mload(0x40)\n      tag_29\n      swap2\n      swap1\n      tag_20\n      jump\t// in\n    tag_29:\n      mload(0x40)\n      dup1\n      swap2\n      sub\n      swap1\n      return\n        /* \"contracts/FundMe.sol\":375:407  address public immutable i_owner */\n    tag_7:\n      callvalue\n      dup1\n      iszero\n      tag_30\n      jumpi\n      0x00\n      dup1\n      revert\n    tag_30:\n      pop\n      tag_31\n      tag_32\n      jump\t// in\n    tag_31:\n      mload(0x40)\n      tag_33\n      swap2\n      swap1\n      tag_34\n      jump\t// in\n    tag_33:\n      mload(0x40)\n      dup1\n      swap2\n      sub\n      swap1\n      return\n        /* \"contracts/FundMe.sol\":443:467  address[] public funders */\n    tag_8:\n      callvalue\n      dup1\n      iszero\n      tag_35\n      jumpi\n      0x00\n      dup1\n      revert\n    tag_35:\n      pop\n      tag_36\n      0x04\n      dup1\n      calldatasize\n      sub\n      dup2\n      add\n      swap1\n      tag_37\n      swap2\n      swap1\n      tag_24\n      jump\t// in\n    tag_37:\n      tag_38\n      jump\t// in\n    tag_36:\n      mload(0x40)\n      tag_39\n      swap2\n      swap1\n      tag_34\n      jump\t// in\n    tag_39:\n      mload(0x40)\n      dup1\n      swap2\n      sub\n      swap1\n      return\n        /* \"contracts/FundMe.sol\":593:641  mapping(address => uint256) public fundersAmount */\n    tag_9:\n      callvalue\n      dup1\n      iszero\n      tag_40\n      jumpi\n      0x00\n      dup1\n      revert\n    tag_40:\n      pop\n      tag_41\n      0x04\n      dup1\n      calldatasize\n      sub\n      dup2\n      add\n      swap1\n      tag_42\n      swap2\n      swap1\n      tag_43\n      jump\t// in\n    tag_42:\n      tag_44\n      jump\t// in\n    tag_41:\n      mload(0x40)\n      tag_45\n      swap2\n      swap1\n      tag_20\n      jump\t// in\n    tag_45:\n      mload(0x40)\n      dup1\n      swap2\n      sub\n      swap1\n      return\n        /* \"contracts/FundMe.sol\":858:1590  function receiveFunds() public payable{\r... */\n    tag_12:\n        /* \"contracts/FundMe.sol\":355:368  50 * 10 ** 18 */\n      0x02b5e3af16b1880000\n        /* \"contracts/FundMe.sol\":1278:1300  msg.value.conversion() */\n      tag_47\n        /* \"contracts/FundMe.sol\":1278:1287  msg.value */\n      callvalue\n        /* \"contracts/FundMe.sol\":1278:1298  msg.value.conversion */\n      tag_48\n        /* \"contracts/FundMe.sol\":1278:1300  msg.value.conversion() */\n      jump\t// in\n    tag_47:\n        /* \"contracts/FundMe.sol\":1278:1315  msg.value.conversion() >= MINIMUM_USD */\n      lt\n      iszero\n        /* \"contracts/FundMe.sol\":1270:1362  require(msg.value.conversion() >= MINIMUM_USD , \"The minimum amount of fund would be >=50$\") */\n      tag_49\n      jumpi\n      mload(0x40)\n      0x08c379a000000000000000000000000000000000000000000000000000000000\n      dup2\n      mstore\n      0x04\n      add\n      tag_50\n      swap1\n      tag_51\n      jump\t// in\n    tag_50:\n      mload(0x40)\n      dup1\n      swap2\n      sub\n      swap1\n      revert\n    tag_49:\n        /* \"contracts/FundMe.sol\":1373:1380  funders */\n      0x00\n        /* \"contracts/FundMe.sol\":1386:1396  msg.sender */\n      caller\n        /* \"contracts/FundMe.sol\":1373:1397  funders.push(msg.sender) */\n      swap1\n      dup1\n      0x01\n      dup2\n      sload\n      add\n      dup1\n      dup3\n      sstore\n      dup1\n      swap2\n      pop\n      pop\n      0x01\n      swap1\n      sub\n      swap1\n      0x00\n      mstore\n      keccak256(0x00, 0x20)\n      add\n      0x00\n      swap1\n      swap2\n      swap1\n      swap2\n      swap1\n      swap2\n      0x0100\n      exp\n      dup2\n      sload\n      dup2\n      0xffffffffffffffffffffffffffffffffffffffff\n      mul\n      not\n      and\n      swap1\n      dup4\n      0xffffffffffffffffffffffffffffffffffffffff\n      and\n      mul\n      or\n      swap1\n      sstore\n      pop\n        /* \"contracts/FundMe.sol\":1497:1506  msg.value */\n      callvalue\n        /* \"contracts/FundMe.sol\":1469:1482  fundersAmount */\n      0x01\n        /* \"contracts/FundMe.sol\":1469:1494  fundersAmount[msg.sender] */\n      0x00\n        /* \"contracts/FundMe.sol\":1483:1493  msg.sender */\n      caller\n        /* \"contracts/FundMe.sol\":1469:1494  fundersAmount[msg.sender] */\n      0xffffffffffffffffffffffffffffffffffffffff\n      and\n      0xffffffffffffffffffffffffffffffffffffffff\n      and\n      dup2\n      mstore\n      0x20\n      add\n      swap1\n      dup2\n      mstore\n      0x20\n      add\n      0x00\n      keccak256\n        /* \"contracts/FundMe.sol\":1469:1506  fundersAmount[msg.sender] = msg.value */\n      dup2\n      swap1\n      sstore\n      pop\n        /* \"contracts/FundMe.sol\":858:1590  function receiveFunds() public payable{\r... */\n      jump\t// out\n        /* \"contracts/FundMe.sol\":1598:2471  function withdraw() public onlyOwner{\r... */\n    tag_15:\n        /* \"contracts/FundMe.sol\":2852:2859  i_owner */\n      immutable(\"0xd9670a00d025e59e1bd58d53874bea4ab34fea782716e2c168e89a3c8452d3bb\")\n        /* \"contracts/FundMe.sol\":2838:2859  msg.sender != i_owner */\n      0xffffffffffffffffffffffffffffffffffffffff\n      and\n        /* \"contracts/FundMe.sol\":2838:2848  msg.sender */\n      caller\n        /* \"contracts/FundMe.sol\":2838:2859  msg.sender != i_owner */\n      0xffffffffffffffffffffffffffffffffffffffff\n      and\n      eq\n        /* \"contracts/FundMe.sol\":2835:2904  if(msg.sender != i_owner){\r... */\n      tag_54\n      jumpi\n        /* \"contracts/FundMe.sol\":2882:2892  notOwner() */\n      mload(0x40)\n      0x251c9d6300000000000000000000000000000000000000000000000000000000\n      dup2\n      mstore\n      0x04\n      add\n      mload(0x40)\n      dup1\n      swap2\n      sub\n      swap1\n      revert\n        /* \"contracts/FundMe.sol\":2835:2904  if(msg.sender != i_owner){\r... */\n    tag_54:\n        /* \"contracts/FundMe.sol\":1704:1723  uint256 funderIndex */\n      0x00\n        /* \"contracts/FundMe.sol\":1736:1949  for(funderIndex = 0; funderIndex < funders.length; funderIndex++){\r... */\n    tag_56:\n        /* \"contracts/FundMe.sol\":1771:1778  funders */\n      0x00\n        /* \"contracts/FundMe.sol\":1771:1785  funders.length */\n      dup1\n      sload\n      swap1\n      pop\n        /* \"contracts/FundMe.sol\":1757:1768  funderIndex */\n      dup2\n        /* \"contracts/FundMe.sol\":1757:1785  funderIndex < funders.length */\n      lt\n        /* \"contracts/FundMe.sol\":1736:1949  for(funderIndex = 0; funderIndex < funders.length; funderIndex++){\r... */\n      iszero\n      tag_57\n      jumpi\n        /* \"contracts/FundMe.sol\":1818:1832  address funder */\n      0x00\n        /* \"contracts/FundMe.sol\":1835:1842  funders */\n      dup1\n        /* \"contracts/FundMe.sol\":1843:1854  funderIndex */\n      dup3\n        /* \"contracts/FundMe.sol\":1835:1855  funders[funderIndex] */\n      dup2\n      sload\n      dup2\n      lt\n      tag_59\n      jumpi\n      tag_60\n      tag_61\n      jump\t// in\n    tag_60:\n    tag_59:\n      swap1\n      0x00\n      mstore\n      keccak256(0x00, 0x20)\n      add\n      0x00\n      swap1\n      sload\n      swap1\n      0x0100\n      exp\n      swap1\n      div\n      0xffffffffffffffffffffffffffffffffffffffff\n      and\n        /* \"contracts/FundMe.sol\":1818:1855  address funder = funders[funderIndex] */\n      swap1\n      pop\n        /* \"contracts/FundMe.sol\":1936:1937  0 */\n      0x00\n        /* \"contracts/FundMe.sol\":1912:1925  fundersAmount */\n      0x01\n        /* \"contracts/FundMe.sol\":1912:1933  fundersAmount[funder] */\n      0x00\n        /* \"contracts/FundMe.sol\":1926:1932  funder */\n      dup4\n        /* \"contracts/FundMe.sol\":1912:1933  fundersAmount[funder] */\n      0xffffffffffffffffffffffffffffffffffffffff\n      and\n      0xffffffffffffffffffffffffffffffffffffffff\n      and\n      dup2\n      mstore\n      0x20\n      add\n      swap1\n      dup2\n      mstore\n      0x20\n      add\n      0x00\n      keccak256\n        /* \"contracts/FundMe.sol\":1912:1937  fundersAmount[funder] = 0 */\n      dup2\n      swap1\n      sstore\n      pop\n        /* \"contracts/FundMe.sol\":1801:1949  {\r... */\n      pop\n        /* \"contracts/FundMe.sol\":1787:1800  funderIndex++ */\n      dup1\n      dup1\n      tag_63\n      swap1\n      tag_64\n      jump\t// in\n    tag_63:\n      swap2\n      pop\n      pop\n        /* \"contracts/FundMe.sol\":1736:1949  for(funderIndex = 0; funderIndex < funders.length; funderIndex++){\r... */\n      jump(tag_56)\n    tag_57:\n        /* \"contracts/FundMe.sol\":2087:2097  msg.sender */\n      caller\n        /* \"contracts/FundMe.sol\":2079:2107  payable(msg.sender).transfer */\n      0xffffffffffffffffffffffffffffffffffffffff\n      and\n        /* \"contracts/FundMe.sol\":2079:2130  payable(msg.sender).transfer(address(this).balance) */\n      0x08fc\n        /* \"contracts/FundMe.sol\":2108:2129  address(this).balance */\n      selfbalance\n        /* \"contracts/FundMe.sol\":2079:2130  payable(msg.sender).transfer(address(this).balance) */\n      swap1\n      dup2\n      iszero\n      mul\n      swap1\n      mload(0x40)\n      0x00\n      mload(0x40)\n      dup1\n      dup4\n      sub\n      dup2\n      dup6\n      dup9\n      dup9\n      call\n      swap4\n      pop\n      pop\n      pop\n      pop\n      iszero\n      dup1\n      iszero\n      tag_66\n      jumpi\n      returndatasize\n      0x00\n      dup1\n      returndatacopy\n      revert(0x00, returndatasize)\n    tag_66:\n      pop\n        /* \"contracts/FundMe.sol\":2159:2171  bool success */\n      0x00\n        /* \"contracts/FundMe.sol\":2182:2192  msg.sender */\n      caller\n        /* \"contracts/FundMe.sol\":2174:2198  payable(msg.sender).send */\n      0xffffffffffffffffffffffffffffffffffffffff\n      and\n        /* \"contracts/FundMe.sol\":2174:2221  payable(msg.sender).send(address(this).balance) */\n      0x08fc\n        /* \"contracts/FundMe.sol\":2199:2220  address(this).balance */\n      selfbalance\n        /* \"contracts/FundMe.sol\":2174:2221  payable(msg.sender).send(address(this).balance) */\n      swap1\n      dup2\n      iszero\n      mul\n      swap1\n      mload(0x40)\n      0x00\n      mload(0x40)\n      dup1\n      dup4\n      sub\n      dup2\n      dup6\n      dup9\n      dup9\n      call\n      swap4\n      pop\n      pop\n      pop\n      pop\n        /* \"contracts/FundMe.sol\":2159:2221  bool success = payable(msg.sender).send(address(this).balance) */\n      swap1\n      pop\n        /* \"contracts/FundMe.sol\":2240:2247  success */\n      dup1\n        /* \"contracts/FundMe.sol\":2232:2264  require(success , \"Send Failed\") */\n      tag_68\n      jumpi\n      mload(0x40)\n      0x08c379a000000000000000000000000000000000000000000000000000000000\n      dup2\n      mstore\n      0x04\n      add\n      tag_69\n      swap1\n      tag_70\n      jump\t// in\n    tag_69:\n      mload(0x40)\n      dup1\n      swap2\n      sub\n      swap1\n      revert\n    tag_68:\n        /* \"contracts/FundMe.sol\":2294:2314  bool successWithdraw */\n      0x00\n        /* \"contracts/FundMe.sol\":2328:2338  msg.sender */\n      caller\n        /* \"contracts/FundMe.sol\":2320:2344  payable(msg.sender).call */\n      0xffffffffffffffffffffffffffffffffffffffff\n      and\n        /* \"contracts/FundMe.sol\":2366:2387  address(this).balance */\n      selfbalance\n        /* \"contracts/FundMe.sol\":2320:2402  payable(msg.sender).call{\r... */\n      mload(0x40)\n      tag_71\n      swap1\n      tag_72\n      jump\t// in\n    tag_71:\n      0x00\n      mload(0x40)\n      dup1\n      dup4\n      sub\n      dup2\n      dup6\n      dup8\n      gas\n      call\n      swap3\n      pop\n      pop\n      pop\n      returndatasize\n      dup1\n      0x00\n      dup2\n      eq\n      tag_75\n      jumpi\n      mload(0x40)\n      swap2\n      pop\n      and(add(returndatasize, 0x3f), not(0x1f))\n      dup3\n      add\n      0x40\n      mstore\n      returndatasize\n      dup3\n      mstore\n      returndatasize\n      0x00\n      0x20\n      dup5\n      add\n      returndatacopy\n      jump(tag_74)\n    tag_75:\n      0x60\n      swap2\n      pop\n    tag_74:\n      pop\n        /* \"contracts/FundMe.sol\":2293:2402  (bool successWithdraw, ) = payable(msg.sender).call{\r... */\n      pop\n      swap1\n      pop\n        /* \"contracts/FundMe.sol\":2421:2436  successWithdraw */\n      dup1\n        /* \"contracts/FundMe.sol\":2413:2453  require(successWithdraw , \"Call Failed\") */\n      tag_76\n      jumpi\n      mload(0x40)\n      0x08c379a000000000000000000000000000000000000000000000000000000000\n      dup2\n      mstore\n      0x04\n      add\n      tag_77\n      swap1\n      tag_78\n      jump\t// in\n    tag_77:\n      mload(0x40)\n      dup1\n      swap2\n      sub\n      swap1\n      revert\n    tag_76:\n        /* \"contracts/FundMe.sol\":1634:2471  {\r... */\n      pop\n      pop\n      pop\n        /* \"contracts/FundMe.sol\":1598:2471  function withdraw() public onlyOwner{\r... */\n      jump\t// out\n        /* \"contracts/FundMe.sol\":317:368  uint256 public constant MINIMUM_USD = 50 * 10 ** 18 */\n    tag_18:\n        /* \"contracts/FundMe.sol\":355:368  50 * 10 ** 18 */\n      0x02b5e3af16b1880000\n        /* \"contracts/FundMe.sol\":317:368  uint256 public constant MINIMUM_USD = 50 * 10 ** 18 */\n      dup2\n      jump\t// out\n        /* \"contracts/FundMe.sol\":2479:2600  function withdrawSpecificAmount(uint256 amount) public onlyOwner{\r... */\n    tag_25:\n        /* \"contracts/FundMe.sol\":2852:2859  i_owner */\n      immutable(\"0xd9670a00d025e59e1bd58d53874bea4ab34fea782716e2c168e89a3c8452d3bb\")\n        /* \"contracts/FundMe.sol\":2838:2859  msg.sender != i_owner */\n      0xffffffffffffffffffffffffffffffffffffffff\n      and\n        /* \"contracts/FundMe.sol\":2838:2848  msg.sender */\n      caller\n        /* \"contracts/FundMe.sol\":2838:2859  msg.sender != i_owner */\n      0xffffffffffffffffffffffffffffffffffffffff\n      and\n      eq\n        /* \"contracts/FundMe.sol\":2835:2904  if(msg.sender != i_owner){\r... */\n      tag_80\n      jumpi\n        /* \"contracts/FundMe.sol\":2882:2892  notOwner() */\n      mload(0x40)\n      0x251c9d6300000000000000000000000000000000000000000000000000000000\n      dup2\n      mstore\n      0x04\n      add\n      mload(0x40)\n      dup1\n      swap2\n      sub\n      swap1\n      revert\n        /* \"contracts/FundMe.sol\":2835:2904  if(msg.sender != i_owner){\r... */\n    tag_80:\n        /* \"contracts/FundMe.sol\":2564:2574  msg.sender */\n      caller\n        /* \"contracts/FundMe.sol\":2556:2584  payable(msg.sender).transfer */\n      0xffffffffffffffffffffffffffffffffffffffff\n      and\n        /* \"contracts/FundMe.sol\":2556:2592  payable(msg.sender).transfer(amount) */\n      0x08fc\n        /* \"contracts/FundMe.sol\":2585:2591  amount */\n      dup3\n        /* \"contracts/FundMe.sol\":2556:2592  payable(msg.sender).transfer(amount) */\n      swap1\n      dup2\n      iszero\n      mul\n      swap1\n      mload(0x40)\n      0x00\n      mload(0x40)\n      dup1\n      dup4\n      sub\n      dup2\n      dup6\n      dup9\n      dup9\n      call\n      swap4\n      pop\n      pop\n      pop\n      pop\n      iszero\n      dup1\n      iszero\n      tag_83\n      jumpi\n      returndatasize\n      0x00\n      dup1\n      returndatacopy\n      revert(0x00, returndatasize)\n    tag_83:\n      pop\n        /* \"contracts/FundMe.sol\":2479:2600  function withdrawSpecificAmount(uint256 amount) public onlyOwner{\r... */\n      pop\n      jump\t// out\n        /* \"contracts/FundMe.sol\":2608:2712  function totalFunds() public onlyOwner view returns(uint){\r... */\n    tag_28:\n        /* \"contracts/FundMe.sol\":2660:2664  uint */\n      0x00\n        /* \"contracts/FundMe.sol\":2852:2859  i_owner */\n      immutable(\"0xd9670a00d025e59e1bd58d53874bea4ab34fea782716e2c168e89a3c8452d3bb\")\n        /* \"contracts/FundMe.sol\":2838:2859  msg.sender != i_owner */\n      0xffffffffffffffffffffffffffffffffffffffff\n      and\n        /* \"contracts/FundMe.sol\":2838:2848  msg.sender */\n      caller\n        /* \"contracts/FundMe.sol\":2838:2859  msg.sender != i_owner */\n      0xffffffffffffffffffffffffffffffffffffffff\n      and\n      eq\n        /* \"contracts/FundMe.sol\":2835:2904  if(msg.sender != i_owner){\r... */\n      tag_85\n      jumpi\n        /* \"contracts/FundMe.sol\":2882:2892  notOwner() */\n      mload(0x40)\n      0x251c9d6300000000000000000000000000000000000000000000000000000000\n      dup2\n      mstore\n      0x04\n      add\n      mload(0x40)\n      dup1\n      swap2\n      sub\n      swap1\n      revert\n        /* \"contracts/FundMe.sol\":2835:2904  if(msg.sender != i_owner){\r... */\n    tag_85:\n        /* \"contracts/FundMe.sol\":2683:2704  address(this).balance */\n      selfbalance\n        /* \"contracts/FundMe.sol\":2676:2704  return address(this).balance */\n      swap1\n      pop\n        /* \"contracts/FundMe.sol\":2608:2712  function totalFunds() public onlyOwner view returns(uint){\r... */\n      swap1\n      jump\t// out\n        /* \"contracts/FundMe.sol\":375:407  address public immutable i_owner */\n    tag_32:\n      immutable(\"0xd9670a00d025e59e1bd58d53874bea4ab34fea782716e2c168e89a3c8452d3bb\")\n      dup2\n      jump\t// out\n        /* \"contracts/FundMe.sol\":443:467  address[] public funders */\n    tag_38:\n      0x00\n      dup2\n      dup2\n      sload\n      dup2\n      lt\n      tag_87\n      jumpi\n      0x00\n      dup1\n      revert\n    tag_87:\n      swap1\n      0x00\n      mstore\n      keccak256(0x00, 0x20)\n      add\n      0x00\n      swap2\n      pop\n      sload\n      swap1\n      0x0100\n      exp\n      swap1\n      div\n      0xffffffffffffffffffffffffffffffffffffffff\n      and\n      dup2\n      jump\t// out\n        /* \"contracts/FundMe.sol\":593:641  mapping(address => uint256) public fundersAmount */\n    tag_44:\n      mstore(0x20, 0x01)\n      dup1\n      0x00\n      mstore\n      keccak256(0x00, 0x40)\n      0x00\n      swap2\n      pop\n      swap1\n      pop\n      sload\n      dup2\n      jump\t// out\n        /* \"contracts/PriceConvertor.sol\":853:1167  function conversion(uint256 ethAmount) internal view returns(uint256){\r... */\n    tag_48:\n        /* \"contracts/PriceConvertor.sol\":914:921  uint256 */\n      0x00\n        /* \"contracts/PriceConvertor.sol\":1020:1036  uint256 ethPrice */\n      dup1\n        /* \"contracts/PriceConvertor.sol\":1039:1049  getPrice() */\n      tag_90\n        /* \"contracts/PriceConvertor.sol\":1039:1047  getPrice */\n      tag_91\n        /* \"contracts/PriceConvertor.sol\":1039:1049  getPrice() */\n      jump\t// in\n    tag_90:\n        /* \"contracts/PriceConvertor.sol\":1020:1049  uint256 ethPrice = getPrice() */\n      swap1\n      pop\n        /* \"contracts/PriceConvertor.sol\":1083:1099  uint256 ethinUSD */\n      0x00\n        /* \"contracts/PriceConvertor.sol\":1127:1131  1e18 */\n      0x0de0b6b3a7640000\n        /* \"contracts/PriceConvertor.sol\":1115:1123  ethPrice */\n      dup3\n        /* \"contracts/PriceConvertor.sol\":1103:1112  ethAmount */\n      dup6\n        /* \"contracts/PriceConvertor.sol\":1103:1123  ethAmount * ethPrice */\n      tag_92\n      swap2\n      swap1\n      tag_93\n      jump\t// in\n    tag_92:\n        /* \"contracts/PriceConvertor.sol\":1102:1131  (ethAmount * ethPrice) / 1e18 */\n      tag_94\n      swap2\n      swap1\n      tag_95\n      jump\t// in\n    tag_94:\n        /* \"contracts/PriceConvertor.sol\":1083:1131  uint256 ethinUSD = (ethAmount * ethPrice) / 1e18 */\n      swap1\n      pop\n        /* \"contracts/PriceConvertor.sol\":1149:1157  ethinUSD */\n      dup1\n        /* \"contracts/PriceConvertor.sol\":1142:1157  return ethinUSD */\n      swap3\n      pop\n      pop\n      pop\n        /* \"contracts/PriceConvertor.sol\":853:1167  function conversion(uint256 ethAmount) internal view returns(uint256){\r... */\n      swap2\n      swap1\n      pop\n      jump\t// out\n        /* \"contracts/PriceConvertor.sol\":251:627  function getPrice() internal view returns(uint256){\r... */\n    tag_91:\n        /* \"contracts/PriceConvertor.sol\":293:300  uint256 */\n      0x00\n        /* \"contracts/PriceConvertor.sol\":348:379  AggregatorV3Interface priceFeed */\n      dup1\n        /* \"contracts/PriceConvertor.sol\":404:446  0x8A753747A1Fa494EC906cE90E9f37563A8AF630e */\n      0x8a753747a1fa494ec906ce90e9f37563a8af630e\n        /* \"contracts/PriceConvertor.sol\":348:447  AggregatorV3Interface priceFeed = AggregatorV3Interface(0x8A753747A1Fa494EC906cE90E9f37563A8AF630e) */\n      swap1\n      pop\n        /* \"contracts/PriceConvertor.sol\":461:474  int256 answer */\n      0x00\n        /* \"contracts/PriceConvertor.sol\":482:491  priceFeed */\n      dup2\n        /* \"contracts/PriceConvertor.sol\":482:507  priceFeed.latestRoundData */\n      0xffffffffffffffffffffffffffffffffffffffff\n      and\n      0xfeaf968c\n        /* \"contracts/PriceConvertor.sol\":482:509  priceFeed.latestRoundData() */\n      mload(0x40)\n      dup2\n      0xffffffff\n      and\n      0xe0\n      shl\n      dup2\n      mstore\n      0x04\n      add\n      0xa0\n      mload(0x40)\n      dup1\n      dup4\n      sub\n      dup2\n      dup7\n      dup1\n      extcodesize\n      iszero\n      dup1\n      iszero\n      tag_97\n      jumpi\n      0x00\n      dup1\n      revert\n    tag_97:\n      pop\n      gas\n      staticcall\n      iszero\n      dup1\n      iszero\n      tag_99\n      jumpi\n      returndatasize\n      0x00\n      dup1\n      returndatacopy\n      revert(0x00, returndatasize)\n    tag_99:\n      pop\n      pop\n      pop\n      pop\n      mload(0x40)\n      returndatasize\n      not(0x1f)\n      0x1f\n      dup3\n      add\n      and\n      dup3\n      add\n      dup1\n      0x40\n      mstore\n      pop\n      dup2\n      add\n      swap1\n      tag_100\n      swap2\n      swap1\n      tag_101\n      jump\t// in\n    tag_100:\n        /* \"contracts/PriceConvertor.sol\":458:509  (, int256 answer ,,,) = priceFeed.latestRoundData() */\n      pop\n      pop\n      pop\n      swap2\n      pop\n      pop\n        /* \"contracts/PriceConvertor.sol\":605:609  1e10 */\n      0x02540be400\n        /* \"contracts/PriceConvertor.sol\":597:603  answer */\n      dup2\n        /* \"contracts/PriceConvertor.sol\":597:609  answer* 1e10 */\n      tag_102\n      swap2\n      swap1\n      tag_103\n      jump\t// in\n    tag_102:\n        /* \"contracts/PriceConvertor.sol\":582:610  return uint256(answer* 1e10) */\n      swap3\n      pop\n      pop\n      pop\n        /* \"contracts/PriceConvertor.sol\":251:627  function getPrice() internal view returns(uint256){\r... */\n      swap1\n      jump\t// out\n        /* \"#utility.yul\":7:146   */\n    tag_105:\n        /* \"#utility.yul\":53:58   */\n      0x00\n        /* \"#utility.yul\":91:97   */\n      dup2\n        /* \"#utility.yul\":78:98   */\n      calldataload\n        /* \"#utility.yul\":69:98   */\n      swap1\n      pop\n        /* \"#utility.yul\":107:140   */\n      tag_107\n        /* \"#utility.yul\":134:139   */\n      dup2\n        /* \"#utility.yul\":107:140   */\n      tag_108\n      jump\t// in\n    tag_107:\n        /* \"#utility.yul\":7:146   */\n      swap3\n      swap2\n      pop\n      pop\n      jump\t// out\n        /* \"#utility.yul\":152:293   */\n    tag_109:\n        /* \"#utility.yul\":208:213   */\n      0x00\n        /* \"#utility.yul\":239:245   */\n      dup2\n        /* \"#utility.yul\":233:246   */\n      mload\n        /* \"#utility.yul\":224:246   */\n      swap1\n      pop\n        /* \"#utility.yul\":255:287   */\n      tag_111\n        /* \"#utility.yul\":281:286   */\n      dup2\n        /* \"#utility.yul\":255:287   */\n      tag_112\n      jump\t// in\n    tag_111:\n        /* \"#utility.yul\":152:293   */\n      swap3\n      swap2\n      pop\n      pop\n      jump\t// out\n        /* \"#utility.yul\":299:438   */\n    tag_113:\n        /* \"#utility.yul\":345:350   */\n      0x00\n        /* \"#utility.yul\":383:389   */\n      dup2\n        /* \"#utility.yul\":370:390   */\n      calldataload\n        /* \"#utility.yul\":361:390   */\n      swap1\n      pop\n        /* \"#utility.yul\":399:432   */\n      tag_115\n        /* \"#utility.yul\":426:431   */\n      dup2\n        /* \"#utility.yul\":399:432   */\n      tag_116\n      jump\t// in\n    tag_115:\n        /* \"#utility.yul\":299:438   */\n      swap3\n      swap2\n      pop\n      pop\n      jump\t// out\n        /* \"#utility.yul\":444:587   */\n    tag_117:\n        /* \"#utility.yul\":501:506   */\n      0x00\n        /* \"#utility.yul\":532:538   */\n      dup2\n        /* \"#utility.yul\":526:539   */\n      mload\n        /* \"#utility.yul\":517:539   */\n      swap1\n      pop\n        /* \"#utility.yul\":548:581   */\n      tag_119\n        /* \"#utility.yul\":575:580   */\n      dup2\n        /* \"#utility.yul\":548:581   */\n      tag_116\n      jump\t// in\n    tag_119:\n        /* \"#utility.yul\":444:587   */\n      swap3\n      swap2\n      pop\n      pop\n      jump\t// out\n        /* \"#utility.yul\":593:734   */\n    tag_120:\n        /* \"#utility.yul\":649:654   */\n      0x00\n        /* \"#utility.yul\":680:686   */\n      dup2\n        /* \"#utility.yul\":674:687   */\n      mload\n        /* \"#utility.yul\":665:687   */\n      swap1\n      pop\n        /* \"#utility.yul\":696:728   */\n      tag_122\n        /* \"#utility.yul\":722:727   */\n      dup2\n        /* \"#utility.yul\":696:728   */\n      tag_123\n      jump\t// in\n    tag_122:\n        /* \"#utility.yul\":593:734   */\n      swap3\n      swap2\n      pop\n      pop\n      jump\t// out\n        /* \"#utility.yul\":740:1069   */\n    tag_43:\n        /* \"#utility.yul\":799:805   */\n      0x00\n        /* \"#utility.yul\":848:850   */\n      0x20\n        /* \"#utility.yul\":836:845   */\n      dup3\n        /* \"#utility.yul\":827:834   */\n      dup5\n        /* \"#utility.yul\":823:846   */\n      sub\n        /* \"#utility.yul\":819:851   */\n      slt\n        /* \"#utility.yul\":816:935   */\n      iszero\n      tag_125\n      jumpi\n        /* \"#utility.yul\":854:933   */\n      tag_126\n      tag_127\n      jump\t// in\n    tag_126:\n        /* \"#utility.yul\":816:935   */\n    tag_125:\n        /* \"#utility.yul\":974:975   */\n      0x00\n        /* \"#utility.yul\":999:1052   */\n      tag_128\n        /* \"#utility.yul\":1044:1051   */\n      dup5\n        /* \"#utility.yul\":1035:1041   */\n      dup3\n        /* \"#utility.yul\":1024:1033   */\n      dup6\n        /* \"#utility.yul\":1020:1042   */\n      add\n        /* \"#utility.yul\":999:1052   */\n      tag_105\n      jump\t// in\n    tag_128:\n        /* \"#utility.yul\":989:1052   */\n      swap2\n      pop\n        /* \"#utility.yul\":945:1062   */\n      pop\n        /* \"#utility.yul\":740:1069   */\n      swap3\n      swap2\n      pop\n      pop\n      jump\t// out\n        /* \"#utility.yul\":1075:1404   */\n    tag_24:\n        /* \"#utility.yul\":1134:1140   */\n      0x00\n        /* \"#utility.yul\":1183:1185   */\n      0x20\n        /* \"#utility.yul\":1171:1180   */\n      dup3\n        /* \"#utility.yul\":1162:1169   */\n      dup5\n        /* \"#utility.yul\":1158:1181   */\n      sub\n        /* \"#utility.yul\":1154:1186   */\n      slt\n        /* \"#utility.yul\":1151:1270   */\n      iszero\n      tag_130\n      jumpi\n        /* \"#utility.yul\":1189:1268   */\n      tag_131\n      tag_127\n      jump\t// in\n    tag_131:\n        /* \"#utility.yul\":1151:1270   */\n    tag_130:\n        /* \"#utility.yul\":1309:1310   */\n      0x00\n        /* \"#utility.yul\":1334:1387   */\n      tag_132\n        /* \"#utility.yul\":1379:1386   */\n      dup5\n        /* \"#utility.yul\":1370:1376   */\n      dup3\n        /* \"#utility.yul\":1359:1368   */\n      dup6\n        /* \"#utility.yul\":1355:1377   */\n      add\n        /* \"#utility.yul\":1334:1387   */\n      tag_113\n      jump\t// in\n    tag_132:\n        /* \"#utility.yul\":1324:1387   */\n      swap2\n      pop\n        /* \"#utility.yul\":1280:1397   */\n      pop\n        /* \"#utility.yul\":1075:1404   */\n      swap3\n      swap2\n      pop\n      pop\n      jump\t// out\n        /* \"#utility.yul\":1410:2381   */\n    tag_101:\n        /* \"#utility.yul\":1513:1519   */\n      0x00\n        /* \"#utility.yul\":1521:1527   */\n      dup1\n        /* \"#utility.yul\":1529:1535   */\n      0x00\n        /* \"#utility.yul\":1537:1543   */\n      dup1\n        /* \"#utility.yul\":1545:1551   */\n      0x00\n        /* \"#utility.yul\":1594:1597   */\n      0xa0\n        /* \"#utility.yul\":1582:1591   */\n      dup7\n        /* \"#utility.yul\":1573:1580   */\n      dup9\n        /* \"#utility.yul\":1569:1592   */\n      sub\n        /* \"#utility.yul\":1565:1598   */\n      slt\n        /* \"#utility.yul\":1562:1682   */\n      iszero\n      tag_134\n      jumpi\n        /* \"#utility.yul\":1601:1680   */\n      tag_135\n      tag_127\n      jump\t// in\n    tag_135:\n        /* \"#utility.yul\":1562:1682   */\n    tag_134:\n        /* \"#utility.yul\":1721:1722   */\n      0x00\n        /* \"#utility.yul\":1746:1809   */\n      tag_136\n        /* \"#utility.yul\":1801:1808   */\n      dup9\n        /* \"#utility.yul\":1792:1798   */\n      dup3\n        /* \"#utility.yul\":1781:1790   */\n      dup10\n        /* \"#utility.yul\":1777:1799   */\n      add\n        /* \"#utility.yul\":1746:1809   */\n      tag_120\n      jump\t// in\n    tag_136:\n        /* \"#utility.yul\":1736:1809   */\n      swap6\n      pop\n        /* \"#utility.yul\":1692:1819   */\n      pop\n        /* \"#utility.yul\":1858:1860   */\n      0x20\n        /* \"#utility.yul\":1884:1947   */\n      tag_137\n        /* \"#utility.yul\":1939:1946   */\n      dup9\n        /* \"#utility.yul\":1930:1936   */\n      dup3\n        /* \"#utility.yul\":1919:1928   */\n      dup10\n        /* \"#utility.yul\":1915:1937   */\n      add\n        /* \"#utility.yul\":1884:1947   */\n      tag_109\n      jump\t// in\n    tag_137:\n        /* \"#utility.yul\":1874:1947   */\n      swap5\n      pop\n        /* \"#utility.yul\":1829:1957   */\n      pop\n        /* \"#utility.yul\":1996:1998   */\n      0x40\n        /* \"#utility.yul\":2022:2086   */\n      tag_138\n        /* \"#utility.yul\":2078:2085   */\n      dup9\n        /* \"#utility.yul\":2069:2075   */\n      dup3\n        /* \"#utility.yul\":2058:2067   */\n      dup10\n        /* \"#utility.yul\":2054:2076   */\n      add\n        /* \"#utility.yul\":2022:2086   */\n      tag_117\n      jump\t// in\n    tag_138:\n        /* \"#utility.yul\":2012:2086   */\n      swap4\n      pop\n        /* \"#utility.yul\":1967:2096   */\n      pop\n        /* \"#utility.yul\":2135:2137   */\n      0x60\n        /* \"#utility.yul\":2161:2225   */\n      tag_139\n        /* \"#utility.yul\":2217:2224   */\n      dup9\n        /* \"#utility.yul\":2208:2214   */\n      dup3\n        /* \"#utility.yul\":2197:2206   */\n      dup10\n        /* \"#utility.yul\":2193:2215   */\n      add\n        /* \"#utility.yul\":2161:2225   */\n      tag_117\n      jump\t// in\n    tag_139:\n        /* \"#utility.yul\":2151:2225   */\n      swap3\n      pop\n        /* \"#utility.yul\":2106:2235   */\n      pop\n        /* \"#utility.yul\":2274:2277   */\n      0x80\n        /* \"#utility.yul\":2301:2364   */\n      tag_140\n        /* \"#utility.yul\":2356:2363   */\n      dup9\n        /* \"#utility.yul\":2347:2353   */\n      dup3\n        /* \"#utility.yul\":2336:2345   */\n      dup10\n        /* \"#utility.yul\":2332:2354   */\n      add\n        /* \"#utility.yul\":2301:2364   */\n      tag_120\n      jump\t// in\n    tag_140:\n        /* \"#utility.yul\":2291:2364   */\n      swap2\n      pop\n        /* \"#utility.yul\":2245:2374   */\n      pop\n        /* \"#utility.yul\":1410:2381   */\n      swap3\n      swap6\n      pop\n      swap3\n      swap6\n      swap1\n      swap4\n      pop\n      jump\t// out\n        /* \"#utility.yul\":2387:2505   */\n    tag_141:\n        /* \"#utility.yul\":2474:2498   */\n      tag_143\n        /* \"#utility.yul\":2492:2497   */\n      dup2\n        /* \"#utility.yul\":2474:2498   */\n      tag_144\n      jump\t// in\n    tag_143:\n        /* \"#utility.yul\":2469:2472   */\n      dup3\n        /* \"#utility.yul\":2462:2499   */\n      mstore\n        /* \"#utility.yul\":2387:2505   */\n      pop\n      pop\n      jump\t// out\n        /* \"#utility.yul\":2511:2877   */\n    tag_145:\n        /* \"#utility.yul\":2653:2656   */\n      0x00\n        /* \"#utility.yul\":2674:2741   */\n      tag_147\n        /* \"#utility.yul\":2738:2740   */\n      0x0b\n        /* \"#utility.yul\":2733:2736   */\n      dup4\n        /* \"#utility.yul\":2674:2741   */\n      tag_148\n      jump\t// in\n    tag_147:\n        /* \"#utility.yul\":2667:2741   */\n      swap2\n      pop\n        /* \"#utility.yul\":2750:2843   */\n      tag_149\n        /* \"#utility.yul\":2839:2842   */\n      dup3\n        /* \"#utility.yul\":2750:2843   */\n      tag_150\n      jump\t// in\n    tag_149:\n        /* \"#utility.yul\":2868:2870   */\n      0x20\n        /* \"#utility.yul\":2863:2866   */\n      dup3\n        /* \"#utility.yul\":2859:2871   */\n      add\n        /* \"#utility.yul\":2852:2871   */\n      swap1\n      pop\n        /* \"#utility.yul\":2511:2877   */\n      swap2\n      swap1\n      pop\n      jump\t// out\n        /* \"#utility.yul\":2883:3249   */\n    tag_151:\n        /* \"#utility.yul\":3025:3028   */\n      0x00\n        /* \"#utility.yul\":3046:3113   */\n      tag_153\n        /* \"#utility.yul\":3110:3112   */\n      0x29\n        /* \"#utility.yul\":3105:3108   */\n      dup4\n        /* \"#utility.yul\":3046:3113   */\n      tag_148\n      jump\t// in\n    tag_153:\n        /* \"#utility.yul\":3039:3113   */\n      swap2\n      pop\n        /* \"#utility.yul\":3122:3215   */\n      tag_154\n        /* \"#utility.yul\":3211:3214   */\n      dup3\n        /* \"#utility.yul\":3122:3215   */\n      tag_155\n      jump\t// in\n    tag_154:\n        /* \"#utility.yul\":3240:3242   */\n      0x40\n        /* \"#utility.yul\":3235:3238   */\n      dup3\n        /* \"#utility.yul\":3231:3243   */\n      add\n        /* \"#utility.yul\":3224:3243   */\n      swap1\n      pop\n        /* \"#utility.yul\":2883:3249   */\n      swap2\n      swap1\n      pop\n      jump\t// out\n        /* \"#utility.yul\":3255:3653   */\n    tag_156:\n        /* \"#utility.yul\":3414:3417   */\n      0x00\n        /* \"#utility.yul\":3435:3518   */\n      tag_158\n        /* \"#utility.yul\":3516:3517   */\n      0x00\n        /* \"#utility.yul\":3511:3514   */\n      dup4\n        /* \"#utility.yul\":3435:3518   */\n      tag_159\n      jump\t// in\n    tag_158:\n        /* \"#utility.yul\":3428:3518   */\n      swap2\n      pop\n        /* \"#utility.yul\":3527:3620   */\n      tag_160\n        /* \"#utility.yul\":3616:3619   */\n      dup3\n        /* \"#utility.yul\":3527:3620   */\n      tag_161\n      jump\t// in\n    tag_160:\n        /* \"#utility.yul\":3645:3646   */\n      0x00\n        /* \"#utility.yul\":3640:3643   */\n      dup3\n        /* \"#utility.yul\":3636:3647   */\n      add\n        /* \"#utility.yul\":3629:3647   */\n      swap1\n      pop\n        /* \"#utility.yul\":3255:3653   */\n      swap2\n      swap1\n      pop\n      jump\t// out\n        /* \"#utility.yul\":3659:4025   */\n    tag_162:\n        /* \"#utility.yul\":3801:3804   */\n      0x00\n        /* \"#utility.yul\":3822:3889   */\n      tag_164\n        /* \"#utility.yul\":3886:3888   */\n      0x0b\n        /* \"#utility.yul\":3881:3884   */\n      dup4\n        /* \"#utility.yul\":3822:3889   */\n      tag_148\n      jump\t// in\n    tag_164:\n        /* \"#utility.yul\":3815:3889   */\n      swap2\n      pop\n        /* \"#utility.yul\":3898:3991   */\n      tag_165\n        /* \"#utility.yul\":3987:3990   */\n      dup3\n        /* \"#utility.yul\":3898:3991   */\n      tag_166\n      jump\t// in\n    tag_165:\n        /* \"#utility.yul\":4016:4018   */\n      0x20\n        /* \"#utility.yul\":4011:4014   */\n      dup3\n        /* \"#utility.yul\":4007:4019   */\n      add\n        /* \"#utility.yul\":4000:4019   */\n      swap1\n      pop\n        /* \"#utility.yul\":3659:4025   */\n      swap2\n      swap1\n      pop\n      jump\t// out\n        /* \"#utility.yul\":4031:4149   */\n    tag_167:\n        /* \"#utility.yul\":4118:4142   */\n      tag_169\n        /* \"#utility.yul\":4136:4141   */\n      dup2\n        /* \"#utility.yul\":4118:4142   */\n      tag_170\n      jump\t// in\n    tag_169:\n        /* \"#utility.yul\":4113:4116   */\n      dup3\n        /* \"#utility.yul\":4106:4143   */\n      mstore\n        /* \"#utility.yul\":4031:4149   */\n      pop\n      pop\n      jump\t// out\n        /* \"#utility.yul\":4155:4534   */\n    tag_72:\n        /* \"#utility.yul\":4339:4342   */\n      0x00\n        /* \"#utility.yul\":4361:4508   */\n      tag_172\n        /* \"#utility.yul\":4504:4507   */\n      dup3\n        /* \"#utility.yul\":4361:4508   */\n      tag_156\n      jump\t// in\n    tag_172:\n        /* \"#utility.yul\":4354:4508   */\n      swap2\n      pop\n        /* \"#utility.yul\":4525:4528   */\n      dup2\n        /* \"#utility.yul\":4518:4528   */\n      swap1\n      pop\n        /* \"#utility.yul\":4155:4534   */\n      swap2\n      swap1\n      pop\n      jump\t// out\n        /* \"#utility.yul\":4540:4762   */\n    tag_34:\n        /* \"#utility.yul\":4633:4637   */\n      0x00\n        /* \"#utility.yul\":4671:4673   */\n      0x20\n        /* \"#utility.yul\":4660:4669   */\n      dup3\n        /* \"#utility.yul\":4656:4674   */\n      add\n        /* \"#utility.yul\":4648:4674   */\n      swap1\n      pop\n        /* \"#utility.yul\":4684:4755   */\n      tag_174\n        /* \"#utility.yul\":4752:4753   */\n      0x00\n        /* \"#utility.yul\":4741:4750   */\n      dup4\n        /* \"#utility.yul\":4737:4754   */\n      add\n        /* \"#utility.yul\":4728:4734   */\n      dup5\n        /* \"#utility.yul\":4684:4755   */\n      tag_141\n      jump\t// in\n    tag_174:\n        /* \"#utility.yul\":4540:4762   */\n      swap3\n      swap2\n      pop\n      pop\n      jump\t// out\n        /* \"#utility.yul\":4768:5187   */\n    tag_70:\n        /* \"#utility.yul\":4934:4938   */\n      0x00\n        /* \"#utility.yul\":4972:4974   */\n      0x20\n        /* \"#utility.yul\":4961:4970   */\n      dup3\n        /* \"#utility.yul\":4957:4975   */\n      add\n        /* \"#utility.yul\":4949:4975   */\n      swap1\n      pop\n        /* \"#utility.yul\":5021:5030   */\n      dup2\n        /* \"#utility.yul\":5015:5019   */\n      dup2\n        /* \"#utility.yul\":5011:5031   */\n      sub\n        /* \"#utility.yul\":5007:5008   */\n      0x00\n        /* \"#utility.yul\":4996:5005   */\n      dup4\n        /* \"#utility.yul\":4992:5009   */\n      add\n        /* \"#utility.yul\":4985:5032   */\n      mstore\n        /* \"#utility.yul\":5049:5180   */\n      tag_176\n        /* \"#utility.yul\":5175:5179   */\n      dup2\n        /* \"#utility.yul\":5049:5180   */\n      tag_145\n      jump\t// in\n    tag_176:\n        /* \"#utility.yul\":5041:5180   */\n      swap1\n      pop\n        /* \"#utility.yul\":4768:5187   */\n      swap2\n      swap1\n      pop\n      jump\t// out\n        /* \"#utility.yul\":5193:5612   */\n    tag_51:\n        /* \"#utility.yul\":5359:5363   */\n      0x00\n        /* \"#utility.yul\":5397:5399   */\n      0x20\n        /* \"#utility.yul\":5386:5395   */\n      dup3\n        /* \"#utility.yul\":5382:5400   */\n      add\n        /* \"#utility.yul\":5374:5400   */\n      swap1\n      pop\n        /* \"#utility.yul\":5446:5455   */\n      dup2\n        /* \"#utility.yul\":5440:5444   */\n      dup2\n        /* \"#utility.yul\":5436:5456   */\n      sub\n        /* \"#utility.yul\":5432:5433   */\n      0x00\n        /* \"#utility.yul\":5421:5430   */\n      dup4\n        /* \"#utility.yul\":5417:5434   */\n      add\n        /* \"#utility.yul\":5410:5457   */\n      mstore\n        /* \"#utility.yul\":5474:5605   */\n      tag_178\n        /* \"#utility.yul\":5600:5604   */\n      dup2\n        /* \"#utility.yul\":5474:5605   */\n      tag_151\n      jump\t// in\n    tag_178:\n        /* \"#utility.yul\":5466:5605   */\n      swap1\n      pop\n        /* \"#utility.yul\":5193:5612   */\n      swap2\n      swap1\n      pop\n      jump\t// out\n        /* \"#utility.yul\":5618:6037   */\n    tag_78:\n        /* \"#utility.yul\":5784:5788   */\n      0x00\n        /* \"#utility.yul\":5822:5824   */\n      0x20\n        /* \"#utility.yul\":5811:5820   */\n      dup3\n        /* \"#utility.yul\":5807:5825   */\n      add\n        /* \"#utility.yul\":5799:5825   */\n      swap1\n      pop\n        /* \"#utility.yul\":5871:5880   */\n      dup2\n        /* \"#utility.yul\":5865:5869   */\n      dup2\n        /* \"#utility.yul\":5861:5881   */\n      sub\n        /* \"#utility.yul\":5857:5858   */\n      0x00\n        /* \"#utility.yul\":5846:5855   */\n      dup4\n        /* \"#utility.yul\":5842:5859   */\n      add\n        /* \"#utility.yul\":5835:5882   */\n      mstore\n        /* \"#utility.yul\":5899:6030   */\n      tag_180\n        /* \"#utility.yul\":6025:6029   */\n      dup2\n        /* \"#utility.yul\":5899:6030   */\n      tag_162\n      jump\t// in\n    tag_180:\n        /* \"#utility.yul\":5891:6030   */\n      swap1\n      pop\n        /* \"#utility.yul\":5618:6037   */\n      swap2\n      swap1\n      pop\n      jump\t// out\n        /* \"#utility.yul\":6043:6265   */\n    tag_20:\n        /* \"#utility.yul\":6136:6140   */\n      0x00\n        /* \"#utility.yul\":6174:6176   */\n      0x20\n        /* \"#utility.yul\":6163:6172   */\n      dup3\n        /* \"#utility.yul\":6159:6177   */\n      add\n        /* \"#utility.yul\":6151:6177   */\n      swap1\n      pop\n        /* \"#utility.yul\":6187:6258   */\n      tag_182\n        /* \"#utility.yul\":6255:6256   */\n      0x00\n        /* \"#utility.yul\":6244:6253   */\n      dup4\n        /* \"#utility.yul\":6240:6257   */\n      add\n        /* \"#utility.yul\":6231:6237   */\n      dup5\n        /* \"#utility.yul\":6187:6258   */\n      tag_167\n      jump\t// in\n    tag_182:\n        /* \"#utility.yul\":6043:6265   */\n      swap3\n      swap2\n      pop\n      pop\n      jump\t// out\n        /* \"#utility.yul\":6352:6499   */\n    tag_159:\n        /* \"#utility.yul\":6453:6464   */\n      0x00\n        /* \"#utility.yul\":6490:6493   */\n      dup2\n        /* \"#utility.yul\":6475:6493   */\n      swap1\n      pop\n        /* \"#utility.yul\":6352:6499   */\n      swap3\n      swap2\n      pop\n      pop\n      jump\t// out\n        /* \"#utility.yul\":6505:6674   */\n    tag_148:\n        /* \"#utility.yul\":6589:6600   */\n      0x00\n        /* \"#utility.yul\":6623:6629   */\n      dup3\n        /* \"#utility.yul\":6618:6621   */\n      dup3\n        /* \"#utility.yul\":6611:6630   */\n      mstore\n        /* \"#utility.yul\":6663:6667   */\n      0x20\n        /* \"#utility.yul\":6658:6661   */\n      dup3\n        /* \"#utility.yul\":6654:6668   */\n      add\n        /* \"#utility.yul\":6639:6668   */\n      swap1\n      pop\n        /* \"#utility.yul\":6505:6674   */\n      swap3\n      swap2\n      pop\n      pop\n      jump\t// out\n        /* \"#utility.yul\":6680:6865   */\n    tag_95:\n        /* \"#utility.yul\":6720:6721   */\n      0x00\n        /* \"#utility.yul\":6737:6757   */\n      tag_188\n        /* \"#utility.yul\":6755:6756   */\n      dup3\n        /* \"#utility.yul\":6737:6757   */\n      tag_170\n      jump\t// in\n    tag_188:\n        /* \"#utility.yul\":6732:6757   */\n      swap2\n      pop\n        /* \"#utility.yul\":6771:6791   */\n      tag_189\n        /* \"#utility.yul\":6789:6790   */\n      dup4\n        /* \"#utility.yul\":6771:6791   */\n      tag_170\n      jump\t// in\n    tag_189:\n        /* \"#utility.yul\":6766:6791   */\n      swap3\n      pop\n        /* \"#utility.yul\":6810:6811   */\n      dup3\n        /* \"#utility.yul\":6800:6835   */\n      tag_190\n      jumpi\n        /* \"#utility.yul\":6815:6833   */\n      tag_191\n      tag_192\n      jump\t// in\n    tag_191:\n        /* \"#utility.yul\":6800:6835   */\n    tag_190:\n        /* \"#utility.yul\":6857:6858   */\n      dup3\n        /* \"#utility.yul\":6854:6855   */\n      dup3\n        /* \"#utility.yul\":6850:6859   */\n      div\n        /* \"#utility.yul\":6845:6859   */\n      swap1\n      pop\n        /* \"#utility.yul\":6680:6865   */\n      swap3\n      swap2\n      pop\n      pop\n      jump\t// out\n        /* \"#utility.yul\":6871:7862   */\n    tag_103:\n        /* \"#utility.yul\":6910:6917   */\n      0x00\n        /* \"#utility.yul\":6933:6952   */\n      tag_194\n        /* \"#utility.yul\":6950:6951   */\n      dup3\n        /* \"#utility.yul\":6933:6952   */\n      tag_195\n      jump\t// in\n    tag_194:\n        /* \"#utility.yul\":6928:6952   */\n      swap2\n      pop\n        /* \"#utility.yul\":6966:6985   */\n      tag_196\n        /* \"#utility.yul\":6983:6984   */\n      dup4\n        /* \"#utility.yul\":6966:6985   */\n      tag_195\n      jump\t// in\n    tag_196:\n        /* \"#utility.yul\":6961:6985   */\n      swap3\n      pop\n        /* \"#utility.yul\":7167:7168   */\n      dup3\n        /* \"#utility.yul\":7099:7165   */\n      0x7fffffffffffffffffffffffffffffffffffffffffffffffffffffffffffffff\n        /* \"#utility.yul\":7095:7169   */\n      div\n        /* \"#utility.yul\":7092:7093   */\n      dup3\n        /* \"#utility.yul\":7089:7170   */\n      gt\n        /* \"#utility.yul\":7084:7085   */\n      0x00\n        /* \"#utility.yul\":7081:7082   */\n      dup5\n        /* \"#utility.yul\":7077:7086   */\n      sgt\n        /* \"#utility.yul\":7073:7074   */\n      0x00\n        /* \"#utility.yul\":7070:7071   */\n      dup5\n        /* \"#utility.yul\":7066:7075   */\n      sgt\n        /* \"#utility.yul\":7062:7087   */\n      and\n        /* \"#utility.yul\":7058:7171   */\n      and\n        /* \"#utility.yul\":7055:7194   */\n      iszero\n      tag_197\n      jumpi\n        /* \"#utility.yul\":7174:7192   */\n      tag_198\n      tag_199\n      jump\t// in\n    tag_198:\n        /* \"#utility.yul\":7055:7194   */\n    tag_197:\n        /* \"#utility.yul\":7378:7379   */\n      dup2\n        /* \"#utility.yul\":7310:7376   */\n      0x8000000000000000000000000000000000000000000000000000000000000000\n        /* \"#utility.yul\":7305:7380   */\n      sdiv\n        /* \"#utility.yul\":7302:7303   */\n      dup4\n        /* \"#utility.yul\":7298:7381   */\n      slt\n        /* \"#utility.yul\":7293:7294   */\n      0x00\n        /* \"#utility.yul\":7290:7291   */\n      dup5\n        /* \"#utility.yul\":7286:7295   */\n      slt\n        /* \"#utility.yul\":7282:7283   */\n      0x00\n        /* \"#utility.yul\":7279:7280   */\n      dup5\n        /* \"#utility.yul\":7275:7284   */\n      sgt\n        /* \"#utility.yul\":7271:7296   */\n      and\n        /* \"#utility.yul\":7267:7382   */\n      and\n        /* \"#utility.yul\":7264:7405   */\n      iszero\n      tag_200\n      jumpi\n        /* \"#utility.yul\":7385:7403   */\n      tag_201\n      tag_199\n      jump\t// in\n    tag_201:\n        /* \"#utility.yul\":7264:7405   */\n    tag_200:\n        /* \"#utility.yul\":7589:7590   */\n      dup3\n        /* \"#utility.yul\":7521:7587   */\n      0x8000000000000000000000000000000000000000000000000000000000000000\n        /* \"#utility.yul\":7516:7591   */\n      sdiv\n        /* \"#utility.yul\":7513:7514   */\n      dup3\n        /* \"#utility.yul\":7509:7592   */\n      slt\n        /* \"#utility.yul\":7504:7505   */\n      0x00\n        /* \"#utility.yul\":7501:7502   */\n      dup5\n        /* \"#utility.yul\":7497:7506   */\n      sgt\n        /* \"#utility.yul\":7493:7494   */\n      0x00\n        /* \"#utility.yul\":7490:7491   */\n      dup5\n        /* \"#utility.yul\":7486:7495   */\n      slt\n        /* \"#utility.yul\":7482:7507   */\n      and\n        /* \"#utility.yul\":7478:7593   */\n      and\n        /* \"#utility.yul\":7475:7616   */\n      iszero\n      tag_202\n      jumpi\n        /* \"#utility.yul\":7596:7614   */\n      tag_203\n      tag_199\n      jump\t// in\n    tag_203:\n        /* \"#utility.yul\":7475:7616   */\n    tag_202:\n        /* \"#utility.yul\":7799:7800   */\n      dup3\n        /* \"#utility.yul\":7731:7797   */\n      0x7fffffffffffffffffffffffffffffffffffffffffffffffffffffffffffffff\n        /* \"#utility.yul\":7726:7801   */\n      sdiv\n        /* \"#utility.yul\":7723:7724   */\n      dup3\n        /* \"#utility.yul\":7719:7802   */\n      slt\n        /* \"#utility.yul\":7714:7715   */\n      0x00\n        /* \"#utility.yul\":7711:7712   */\n      dup5\n        /* \"#utility.yul\":7707:7716   */\n      slt\n        /* \"#utility.yul\":7703:7704   */\n      0x00\n        /* \"#utility.yul\":7700:7701   */\n      dup5\n        /* \"#utility.yul\":7696:7705   */\n      slt\n        /* \"#utility.yul\":7692:7717   */\n      and\n        /* \"#utility.yul\":7688:7803   */\n      and\n        /* \"#utility.yul\":7685:7826   */\n      iszero\n      tag_204\n      jumpi\n        /* \"#utility.yul\":7806:7824   */\n      tag_205\n      tag_199\n      jump\t// in\n    tag_205:\n        /* \"#utility.yul\":7685:7826   */\n    tag_204:\n        /* \"#utility.yul\":7854:7855   */\n      dup3\n        /* \"#utility.yul\":7851:7852   */\n      dup3\n        /* \"#utility.yul\":7847:7856   */\n      mul\n        /* \"#utility.yul\":7836:7856   */\n      swap1\n      pop\n        /* \"#utility.yul\":6871:7862   */\n      swap3\n      swap2\n      pop\n      pop\n      jump\t// out\n        /* \"#utility.yul\":7868:8216   */\n    tag_93:\n        /* \"#utility.yul\":7908:7915   */\n      0x00\n        /* \"#utility.yul\":7931:7951   */\n      tag_207\n        /* \"#utility.yul\":7949:7950   */\n      dup3\n        /* \"#utility.yul\":7931:7951   */\n      tag_170\n      jump\t// in\n    tag_207:\n        /* \"#utility.yul\":7926:7951   */\n      swap2\n      pop\n        /* \"#utility.yul\":7965:7985   */\n      tag_208\n        /* \"#utility.yul\":7983:7984   */\n      dup4\n        /* \"#utility.yul\":7965:7985   */\n      tag_170\n      jump\t// in\n    tag_208:\n        /* \"#utility.yul\":7960:7985   */\n      swap3\n      pop\n        /* \"#utility.yul\":8153:8154   */\n      dup2\n        /* \"#utility.yul\":8085:8151   */\n      0xffffffffffffffffffffffffffffffffffffffffffffffffffffffffffffffff\n        /* \"#utility.yul\":8081:8155   */\n      div\n        /* \"#utility.yul\":8078:8079   */\n      dup4\n        /* \"#utility.yul\":8075:8156   */\n      gt\n        /* \"#utility.yul\":8070:8071   */\n      dup3\n        /* \"#utility.yul\":8063:8072   */\n      iszero\n        /* \"#utility.yul\":8056:8073   */\n      iszero\n        /* \"#utility.yul\":8052:8157   */\n      and\n        /* \"#utility.yul\":8049:8180   */\n      iszero\n      tag_209\n      jumpi\n        /* \"#utility.yul\":8160:8178   */\n      tag_210\n      tag_199\n      jump\t// in\n    tag_210:\n        /* \"#utility.yul\":8049:8180   */\n    tag_209:\n        /* \"#utility.yul\":8208:8209   */\n      dup3\n        /* \"#utility.yul\":8205:8206   */\n      dup3\n        /* \"#utility.yul\":8201:8210   */\n      mul\n        /* \"#utility.yul\":8190:8210   */\n      swap1\n      pop\n        /* \"#utility.yul\":7868:8216   */\n      swap3\n      swap2\n      pop\n      pop\n      jump\t// out\n        /* \"#utility.yul\":8222:8318   */\n    tag_144:\n        /* \"#utility.yul\":8259:8266   */\n      0x00\n        /* \"#utility.yul\":8288:8312   */\n      tag_212\n        /* \"#utility.yul\":8306:8311   */\n      dup3\n        /* \"#utility.yul\":8288:8312   */\n      tag_213\n      jump\t// in\n    tag_212:\n        /* \"#utility.yul\":8277:8312   */\n      swap1\n      pop\n        /* \"#utility.yul\":8222:8318   */\n      swap2\n      swap1\n      pop\n      jump\t// out\n        /* \"#utility.yul\":8324:8400   */\n    tag_195:\n        /* \"#utility.yul\":8360:8367   */\n      0x00\n        /* \"#utility.yul\":8389:8394   */\n      dup2\n        /* \"#utility.yul\":8378:8394   */\n      swap1\n      pop\n        /* \"#utility.yul\":8324:8400   */\n      swap2\n      swap1\n      pop\n      jump\t// out\n        /* \"#utility.yul\":8406:8532   */\n    tag_213:\n        /* \"#utility.yul\":8443:8450   */\n      0x00\n        /* \"#utility.yul\":8483:8525   */\n      0xffffffffffffffffffffffffffffffffffffffff\n        /* \"#utility.yul\":8476:8481   */\n      dup3\n        /* \"#utility.yul\":8472:8526   */\n      and\n        /* \"#utility.yul\":8461:8526   */\n      swap1\n      pop\n        /* \"#utility.yul\":8406:8532   */\n      swap2\n      swap1\n      pop\n      jump\t// out\n        /* \"#utility.yul\":8538:8615   */\n    tag_170:\n        /* \"#utility.yul\":8575:8582   */\n      0x00\n        /* \"#utility.yul\":8604:8609   */\n      dup2\n        /* \"#utility.yul\":8593:8609   */\n      swap1\n      pop\n        /* \"#utility.yul\":8538:8615   */\n      swap2\n      swap1\n      pop\n      jump\t// out\n        /* \"#utility.yul\":8621:8726   */\n    tag_217:\n        /* \"#utility.yul\":8657:8664   */\n      0x00\n        /* \"#utility.yul\":8697:8719   */\n      0xffffffffffffffffffff\n        /* \"#utility.yul\":8690:8695   */\n      dup3\n        /* \"#utility.yul\":8686:8720   */\n      and\n        /* \"#utility.yul\":8675:8720   */\n      swap1\n      pop\n        /* \"#utility.yul\":8621:8726   */\n      swap2\n      swap1\n      pop\n      jump\t// out\n        /* \"#utility.yul\":8732:8965   */\n    tag_64:\n        /* \"#utility.yul\":8771:8774   */\n      0x00\n        /* \"#utility.yul\":8794:8818   */\n      tag_220\n        /* \"#utility.yul\":8812:8817   */\n      dup3\n        /* \"#utility.yul\":8794:8818   */\n      tag_170\n      jump\t// in\n    tag_220:\n        /* \"#utility.yul\":8785:8818   */\n      swap2\n      pop\n        /* \"#utility.yul\":8840:8906   */\n      0xffffffffffffffffffffffffffffffffffffffffffffffffffffffffffffffff\n        /* \"#utility.yul\":8833:8838   */\n      dup3\n        /* \"#utility.yul\":8830:8907   */\n      eq\n        /* \"#utility.yul\":8827:8930   */\n      iszero\n      tag_221\n      jumpi\n        /* \"#utility.yul\":8910:8928   */\n      tag_222\n      tag_199\n      jump\t// in\n    tag_222:\n        /* \"#utility.yul\":8827:8930   */\n    tag_221:\n        /* \"#utility.yul\":8957:8958   */\n      0x01\n        /* \"#utility.yul\":8950:8955   */\n      dup3\n        /* \"#utility.yul\":8946:8959   */\n      add\n        /* \"#utility.yul\":8939:8959   */\n      swap1\n      pop\n        /* \"#utility.yul\":8732:8965   */\n      swap2\n      swap1\n      pop\n      jump\t// out\n        /* \"#utility.yul\":8971:9151   */\n    tag_199:\n        /* \"#utility.yul\":9019:9096   */\n      0x4e487b7100000000000000000000000000000000000000000000000000000000\n        /* \"#utility.yul\":9016:9017   */\n      0x00\n        /* \"#utility.yul\":9009:9097   */\n      mstore\n        /* \"#utility.yul\":9116:9120   */\n      0x11\n        /* \"#utility.yul\":9113:9114   */\n      0x04\n        /* \"#utility.yul\":9106:9121   */\n      mstore\n        /* \"#utility.yul\":9140:9144   */\n      0x24\n        /* \"#utility.yul\":9137:9138   */\n      0x00\n        /* \"#utility.yul\":9130:9145   */\n      revert\n        /* \"#utility.yul\":9157:9337   */\n    tag_192:\n        /* \"#utility.yul\":9205:9282   */\n      0x4e487b7100000000000000000000000000000000000000000000000000000000\n        /* \"#utility.yul\":9202:9203   */\n      0x00\n        /* \"#utility.yul\":9195:9283   */\n      mstore\n        /* \"#utility.yul\":9302:9306   */\n      0x12\n        /* \"#utility.yul\":9299:9300   */\n      0x04\n        /* \"#utility.yul\":9292:9307   */\n      mstore\n        /* \"#utility.yul\":9326:9330   */\n      0x24\n        /* \"#utility.yul\":9323:9324   */\n      0x00\n        /* \"#utility.yul\":9316:9331   */\n      revert\n        /* \"#utility.yul\":9343:9523   */\n    tag_61:\n        /* \"#utility.yul\":9391:9468   */\n      0x4e487b7100000000000000000000000000000000000000000000000000000000\n        /* \"#utility.yul\":9388:9389   */\n      0x00\n        /* \"#utility.yul\":9381:9469   */\n      mstore\n        /* \"#utility.yul\":9488:9492   */\n      0x32\n        /* \"#utility.yul\":9485:9486   */\n      0x04\n        /* \"#utility.yul\":9478:9493   */\n      mstore\n        /* \"#utility.yul\":9512:9516   */\n      0x24\n        /* \"#utility.yul\":9509:9510   */\n      0x00\n        /* \"#utility.yul\":9502:9517   */\n      revert\n        /* \"#utility.yul\":9652:9769   */\n    tag_127:\n        /* \"#utility.yul\":9761:9762   */\n      0x00\n        /* \"#utility.yul\":9758:9759   */\n      dup1\n        /* \"#utility.yul\":9751:9763   */\n      revert\n        /* \"#utility.yul\":9775:9936   */\n    tag_150:\n        /* \"#utility.yul\":9915:9928   */\n      0x53656e64204661696c6564000000000000000000000000000000000000000000\n        /* \"#utility.yul\":9911:9912   */\n      0x00\n        /* \"#utility.yul\":9903:9909   */\n      dup3\n        /* \"#utility.yul\":9899:9913   */\n      add\n        /* \"#utility.yul\":9892:9929   */\n      mstore\n        /* \"#utility.yul\":9775:9936   */\n      pop\n      jump\t// out\n        /* \"#utility.yul\":9942:10170   */\n    tag_155:\n        /* \"#utility.yul\":10082:10116   */\n      0x546865206d696e696d756d20616d6f756e74206f662066756e6420776f756c64\n        /* \"#utility.yul\":10078:10079   */\n      0x00\n        /* \"#utility.yul\":10070:10076   */\n      dup3\n        /* \"#utility.yul\":10066:10080   */\n      add\n        /* \"#utility.yul\":10059:10117   */\n      mstore\n        /* \"#utility.yul\":10151:10162   */\n      0x206265203e3d3530240000000000000000000000000000000000000000000000\n        /* \"#utility.yul\":10146:10148   */\n      0x20\n        /* \"#utility.yul\":10138:10144   */\n      dup3\n        /* \"#utility.yul\":10134:10149   */\n      add\n        /* \"#utility.yul\":10127:10163   */\n      mstore\n        /* \"#utility.yul\":9942:10170   */\n      pop\n      jump\t// out\n        /* \"#utility.yul\":10176:10290   */\n    tag_161:\n      pop\n      jump\t// out\n        /* \"#utility.yul\":10296:10457   */\n    tag_166:\n        /* \"#utility.yul\":10436:10449   */\n      0x43616c6c204661696c6564000000000000000000000000000000000000000000\n        /* \"#utility.yul\":10432:10433   */\n      0x00\n        /* \"#utility.yul\":10424:10430   */\n      dup3\n        /* \"#utility.yul\":10420:10434   */\n      add\n        /* \"#utility.yul\":10413:10450   */\n      mstore\n        /* \"#utility.yul\":10296:10457   */\n      pop\n      jump\t// out\n        /* \"#utility.yul\":10463:10585   */\n    tag_108:\n        /* \"#utility.yul\":10536:10560   */\n      tag_234\n        /* \"#utility.yul\":10554:10559   */\n      dup2\n        /* \"#utility.yul\":10536:10560   */\n      tag_144\n      jump\t// in\n    tag_234:\n        /* \"#utility.yul\":10529:10534   */\n      dup2\n        /* \"#utility.yul\":10526:10561   */\n      eq\n        /* \"#utility.yul\":10516:10579   */\n      tag_235\n      jumpi\n        /* \"#utility.yul\":10575:10576   */\n      0x00\n        /* \"#utility.yul\":10572:10573   */\n      dup1\n        /* \"#utility.yul\":10565:10577   */\n      revert\n        /* \"#utility.yul\":10516:10579   */\n    tag_235:\n        /* \"#utility.yul\":10463:10585   */\n      pop\n      jump\t// out\n        /* \"#utility.yul\":10591:10711   */\n    tag_112:\n        /* \"#utility.yul\":10663:10686   */\n      tag_237\n        /* \"#utility.yul\":10680:10685   */\n      dup2\n        /* \"#utility.yul\":10663:10686   */\n      tag_195\n      jump\t// in\n    tag_237:\n        /* \"#utility.yul\":10656:10661   */\n      dup2\n        /* \"#utility.yul\":10653:10687   */\n      eq\n        /* \"#utility.yul\":10643:10705   */\n      tag_238\n      jumpi\n        /* \"#utility.yul\":10701:10702   */\n      0x00\n        /* \"#utility.yul\":10698:10699   */\n      dup1\n        /* \"#utility.yul\":10691:10703   */\n      revert\n        /* \"#utility.yul\":10643:10705   */\n    tag_238:\n        /* \"#utility.yul\":10591:10711   */\n      pop\n      jump\t// out\n        /* \"#utility.yul\":10717:10839   */\n    tag_116:\n        /* \"#utility.yul\":10790:10814   */\n      tag_240\n        /* \"#utility.yul\":10808:10813   */\n      dup2\n        /* \"#utility.yul\":10790:10814   */\n      tag_170\n      jump\t// in\n    tag_240:\n        /* \"#utility.yul\":10783:10788   */\n      dup2\n        /* \"#utility.yul\":10780:10815   */\n      eq\n        /* \"#utility.yul\":10770:10833   */\n      tag_241\n      jumpi\n        /* \"#utility.yul\":10829:10830   */\n      0x00\n        /* \"#utility.yul\":10826:10827   */\n      dup1\n        /* \"#utility.yul\":10819:10831   */\n      revert\n        /* \"#utility.yul\":10770:10833   */\n    tag_241:\n        /* \"#utility.yul\":10717:10839   */\n      pop\n      jump\t// out\n        /* \"#utility.yul\":10845:10965   */\n    tag_123:\n        /* \"#utility.yul\":10917:10940   */\n      tag_243\n        /* \"#utility.yul\":10934:10939   */\n      dup2\n        /* \"#utility.yul\":10917:10940   */\n      tag_217\n      jump\t// in\n    tag_243:\n        /* \"#utility.yul\":10910:10915   */\n      dup2\n        /* \"#utility.yul\":10907:10941   */\n      eq\n        /* \"#utility.yul\":10897:10959   */\n      tag_244\n      jumpi\n        /* \"#utility.yul\":10955:10956   */\n      0x00\n        /* \"#utility.yul\":10952:10953   */\n      dup1\n        /* \"#utility.yul\":10945:10957   */\n      revert\n        /* \"#utility.yul\":10897:10959   */\n    tag_244:\n        /* \"#utility.yul\":10845:10965   */\n      pop\n      jump\t// out\n\n    auxdata: 0xa26469706673582212201d2eefe83760280d65bb5cacbf45ad80249ccbe5fae455d7fc07d5c8c4eb628f64736f6c63430008070033\n}\n",
				"bytecode": {
					"linkReferences": {},
					"object": "60a060405234801561001057600080fd5b503373ffffffffffffffffffffffffffffffffffffffff1660808173ffffffffffffffffffffffffffffffffffffffff1660601b8152505060805160601c610ef661007b600039600081816102c3015281816105710152818161064201526106cd0152610ef66000f3fe60806040526004361061007a5760003560e01c8063968ed6001161004e578063968ed600146100f4578063dba6335f1461011f578063dc0d3dff1461014a578063e73c0f23146101875761007a565b80625c33e11461007f5780633ccfd60b146100895780636b69a592146100a057806376778d6e146100cb575b600080fd5b6100876101c4565b005b34801561009557600080fd5b5061009e6102c1565b005b3480156100ac57600080fd5b506100b5610562565b6040516100c29190610ab0565b60405180910390f35b3480156100d757600080fd5b506100f260048036038101906100ed91906108ce565b61056f565b005b34801561010057600080fd5b5061010961063e565b6040516101169190610ab0565b60405180910390f35b34801561012b57600080fd5b506101346106cb565b6040516101419190610a35565b60405180910390f35b34801561015657600080fd5b50610171600480360381019061016c91906108ce565b6106ef565b60405161017e9190610a35565b60405180910390f35b34801561019357600080fd5b506101ae60048036038101906101a991906108a1565b61072e565b6040516101bb9190610ab0565b60405180910390f35b6802b5e3af16b18800006101d734610746565b1015610218576040517f08c379a000000000000000000000000000000000000000000000000000000000815260040161020f90610a70565b60405180910390fd5b6000339080600181540180825580915050600190039060005260206000200160009091909190916101000a81548173ffffffffffffffffffffffffffffffffffffffff021916908373ffffffffffffffffffffffffffffffffffffffff16021790555034600160003373ffffffffffffffffffffffffffffffffffffffff1673ffffffffffffffffffffffffffffffffffffffff16815260200190815260200160002081905550565b7f000000000000000000000000000000000000000000000000000000000000000073ffffffffffffffffffffffffffffffffffffffff163373ffffffffffffffffffffffffffffffffffffffff1614610346576040517f251c9d6300000000000000000000000000000000000000000000000000000000815260040160405180910390fd5b60005b6000805490508110156103f157600080828154811061036b5761036a610d8c565b5b9060005260206000200160009054906101000a900473ffffffffffffffffffffffffffffffffffffffff1690506000600160008373ffffffffffffffffffffffffffffffffffffffff1673ffffffffffffffffffffffffffffffffffffffff168152602001908152602001600020819055505080806103e990610ce5565b915050610349565b3373ffffffffffffffffffffffffffffffffffffffff166108fc479081150290604051600060405180830381858888f19350505050158015610437573d6000803e3d6000fd5b5060003373ffffffffffffffffffffffffffffffffffffffff166108fc479081150290604051600060405180830381858888f193505050509050806104b1576040517f08c379a00000000000000000000000000000000000000000000000000000000081526004016104a890610a50565b60405180910390fd5b60003373ffffffffffffffffffffffffffffffffffffffff16476040516104d790610a20565b60006040518083038185875af1925050503d8060008114610514576040519150601f19603f3d011682016040523d82523d6000602084013e610519565b606091505b505090508061055d576040517f08c379a000000000000000000000000000000000000000000000000000000000815260040161055490610a90565b60405180910390fd5b505050565b6802b5e3af16b188000081565b7f000000000000000000000000000000000000000000000000000000000000000073ffffffffffffffffffffffffffffffffffffffff163373ffffffffffffffffffffffffffffffffffffffff16146105f4576040517f251c9d6300000000000000000000000000000000000000000000000000000000815260040160405180910390fd5b3373ffffffffffffffffffffffffffffffffffffffff166108fc829081150290604051600060405180830381858888f1935050505015801561063a573d6000803e3d6000fd5b5050565b60007f000000000000000000000000000000000000000000000000000000000000000073ffffffffffffffffffffffffffffffffffffffff163373ffffffffffffffffffffffffffffffffffffffff16146106c5576040517f251c9d6300000000000000000000000000000000000000000000000000000000815260040160405180910390fd5b47905090565b7f000000000000000000000000000000000000000000000000000000000000000081565b600081815481106106ff57600080fd5b906000526020600020016000915054906101000a900473ffffffffffffffffffffffffffffffffffffffff1681565b60016020528060005260406000206000915090505481565b600080610751610780565b90506000670de0b6b3a7640000828561076a9190610c2f565b6107749190610ae7565b90508092505050919050565b600080738a753747a1fa494ec906ce90e9f37563a8af630e905060008173ffffffffffffffffffffffffffffffffffffffff1663feaf968c6040518163ffffffff1660e01b815260040160a06040518083038186803b1580156107e257600080fd5b505afa1580156107f6573d6000803e3d6000fd5b505050506040513d601f19601f8201168201806040525081019061081a91906108fb565b5050509150506402540be400816108319190610b18565b9250505090565b60008135905061084781610e64565b92915050565b60008151905061085c81610e7b565b92915050565b60008135905061087181610e92565b92915050565b60008151905061088681610e92565b92915050565b60008151905061089b81610ea9565b92915050565b6000602082840312156108b7576108b6610dbb565b5b60006108c584828501610838565b91505092915050565b6000602082840312156108e4576108e3610dbb565b5b60006108f284828501610862565b91505092915050565b600080600080600060a0868803121561091757610916610dbb565b5b60006109258882890161088c565b95505060206109368882890161084d565b945050604061094788828901610877565b935050606061095888828901610877565b92505060806109698882890161088c565b9150509295509295909350565b61097f81610c89565b82525050565b6000610992600b83610ad6565b915061099d82610dc0565b602082019050919050565b60006109b5602983610ad6565b91506109c082610de9565b604082019050919050565b60006109d8600083610acb565b91506109e382610e38565b600082019050919050565b60006109fb600b83610ad6565b9150610a0682610e3b565b602082019050919050565b610a1a81610cc5565b82525050565b6000610a2b826109cb565b9150819050919050565b6000602082019050610a4a6000830184610976565b92915050565b60006020820190508181036000830152610a6981610985565b9050919050565b60006020820190508181036000830152610a89816109a8565b9050919050565b60006020820190508181036000830152610aa9816109ee565b9050919050565b6000602082019050610ac56000830184610a11565b92915050565b600081905092915050565b600082825260208201905092915050565b6000610af282610cc5565b9150610afd83610cc5565b925082610b0d57610b0c610d5d565b5b828204905092915050565b6000610b2382610c9b565b9150610b2e83610c9b565b9250827f7fffffffffffffffffffffffffffffffffffffffffffffffffffffffffffffff0482116000841360008413161615610b6d57610b6c610d2e565b5b817f80000000000000000000000000000000000000000000000000000000000000000583126000841260008413161615610baa57610ba9610d2e565b5b827f80000000000000000000000000000000000000000000000000000000000000000582126000841360008412161615610be757610be6610d2e565b5b827f7fffffffffffffffffffffffffffffffffffffffffffffffffffffffffffffff0582126000841260008412161615610c2457610c23610d2e565b5b828202905092915050565b6000610c3a82610cc5565b9150610c4583610cc5565b9250817fffffffffffffffffffffffffffffffffffffffffffffffffffffffffffffffff0483118215151615610c7e57610c7d610d2e565b5b828202905092915050565b6000610c9482610ca5565b9050919050565b6000819050919050565b600073ffffffffffffffffffffffffffffffffffffffff82169050919050565b6000819050919050565b600069ffffffffffffffffffff82169050919050565b6000610cf082610cc5565b91507fffffffffffffffffffffffffffffffffffffffffffffffffffffffffffffffff821415610d2357610d22610d2e565b5b600182019050919050565b7f4e487b7100000000000000000000000000000000000000000000000000000000600052601160045260246000fd5b7f4e487b7100000000000000000000000000000000000000000000000000000000600052601260045260246000fd5b7f4e487b7100000000000000000000000000000000000000000000000000000000600052603260045260246000fd5b600080fd5b7f53656e64204661696c6564000000000000000000000000000000000000000000600082015250565b7f546865206d696e696d756d20616d6f756e74206f662066756e6420776f756c6460008201527f206265203e3d3530240000000000000000000000000000000000000000000000602082015250565b50565b7f43616c6c204661696c6564000000000000000000000000000000000000000000600082015250565b610e6d81610c89565b8114610e7857600080fd5b50565b610e8481610c9b565b8114610e8f57600080fd5b50565b610e9b81610cc5565b8114610ea657600080fd5b50565b610eb281610ccf565b8114610ebd57600080fd5b5056fea26469706673582212201d2eefe83760280d65bb5cacbf45ad80249ccbe5fae455d7fc07d5c8c4eb628f64736f6c63430008070033",
					"opcodes": "PUSH1 0xA0 PUSH1 0x40 MSTORE CALLVALUE DUP1 ISZERO PUSH2 0x10 JUMPI PUSH1 0x0 DUP1 REVERT JUMPDEST POP CALLER PUSH20 0xFFFFFFFFFFFFFFFFFFFFFFFFFFFFFFFFFFFFFFFF AND PUSH1 0x80 DUP2 PUSH20 0xFFFFFFFFFFFFFFFFFFFFFFFFFFFFFFFFFFFFFFFF AND PUSH1 0x60 SHL DUP2 MSTORE POP POP PUSH1 0x80 MLOAD PUSH1 0x60 SHR PUSH2 0xEF6 PUSH2 0x7B PUSH1 0x0 CODECOPY PUSH1 0x0 DUP2 DUP2 PUSH2 0x2C3 ADD MSTORE DUP2 DUP2 PUSH2 0x571 ADD MSTORE DUP2 DUP2 PUSH2 0x642 ADD MSTORE PUSH2 0x6CD ADD MSTORE PUSH2 0xEF6 PUSH1 0x0 RETURN INVALID PUSH1 0x80 PUSH1 0x40 MSTORE PUSH1 0x4 CALLDATASIZE LT PUSH2 0x7A JUMPI PUSH1 0x0 CALLDATALOAD PUSH1 0xE0 SHR DUP1 PUSH4 0x968ED600 GT PUSH2 0x4E JUMPI DUP1 PUSH4 0x968ED600 EQ PUSH2 0xF4 JUMPI DUP1 PUSH4 0xDBA6335F EQ PUSH2 0x11F JUMPI DUP1 PUSH4 0xDC0D3DFF EQ PUSH2 0x14A JUMPI DUP1 PUSH4 0xE73C0F23 EQ PUSH2 0x187 JUMPI PUSH2 0x7A JUMP JUMPDEST DUP1 PUSH3 0x5C33E1 EQ PUSH2 0x7F JUMPI DUP1 PUSH4 0x3CCFD60B EQ PUSH2 0x89 JUMPI DUP1 PUSH4 0x6B69A592 EQ PUSH2 0xA0 JUMPI DUP1 PUSH4 0x76778D6E EQ PUSH2 0xCB JUMPI JUMPDEST PUSH1 0x0 DUP1 REVERT JUMPDEST PUSH2 0x87 PUSH2 0x1C4 JUMP JUMPDEST STOP JUMPDEST CALLVALUE DUP1 ISZERO PUSH2 0x95 JUMPI PUSH1 0x0 DUP1 REVERT JUMPDEST POP PUSH2 0x9E PUSH2 0x2C1 JUMP JUMPDEST STOP JUMPDEST CALLVALUE DUP1 ISZERO PUSH2 0xAC JUMPI PUSH1 0x0 DUP1 REVERT JUMPDEST POP PUSH2 0xB5 PUSH2 0x562 JUMP JUMPDEST PUSH1 0x40 MLOAD PUSH2 0xC2 SWAP2 SWAP1 PUSH2 0xAB0 JUMP JUMPDEST PUSH1 0x40 MLOAD DUP1 SWAP2 SUB SWAP1 RETURN JUMPDEST CALLVALUE DUP1 ISZERO PUSH2 0xD7 JUMPI PUSH1 0x0 DUP1 REVERT JUMPDEST POP PUSH2 0xF2 PUSH1 0x4 DUP1 CALLDATASIZE SUB DUP2 ADD SWAP1 PUSH2 0xED SWAP2 SWAP1 PUSH2 0x8CE JUMP JUMPDEST PUSH2 0x56F JUMP JUMPDEST STOP JUMPDEST CALLVALUE DUP1 ISZERO PUSH2 0x100 JUMPI PUSH1 0x0 DUP1 REVERT JUMPDEST POP PUSH2 0x109 PUSH2 0x63E JUMP JUMPDEST PUSH1 0x40 MLOAD PUSH2 0x116 SWAP2 SWAP1 PUSH2 0xAB0 JUMP JUMPDEST PUSH1 0x40 MLOAD DUP1 SWAP2 SUB SWAP1 RETURN JUMPDEST CALLVALUE DUP1 ISZERO PUSH2 0x12B JUMPI PUSH1 0x0 DUP1 REVERT JUMPDEST POP PUSH2 0x134 PUSH2 0x6CB JUMP JUMPDEST PUSH1 0x40 MLOAD PUSH2 0x141 SWAP2 SWAP1 PUSH2 0xA35 JUMP JUMPDEST PUSH1 0x40 MLOAD DUP1 SWAP2 SUB SWAP1 RETURN JUMPDEST CALLVALUE DUP1 ISZERO PUSH2 0x156 JUMPI PUSH1 0x0 DUP1 REVERT JUMPDEST POP PUSH2 0x171 PUSH1 0x4 DUP1 CALLDATASIZE SUB DUP2 ADD SWAP1 PUSH2 0x16C SWAP2 SWAP1 PUSH2 0x8CE JUMP JUMPDEST PUSH2 0x6EF JUMP JUMPDEST PUSH1 0x40 MLOAD PUSH2 0x17E SWAP2 SWAP1 PUSH2 0xA35 JUMP JUMPDEST PUSH1 0x40 MLOAD DUP1 SWAP2 SUB SWAP1 RETURN JUMPDEST CALLVALUE DUP1 ISZERO PUSH2 0x193 JUMPI PUSH1 0x0 DUP1 REVERT JUMPDEST POP PUSH2 0x1AE PUSH1 0x4 DUP1 CALLDATASIZE SUB DUP2 ADD SWAP1 PUSH2 0x1A9 SWAP2 SWAP1 PUSH2 0x8A1 JUMP JUMPDEST PUSH2 0x72E JUMP JUMPDEST PUSH1 0x40 MLOAD PUSH2 0x1BB SWAP2 SWAP1 PUSH2 0xAB0 JUMP JUMPDEST PUSH1 0x40 MLOAD DUP1 SWAP2 SUB SWAP1 RETURN JUMPDEST PUSH9 0x2B5E3AF16B1880000 PUSH2 0x1D7 CALLVALUE PUSH2 0x746 JUMP JUMPDEST LT ISZERO PUSH2 0x218 JUMPI PUSH1 0x40 MLOAD PUSH32 0x8C379A000000000000000000000000000000000000000000000000000000000 DUP2 MSTORE PUSH1 0x4 ADD PUSH2 0x20F SWAP1 PUSH2 0xA70 JUMP JUMPDEST PUSH1 0x40 MLOAD DUP1 SWAP2 SUB SWAP1 REVERT JUMPDEST PUSH1 0x0 CALLER SWAP1 DUP1 PUSH1 0x1 DUP2 SLOAD ADD DUP1 DUP3 SSTORE DUP1 SWAP2 POP POP PUSH1 0x1 SWAP1 SUB SWAP1 PUSH1 0x0 MSTORE PUSH1 0x20 PUSH1 0x0 KECCAK256 ADD PUSH1 0x0 SWAP1 SWAP2 SWAP1 SWAP2 SWAP1 SWAP2 PUSH2 0x100 EXP DUP2 SLOAD DUP2 PUSH20 0xFFFFFFFFFFFFFFFFFFFFFFFFFFFFFFFFFFFFFFFF MUL NOT AND SWAP1 DUP4 PUSH20 0xFFFFFFFFFFFFFFFFFFFFFFFFFFFFFFFFFFFFFFFF AND MUL OR SWAP1 SSTORE POP CALLVALUE PUSH1 0x1 PUSH1 0x0 CALLER PUSH20 0xFFFFFFFFFFFFFFFFFFFFFFFFFFFFFFFFFFFFFFFF AND PUSH20 0xFFFFFFFFFFFFFFFFFFFFFFFFFFFFFFFFFFFFFFFF AND DUP2 MSTORE PUSH1 0x20 ADD SWAP1 DUP2 MSTORE PUSH1 0x20 ADD PUSH1 0x0 KECCAK256 DUP2 SWAP1 SSTORE POP JUMP JUMPDEST PUSH32 0x0 PUSH20 0xFFFFFFFFFFFFFFFFFFFFFFFFFFFFFFFFFFFFFFFF AND CALLER PUSH20 0xFFFFFFFFFFFFFFFFFFFFFFFFFFFFFFFFFFFFFFFF AND EQ PUSH2 0x346 JUMPI PUSH1 0x40 MLOAD PUSH32 0x251C9D6300000000000000000000000000000000000000000000000000000000 DUP2 MSTORE PUSH1 0x4 ADD PUSH1 0x40 MLOAD DUP1 SWAP2 SUB SWAP1 REVERT JUMPDEST PUSH1 0x0 JUMPDEST PUSH1 0x0 DUP1 SLOAD SWAP1 POP DUP2 LT ISZERO PUSH2 0x3F1 JUMPI PUSH1 0x0 DUP1 DUP3 DUP2 SLOAD DUP2 LT PUSH2 0x36B JUMPI PUSH2 0x36A PUSH2 0xD8C JUMP JUMPDEST JUMPDEST SWAP1 PUSH1 0x0 MSTORE PUSH1 0x20 PUSH1 0x0 KECCAK256 ADD PUSH1 0x0 SWAP1 SLOAD SWAP1 PUSH2 0x100 EXP SWAP1 DIV PUSH20 0xFFFFFFFFFFFFFFFFFFFFFFFFFFFFFFFFFFFFFFFF AND SWAP1 POP PUSH1 0x0 PUSH1 0x1 PUSH1 0x0 DUP4 PUSH20 0xFFFFFFFFFFFFFFFFFFFFFFFFFFFFFFFFFFFFFFFF AND PUSH20 0xFFFFFFFFFFFFFFFFFFFFFFFFFFFFFFFFFFFFFFFF AND DUP2 MSTORE PUSH1 0x20 ADD SWAP1 DUP2 MSTORE PUSH1 0x20 ADD PUSH1 0x0 KECCAK256 DUP2 SWAP1 SSTORE POP POP DUP1 DUP1 PUSH2 0x3E9 SWAP1 PUSH2 0xCE5 JUMP JUMPDEST SWAP2 POP POP PUSH2 0x349 JUMP JUMPDEST CALLER PUSH20 0xFFFFFFFFFFFFFFFFFFFFFFFFFFFFFFFFFFFFFFFF AND PUSH2 0x8FC SELFBALANCE SWAP1 DUP2 ISZERO MUL SWAP1 PUSH1 0x40 MLOAD PUSH1 0x0 PUSH1 0x40 MLOAD DUP1 DUP4 SUB DUP2 DUP6 DUP9 DUP9 CALL SWAP4 POP POP POP POP ISZERO DUP1 ISZERO PUSH2 0x437 JUMPI RETURNDATASIZE PUSH1 0x0 DUP1 RETURNDATACOPY RETURNDATASIZE PUSH1 0x0 REVERT JUMPDEST POP PUSH1 0x0 CALLER PUSH20 0xFFFFFFFFFFFFFFFFFFFFFFFFFFFFFFFFFFFFFFFF AND PUSH2 0x8FC SELFBALANCE SWAP1 DUP2 ISZERO MUL SWAP1 PUSH1 0x40 MLOAD PUSH1 0x0 PUSH1 0x40 MLOAD DUP1 DUP4 SUB DUP2 DUP6 DUP9 DUP9 CALL SWAP4 POP POP POP POP SWAP1 POP DUP1 PUSH2 0x4B1 JUMPI PUSH1 0x40 MLOAD PUSH32 0x8C379A000000000000000000000000000000000000000000000000000000000 DUP2 MSTORE PUSH1 0x4 ADD PUSH2 0x4A8 SWAP1 PUSH2 0xA50 JUMP JUMPDEST PUSH1 0x40 MLOAD DUP1 SWAP2 SUB SWAP1 REVERT JUMPDEST PUSH1 0x0 CALLER PUSH20 0xFFFFFFFFFFFFFFFFFFFFFFFFFFFFFFFFFFFFFFFF AND SELFBALANCE PUSH1 0x40 MLOAD PUSH2 0x4D7 SWAP1 PUSH2 0xA20 JUMP JUMPDEST PUSH1 0x0 PUSH1 0x40 MLOAD DUP1 DUP4 SUB DUP2 DUP6 DUP8 GAS CALL SWAP3 POP POP POP RETURNDATASIZE DUP1 PUSH1 0x0 DUP2 EQ PUSH2 0x514 JUMPI PUSH1 0x40 MLOAD SWAP2 POP PUSH1 0x1F NOT PUSH1 0x3F RETURNDATASIZE ADD AND DUP3 ADD PUSH1 0x40 MSTORE RETURNDATASIZE DUP3 MSTORE RETURNDATASIZE PUSH1 0x0 PUSH1 0x20 DUP5 ADD RETURNDATACOPY PUSH2 0x519 JUMP JUMPDEST PUSH1 0x60 SWAP2 POP JUMPDEST POP POP SWAP1 POP DUP1 PUSH2 0x55D JUMPI PUSH1 0x40 MLOAD PUSH32 0x8C379A000000000000000000000000000000000000000000000000000000000 DUP2 MSTORE PUSH1 0x4 ADD PUSH2 0x554 SWAP1 PUSH2 0xA90 JUMP JUMPDEST PUSH1 0x40 MLOAD DUP1 SWAP2 SUB SWAP1 REVERT JUMPDEST POP POP POP JUMP JUMPDEST PUSH9 0x2B5E3AF16B1880000 DUP2 JUMP JUMPDEST PUSH32 0x0 PUSH20 0xFFFFFFFFFFFFFFFFFFFFFFFFFFFFFFFFFFFFFFFF AND CALLER PUSH20 0xFFFFFFFFFFFFFFFFFFFFFFFFFFFFFFFFFFFFFFFF AND EQ PUSH2 0x5F4 JUMPI PUSH1 0x40 MLOAD PUSH32 0x251C9D6300000000000000000000000000000000000000000000000000000000 DUP2 MSTORE PUSH1 0x4 ADD PUSH1 0x40 MLOAD DUP1 SWAP2 SUB SWAP1 REVERT JUMPDEST CALLER PUSH20 0xFFFFFFFFFFFFFFFFFFFFFFFFFFFFFFFFFFFFFFFF AND PUSH2 0x8FC DUP3 SWAP1 DUP2 ISZERO MUL SWAP1 PUSH1 0x40 MLOAD PUSH1 0x0 PUSH1 0x40 MLOAD DUP1 DUP4 SUB DUP2 DUP6 DUP9 DUP9 CALL SWAP4 POP POP POP POP ISZERO DUP1 ISZERO PUSH2 0x63A JUMPI RETURNDATASIZE PUSH1 0x0 DUP1 RETURNDATACOPY RETURNDATASIZE PUSH1 0x0 REVERT JUMPDEST POP POP JUMP JUMPDEST PUSH1 0x0 PUSH32 0x0 PUSH20 0xFFFFFFFFFFFFFFFFFFFFFFFFFFFFFFFFFFFFFFFF AND CALLER PUSH20 0xFFFFFFFFFFFFFFFFFFFFFFFFFFFFFFFFFFFFFFFF AND EQ PUSH2 0x6C5 JUMPI PUSH1 0x40 MLOAD PUSH32 0x251C9D6300000000000000000000000000000000000000000000000000000000 DUP2 MSTORE PUSH1 0x4 ADD PUSH1 0x40 MLOAD DUP1 SWAP2 SUB SWAP1 REVERT JUMPDEST SELFBALANCE SWAP1 POP SWAP1 JUMP JUMPDEST PUSH32 0x0 DUP2 JUMP JUMPDEST PUSH1 0x0 DUP2 DUP2 SLOAD DUP2 LT PUSH2 0x6FF JUMPI PUSH1 0x0 DUP1 REVERT JUMPDEST SWAP1 PUSH1 0x0 MSTORE PUSH1 0x20 PUSH1 0x0 KECCAK256 ADD PUSH1 0x0 SWAP2 POP SLOAD SWAP1 PUSH2 0x100 EXP SWAP1 DIV PUSH20 0xFFFFFFFFFFFFFFFFFFFFFFFFFFFFFFFFFFFFFFFF AND DUP2 JUMP JUMPDEST PUSH1 0x1 PUSH1 0x20 MSTORE DUP1 PUSH1 0x0 MSTORE PUSH1 0x40 PUSH1 0x0 KECCAK256 PUSH1 0x0 SWAP2 POP SWAP1 POP SLOAD DUP2 JUMP JUMPDEST PUSH1 0x0 DUP1 PUSH2 0x751 PUSH2 0x780 JUMP JUMPDEST SWAP1 POP PUSH1 0x0 PUSH8 0xDE0B6B3A7640000 DUP3 DUP6 PUSH2 0x76A SWAP2 SWAP1 PUSH2 0xC2F JUMP JUMPDEST PUSH2 0x774 SWAP2 SWAP1 PUSH2 0xAE7 JUMP JUMPDEST SWAP1 POP DUP1 SWAP3 POP POP POP SWAP2 SWAP1 POP JUMP JUMPDEST PUSH1 0x0 DUP1 PUSH20 0x8A753747A1FA494EC906CE90E9F37563A8AF630E SWAP1 POP PUSH1 0x0 DUP2 PUSH20 0xFFFFFFFFFFFFFFFFFFFFFFFFFFFFFFFFFFFFFFFF AND PUSH4 0xFEAF968C PUSH1 0x40 MLOAD DUP2 PUSH4 0xFFFFFFFF AND PUSH1 0xE0 SHL DUP2 MSTORE PUSH1 0x4 ADD PUSH1 0xA0 PUSH1 0x40 MLOAD DUP1 DUP4 SUB DUP2 DUP7 DUP1 EXTCODESIZE ISZERO DUP1 ISZERO PUSH2 0x7E2 JUMPI PUSH1 0x0 DUP1 REVERT JUMPDEST POP GAS STATICCALL ISZERO DUP1 ISZERO PUSH2 0x7F6 JUMPI RETURNDATASIZE PUSH1 0x0 DUP1 RETURNDATACOPY RETURNDATASIZE PUSH1 0x0 REVERT JUMPDEST POP POP POP POP PUSH1 0x40 MLOAD RETURNDATASIZE PUSH1 0x1F NOT PUSH1 0x1F DUP3 ADD AND DUP3 ADD DUP1 PUSH1 0x40 MSTORE POP DUP2 ADD SWAP1 PUSH2 0x81A SWAP2 SWAP1 PUSH2 0x8FB JUMP JUMPDEST POP POP POP SWAP2 POP POP PUSH5 0x2540BE400 DUP2 PUSH2 0x831 SWAP2 SWAP1 PUSH2 0xB18 JUMP JUMPDEST SWAP3 POP POP POP SWAP1 JUMP JUMPDEST PUSH1 0x0 DUP2 CALLDATALOAD SWAP1 POP PUSH2 0x847 DUP2 PUSH2 0xE64 JUMP JUMPDEST SWAP3 SWAP2 POP POP JUMP JUMPDEST PUSH1 0x0 DUP2 MLOAD SWAP1 POP PUSH2 0x85C DUP2 PUSH2 0xE7B JUMP JUMPDEST SWAP3 SWAP2 POP POP JUMP JUMPDEST PUSH1 0x0 DUP2 CALLDATALOAD SWAP1 POP PUSH2 0x871 DUP2 PUSH2 0xE92 JUMP JUMPDEST SWAP3 SWAP2 POP POP JUMP JUMPDEST PUSH1 0x0 DUP2 MLOAD SWAP1 POP PUSH2 0x886 DUP2 PUSH2 0xE92 JUMP JUMPDEST SWAP3 SWAP2 POP POP JUMP JUMPDEST PUSH1 0x0 DUP2 MLOAD SWAP1 POP PUSH2 0x89B DUP2 PUSH2 0xEA9 JUMP JUMPDEST SWAP3 SWAP2 POP POP JUMP JUMPDEST PUSH1 0x0 PUSH1 0x20 DUP3 DUP5 SUB SLT ISZERO PUSH2 0x8B7 JUMPI PUSH2 0x8B6 PUSH2 0xDBB JUMP JUMPDEST JUMPDEST PUSH1 0x0 PUSH2 0x8C5 DUP5 DUP3 DUP6 ADD PUSH2 0x838 JUMP JUMPDEST SWAP2 POP POP SWAP3 SWAP2 POP POP JUMP JUMPDEST PUSH1 0x0 PUSH1 0x20 DUP3 DUP5 SUB SLT ISZERO PUSH2 0x8E4 JUMPI PUSH2 0x8E3 PUSH2 0xDBB JUMP JUMPDEST JUMPDEST PUSH1 0x0 PUSH2 0x8F2 DUP5 DUP3 DUP6 ADD PUSH2 0x862 JUMP JUMPDEST SWAP2 POP POP SWAP3 SWAP2 POP POP JUMP JUMPDEST PUSH1 0x0 DUP1 PUSH1 0x0 DUP1 PUSH1 0x0 PUSH1 0xA0 DUP7 DUP9 SUB SLT ISZERO PUSH2 0x917 JUMPI PUSH2 0x916 PUSH2 0xDBB JUMP JUMPDEST JUMPDEST PUSH1 0x0 PUSH2 0x925 DUP9 DUP3 DUP10 ADD PUSH2 0x88C JUMP JUMPDEST SWAP6 POP POP PUSH1 0x20 PUSH2 0x936 DUP9 DUP3 DUP10 ADD PUSH2 0x84D JUMP JUMPDEST SWAP5 POP POP PUSH1 0x40 PUSH2 0x947 DUP9 DUP3 DUP10 ADD PUSH2 0x877 JUMP JUMPDEST SWAP4 POP POP PUSH1 0x60 PUSH2 0x958 DUP9 DUP3 DUP10 ADD PUSH2 0x877 JUMP JUMPDEST SWAP3 POP POP PUSH1 0x80 PUSH2 0x969 DUP9 DUP3 DUP10 ADD PUSH2 0x88C JUMP JUMPDEST SWAP2 POP POP SWAP3 SWAP6 POP SWAP3 SWAP6 SWAP1 SWAP4 POP JUMP JUMPDEST PUSH2 0x97F DUP2 PUSH2 0xC89 JUMP JUMPDEST DUP3 MSTORE POP POP JUMP JUMPDEST PUSH1 0x0 PUSH2 0x992 PUSH1 0xB DUP4 PUSH2 0xAD6 JUMP JUMPDEST SWAP2 POP PUSH2 0x99D DUP3 PUSH2 0xDC0 JUMP JUMPDEST PUSH1 0x20 DUP3 ADD SWAP1 POP SWAP2 SWAP1 POP JUMP JUMPDEST PUSH1 0x0 PUSH2 0x9B5 PUSH1 0x29 DUP4 PUSH2 0xAD6 JUMP JUMPDEST SWAP2 POP PUSH2 0x9C0 DUP3 PUSH2 0xDE9 JUMP JUMPDEST PUSH1 0x40 DUP3 ADD SWAP1 POP SWAP2 SWAP1 POP JUMP JUMPDEST PUSH1 0x0 PUSH2 0x9D8 PUSH1 0x0 DUP4 PUSH2 0xACB JUMP JUMPDEST SWAP2 POP PUSH2 0x9E3 DUP3 PUSH2 0xE38 JUMP JUMPDEST PUSH1 0x0 DUP3 ADD SWAP1 POP SWAP2 SWAP1 POP JUMP JUMPDEST PUSH1 0x0 PUSH2 0x9FB PUSH1 0xB DUP4 PUSH2 0xAD6 JUMP JUMPDEST SWAP2 POP PUSH2 0xA06 DUP3 PUSH2 0xE3B JUMP JUMPDEST PUSH1 0x20 DUP3 ADD SWAP1 POP SWAP2 SWAP1 POP JUMP JUMPDEST PUSH2 0xA1A DUP2 PUSH2 0xCC5 JUMP JUMPDEST DUP3 MSTORE POP POP JUMP JUMPDEST PUSH1 0x0 PUSH2 0xA2B DUP3 PUSH2 0x9CB JUMP JUMPDEST SWAP2 POP DUP2 SWAP1 POP SWAP2 SWAP1 POP JUMP JUMPDEST PUSH1 0x0 PUSH1 0x20 DUP3 ADD SWAP1 POP PUSH2 0xA4A PUSH1 0x0 DUP4 ADD DUP5 PUSH2 0x976 JUMP JUMPDEST SWAP3 SWAP2 POP POP JUMP JUMPDEST PUSH1 0x0 PUSH1 0x20 DUP3 ADD SWAP1 POP DUP2 DUP2 SUB PUSH1 0x0 DUP4 ADD MSTORE PUSH2 0xA69 DUP2 PUSH2 0x985 JUMP JUMPDEST SWAP1 POP SWAP2 SWAP1 POP JUMP JUMPDEST PUSH1 0x0 PUSH1 0x20 DUP3 ADD SWAP1 POP DUP2 DUP2 SUB PUSH1 0x0 DUP4 ADD MSTORE PUSH2 0xA89 DUP2 PUSH2 0x9A8 JUMP JUMPDEST SWAP1 POP SWAP2 SWAP1 POP JUMP JUMPDEST PUSH1 0x0 PUSH1 0x20 DUP3 ADD SWAP1 POP DUP2 DUP2 SUB PUSH1 0x0 DUP4 ADD MSTORE PUSH2 0xAA9 DUP2 PUSH2 0x9EE JUMP JUMPDEST SWAP1 POP SWAP2 SWAP1 POP JUMP JUMPDEST PUSH1 0x0 PUSH1 0x20 DUP3 ADD SWAP1 POP PUSH2 0xAC5 PUSH1 0x0 DUP4 ADD DUP5 PUSH2 0xA11 JUMP JUMPDEST SWAP3 SWAP2 POP POP JUMP JUMPDEST PUSH1 0x0 DUP2 SWAP1 POP SWAP3 SWAP2 POP POP JUMP JUMPDEST PUSH1 0x0 DUP3 DUP3 MSTORE PUSH1 0x20 DUP3 ADD SWAP1 POP SWAP3 SWAP2 POP POP JUMP JUMPDEST PUSH1 0x0 PUSH2 0xAF2 DUP3 PUSH2 0xCC5 JUMP JUMPDEST SWAP2 POP PUSH2 0xAFD DUP4 PUSH2 0xCC5 JUMP JUMPDEST SWAP3 POP DUP3 PUSH2 0xB0D JUMPI PUSH2 0xB0C PUSH2 0xD5D JUMP JUMPDEST JUMPDEST DUP3 DUP3 DIV SWAP1 POP SWAP3 SWAP2 POP POP JUMP JUMPDEST PUSH1 0x0 PUSH2 0xB23 DUP3 PUSH2 0xC9B JUMP JUMPDEST SWAP2 POP PUSH2 0xB2E DUP4 PUSH2 0xC9B JUMP JUMPDEST SWAP3 POP DUP3 PUSH32 0x7FFFFFFFFFFFFFFFFFFFFFFFFFFFFFFFFFFFFFFFFFFFFFFFFFFFFFFFFFFFFFFF DIV DUP3 GT PUSH1 0x0 DUP5 SGT PUSH1 0x0 DUP5 SGT AND AND ISZERO PUSH2 0xB6D JUMPI PUSH2 0xB6C PUSH2 0xD2E JUMP JUMPDEST JUMPDEST DUP2 PUSH32 0x8000000000000000000000000000000000000000000000000000000000000000 SDIV DUP4 SLT PUSH1 0x0 DUP5 SLT PUSH1 0x0 DUP5 SGT AND AND ISZERO PUSH2 0xBAA JUMPI PUSH2 0xBA9 PUSH2 0xD2E JUMP JUMPDEST JUMPDEST DUP3 PUSH32 0x8000000000000000000000000000000000000000000000000000000000000000 SDIV DUP3 SLT PUSH1 0x0 DUP5 SGT PUSH1 0x0 DUP5 SLT AND AND ISZERO PUSH2 0xBE7 JUMPI PUSH2 0xBE6 PUSH2 0xD2E JUMP JUMPDEST JUMPDEST DUP3 PUSH32 0x7FFFFFFFFFFFFFFFFFFFFFFFFFFFFFFFFFFFFFFFFFFFFFFFFFFFFFFFFFFFFFFF SDIV DUP3 SLT PUSH1 0x0 DUP5 SLT PUSH1 0x0 DUP5 SLT AND AND ISZERO PUSH2 0xC24 JUMPI PUSH2 0xC23 PUSH2 0xD2E JUMP JUMPDEST JUMPDEST DUP3 DUP3 MUL SWAP1 POP SWAP3 SWAP2 POP POP JUMP JUMPDEST PUSH1 0x0 PUSH2 0xC3A DUP3 PUSH2 0xCC5 JUMP JUMPDEST SWAP2 POP PUSH2 0xC45 DUP4 PUSH2 0xCC5 JUMP JUMPDEST SWAP3 POP DUP2 PUSH32 0xFFFFFFFFFFFFFFFFFFFFFFFFFFFFFFFFFFFFFFFFFFFFFFFFFFFFFFFFFFFFFFFF DIV DUP4 GT DUP3 ISZERO ISZERO AND ISZERO PUSH2 0xC7E JUMPI PUSH2 0xC7D PUSH2 0xD2E JUMP JUMPDEST JUMPDEST DUP3 DUP3 MUL SWAP1 POP SWAP3 SWAP2 POP POP JUMP JUMPDEST PUSH1 0x0 PUSH2 0xC94 DUP3 PUSH2 0xCA5 JUMP JUMPDEST SWAP1 POP SWAP2 SWAP1 POP JUMP JUMPDEST PUSH1 0x0 DUP2 SWAP1 POP SWAP2 SWAP1 POP JUMP JUMPDEST PUSH1 0x0 PUSH20 0xFFFFFFFFFFFFFFFFFFFFFFFFFFFFFFFFFFFFFFFF DUP3 AND SWAP1 POP SWAP2 SWAP1 POP JUMP JUMPDEST PUSH1 0x0 DUP2 SWAP1 POP SWAP2 SWAP1 POP JUMP JUMPDEST PUSH1 0x0 PUSH10 0xFFFFFFFFFFFFFFFFFFFF DUP3 AND SWAP1 POP SWAP2 SWAP1 POP JUMP JUMPDEST PUSH1 0x0 PUSH2 0xCF0 DUP3 PUSH2 0xCC5 JUMP JUMPDEST SWAP2 POP PUSH32 0xFFFFFFFFFFFFFFFFFFFFFFFFFFFFFFFFFFFFFFFFFFFFFFFFFFFFFFFFFFFFFFFF DUP3 EQ ISZERO PUSH2 0xD23 JUMPI PUSH2 0xD22 PUSH2 0xD2E JUMP JUMPDEST JUMPDEST PUSH1 0x1 DUP3 ADD SWAP1 POP SWAP2 SWAP1 POP JUMP JUMPDEST PUSH32 0x4E487B7100000000000000000000000000000000000000000000000000000000 PUSH1 0x0 MSTORE PUSH1 0x11 PUSH1 0x4 MSTORE PUSH1 0x24 PUSH1 0x0 REVERT JUMPDEST PUSH32 0x4E487B7100000000000000000000000000000000000000000000000000000000 PUSH1 0x0 MSTORE PUSH1 0x12 PUSH1 0x4 MSTORE PUSH1 0x24 PUSH1 0x0 REVERT JUMPDEST PUSH32 0x4E487B7100000000000000000000000000000000000000000000000000000000 PUSH1 0x0 MSTORE PUSH1 0x32 PUSH1 0x4 MSTORE PUSH1 0x24 PUSH1 0x0 REVERT JUMPDEST PUSH1 0x0 DUP1 REVERT JUMPDEST PUSH32 0x53656E64204661696C6564000000000000000000000000000000000000000000 PUSH1 0x0 DUP3 ADD MSTORE POP JUMP JUMPDEST PUSH32 0x546865206D696E696D756D20616D6F756E74206F662066756E6420776F756C64 PUSH1 0x0 DUP3 ADD MSTORE PUSH32 0x206265203E3D3530240000000000000000000000000000000000000000000000 PUSH1 0x20 DUP3 ADD MSTORE POP JUMP JUMPDEST POP JUMP JUMPDEST PUSH32 0x43616C6C204661696C6564000000000000000000000000000000000000000000 PUSH1 0x0 DUP3 ADD MSTORE POP JUMP JUMPDEST PUSH2 0xE6D DUP2 PUSH2 0xC89 JUMP JUMPDEST DUP2 EQ PUSH2 0xE78 JUMPI PUSH1 0x0 DUP1 REVERT JUMPDEST POP JUMP JUMPDEST PUSH2 0xE84 DUP2 PUSH2 0xC9B JUMP JUMPDEST DUP2 EQ PUSH2 0xE8F JUMPI PUSH1 0x0 DUP1 REVERT JUMPDEST POP JUMP JUMPDEST PUSH2 0xE9B DUP2 PUSH2 0xCC5 JUMP JUMPDEST DUP2 EQ PUSH2 0xEA6 JUMPI PUSH1 0x0 DUP1 REVERT JUMPDEST POP JUMP JUMPDEST PUSH2 0xEB2 DUP2 PUSH2 0xCCF JUMP JUMPDEST DUP2 EQ PUSH2 0xEBD JUMPI PUSH1 0x0 DUP1 REVERT JUMPDEST POP JUMP INVALID LOG2 PUSH5 0x6970667358 0x22 SLT KECCAK256 SAR 0x2E 0xEF 0xE8 CALLDATACOPY PUSH1 0x28 0xD PUSH6 0xBB5CACBF45AD DUP1 0x24 SWAP13 0xCB 0xE5 STATICCALL 0xE4 SSTORE 0xD7 0xFC SMOD 0xD5 0xC8 0xC4 0xEB PUSH3 0x8F6473 PUSH16 0x6C634300080700330000000000000000 "
				},
				"gasEstimates": {
					"creation": {
						"codeDepositCost": "766000",
						"executionCost": "infinite",
						"totalCost": "infinite"
					},
					"external": {
						"MINIMUM_USD()": "374",
						"funders(uint256)": "5000",
						"fundersAmount(address)": "2880",
						"i_owner()": "infinite",
						"receiveFunds()": "infinite",
						"totalFunds()": "infinite",
						"withdraw()": "infinite",
						"withdrawSpecificAmount(uint256)": "infinite"
					}
				},
				"methodIdentifiers": {
					"MINIMUM_USD()": "6b69a592",
					"funders(uint256)": "dc0d3dff",
					"fundersAmount(address)": "e73c0f23",
					"i_owner()": "dba6335f",
					"receiveFunds()": "005c33e1",
					"totalFunds()": "968ed600",
					"withdraw()": "3ccfd60b",
					"withdrawSpecificAmount(uint256)": "76778d6e"
				}
			},
			"storageLayout": {
				"storage": [
					{
						"astId": 65,
						"contract": "contracts/FundMe.sol:FundMe",
						"label": "funders",
						"offset": 0,
						"slot": "0",
						"type": "t_array(t_address)dyn_storage"
					},
					{
						"astId": 69,
						"contract": "contracts/FundMe.sol:FundMe",
						"label": "fundersAmount",
						"offset": 0,
						"slot": "1",
						"type": "t_mapping(t_address,t_uint256)"
					}
				],
				"types": {
					"t_address": {
						"encoding": "inplace",
						"label": "address",
						"numberOfBytes": "20"
					},
					"t_array(t_address)dyn_storage": {
						"base": "t_address",
						"encoding": "dynamic_array",
						"label": "address[]",
						"numberOfBytes": "32"
					},
					"t_mapping(t_address,t_uint256)": {
						"encoding": "mapping",
						"key": "t_address",
						"label": "mapping(address => uint256)",
						"numberOfBytes": "32",
						"value": "t_uint256"
					},
					"t_uint256": {
						"encoding": "inplace",
						"label": "uint256",
						"numberOfBytes": "32"
					}
				}
			},
			"userdoc": {
				"kind": "user",
				"methods": {},
				"version": 1
			}
		}
	}
}