{
	"contracts/FundMe.sol": {
		"FundMe": {
			"abi": [
				{
					"inputs": [],
					"stateMutability": "nonpayable",
					"type": "constructor"
				},
				{
					"inputs": [
						{
							"internalType": "uint256",
							"name": "ethAmount",
							"type": "uint256"
						}
					],
					"name": "conversion",
					"outputs": [
						{
							"internalType": "uint256",
							"name": "",
							"type": "uint256"
						}
					],
					"stateMutability": "view",
					"type": "function"
				},
				{
					"inputs": [],
					"name": "getPrice",
					"outputs": [
						{
							"internalType": "uint256",
							"name": "",
							"type": "uint256"
						}
					],
					"stateMutability": "view",
					"type": "function"
				},
				{
					"inputs": [],
					"name": "getVersion",
					"outputs": [
						{
							"internalType": "uint256",
							"name": "",
							"type": "uint256"
						}
					],
					"stateMutability": "view",
					"type": "function"
				},
				{
					"inputs": [],
					"name": "minimumUsd",
					"outputs": [
						{
							"internalType": "uint256",
							"name": "",
							"type": "uint256"
						}
					],
					"stateMutability": "view",
					"type": "function"
				},
				{
					"inputs": [],
					"name": "owner",
					"outputs": [
						{
							"internalType": "address payable",
							"name": "",
							"type": "address"
						}
					],
					"stateMutability": "view",
					"type": "function"
				},
				{
					"inputs": [],
					"name": "receiveFunds",
					"outputs": [],
					"stateMutability": "payable",
					"type": "function"
				}
			],
			"devdoc": {
				"kind": "dev",
				"methods": {},
				"version": 1
			},
			"evm": {
				"assembly": "    /* \"contracts/FundMe.sol\":327:1789  contract FundMe{\r... */\n  mstore(0x40, 0x80)\n    /* \"contracts/FundMe.sol\":379:381  50 */\n  0x32\n    /* \"contracts/FundMe.sol\":351:381  uint256 public minimumUsd = 50 */\n  0x00\n  sstore\n    /* \"contracts/FundMe.sol\":474:583  constructor(){\r... */\n  callvalue\n  dup1\n  iszero\n  tag_1\n  jumpi\n  0x00\n  dup1\n  revert\ntag_1:\n  pop\n    /* \"contracts/FundMe.sol\":532:574  0x9326BFA02ADD2366b30bacB125260Af641031331 */\n  0x9326bfa02add2366b30bacb125260af641031331\n    /* \"contracts/FundMe.sol\":498:507  priceFeed */\n  0x02\n  0x00\n    /* \"contracts/FundMe.sol\":498:575  priceFeed = AggregatorV3Interface(0x9326BFA02ADD2366b30bacB125260Af641031331) */\n  0x0100\n  exp\n  dup2\n  sload\n  dup2\n  0xffffffffffffffffffffffffffffffffffffffff\n  mul\n  not\n  and\n  swap1\n  dup4\n  0xffffffffffffffffffffffffffffffffffffffff\n  and\n  mul\n  or\n  swap1\n  sstore\n  pop\n    /* \"contracts/FundMe.sol\":327:1789  contract FundMe{\r... */\n  dataSize(sub_0)\n  dup1\n  dataOffset(sub_0)\n  0x00\n  codecopy\n  0x00\n  return\nstop\n\nsub_0: assembly {\n        /* \"contracts/FundMe.sol\":327:1789  contract FundMe{\r... */\n      mstore(0x40, 0x80)\n      jumpi(tag_1, lt(calldatasize, 0x04))\n      shr(0xe0, calldataload(0x00))\n      dup1\n      0x5c33e1\n      eq\n      tag_2\n      jumpi\n      dup1\n      0x098de820\n      eq\n      tag_3\n      jumpi\n      dup1\n      0x0d8e6e2c\n      eq\n      tag_4\n      jumpi\n      dup1\n      0x8da5cb5b\n      eq\n      tag_5\n      jumpi\n      dup1\n      0x98d5fdca\n      eq\n      tag_6\n      jumpi\n      dup1\n      0xba4d0c99\n      eq\n      tag_7\n      jumpi\n    tag_1:\n      0x00\n      dup1\n      revert\n        /* \"contracts/FundMe.sol\":591:906  function receiveFunds() public payable{\r... */\n    tag_2:\n      tag_8\n      tag_9\n      jump\t// in\n    tag_8:\n      stop\n        /* \"contracts/FundMe.sol\":351:381  uint256 public minimumUsd = 50 */\n    tag_3:\n      callvalue\n      dup1\n      iszero\n      tag_10\n      jumpi\n      0x00\n      dup1\n      revert\n    tag_10:\n      pop\n      tag_11\n      tag_12\n      jump\t// in\n    tag_11:\n      mload(0x40)\n      tag_13\n      swap2\n      swap1\n      tag_14\n      jump\t// in\n    tag_13:\n      mload(0x40)\n      dup1\n      swap2\n      sub\n      swap1\n      return\n        /* \"contracts/FundMe.sol\":1186:1283  function getVersion() public view returns(uint256){\r... */\n    tag_4:\n      callvalue\n      dup1\n      iszero\n      tag_15\n      jumpi\n      0x00\n      dup1\n      revert\n    tag_15:\n      pop\n      tag_16\n      tag_17\n      jump\t// in\n    tag_16:\n      mload(0x40)\n      tag_18\n      swap2\n      swap1\n      tag_14\n      jump\t// in\n    tag_18:\n      mload(0x40)\n      dup1\n      swap2\n      sub\n      swap1\n      return\n        /* \"contracts/FundMe.sol\":388:416  address payable public owner */\n    tag_5:\n      callvalue\n      dup1\n      iszero\n      tag_19\n      jumpi\n      0x00\n      dup1\n      revert\n    tag_19:\n      pop\n      tag_20\n      tag_21\n      jump\t// in\n    tag_20:\n      mload(0x40)\n      tag_22\n      swap2\n      swap1\n      tag_23\n      jump\t// in\n    tag_22:\n      mload(0x40)\n      dup1\n      swap2\n      sub\n      swap1\n      return\n        /* \"contracts/FundMe.sol\":914:1178  function getPrice() public view returns(uint256){\r... */\n    tag_6:\n      callvalue\n      dup1\n      iszero\n      tag_24\n      jumpi\n      0x00\n      dup1\n      revert\n    tag_24:\n      pop\n      tag_25\n      tag_26\n      jump\t// in\n    tag_25:\n      mload(0x40)\n      tag_27\n      swap2\n      swap1\n      tag_14\n      jump\t// in\n    tag_27:\n      mload(0x40)\n      dup1\n      swap2\n      sub\n      swap1\n      return\n        /* \"contracts/FundMe.sol\":1291:1603  function conversion(uint256 ethAmount) public view returns(uint256){\r... */\n    tag_7:\n      callvalue\n      dup1\n      iszero\n      tag_28\n      jumpi\n      0x00\n      dup1\n      revert\n    tag_28:\n      pop\n      tag_29\n      0x04\n      dup1\n      calldatasize\n      sub\n      dup2\n      add\n      swap1\n      tag_30\n      swap2\n      swap1\n      tag_31\n      jump\t// in\n    tag_30:\n      tag_32\n      jump\t// in\n    tag_29:\n      mload(0x40)\n      tag_33\n      swap2\n      swap1\n      tag_14\n      jump\t// in\n    tag_33:\n      mload(0x40)\n      dup1\n      swap2\n      sub\n      swap1\n      return\n        /* \"contracts/FundMe.sol\":591:906  function receiveFunds() public payable{\r... */\n    tag_9:\n        /* \"contracts/FundMe.sol\":763:773  minimumUsd */\n      sload(0x00)\n        /* \"contracts/FundMe.sol\":738:759  conversion(msg.value) */\n      tag_35\n        /* \"contracts/FundMe.sol\":749:758  msg.value */\n      callvalue\n        /* \"contracts/FundMe.sol\":738:748  conversion */\n      tag_32\n        /* \"contracts/FundMe.sol\":738:759  conversion(msg.value) */\n      jump\t// in\n    tag_35:\n        /* \"contracts/FundMe.sol\":738:773  conversion(msg.value) >= minimumUsd */\n      lt\n      iszero\n        /* \"contracts/FundMe.sol\":730:820  require(conversion(msg.value) >= minimumUsd , \"The minimum amount of fund would be 1 eth\") */\n      tag_36\n      jumpi\n      mload(0x40)\n      0x08c379a000000000000000000000000000000000000000000000000000000000\n      dup2\n      mstore\n      0x04\n      add\n      tag_37\n      swap1\n      tag_38\n      jump\t// in\n    tag_37:\n      mload(0x40)\n      dup1\n      swap2\n      sub\n      swap1\n      revert\n    tag_36:\n        /* \"contracts/FundMe.sol\":591:906  function receiveFunds() public payable{\r... */\n      jump\t// out\n        /* \"contracts/FundMe.sol\":351:381  uint256 public minimumUsd = 50 */\n    tag_12:\n      sload(0x00)\n      dup2\n      jump\t// out\n        /* \"contracts/FundMe.sol\":1186:1283  function getVersion() public view returns(uint256){\r... */\n    tag_17:\n        /* \"contracts/FundMe.sol\":1228:1235  uint256 */\n      0x00\n        /* \"contracts/FundMe.sol\":1256:1265  priceFeed */\n      0x02\n      0x00\n      swap1\n      sload\n      swap1\n      0x0100\n      exp\n      swap1\n      div\n      0xffffffffffffffffffffffffffffffffffffffff\n      and\n        /* \"contracts/FundMe.sol\":1256:1273  priceFeed.version */\n      0xffffffffffffffffffffffffffffffffffffffff\n      and\n      0x54fd4d50\n        /* \"contracts/FundMe.sol\":1256:1275  priceFeed.version() */\n      mload(0x40)\n      dup2\n      0xffffffff\n      and\n      0xe0\n      shl\n      dup2\n      mstore\n      0x04\n      add\n      0x20\n      mload(0x40)\n      dup1\n      dup4\n      sub\n      dup2\n      dup7\n      dup1\n      extcodesize\n      iszero\n      dup1\n      iszero\n      tag_40\n      jumpi\n      0x00\n      dup1\n      revert\n    tag_40:\n      pop\n      gas\n      staticcall\n      iszero\n      dup1\n      iszero\n      tag_42\n      jumpi\n      returndatasize\n      0x00\n      dup1\n      returndatacopy\n      revert(0x00, returndatasize)\n    tag_42:\n      pop\n      pop\n      pop\n      pop\n      mload(0x40)\n      returndatasize\n      not(0x1f)\n      0x1f\n      dup3\n      add\n      and\n      dup3\n      add\n      dup1\n      0x40\n      mstore\n      pop\n      dup2\n      add\n      swap1\n      tag_43\n      swap2\n      swap1\n      tag_44\n      jump\t// in\n    tag_43:\n        /* \"contracts/FundMe.sol\":1249:1275  return priceFeed.version() */\n      swap1\n      pop\n        /* \"contracts/FundMe.sol\":1186:1283  function getVersion() public view returns(uint256){\r... */\n      swap1\n      jump\t// out\n        /* \"contracts/FundMe.sol\":388:416  address payable public owner */\n    tag_21:\n      0x01\n      0x00\n      swap1\n      sload\n      swap1\n      0x0100\n      exp\n      swap1\n      div\n      0xffffffffffffffffffffffffffffffffffffffff\n      and\n      dup2\n      jump\t// out\n        /* \"contracts/FundMe.sol\":914:1178  function getPrice() public view returns(uint256){\r... */\n    tag_26:\n        /* \"contracts/FundMe.sol\":954:961  uint256 */\n      0x00\n        /* \"contracts/FundMe.sol\":1012:1025  int256 answer */\n      dup1\n        /* \"contracts/FundMe.sol\":1033:1042  priceFeed */\n      0x02\n      0x00\n      swap1\n      sload\n      swap1\n      0x0100\n      exp\n      swap1\n      div\n      0xffffffffffffffffffffffffffffffffffffffff\n      and\n        /* \"contracts/FundMe.sol\":1033:1058  priceFeed.latestRoundData */\n      0xffffffffffffffffffffffffffffffffffffffff\n      and\n      0xfeaf968c\n        /* \"contracts/FundMe.sol\":1033:1060  priceFeed.latestRoundData() */\n      mload(0x40)\n      dup2\n      0xffffffff\n      and\n      0xe0\n      shl\n      dup2\n      mstore\n      0x04\n      add\n      0xa0\n      mload(0x40)\n      dup1\n      dup4\n      sub\n      dup2\n      dup7\n      dup1\n      extcodesize\n      iszero\n      dup1\n      iszero\n      tag_46\n      jumpi\n      0x00\n      dup1\n      revert\n    tag_46:\n      pop\n      gas\n      staticcall\n      iszero\n      dup1\n      iszero\n      tag_48\n      jumpi\n      returndatasize\n      0x00\n      dup1\n      returndatacopy\n      revert(0x00, returndatasize)\n    tag_48:\n      pop\n      pop\n      pop\n      pop\n      mload(0x40)\n      returndatasize\n      not(0x1f)\n      0x1f\n      dup3\n      add\n      and\n      dup3\n      add\n      dup1\n      0x40\n      mstore\n      pop\n      dup2\n      add\n      swap1\n      tag_49\n      swap2\n      swap1\n      tag_50\n      jump\t// in\n    tag_49:\n        /* \"contracts/FundMe.sol\":1009:1060  (, int256 answer ,,,) = priceFeed.latestRoundData() */\n      pop\n      pop\n      pop\n      swap2\n      pop\n      pop\n        /* \"contracts/FundMe.sol\":1156:1160  1e10 */\n      0x02540be400\n        /* \"contracts/FundMe.sol\":1148:1154  answer */\n      dup2\n        /* \"contracts/FundMe.sol\":1148:1160  answer* 1e10 */\n      tag_51\n      swap2\n      swap1\n      tag_52\n      jump\t// in\n    tag_51:\n        /* \"contracts/FundMe.sol\":1133:1161  return uint256(answer* 1e10) */\n      swap2\n      pop\n      pop\n        /* \"contracts/FundMe.sol\":914:1178  function getPrice() public view returns(uint256){\r... */\n      swap1\n      jump\t// out\n        /* \"contracts/FundMe.sol\":1291:1603  function conversion(uint256 ethAmount) public view returns(uint256){\r... */\n    tag_32:\n        /* \"contracts/FundMe.sol\":1350:1357  uint256 */\n      0x00\n        /* \"contracts/FundMe.sol\":1456:1472  uint256 ethPrice */\n      dup1\n        /* \"contracts/FundMe.sol\":1475:1485  getPrice() */\n      tag_54\n        /* \"contracts/FundMe.sol\":1475:1483  getPrice */\n      tag_26\n        /* \"contracts/FundMe.sol\":1475:1485  getPrice() */\n      jump\t// in\n    tag_54:\n        /* \"contracts/FundMe.sol\":1456:1485  uint256 ethPrice = getPrice() */\n      swap1\n      pop\n        /* \"contracts/FundMe.sol\":1519:1535  uint256 ethinUSD */\n      0x00\n        /* \"contracts/FundMe.sol\":1563:1567  1e18 */\n      0x0de0b6b3a7640000\n        /* \"contracts/FundMe.sol\":1551:1559  ethPrice */\n      dup3\n        /* \"contracts/FundMe.sol\":1539:1548  ethAmount */\n      dup6\n        /* \"contracts/FundMe.sol\":1539:1559  ethAmount * ethPrice */\n      tag_55\n      swap2\n      swap1\n      tag_56\n      jump\t// in\n    tag_55:\n        /* \"contracts/FundMe.sol\":1538:1567  (ethAmount * ethPrice) / 1e18 */\n      tag_57\n      swap2\n      swap1\n      tag_58\n      jump\t// in\n    tag_57:\n        /* \"contracts/FundMe.sol\":1519:1567  uint256 ethinUSD = (ethAmount * ethPrice) / 1e18 */\n      swap1\n      pop\n        /* \"contracts/FundMe.sol\":1585:1593  ethinUSD */\n      dup1\n        /* \"contracts/FundMe.sol\":1578:1593  return ethinUSD */\n      swap3\n      pop\n      pop\n      pop\n        /* \"contracts/FundMe.sol\":1291:1603  function conversion(uint256 ethAmount) public view returns(uint256){\r... */\n      swap2\n      swap1\n      pop\n      jump\t// out\n        /* \"#utility.yul\":7:148   */\n    tag_60:\n        /* \"#utility.yul\":63:68   */\n      0x00\n        /* \"#utility.yul\":94:100   */\n      dup2\n        /* \"#utility.yul\":88:101   */\n      mload\n        /* \"#utility.yul\":79:101   */\n      swap1\n      pop\n        /* \"#utility.yul\":110:142   */\n      tag_62\n        /* \"#utility.yul\":136:141   */\n      dup2\n        /* \"#utility.yul\":110:142   */\n      tag_63\n      jump\t// in\n    tag_62:\n        /* \"#utility.yul\":7:148   */\n      swap3\n      swap2\n      pop\n      pop\n      jump\t// out\n        /* \"#utility.yul\":154:293   */\n    tag_64:\n        /* \"#utility.yul\":200:205   */\n      0x00\n        /* \"#utility.yul\":238:244   */\n      dup2\n        /* \"#utility.yul\":225:245   */\n      calldataload\n        /* \"#utility.yul\":216:245   */\n      swap1\n      pop\n        /* \"#utility.yul\":254:287   */\n      tag_66\n        /* \"#utility.yul\":281:286   */\n      dup2\n        /* \"#utility.yul\":254:287   */\n      tag_67\n      jump\t// in\n    tag_66:\n        /* \"#utility.yul\":154:293   */\n      swap3\n      swap2\n      pop\n      pop\n      jump\t// out\n        /* \"#utility.yul\":299:442   */\n    tag_68:\n        /* \"#utility.yul\":356:361   */\n      0x00\n        /* \"#utility.yul\":387:393   */\n      dup2\n        /* \"#utility.yul\":381:394   */\n      mload\n        /* \"#utility.yul\":372:394   */\n      swap1\n      pop\n        /* \"#utility.yul\":403:436   */\n      tag_70\n        /* \"#utility.yul\":430:435   */\n      dup2\n        /* \"#utility.yul\":403:436   */\n      tag_67\n      jump\t// in\n    tag_70:\n        /* \"#utility.yul\":299:442   */\n      swap3\n      swap2\n      pop\n      pop\n      jump\t// out\n        /* \"#utility.yul\":448:589   */\n    tag_71:\n        /* \"#utility.yul\":504:509   */\n      0x00\n        /* \"#utility.yul\":535:541   */\n      dup2\n        /* \"#utility.yul\":529:542   */\n      mload\n        /* \"#utility.yul\":520:542   */\n      swap1\n      pop\n        /* \"#utility.yul\":551:583   */\n      tag_73\n        /* \"#utility.yul\":577:582   */\n      dup2\n        /* \"#utility.yul\":551:583   */\n      tag_74\n      jump\t// in\n    tag_73:\n        /* \"#utility.yul\":448:589   */\n      swap3\n      swap2\n      pop\n      pop\n      jump\t// out\n        /* \"#utility.yul\":595:924   */\n    tag_31:\n        /* \"#utility.yul\":654:660   */\n      0x00\n        /* \"#utility.yul\":703:705   */\n      0x20\n        /* \"#utility.yul\":691:700   */\n      dup3\n        /* \"#utility.yul\":682:689   */\n      dup5\n        /* \"#utility.yul\":678:701   */\n      sub\n        /* \"#utility.yul\":674:706   */\n      slt\n        /* \"#utility.yul\":671:790   */\n      iszero\n      tag_76\n      jumpi\n        /* \"#utility.yul\":709:788   */\n      tag_77\n      tag_78\n      jump\t// in\n    tag_77:\n        /* \"#utility.yul\":671:790   */\n    tag_76:\n        /* \"#utility.yul\":829:830   */\n      0x00\n        /* \"#utility.yul\":854:907   */\n      tag_79\n        /* \"#utility.yul\":899:906   */\n      dup5\n        /* \"#utility.yul\":890:896   */\n      dup3\n        /* \"#utility.yul\":879:888   */\n      dup6\n        /* \"#utility.yul\":875:897   */\n      add\n        /* \"#utility.yul\":854:907   */\n      tag_64\n      jump\t// in\n    tag_79:\n        /* \"#utility.yul\":844:907   */\n      swap2\n      pop\n        /* \"#utility.yul\":800:917   */\n      pop\n        /* \"#utility.yul\":595:924   */\n      swap3\n      swap2\n      pop\n      pop\n      jump\t// out\n        /* \"#utility.yul\":930:1281   */\n    tag_44:\n        /* \"#utility.yul\":1000:1006   */\n      0x00\n        /* \"#utility.yul\":1049:1051   */\n      0x20\n        /* \"#utility.yul\":1037:1046   */\n      dup3\n        /* \"#utility.yul\":1028:1035   */\n      dup5\n        /* \"#utility.yul\":1024:1047   */\n      sub\n        /* \"#utility.yul\":1020:1052   */\n      slt\n        /* \"#utility.yul\":1017:1136   */\n      iszero\n      tag_81\n      jumpi\n        /* \"#utility.yul\":1055:1134   */\n      tag_82\n      tag_78\n      jump\t// in\n    tag_82:\n        /* \"#utility.yul\":1017:1136   */\n    tag_81:\n        /* \"#utility.yul\":1175:1176   */\n      0x00\n        /* \"#utility.yul\":1200:1264   */\n      tag_83\n        /* \"#utility.yul\":1256:1263   */\n      dup5\n        /* \"#utility.yul\":1247:1253   */\n      dup3\n        /* \"#utility.yul\":1236:1245   */\n      dup6\n        /* \"#utility.yul\":1232:1254   */\n      add\n        /* \"#utility.yul\":1200:1264   */\n      tag_68\n      jump\t// in\n    tag_83:\n        /* \"#utility.yul\":1190:1264   */\n      swap2\n      pop\n        /* \"#utility.yul\":1146:1274   */\n      pop\n        /* \"#utility.yul\":930:1281   */\n      swap3\n      swap2\n      pop\n      pop\n      jump\t// out\n        /* \"#utility.yul\":1287:2258   */\n    tag_50:\n        /* \"#utility.yul\":1390:1396   */\n      0x00\n        /* \"#utility.yul\":1398:1404   */\n      dup1\n        /* \"#utility.yul\":1406:1412   */\n      0x00\n        /* \"#utility.yul\":1414:1420   */\n      dup1\n        /* \"#utility.yul\":1422:1428   */\n      0x00\n        /* \"#utility.yul\":1471:1474   */\n      0xa0\n        /* \"#utility.yul\":1459:1468   */\n      dup7\n        /* \"#utility.yul\":1450:1457   */\n      dup9\n        /* \"#utility.yul\":1446:1469   */\n      sub\n        /* \"#utility.yul\":1442:1475   */\n      slt\n        /* \"#utility.yul\":1439:1559   */\n      iszero\n      tag_85\n      jumpi\n        /* \"#utility.yul\":1478:1557   */\n      tag_86\n      tag_78\n      jump\t// in\n    tag_86:\n        /* \"#utility.yul\":1439:1559   */\n    tag_85:\n        /* \"#utility.yul\":1598:1599   */\n      0x00\n        /* \"#utility.yul\":1623:1686   */\n      tag_87\n        /* \"#utility.yul\":1678:1685   */\n      dup9\n        /* \"#utility.yul\":1669:1675   */\n      dup3\n        /* \"#utility.yul\":1658:1667   */\n      dup10\n        /* \"#utility.yul\":1654:1676   */\n      add\n        /* \"#utility.yul\":1623:1686   */\n      tag_71\n      jump\t// in\n    tag_87:\n        /* \"#utility.yul\":1613:1686   */\n      swap6\n      pop\n        /* \"#utility.yul\":1569:1696   */\n      pop\n        /* \"#utility.yul\":1735:1737   */\n      0x20\n        /* \"#utility.yul\":1761:1824   */\n      tag_88\n        /* \"#utility.yul\":1816:1823   */\n      dup9\n        /* \"#utility.yul\":1807:1813   */\n      dup3\n        /* \"#utility.yul\":1796:1805   */\n      dup10\n        /* \"#utility.yul\":1792:1814   */\n      add\n        /* \"#utility.yul\":1761:1824   */\n      tag_60\n      jump\t// in\n    tag_88:\n        /* \"#utility.yul\":1751:1824   */\n      swap5\n      pop\n        /* \"#utility.yul\":1706:1834   */\n      pop\n        /* \"#utility.yul\":1873:1875   */\n      0x40\n        /* \"#utility.yul\":1899:1963   */\n      tag_89\n        /* \"#utility.yul\":1955:1962   */\n      dup9\n        /* \"#utility.yul\":1946:1952   */\n      dup3\n        /* \"#utility.yul\":1935:1944   */\n      dup10\n        /* \"#utility.yul\":1931:1953   */\n      add\n        /* \"#utility.yul\":1899:1963   */\n      tag_68\n      jump\t// in\n    tag_89:\n        /* \"#utility.yul\":1889:1963   */\n      swap4\n      pop\n        /* \"#utility.yul\":1844:1973   */\n      pop\n        /* \"#utility.yul\":2012:2014   */\n      0x60\n        /* \"#utility.yul\":2038:2102   */\n      tag_90\n        /* \"#utility.yul\":2094:2101   */\n      dup9\n        /* \"#utility.yul\":2085:2091   */\n      dup3\n        /* \"#utility.yul\":2074:2083   */\n      dup10\n        /* \"#utility.yul\":2070:2092   */\n      add\n        /* \"#utility.yul\":2038:2102   */\n      tag_68\n      jump\t// in\n    tag_90:\n        /* \"#utility.yul\":2028:2102   */\n      swap3\n      pop\n        /* \"#utility.yul\":1983:2112   */\n      pop\n        /* \"#utility.yul\":2151:2154   */\n      0x80\n        /* \"#utility.yul\":2178:2241   */\n      tag_91\n        /* \"#utility.yul\":2233:2240   */\n      dup9\n        /* \"#utility.yul\":2224:2230   */\n      dup3\n        /* \"#utility.yul\":2213:2222   */\n      dup10\n        /* \"#utility.yul\":2209:2231   */\n      add\n        /* \"#utility.yul\":2178:2241   */\n      tag_71\n      jump\t// in\n    tag_91:\n        /* \"#utility.yul\":2168:2241   */\n      swap2\n      pop\n        /* \"#utility.yul\":2122:2251   */\n      pop\n        /* \"#utility.yul\":1287:2258   */\n      swap3\n      swap6\n      pop\n      swap3\n      swap6\n      swap1\n      swap4\n      pop\n      jump\t// out\n        /* \"#utility.yul\":2264:2406   */\n    tag_92:\n        /* \"#utility.yul\":2367:2399   */\n      tag_94\n        /* \"#utility.yul\":2393:2398   */\n      dup2\n        /* \"#utility.yul\":2367:2399   */\n      tag_95\n      jump\t// in\n    tag_94:\n        /* \"#utility.yul\":2362:2365   */\n      dup3\n        /* \"#utility.yul\":2355:2400   */\n      mstore\n        /* \"#utility.yul\":2264:2406   */\n      pop\n      pop\n      jump\t// out\n        /* \"#utility.yul\":2412:2778   */\n    tag_96:\n        /* \"#utility.yul\":2554:2557   */\n      0x00\n        /* \"#utility.yul\":2575:2642   */\n      tag_98\n        /* \"#utility.yul\":2639:2641   */\n      0x29\n        /* \"#utility.yul\":2634:2637   */\n      dup4\n        /* \"#utility.yul\":2575:2642   */\n      tag_99\n      jump\t// in\n    tag_98:\n        /* \"#utility.yul\":2568:2642   */\n      swap2\n      pop\n        /* \"#utility.yul\":2651:2744   */\n      tag_100\n        /* \"#utility.yul\":2740:2743   */\n      dup3\n        /* \"#utility.yul\":2651:2744   */\n      tag_101\n      jump\t// in\n    tag_100:\n        /* \"#utility.yul\":2769:2771   */\n      0x40\n        /* \"#utility.yul\":2764:2767   */\n      dup3\n        /* \"#utility.yul\":2760:2772   */\n      add\n        /* \"#utility.yul\":2753:2772   */\n      swap1\n      pop\n        /* \"#utility.yul\":2412:2778   */\n      swap2\n      swap1\n      pop\n      jump\t// out\n        /* \"#utility.yul\":2784:2902   */\n    tag_102:\n        /* \"#utility.yul\":2871:2895   */\n      tag_104\n        /* \"#utility.yul\":2889:2894   */\n      dup2\n        /* \"#utility.yul\":2871:2895   */\n      tag_105\n      jump\t// in\n    tag_104:\n        /* \"#utility.yul\":2866:2869   */\n      dup3\n        /* \"#utility.yul\":2859:2896   */\n      mstore\n        /* \"#utility.yul\":2784:2902   */\n      pop\n      pop\n      jump\t// out\n        /* \"#utility.yul\":2908:3162   */\n    tag_23:\n        /* \"#utility.yul\":3017:3021   */\n      0x00\n        /* \"#utility.yul\":3055:3057   */\n      0x20\n        /* \"#utility.yul\":3044:3053   */\n      dup3\n        /* \"#utility.yul\":3040:3058   */\n      add\n        /* \"#utility.yul\":3032:3058   */\n      swap1\n      pop\n        /* \"#utility.yul\":3068:3155   */\n      tag_107\n        /* \"#utility.yul\":3152:3153   */\n      0x00\n        /* \"#utility.yul\":3141:3150   */\n      dup4\n        /* \"#utility.yul\":3137:3154   */\n      add\n        /* \"#utility.yul\":3128:3134   */\n      dup5\n        /* \"#utility.yul\":3068:3155   */\n      tag_92\n      jump\t// in\n    tag_107:\n        /* \"#utility.yul\":2908:3162   */\n      swap3\n      swap2\n      pop\n      pop\n      jump\t// out\n        /* \"#utility.yul\":3168:3587   */\n    tag_38:\n        /* \"#utility.yul\":3334:3338   */\n      0x00\n        /* \"#utility.yul\":3372:3374   */\n      0x20\n        /* \"#utility.yul\":3361:3370   */\n      dup3\n        /* \"#utility.yul\":3357:3375   */\n      add\n        /* \"#utility.yul\":3349:3375   */\n      swap1\n      pop\n        /* \"#utility.yul\":3421:3430   */\n      dup2\n        /* \"#utility.yul\":3415:3419   */\n      dup2\n        /* \"#utility.yul\":3411:3431   */\n      sub\n        /* \"#utility.yul\":3407:3408   */\n      0x00\n        /* \"#utility.yul\":3396:3405   */\n      dup4\n        /* \"#utility.yul\":3392:3409   */\n      add\n        /* \"#utility.yul\":3385:3432   */\n      mstore\n        /* \"#utility.yul\":3449:3580   */\n      tag_109\n        /* \"#utility.yul\":3575:3579   */\n      dup2\n        /* \"#utility.yul\":3449:3580   */\n      tag_96\n      jump\t// in\n    tag_109:\n        /* \"#utility.yul\":3441:3580   */\n      swap1\n      pop\n        /* \"#utility.yul\":3168:3587   */\n      swap2\n      swap1\n      pop\n      jump\t// out\n        /* \"#utility.yul\":3593:3815   */\n    tag_14:\n        /* \"#utility.yul\":3686:3690   */\n      0x00\n        /* \"#utility.yul\":3724:3726   */\n      0x20\n        /* \"#utility.yul\":3713:3722   */\n      dup3\n        /* \"#utility.yul\":3709:3727   */\n      add\n        /* \"#utility.yul\":3701:3727   */\n      swap1\n      pop\n        /* \"#utility.yul\":3737:3808   */\n      tag_111\n        /* \"#utility.yul\":3805:3806   */\n      0x00\n        /* \"#utility.yul\":3794:3803   */\n      dup4\n        /* \"#utility.yul\":3790:3807   */\n      add\n        /* \"#utility.yul\":3781:3787   */\n      dup5\n        /* \"#utility.yul\":3737:3808   */\n      tag_102\n      jump\t// in\n    tag_111:\n        /* \"#utility.yul\":3593:3815   */\n      swap3\n      swap2\n      pop\n      pop\n      jump\t// out\n        /* \"#utility.yul\":3902:4071   */\n    tag_99:\n        /* \"#utility.yul\":3986:3997   */\n      0x00\n        /* \"#utility.yul\":4020:4026   */\n      dup3\n        /* \"#utility.yul\":4015:4018   */\n      dup3\n        /* \"#utility.yul\":4008:4027   */\n      mstore\n        /* \"#utility.yul\":4060:4064   */\n      0x20\n        /* \"#utility.yul\":4055:4058   */\n      dup3\n        /* \"#utility.yul\":4051:4065   */\n      add\n        /* \"#utility.yul\":4036:4065   */\n      swap1\n      pop\n        /* \"#utility.yul\":3902:4071   */\n      swap3\n      swap2\n      pop\n      pop\n      jump\t// out\n        /* \"#utility.yul\":4077:4262   */\n    tag_58:\n        /* \"#utility.yul\":4117:4118   */\n      0x00\n        /* \"#utility.yul\":4134:4154   */\n      tag_116\n        /* \"#utility.yul\":4152:4153   */\n      dup3\n        /* \"#utility.yul\":4134:4154   */\n      tag_105\n      jump\t// in\n    tag_116:\n        /* \"#utility.yul\":4129:4154   */\n      swap2\n      pop\n        /* \"#utility.yul\":4168:4188   */\n      tag_117\n        /* \"#utility.yul\":4186:4187   */\n      dup4\n        /* \"#utility.yul\":4168:4188   */\n      tag_105\n      jump\t// in\n    tag_117:\n        /* \"#utility.yul\":4163:4188   */\n      swap3\n      pop\n        /* \"#utility.yul\":4207:4208   */\n      dup3\n        /* \"#utility.yul\":4197:4232   */\n      tag_118\n      jumpi\n        /* \"#utility.yul\":4212:4230   */\n      tag_119\n      tag_120\n      jump\t// in\n    tag_119:\n        /* \"#utility.yul\":4197:4232   */\n    tag_118:\n        /* \"#utility.yul\":4254:4255   */\n      dup3\n        /* \"#utility.yul\":4251:4252   */\n      dup3\n        /* \"#utility.yul\":4247:4256   */\n      div\n        /* \"#utility.yul\":4242:4256   */\n      swap1\n      pop\n        /* \"#utility.yul\":4077:4262   */\n      swap3\n      swap2\n      pop\n      pop\n      jump\t// out\n        /* \"#utility.yul\":4268:5259   */\n    tag_52:\n        /* \"#utility.yul\":4307:4314   */\n      0x00\n        /* \"#utility.yul\":4330:4349   */\n      tag_122\n        /* \"#utility.yul\":4347:4348   */\n      dup3\n        /* \"#utility.yul\":4330:4349   */\n      tag_123\n      jump\t// in\n    tag_122:\n        /* \"#utility.yul\":4325:4349   */\n      swap2\n      pop\n        /* \"#utility.yul\":4363:4382   */\n      tag_124\n        /* \"#utility.yul\":4380:4381   */\n      dup4\n        /* \"#utility.yul\":4363:4382   */\n      tag_123\n      jump\t// in\n    tag_124:\n        /* \"#utility.yul\":4358:4382   */\n      swap3\n      pop\n        /* \"#utility.yul\":4564:4565   */\n      dup3\n        /* \"#utility.yul\":4496:4562   */\n      0x7fffffffffffffffffffffffffffffffffffffffffffffffffffffffffffffff\n        /* \"#utility.yul\":4492:4566   */\n      div\n        /* \"#utility.yul\":4489:4490   */\n      dup3\n        /* \"#utility.yul\":4486:4567   */\n      gt\n        /* \"#utility.yul\":4481:4482   */\n      0x00\n        /* \"#utility.yul\":4478:4479   */\n      dup5\n        /* \"#utility.yul\":4474:4483   */\n      sgt\n        /* \"#utility.yul\":4470:4471   */\n      0x00\n        /* \"#utility.yul\":4467:4468   */\n      dup5\n        /* \"#utility.yul\":4463:4472   */\n      sgt\n        /* \"#utility.yul\":4459:4484   */\n      and\n        /* \"#utility.yul\":4455:4568   */\n      and\n        /* \"#utility.yul\":4452:4591   */\n      iszero\n      tag_125\n      jumpi\n        /* \"#utility.yul\":4571:4589   */\n      tag_126\n      tag_127\n      jump\t// in\n    tag_126:\n        /* \"#utility.yul\":4452:4591   */\n    tag_125:\n        /* \"#utility.yul\":4775:4776   */\n      dup2\n        /* \"#utility.yul\":4707:4773   */\n      0x8000000000000000000000000000000000000000000000000000000000000000\n        /* \"#utility.yul\":4702:4777   */\n      sdiv\n        /* \"#utility.yul\":4699:4700   */\n      dup4\n        /* \"#utility.yul\":4695:4778   */\n      slt\n        /* \"#utility.yul\":4690:4691   */\n      0x00\n        /* \"#utility.yul\":4687:4688   */\n      dup5\n        /* \"#utility.yul\":4683:4692   */\n      slt\n        /* \"#utility.yul\":4679:4680   */\n      0x00\n        /* \"#utility.yul\":4676:4677   */\n      dup5\n        /* \"#utility.yul\":4672:4681   */\n      sgt\n        /* \"#utility.yul\":4668:4693   */\n      and\n        /* \"#utility.yul\":4664:4779   */\n      and\n        /* \"#utility.yul\":4661:4802   */\n      iszero\n      tag_128\n      jumpi\n        /* \"#utility.yul\":4782:4800   */\n      tag_129\n      tag_127\n      jump\t// in\n    tag_129:\n        /* \"#utility.yul\":4661:4802   */\n    tag_128:\n        /* \"#utility.yul\":4986:4987   */\n      dup3\n        /* \"#utility.yul\":4918:4984   */\n      0x8000000000000000000000000000000000000000000000000000000000000000\n        /* \"#utility.yul\":4913:4988   */\n      sdiv\n        /* \"#utility.yul\":4910:4911   */\n      dup3\n        /* \"#utility.yul\":4906:4989   */\n      slt\n        /* \"#utility.yul\":4901:4902   */\n      0x00\n        /* \"#utility.yul\":4898:4899   */\n      dup5\n        /* \"#utility.yul\":4894:4903   */\n      sgt\n        /* \"#utility.yul\":4890:4891   */\n      0x00\n        /* \"#utility.yul\":4887:4888   */\n      dup5\n        /* \"#utility.yul\":4883:4892   */\n      slt\n        /* \"#utility.yul\":4879:4904   */\n      and\n        /* \"#utility.yul\":4875:4990   */\n      and\n        /* \"#utility.yul\":4872:5013   */\n      iszero\n      tag_130\n      jumpi\n        /* \"#utility.yul\":4993:5011   */\n      tag_131\n      tag_127\n      jump\t// in\n    tag_131:\n        /* \"#utility.yul\":4872:5013   */\n    tag_130:\n        /* \"#utility.yul\":5196:5197   */\n      dup3\n        /* \"#utility.yul\":5128:5194   */\n      0x7fffffffffffffffffffffffffffffffffffffffffffffffffffffffffffffff\n        /* \"#utility.yul\":5123:5198   */\n      sdiv\n        /* \"#utility.yul\":5120:5121   */\n      dup3\n        /* \"#utility.yul\":5116:5199   */\n      slt\n        /* \"#utility.yul\":5111:5112   */\n      0x00\n        /* \"#utility.yul\":5108:5109   */\n      dup5\n        /* \"#utility.yul\":5104:5113   */\n      slt\n        /* \"#utility.yul\":5100:5101   */\n      0x00\n        /* \"#utility.yul\":5097:5098   */\n      dup5\n        /* \"#utility.yul\":5093:5102   */\n      slt\n        /* \"#utility.yul\":5089:5114   */\n      and\n        /* \"#utility.yul\":5085:5200   */\n      and\n        /* \"#utility.yul\":5082:5223   */\n      iszero\n      tag_132\n      jumpi\n        /* \"#utility.yul\":5203:5221   */\n      tag_133\n      tag_127\n      jump\t// in\n    tag_133:\n        /* \"#utility.yul\":5082:5223   */\n    tag_132:\n        /* \"#utility.yul\":5251:5252   */\n      dup3\n        /* \"#utility.yul\":5248:5249   */\n      dup3\n        /* \"#utility.yul\":5244:5253   */\n      mul\n        /* \"#utility.yul\":5233:5253   */\n      swap1\n      pop\n        /* \"#utility.yul\":4268:5259   */\n      swap3\n      swap2\n      pop\n      pop\n      jump\t// out\n        /* \"#utility.yul\":5265:5613   */\n    tag_56:\n        /* \"#utility.yul\":5305:5312   */\n      0x00\n        /* \"#utility.yul\":5328:5348   */\n      tag_135\n        /* \"#utility.yul\":5346:5347   */\n      dup3\n        /* \"#utility.yul\":5328:5348   */\n      tag_105\n      jump\t// in\n    tag_135:\n        /* \"#utility.yul\":5323:5348   */\n      swap2\n      pop\n        /* \"#utility.yul\":5362:5382   */\n      tag_136\n        /* \"#utility.yul\":5380:5381   */\n      dup4\n        /* \"#utility.yul\":5362:5382   */\n      tag_105\n      jump\t// in\n    tag_136:\n        /* \"#utility.yul\":5357:5382   */\n      swap3\n      pop\n        /* \"#utility.yul\":5550:5551   */\n      dup2\n        /* \"#utility.yul\":5482:5548   */\n      0xffffffffffffffffffffffffffffffffffffffffffffffffffffffffffffffff\n        /* \"#utility.yul\":5478:5552   */\n      div\n        /* \"#utility.yul\":5475:5476   */\n      dup4\n        /* \"#utility.yul\":5472:5553   */\n      gt\n        /* \"#utility.yul\":5467:5468   */\n      dup3\n        /* \"#utility.yul\":5460:5469   */\n      iszero\n        /* \"#utility.yul\":5453:5470   */\n      iszero\n        /* \"#utility.yul\":5449:5554   */\n      and\n        /* \"#utility.yul\":5446:5577   */\n      iszero\n      tag_137\n      jumpi\n        /* \"#utility.yul\":5557:5575   */\n      tag_138\n      tag_127\n      jump\t// in\n    tag_138:\n        /* \"#utility.yul\":5446:5577   */\n    tag_137:\n        /* \"#utility.yul\":5605:5606   */\n      dup3\n        /* \"#utility.yul\":5602:5603   */\n      dup3\n        /* \"#utility.yul\":5598:5607   */\n      mul\n        /* \"#utility.yul\":5587:5607   */\n      swap1\n      pop\n        /* \"#utility.yul\":5265:5613   */\n      swap3\n      swap2\n      pop\n      pop\n      jump\t// out\n        /* \"#utility.yul\":5619:5723   */\n    tag_95:\n        /* \"#utility.yul\":5664:5671   */\n      0x00\n        /* \"#utility.yul\":5693:5717   */\n      tag_140\n        /* \"#utility.yul\":5711:5716   */\n      dup3\n        /* \"#utility.yul\":5693:5717   */\n      tag_141\n      jump\t// in\n    tag_140:\n        /* \"#utility.yul\":5682:5717   */\n      swap1\n      pop\n        /* \"#utility.yul\":5619:5723   */\n      swap2\n      swap1\n      pop\n      jump\t// out\n        /* \"#utility.yul\":5729:5805   */\n    tag_123:\n        /* \"#utility.yul\":5765:5772   */\n      0x00\n        /* \"#utility.yul\":5794:5799   */\n      dup2\n        /* \"#utility.yul\":5783:5799   */\n      swap1\n      pop\n        /* \"#utility.yul\":5729:5805   */\n      swap2\n      swap1\n      pop\n      jump\t// out\n        /* \"#utility.yul\":5811:5937   */\n    tag_141:\n        /* \"#utility.yul\":5848:5855   */\n      0x00\n        /* \"#utility.yul\":5888:5930   */\n      0xffffffffffffffffffffffffffffffffffffffff\n        /* \"#utility.yul\":5881:5886   */\n      dup3\n        /* \"#utility.yul\":5877:5931   */\n      and\n        /* \"#utility.yul\":5866:5931   */\n      swap1\n      pop\n        /* \"#utility.yul\":5811:5937   */\n      swap2\n      swap1\n      pop\n      jump\t// out\n        /* \"#utility.yul\":5943:6020   */\n    tag_105:\n        /* \"#utility.yul\":5980:5987   */\n      0x00\n        /* \"#utility.yul\":6009:6014   */\n      dup2\n        /* \"#utility.yul\":5998:6014   */\n      swap1\n      pop\n        /* \"#utility.yul\":5943:6020   */\n      swap2\n      swap1\n      pop\n      jump\t// out\n        /* \"#utility.yul\":6026:6131   */\n    tag_145:\n        /* \"#utility.yul\":6062:6069   */\n      0x00\n        /* \"#utility.yul\":6102:6124   */\n      0xffffffffffffffffffff\n        /* \"#utility.yul\":6095:6100   */\n      dup3\n        /* \"#utility.yul\":6091:6125   */\n      and\n        /* \"#utility.yul\":6080:6125   */\n      swap1\n      pop\n        /* \"#utility.yul\":6026:6131   */\n      swap2\n      swap1\n      pop\n      jump\t// out\n        /* \"#utility.yul\":6137:6317   */\n    tag_127:\n        /* \"#utility.yul\":6185:6262   */\n      0x4e487b7100000000000000000000000000000000000000000000000000000000\n        /* \"#utility.yul\":6182:6183   */\n      0x00\n        /* \"#utility.yul\":6175:6263   */\n      mstore\n        /* \"#utility.yul\":6282:6286   */\n      0x11\n        /* \"#utility.yul\":6279:6280   */\n      0x04\n        /* \"#utility.yul\":6272:6287   */\n      mstore\n        /* \"#utility.yul\":6306:6310   */\n      0x24\n        /* \"#utility.yul\":6303:6304   */\n      0x00\n        /* \"#utility.yul\":6296:6311   */\n      revert\n        /* \"#utility.yul\":6323:6503   */\n    tag_120:\n        /* \"#utility.yul\":6371:6448   */\n      0x4e487b7100000000000000000000000000000000000000000000000000000000\n        /* \"#utility.yul\":6368:6369   */\n      0x00\n        /* \"#utility.yul\":6361:6449   */\n      mstore\n        /* \"#utility.yul\":6468:6472   */\n      0x12\n        /* \"#utility.yul\":6465:6466   */\n      0x04\n        /* \"#utility.yul\":6458:6473   */\n      mstore\n        /* \"#utility.yul\":6492:6496   */\n      0x24\n        /* \"#utility.yul\":6489:6490   */\n      0x00\n        /* \"#utility.yul\":6482:6497   */\n      revert\n        /* \"#utility.yul\":6632:6749   */\n    tag_78:\n        /* \"#utility.yul\":6741:6742   */\n      0x00\n        /* \"#utility.yul\":6738:6739   */\n      dup1\n        /* \"#utility.yul\":6731:6743   */\n      revert\n        /* \"#utility.yul\":6755:6983   */\n    tag_101:\n        /* \"#utility.yul\":6895:6929   */\n      0x546865206d696e696d756d20616d6f756e74206f662066756e6420776f756c64\n        /* \"#utility.yul\":6891:6892   */\n      0x00\n        /* \"#utility.yul\":6883:6889   */\n      dup3\n        /* \"#utility.yul\":6879:6893   */\n      add\n        /* \"#utility.yul\":6872:6930   */\n      mstore\n        /* \"#utility.yul\":6964:6975   */\n      0x2062652031206574680000000000000000000000000000000000000000000000\n        /* \"#utility.yul\":6959:6961   */\n      0x20\n        /* \"#utility.yul\":6951:6957   */\n      dup3\n        /* \"#utility.yul\":6947:6962   */\n      add\n        /* \"#utility.yul\":6940:6976   */\n      mstore\n        /* \"#utility.yul\":6755:6983   */\n      pop\n      jump\t// out\n        /* \"#utility.yul\":6989:7109   */\n    tag_63:\n        /* \"#utility.yul\":7061:7084   */\n      tag_154\n        /* \"#utility.yul\":7078:7083   */\n      dup2\n        /* \"#utility.yul\":7061:7084   */\n      tag_123\n      jump\t// in\n    tag_154:\n        /* \"#utility.yul\":7054:7059   */\n      dup2\n        /* \"#utility.yul\":7051:7085   */\n      eq\n        /* \"#utility.yul\":7041:7103   */\n      tag_155\n      jumpi\n        /* \"#utility.yul\":7099:7100   */\n      0x00\n        /* \"#utility.yul\":7096:7097   */\n      dup1\n        /* \"#utility.yul\":7089:7101   */\n      revert\n        /* \"#utility.yul\":7041:7103   */\n    tag_155:\n        /* \"#utility.yul\":6989:7109   */\n      pop\n      jump\t// out\n        /* \"#utility.yul\":7115:7237   */\n    tag_67:\n        /* \"#utility.yul\":7188:7212   */\n      tag_157\n        /* \"#utility.yul\":7206:7211   */\n      dup2\n        /* \"#utility.yul\":7188:7212   */\n      tag_105\n      jump\t// in\n    tag_157:\n        /* \"#utility.yul\":7181:7186   */\n      dup2\n        /* \"#utility.yul\":7178:7213   */\n      eq\n        /* \"#utility.yul\":7168:7231   */\n      tag_158\n      jumpi\n        /* \"#utility.yul\":7227:7228   */\n      0x00\n        /* \"#utility.yul\":7224:7225   */\n      dup1\n        /* \"#utility.yul\":7217:7229   */\n      revert\n        /* \"#utility.yul\":7168:7231   */\n    tag_158:\n        /* \"#utility.yul\":7115:7237   */\n      pop\n      jump\t// out\n        /* \"#utility.yul\":7243:7363   */\n    tag_74:\n        /* \"#utility.yul\":7315:7338   */\n      tag_160\n        /* \"#utility.yul\":7332:7337   */\n      dup2\n        /* \"#utility.yul\":7315:7338   */\n      tag_145\n      jump\t// in\n    tag_160:\n        /* \"#utility.yul\":7308:7313   */\n      dup2\n        /* \"#utility.yul\":7305:7339   */\n      eq\n        /* \"#utility.yul\":7295:7357   */\n      tag_161\n      jumpi\n        /* \"#utility.yul\":7353:7354   */\n      0x00\n        /* \"#utility.yul\":7350:7351   */\n      dup1\n        /* \"#utility.yul\":7343:7355   */\n      revert\n        /* \"#utility.yul\":7295:7357   */\n    tag_161:\n        /* \"#utility.yul\":7243:7363   */\n      pop\n      jump\t// out\n\n    auxdata: 0xa2646970667358221220eb95fdcf9aeb53149b51d1f807c7381ac618b9d6b82966497504a6bd3a12893664736f6c63430008070033\n}\n",
				"bytecode": {
					"linkReferences": {},
					"object": "6080604052603260005534801561001557600080fd5b50739326bfa02add2366b30bacb125260af641031331600260006101000a81548173ffffffffffffffffffffffffffffffffffffffff021916908373ffffffffffffffffffffffffffffffffffffffff1602179055506108648061007a6000396000f3fe6080604052600436106100545760003560e01c80625c33e114610059578063098de820146100635780630d8e6e2c1461008e5780638da5cb5b146100b957806398d5fdca146100e4578063ba4d0c991461010f575b600080fd5b61006161014c565b005b34801561006f57600080fd5b5061007861019b565b604051610085919061050d565b60405180910390f35b34801561009a57600080fd5b506100a36101a1565b6040516100b0919061050d565b60405180910390f35b3480156100c557600080fd5b506100ce610248565b6040516100db91906104d2565b60405180910390f35b3480156100f057600080fd5b506100f961026e565b604051610106919061050d565b60405180910390f35b34801561011b57600080fd5b50610136600480360381019061013191906103bc565b61032e565b604051610143919061050d565b60405180910390f35b6000546101583461032e565b1015610199576040517f08c379a0000000000000000000000000000000000000000000000000000000008152600401610190906104ed565b60405180910390fd5b565b60005481565b6000600260009054906101000a900473ffffffffffffffffffffffffffffffffffffffff1673ffffffffffffffffffffffffffffffffffffffff166354fd4d506040518163ffffffff1660e01b815260040160206040518083038186803b15801561020b57600080fd5b505afa15801561021f573d6000803e3d6000fd5b505050506040513d601f19601f8201168201806040525081019061024391906103e9565b905090565b600160009054906101000a900473ffffffffffffffffffffffffffffffffffffffff1681565b600080600260009054906101000a900473ffffffffffffffffffffffffffffffffffffffff1673ffffffffffffffffffffffffffffffffffffffff1663feaf968c6040518163ffffffff1660e01b815260040160a06040518083038186803b1580156102d957600080fd5b505afa1580156102ed573d6000803e3d6000fd5b505050506040513d601f19601f820116820180604052508101906103119190610416565b5050509150506402540be40081610328919061056a565b91505090565b60008061033961026e565b90506000670de0b6b3a764000082856103529190610681565b61035c9190610539565b90508092505050919050565b600081519050610377816107e9565b92915050565b60008135905061038c81610800565b92915050565b6000815190506103a181610800565b92915050565b6000815190506103b681610817565b92915050565b6000602082840312156103d2576103d1610795565b5b60006103e08482850161037d565b91505092915050565b6000602082840312156103ff576103fe610795565b5b600061040d84828501610392565b91505092915050565b600080600080600060a0868803121561043257610431610795565b5b6000610440888289016103a7565b955050602061045188828901610368565b945050604061046288828901610392565b935050606061047388828901610392565b9250506080610484888289016103a7565b9150509295509295909350565b61049a816106db565b82525050565b60006104ad602983610528565b91506104b88261079a565b604082019050919050565b6104cc81610717565b82525050565b60006020820190506104e76000830184610491565b92915050565b60006020820190508181036000830152610506816104a0565b9050919050565b600060208201905061052260008301846104c3565b92915050565b600082825260208201905092915050565b600061054482610717565b915061054f83610717565b92508261055f5761055e610766565b5b828204905092915050565b6000610575826106ed565b9150610580836106ed565b9250827f7fffffffffffffffffffffffffffffffffffffffffffffffffffffffffffffff04821160008413600084131616156105bf576105be610737565b5b817f800000000000000000000000000000000000000000000000000000000000000005831260008412600084131616156105fc576105fb610737565b5b827f8000000000000000000000000000000000000000000000000000000000000000058212600084136000841216161561063957610638610737565b5b827f7fffffffffffffffffffffffffffffffffffffffffffffffffffffffffffffff058212600084126000841216161561067657610675610737565b5b828202905092915050565b600061068c82610717565b915061069783610717565b9250817fffffffffffffffffffffffffffffffffffffffffffffffffffffffffffffffff04831182151516156106d0576106cf610737565b5b828202905092915050565b60006106e6826106f7565b9050919050565b6000819050919050565b600073ffffffffffffffffffffffffffffffffffffffff82169050919050565b6000819050919050565b600069ffffffffffffffffffff82169050919050565b7f4e487b7100000000000000000000000000000000000000000000000000000000600052601160045260246000fd5b7f4e487b7100000000000000000000000000000000000000000000000000000000600052601260045260246000fd5b600080fd5b7f546865206d696e696d756d20616d6f756e74206f662066756e6420776f756c6460008201527f2062652031206574680000000000000000000000000000000000000000000000602082015250565b6107f2816106ed565b81146107fd57600080fd5b50565b61080981610717565b811461081457600080fd5b50565b61082081610721565b811461082b57600080fd5b5056fea2646970667358221220eb95fdcf9aeb53149b51d1f807c7381ac618b9d6b82966497504a6bd3a12893664736f6c63430008070033",
					"opcodes": "PUSH1 0x80 PUSH1 0x40 MSTORE PUSH1 0x32 PUSH1 0x0 SSTORE CALLVALUE DUP1 ISZERO PUSH2 0x15 JUMPI PUSH1 0x0 DUP1 REVERT JUMPDEST POP PUSH20 0x9326BFA02ADD2366B30BACB125260AF641031331 PUSH1 0x2 PUSH1 0x0 PUSH2 0x100 EXP DUP2 SLOAD DUP2 PUSH20 0xFFFFFFFFFFFFFFFFFFFFFFFFFFFFFFFFFFFFFFFF MUL NOT AND SWAP1 DUP4 PUSH20 0xFFFFFFFFFFFFFFFFFFFFFFFFFFFFFFFFFFFFFFFF AND MUL OR SWAP1 SSTORE POP PUSH2 0x864 DUP1 PUSH2 0x7A PUSH1 0x0 CODECOPY PUSH1 0x0 RETURN INVALID PUSH1 0x80 PUSH1 0x40 MSTORE PUSH1 0x4 CALLDATASIZE LT PUSH2 0x54 JUMPI PUSH1 0x0 CALLDATALOAD PUSH1 0xE0 SHR DUP1 PUSH3 0x5C33E1 EQ PUSH2 0x59 JUMPI DUP1 PUSH4 0x98DE820 EQ PUSH2 0x63 JUMPI DUP1 PUSH4 0xD8E6E2C EQ PUSH2 0x8E JUMPI DUP1 PUSH4 0x8DA5CB5B EQ PUSH2 0xB9 JUMPI DUP1 PUSH4 0x98D5FDCA EQ PUSH2 0xE4 JUMPI DUP1 PUSH4 0xBA4D0C99 EQ PUSH2 0x10F JUMPI JUMPDEST PUSH1 0x0 DUP1 REVERT JUMPDEST PUSH2 0x61 PUSH2 0x14C JUMP JUMPDEST STOP JUMPDEST CALLVALUE DUP1 ISZERO PUSH2 0x6F JUMPI PUSH1 0x0 DUP1 REVERT JUMPDEST POP PUSH2 0x78 PUSH2 0x19B JUMP JUMPDEST PUSH1 0x40 MLOAD PUSH2 0x85 SWAP2 SWAP1 PUSH2 0x50D JUMP JUMPDEST PUSH1 0x40 MLOAD DUP1 SWAP2 SUB SWAP1 RETURN JUMPDEST CALLVALUE DUP1 ISZERO PUSH2 0x9A JUMPI PUSH1 0x0 DUP1 REVERT JUMPDEST POP PUSH2 0xA3 PUSH2 0x1A1 JUMP JUMPDEST PUSH1 0x40 MLOAD PUSH2 0xB0 SWAP2 SWAP1 PUSH2 0x50D JUMP JUMPDEST PUSH1 0x40 MLOAD DUP1 SWAP2 SUB SWAP1 RETURN JUMPDEST CALLVALUE DUP1 ISZERO PUSH2 0xC5 JUMPI PUSH1 0x0 DUP1 REVERT JUMPDEST POP PUSH2 0xCE PUSH2 0x248 JUMP JUMPDEST PUSH1 0x40 MLOAD PUSH2 0xDB SWAP2 SWAP1 PUSH2 0x4D2 JUMP JUMPDEST PUSH1 0x40 MLOAD DUP1 SWAP2 SUB SWAP1 RETURN JUMPDEST CALLVALUE DUP1 ISZERO PUSH2 0xF0 JUMPI PUSH1 0x0 DUP1 REVERT JUMPDEST POP PUSH2 0xF9 PUSH2 0x26E JUMP JUMPDEST PUSH1 0x40 MLOAD PUSH2 0x106 SWAP2 SWAP1 PUSH2 0x50D JUMP JUMPDEST PUSH1 0x40 MLOAD DUP1 SWAP2 SUB SWAP1 RETURN JUMPDEST CALLVALUE DUP1 ISZERO PUSH2 0x11B JUMPI PUSH1 0x0 DUP1 REVERT JUMPDEST POP PUSH2 0x136 PUSH1 0x4 DUP1 CALLDATASIZE SUB DUP2 ADD SWAP1 PUSH2 0x131 SWAP2 SWAP1 PUSH2 0x3BC JUMP JUMPDEST PUSH2 0x32E JUMP JUMPDEST PUSH1 0x40 MLOAD PUSH2 0x143 SWAP2 SWAP1 PUSH2 0x50D JUMP JUMPDEST PUSH1 0x40 MLOAD DUP1 SWAP2 SUB SWAP1 RETURN JUMPDEST PUSH1 0x0 SLOAD PUSH2 0x158 CALLVALUE PUSH2 0x32E JUMP JUMPDEST LT ISZERO PUSH2 0x199 JUMPI PUSH1 0x40 MLOAD PUSH32 0x8C379A000000000000000000000000000000000000000000000000000000000 DUP2 MSTORE PUSH1 0x4 ADD PUSH2 0x190 SWAP1 PUSH2 0x4ED JUMP JUMPDEST PUSH1 0x40 MLOAD DUP1 SWAP2 SUB SWAP1 REVERT JUMPDEST JUMP JUMPDEST PUSH1 0x0 SLOAD DUP2 JUMP JUMPDEST PUSH1 0x0 PUSH1 0x2 PUSH1 0x0 SWAP1 SLOAD SWAP1 PUSH2 0x100 EXP SWAP1 DIV PUSH20 0xFFFFFFFFFFFFFFFFFFFFFFFFFFFFFFFFFFFFFFFF AND PUSH20 0xFFFFFFFFFFFFFFFFFFFFFFFFFFFFFFFFFFFFFFFF AND PUSH4 0x54FD4D50 PUSH1 0x40 MLOAD DUP2 PUSH4 0xFFFFFFFF AND PUSH1 0xE0 SHL DUP2 MSTORE PUSH1 0x4 ADD PUSH1 0x20 PUSH1 0x40 MLOAD DUP1 DUP4 SUB DUP2 DUP7 DUP1 EXTCODESIZE ISZERO DUP1 ISZERO PUSH2 0x20B JUMPI PUSH1 0x0 DUP1 REVERT JUMPDEST POP GAS STATICCALL ISZERO DUP1 ISZERO PUSH2 0x21F JUMPI RETURNDATASIZE PUSH1 0x0 DUP1 RETURNDATACOPY RETURNDATASIZE PUSH1 0x0 REVERT JUMPDEST POP POP POP POP PUSH1 0x40 MLOAD RETURNDATASIZE PUSH1 0x1F NOT PUSH1 0x1F DUP3 ADD AND DUP3 ADD DUP1 PUSH1 0x40 MSTORE POP DUP2 ADD SWAP1 PUSH2 0x243 SWAP2 SWAP1 PUSH2 0x3E9 JUMP JUMPDEST SWAP1 POP SWAP1 JUMP JUMPDEST PUSH1 0x1 PUSH1 0x0 SWAP1 SLOAD SWAP1 PUSH2 0x100 EXP SWAP1 DIV PUSH20 0xFFFFFFFFFFFFFFFFFFFFFFFFFFFFFFFFFFFFFFFF AND DUP2 JUMP JUMPDEST PUSH1 0x0 DUP1 PUSH1 0x2 PUSH1 0x0 SWAP1 SLOAD SWAP1 PUSH2 0x100 EXP SWAP1 DIV PUSH20 0xFFFFFFFFFFFFFFFFFFFFFFFFFFFFFFFFFFFFFFFF AND PUSH20 0xFFFFFFFFFFFFFFFFFFFFFFFFFFFFFFFFFFFFFFFF AND PUSH4 0xFEAF968C PUSH1 0x40 MLOAD DUP2 PUSH4 0xFFFFFFFF AND PUSH1 0xE0 SHL DUP2 MSTORE PUSH1 0x4 ADD PUSH1 0xA0 PUSH1 0x40 MLOAD DUP1 DUP4 SUB DUP2 DUP7 DUP1 EXTCODESIZE ISZERO DUP1 ISZERO PUSH2 0x2D9 JUMPI PUSH1 0x0 DUP1 REVERT JUMPDEST POP GAS STATICCALL ISZERO DUP1 ISZERO PUSH2 0x2ED JUMPI RETURNDATASIZE PUSH1 0x0 DUP1 RETURNDATACOPY RETURNDATASIZE PUSH1 0x0 REVERT JUMPDEST POP POP POP POP PUSH1 0x40 MLOAD RETURNDATASIZE PUSH1 0x1F NOT PUSH1 0x1F DUP3 ADD AND DUP3 ADD DUP1 PUSH1 0x40 MSTORE POP DUP2 ADD SWAP1 PUSH2 0x311 SWAP2 SWAP1 PUSH2 0x416 JUMP JUMPDEST POP POP POP SWAP2 POP POP PUSH5 0x2540BE400 DUP2 PUSH2 0x328 SWAP2 SWAP1 PUSH2 0x56A JUMP JUMPDEST SWAP2 POP POP SWAP1 JUMP JUMPDEST PUSH1 0x0 DUP1 PUSH2 0x339 PUSH2 0x26E JUMP JUMPDEST SWAP1 POP PUSH1 0x0 PUSH8 0xDE0B6B3A7640000 DUP3 DUP6 PUSH2 0x352 SWAP2 SWAP1 PUSH2 0x681 JUMP JUMPDEST PUSH2 0x35C SWAP2 SWAP1 PUSH2 0x539 JUMP JUMPDEST SWAP1 POP DUP1 SWAP3 POP POP POP SWAP2 SWAP1 POP JUMP JUMPDEST PUSH1 0x0 DUP2 MLOAD SWAP1 POP PUSH2 0x377 DUP2 PUSH2 0x7E9 JUMP JUMPDEST SWAP3 SWAP2 POP POP JUMP JUMPDEST PUSH1 0x0 DUP2 CALLDATALOAD SWAP1 POP PUSH2 0x38C DUP2 PUSH2 0x800 JUMP JUMPDEST SWAP3 SWAP2 POP POP JUMP JUMPDEST PUSH1 0x0 DUP2 MLOAD SWAP1 POP PUSH2 0x3A1 DUP2 PUSH2 0x800 JUMP JUMPDEST SWAP3 SWAP2 POP POP JUMP JUMPDEST PUSH1 0x0 DUP2 MLOAD SWAP1 POP PUSH2 0x3B6 DUP2 PUSH2 0x817 JUMP JUMPDEST SWAP3 SWAP2 POP POP JUMP JUMPDEST PUSH1 0x0 PUSH1 0x20 DUP3 DUP5 SUB SLT ISZERO PUSH2 0x3D2 JUMPI PUSH2 0x3D1 PUSH2 0x795 JUMP JUMPDEST JUMPDEST PUSH1 0x0 PUSH2 0x3E0 DUP5 DUP3 DUP6 ADD PUSH2 0x37D JUMP JUMPDEST SWAP2 POP POP SWAP3 SWAP2 POP POP JUMP JUMPDEST PUSH1 0x0 PUSH1 0x20 DUP3 DUP5 SUB SLT ISZERO PUSH2 0x3FF JUMPI PUSH2 0x3FE PUSH2 0x795 JUMP JUMPDEST JUMPDEST PUSH1 0x0 PUSH2 0x40D DUP5 DUP3 DUP6 ADD PUSH2 0x392 JUMP JUMPDEST SWAP2 POP POP SWAP3 SWAP2 POP POP JUMP JUMPDEST PUSH1 0x0 DUP1 PUSH1 0x0 DUP1 PUSH1 0x0 PUSH1 0xA0 DUP7 DUP9 SUB SLT ISZERO PUSH2 0x432 JUMPI PUSH2 0x431 PUSH2 0x795 JUMP JUMPDEST JUMPDEST PUSH1 0x0 PUSH2 0x440 DUP9 DUP3 DUP10 ADD PUSH2 0x3A7 JUMP JUMPDEST SWAP6 POP POP PUSH1 0x20 PUSH2 0x451 DUP9 DUP3 DUP10 ADD PUSH2 0x368 JUMP JUMPDEST SWAP5 POP POP PUSH1 0x40 PUSH2 0x462 DUP9 DUP3 DUP10 ADD PUSH2 0x392 JUMP JUMPDEST SWAP4 POP POP PUSH1 0x60 PUSH2 0x473 DUP9 DUP3 DUP10 ADD PUSH2 0x392 JUMP JUMPDEST SWAP3 POP POP PUSH1 0x80 PUSH2 0x484 DUP9 DUP3 DUP10 ADD PUSH2 0x3A7 JUMP JUMPDEST SWAP2 POP POP SWAP3 SWAP6 POP SWAP3 SWAP6 SWAP1 SWAP4 POP JUMP JUMPDEST PUSH2 0x49A DUP2 PUSH2 0x6DB JUMP JUMPDEST DUP3 MSTORE POP POP JUMP JUMPDEST PUSH1 0x0 PUSH2 0x4AD PUSH1 0x29 DUP4 PUSH2 0x528 JUMP JUMPDEST SWAP2 POP PUSH2 0x4B8 DUP3 PUSH2 0x79A JUMP JUMPDEST PUSH1 0x40 DUP3 ADD SWAP1 POP SWAP2 SWAP1 POP JUMP JUMPDEST PUSH2 0x4CC DUP2 PUSH2 0x717 JUMP JUMPDEST DUP3 MSTORE POP POP JUMP JUMPDEST PUSH1 0x0 PUSH1 0x20 DUP3 ADD SWAP1 POP PUSH2 0x4E7 PUSH1 0x0 DUP4 ADD DUP5 PUSH2 0x491 JUMP JUMPDEST SWAP3 SWAP2 POP POP JUMP JUMPDEST PUSH1 0x0 PUSH1 0x20 DUP3 ADD SWAP1 POP DUP2 DUP2 SUB PUSH1 0x0 DUP4 ADD MSTORE PUSH2 0x506 DUP2 PUSH2 0x4A0 JUMP JUMPDEST SWAP1 POP SWAP2 SWAP1 POP JUMP JUMPDEST PUSH1 0x0 PUSH1 0x20 DUP3 ADD SWAP1 POP PUSH2 0x522 PUSH1 0x0 DUP4 ADD DUP5 PUSH2 0x4C3 JUMP JUMPDEST SWAP3 SWAP2 POP POP JUMP JUMPDEST PUSH1 0x0 DUP3 DUP3 MSTORE PUSH1 0x20 DUP3 ADD SWAP1 POP SWAP3 SWAP2 POP POP JUMP JUMPDEST PUSH1 0x0 PUSH2 0x544 DUP3 PUSH2 0x717 JUMP JUMPDEST SWAP2 POP PUSH2 0x54F DUP4 PUSH2 0x717 JUMP JUMPDEST SWAP3 POP DUP3 PUSH2 0x55F JUMPI PUSH2 0x55E PUSH2 0x766 JUMP JUMPDEST JUMPDEST DUP3 DUP3 DIV SWAP1 POP SWAP3 SWAP2 POP POP JUMP JUMPDEST PUSH1 0x0 PUSH2 0x575 DUP3 PUSH2 0x6ED JUMP JUMPDEST SWAP2 POP PUSH2 0x580 DUP4 PUSH2 0x6ED JUMP JUMPDEST SWAP3 POP DUP3 PUSH32 0x7FFFFFFFFFFFFFFFFFFFFFFFFFFFFFFFFFFFFFFFFFFFFFFFFFFFFFFFFFFFFFFF DIV DUP3 GT PUSH1 0x0 DUP5 SGT PUSH1 0x0 DUP5 SGT AND AND ISZERO PUSH2 0x5BF JUMPI PUSH2 0x5BE PUSH2 0x737 JUMP JUMPDEST JUMPDEST DUP2 PUSH32 0x8000000000000000000000000000000000000000000000000000000000000000 SDIV DUP4 SLT PUSH1 0x0 DUP5 SLT PUSH1 0x0 DUP5 SGT AND AND ISZERO PUSH2 0x5FC JUMPI PUSH2 0x5FB PUSH2 0x737 JUMP JUMPDEST JUMPDEST DUP3 PUSH32 0x8000000000000000000000000000000000000000000000000000000000000000 SDIV DUP3 SLT PUSH1 0x0 DUP5 SGT PUSH1 0x0 DUP5 SLT AND AND ISZERO PUSH2 0x639 JUMPI PUSH2 0x638 PUSH2 0x737 JUMP JUMPDEST JUMPDEST DUP3 PUSH32 0x7FFFFFFFFFFFFFFFFFFFFFFFFFFFFFFFFFFFFFFFFFFFFFFFFFFFFFFFFFFFFFFF SDIV DUP3 SLT PUSH1 0x0 DUP5 SLT PUSH1 0x0 DUP5 SLT AND AND ISZERO PUSH2 0x676 JUMPI PUSH2 0x675 PUSH2 0x737 JUMP JUMPDEST JUMPDEST DUP3 DUP3 MUL SWAP1 POP SWAP3 SWAP2 POP POP JUMP JUMPDEST PUSH1 0x0 PUSH2 0x68C DUP3 PUSH2 0x717 JUMP JUMPDEST SWAP2 POP PUSH2 0x697 DUP4 PUSH2 0x717 JUMP JUMPDEST SWAP3 POP DUP2 PUSH32 0xFFFFFFFFFFFFFFFFFFFFFFFFFFFFFFFFFFFFFFFFFFFFFFFFFFFFFFFFFFFFFFFF DIV DUP4 GT DUP3 ISZERO ISZERO AND ISZERO PUSH2 0x6D0 JUMPI PUSH2 0x6CF PUSH2 0x737 JUMP JUMPDEST JUMPDEST DUP3 DUP3 MUL SWAP1 POP SWAP3 SWAP2 POP POP JUMP JUMPDEST PUSH1 0x0 PUSH2 0x6E6 DUP3 PUSH2 0x6F7 JUMP JUMPDEST SWAP1 POP SWAP2 SWAP1 POP JUMP JUMPDEST PUSH1 0x0 DUP2 SWAP1 POP SWAP2 SWAP1 POP JUMP JUMPDEST PUSH1 0x0 PUSH20 0xFFFFFFFFFFFFFFFFFFFFFFFFFFFFFFFFFFFFFFFF DUP3 AND SWAP1 POP SWAP2 SWAP1 POP JUMP JUMPDEST PUSH1 0x0 DUP2 SWAP1 POP SWAP2 SWAP1 POP JUMP JUMPDEST PUSH1 0x0 PUSH10 0xFFFFFFFFFFFFFFFFFFFF DUP3 AND SWAP1 POP SWAP2 SWAP1 POP JUMP JUMPDEST PUSH32 0x4E487B7100000000000000000000000000000000000000000000000000000000 PUSH1 0x0 MSTORE PUSH1 0x11 PUSH1 0x4 MSTORE PUSH1 0x24 PUSH1 0x0 REVERT JUMPDEST PUSH32 0x4E487B7100000000000000000000000000000000000000000000000000000000 PUSH1 0x0 MSTORE PUSH1 0x12 PUSH1 0x4 MSTORE PUSH1 0x24 PUSH1 0x0 REVERT JUMPDEST PUSH1 0x0 DUP1 REVERT JUMPDEST PUSH32 0x546865206D696E696D756D20616D6F756E74206F662066756E6420776F756C64 PUSH1 0x0 DUP3 ADD MSTORE PUSH32 0x2062652031206574680000000000000000000000000000000000000000000000 PUSH1 0x20 DUP3 ADD MSTORE POP JUMP JUMPDEST PUSH2 0x7F2 DUP2 PUSH2 0x6ED JUMP JUMPDEST DUP2 EQ PUSH2 0x7FD JUMPI PUSH1 0x0 DUP1 REVERT JUMPDEST POP JUMP JUMPDEST PUSH2 0x809 DUP2 PUSH2 0x717 JUMP JUMPDEST DUP2 EQ PUSH2 0x814 JUMPI PUSH1 0x0 DUP1 REVERT JUMPDEST POP JUMP JUMPDEST PUSH2 0x820 DUP2 PUSH2 0x721 JUMP JUMPDEST DUP2 EQ PUSH2 0x82B JUMPI PUSH1 0x0 DUP1 REVERT JUMPDEST POP JUMP INVALID LOG2 PUSH5 0x6970667358 0x22 SLT KECCAK256 0xEB SWAP6 REVERT 0xCF SWAP11 0xEB MSTORE8 EQ SWAP12 MLOAD 0xD1 0xF8 SMOD 0xC7 CODESIZE BYTE 0xC6 XOR 0xB9 0xD6 0xB8 0x29 PUSH7 0x497504A6BD3A12 DUP10 CALLDATASIZE PUSH5 0x736F6C6343 STOP ADDMOD SMOD STOP CALLER "
				},
				"gasEstimates": {
					"creation": {
						"codeDepositCost": "429600",
						"executionCost": "46841",
						"totalCost": "476441"
					},
					"external": {
						"conversion(uint256)": "infinite",
						"getPrice()": "infinite",
						"getVersion()": "infinite",
						"minimumUsd()": "2429",
						"owner()": "2558",
						"receiveFunds()": "infinite"
					},
					"internal": {
						"withdraw(uint256)": "infinite"
					}
				},
				"methodIdentifiers": {
					"conversion(uint256)": "ba4d0c99",
					"getPrice()": "98d5fdca",
					"getVersion()": "0d8e6e2c",
					"minimumUsd()": "098de820",
					"owner()": "8da5cb5b",
					"receiveFunds()": "005c33e1"
				}
			},
			"storageLayout": {
				"storage": [
					{
						"astId": 51,
						"contract": "contracts/FundMe.sol:FundMe",
						"label": "minimumUsd",
						"offset": 0,
						"slot": "0",
						"type": "t_uint256"
					},
					{
						"astId": 53,
						"contract": "contracts/FundMe.sol:FundMe",
						"label": "owner",
						"offset": 0,
						"slot": "1",
						"type": "t_address_payable"
					},
					{
						"astId": 56,
						"contract": "contracts/FundMe.sol:FundMe",
						"label": "priceFeed",
						"offset": 0,
						"slot": "2",
						"type": "t_contract(AggregatorV3Interface)45"
					}
				],
				"types": {
					"t_address_payable": {
						"encoding": "inplace",
						"label": "address payable",
						"numberOfBytes": "20"
					},
					"t_contract(AggregatorV3Interface)45": {
						"encoding": "inplace",
						"label": "contract AggregatorV3Interface",
						"numberOfBytes": "20"
					},
					"t_uint256": {
						"encoding": "inplace",
						"label": "uint256",
						"numberOfBytes": "32"
					}
				}
			},
			"userdoc": {
				"kind": "user",
				"methods": {},
				"version": 1
			}
		}
	}
}